:020000040800F2
:1000000010AA0020396B000815110008171100080C
:100010001B1100081F110008231100080000000038
:100020000000000000000000000000002711000890
:1000300029110008000000002B1100082D110008F4
:10004000536B0008536B0008536B0008536B000898
:10005000536B0008536B0008536B0008536B000888
:10006000536B0008536B0008536B0008536B000878
:10007000536B0008536B0008536B0008536B000868
:10008000536B0008536B0008536B0008536B000858
:10009000536B0008536B0008536B0008536B000848
:1000A000536B0008536B0008536B0008536B000838
:1000B00071130008536B0008C1170008536B000848
:1000C000536B0008536B0008536B0008536B000818
:1000D000536B0008696100087F620008DF63000855
:1000E000536B0008536B0008536B0008536B0008F8
:1000F000536B0008536B0008536B0008536B0008E8
:10010000536B0008536B0008536B0008536B0008D7
:10011000116500081D660008536B0008536B00084A
:10012000536B0008536B0008536B0008536B0008B7
:10013000DFF80CD008F00EFE00480047130E000850
:1001400010AA002010B500BFF14808F043F950286C
:10015000FAD11422EFA1F0A005F04CFE1422EDA17B
:10016000F1A005F047FE10BD10B54FF40041F9486D
:1001700006F055FEF849C8734FF48041F54806F083
:100180004EFEF54988734FF40051F24806F047FEE1
:10019000F14948734FF48051EE4806F040FEEE49B5
:1001A00008734FF40061EB4806F039FEEA49C87263
:1001B0004FF48061E74806F032FEE74988724FF459
:1001C0000071E44806F02BFEE34948724FF4807159
:1001D000E04806F024FEE04908724FF40041DF4891
:1001E00006F01DFEDC49C8714FF48041DB4806F083
:1001F00016FED94988714FF40051D84806F00FFE19
:10020000D54948714FF48051D44806F008FED249D0
:1002100008714FF40041D24806F001FECE49C87083
:100220004FF48041CE4806F0FAFDCB4988704FF478
:100230000051CB4806F0F3FDC74948704FF4805198
:10024000C74806F0ECFDC44908700846007A497AB0
:100250000844C149897A0844BF49C97A0844BE495B
:10026000097B0844BC49497B0844BB49897B084455
:10027000BC490870B8484078B74989780844B649FD
:10028000C9780844B44909790844B349497908440C
:10029000B14989790844B049C9790844B24908701C
:1002A00010BD10B5044601F07EFCFFF75DFF46204F
:1002B00005F0B2F910BD0146A1F13002172A2DD286
:1002C000DFE802F00C0E10121416181A1C1E2C2C4B
:1002D0002C2C2C2C2C20222426282A0000201DE047
:1002E00001201BE0022019E0032017E0042015E0A4
:1002F000052013E0062011E007200FE008200DE0A4
:1003000009200BE00A2009E00B2007E00C2005E0A3
:100310000D2003E00E2001E00F2000BF00BF70475A
:100320002DE9FF41074600240D2500200390009091
:1003300038B2029070E2BDF90C10491C04FB0511A3
:100340008A4A505CFFF7B7FF642100FB01F8BDF952
:100350000C10891C04FB0511844A505CFFF7ABFFAD
:1003600000EB800008EB4008BDF90C10C91C04FB31
:1003700005117E4A505CFFF79EFF4044C6B2BDF9AE
:100380000C10C91D04FB0511784A505CFFF793FF60
:100390004FF47A7100FB01F8BDF90C10083104FB31
:1003A0000511724A505CFFF786FF00EBC00101EBBC
:1003B000001008EB8008BDF90C10093104FB051191
:1003C0006A4A505CFFF777FF00EB800008EB4008BB
:1003D000BDF90C100A3104FB0511644A505CFFF7AB
:1003E0006AFF404400B20090BDF90C000B3004FBE2
:1003F000050000B20190BDF80C00BDF800100844E3
:1004000000B20390601CC4B2152E1CD2DFE806F0C7
:100410000B1C3044586CCADEFFFDFCFBFAF9F8F700
:10042000F6F5F4F3F200BDF8040051490880BDF878
:10043000000050490880BDF808104F4800880D3072
:10044000081A00B20290E6E1BDF804004B490880AA
:10045000BDF8000048490880BDF8081046480088EB
:100460000D30081A00B20290012045490870D2E10F
:10047000BDF8040043490880BDF8000042490880E7
:10048000BDF80810404800880D30081A00B20290EC
:1004900002203B490870BEE1BDF804003B490880DA
:1004A000BDF800003A490880BDF8081038480088B7
:1004B0000D30081A00B20290032031490870AAE1F9
:1004C000BDF8040033490880BDF8000032490880B7
:1004D000BDF80810304800880D30081A00B20290AC
:1004E00004202749087096E1BDF804002B490880D4
:1004F000BDF800002A490880BDF808102848008887
:100500000D30081A00B2029005201D49087082E1E2
:10051000004C00404F4B000041542B4349504D4F7D
:1005200044453D310D0A000041542B43495053547A
:100530004152543D22544350222C223139322E3123
:1005400036382E352E313037222C383031350D0AE1
:1005500000000000001401402C020020000C0140AB
:10056000001801406E0000206F0000206C77002012
:1005700000000020020000200800002006000020EB
:10058000BC0000200A0000200C0000200E0000200B
:10059000100000201200002014000020160000208F
:1005A00018000020BDF80400FE490880BDF80000D6
:1005B000FD490880BDF80810FB4800880D30081A76
:1005C00000B202900620F949087024E1BDF8040049
:1005D000F7490880BDF80000F6490880BDF808100A
:1005E000F44800880D30081A00B202900720EF4945
:1005F000087010E1FBE0E6E0D1E0BCE0A7E092E0AB
:100600007DE068E053E03EE029E014E0FFE7BDF85C
:100610000400E9490880BDF80000E8490880BDF8F9
:100620000810E64800880D30081A00B20290082031
:10063000DE490870EFE0BDF80400E1490880BDF82C
:100640000000E0490880BDF80810DE4800880D3041
:10065000081A00B202900920D4490870DBE0BDF806
:100660000400D9490880BDF80000D8490880BDF8C9
:100670000810D64800880A30081A00B202900A20F2
:10068000CA490870C7E0BDF80400D1490880BDF828
:100690000000D0490880BDF80810CE4800880A3014
:1006A000081A00B202900B20C0490870B3E0BDF8F0
:1006B0000400C9490880BDF80000C8490880BDF899
:1006C0000810C64800880A30081A00B202900C20B0
:1006D000B64908709FE0BDF80400C1490880BDF824
:1006E0000000C0490880BDF80810BE4800880A30E4
:1006F000081A00B202900D20AC4908708BE0BDF8DA
:100700000400B9490880BDF80000B8490880BDF868
:100710000810B64800880A30081A00B202900E206D
:10072000A249087077E0BDF80400B1490880BDF81F
:100730000000B0490880BDF80810AE4800880A30B3
:10074000081A00B202900F209849087063E0BDF8C3
:100750000400A9490880BDF80000A8490880BDF838
:100760000810A64800880A30081A00B2029010202B
:100770008E4908704FE0BDF80400A1490880BDF81B
:100780000000A0490880BDF808109E4800880A3083
:10079000081A00B202901120844908703BE0BDF8AD
:1007A000040099490880BDF8000098490880BDF808
:1007B0000810964800880A30081A00B202901220E9
:1007C0007A49087027E0BDF8040091490880BDF817
:1007D000000090490880BDF808108E4800880A3053
:1007E000081A00B2029013207049087013E0BDF897
:1007F000040089490880BDF8000088490880BDF8D8
:100800000810864800880A30081A00B202901420A6
:100810006649087000BF00BFBDF908000C283FF70B
:100820008AADBDE8FF812DE9F04F04460025A846BA
:1008300000BFA078FFF73FFD642100FB01FBE078DB
:10084000FFF739FD00EB80000BEB400B2079FFF741
:1008500032FD584400F0FF0ABAF1000F54D10120D4
:100860006F490870207AFFF726FD4FF47A7100FB7C
:1008700001FB607AFFF71FFD00EBC00101EB0010E8
:100880000BEB800BA07AFFF716FD00EB80000BEB63
:10089000400BE07AFFF70FFD584462490880084694
:1008A0000088401C86B209E05F4905F10C00085C35
:1008B0005E494855681C85B2701E86B2002EF3DC76
:1008C000002500BF574800880D30205C2C281AD125
:1008D0000BE005F10E005349098808445249085CB1
:1008E00053494855681C85B22F464E4800880E3043
:1008F0002844205C7D28ECD100253846FFF710FD08
:1009000001204C490870D5E0207AFFF7D4FC4FF461
:100910007A7100FB01FB607AFFF7CDFC00EBC001B0
:1009200001EB00100BEB800BA07AFFF7C4FC00EB8F
:1009300080000BEB400BE07AFFF7BDFC584487B218
:100940000025AAE0681C205C2C282AD1E91C605CE8
:10095000FFF7B1FC642100FB01FB291D605CFFF780
:10096000AAFC00EB80000BEB400B691D605CFFF7FD
:10097000A2FC584400F0FF09B9F1000F70D101202A
:1009800027490870607AFFF796FC4FF47A7100FBF4
:1009900001FBA07AFFF78FFC00EBC00101EB001018
:1009A0004AE072E01A0000201C000020BC00002079
:1009B0001E00002020000020220000202400002033
:1009C00026000020280000202A0000202C00002003
:1009D0002E000020300000203200002034000020D3
:1009E00036000020380000203A0000203C000020A3
:1009F0003E00002040000020420000204400002073
:100A000046000020480000204A0000204C00002042
:100A10004E00002050000020520000205400002012
:100A20008C000020040000203C0200205C500020CC
:100A30006C770020920000200BEB800BE07AFFF730
:100A40003AFC00EB80000BEB400B207BFFF733FC04
:100A50005844FE49088008460088401C86B20FE0D2
:100A600012E0FB4905F10D00085CFA4901F80800A5
:100A7000681C85B208F101001FFA80F8701E86B26A
:100A8000002EEEDC4FF000080CE0F149681C085C19
:100A9000F1494855681C85B22F46681C205C7D28AA
:100AA0007FF450AF00BF00253846FFF739FC012026
:100AB000EA490870BDE8F08F704770470BE0E848DE
:100AC0000078012807D1E7480088401CE5490880E4
:100AD0000020E3490870E44800780028EFD0704710
:100AE00010B504F071FEE149088008460088E0492D
:100AF0000988884230D0DD48008848B1B0F5807F51
:100B000012D0B0F5007F0BD0B0F5806F10D103E0AC
:100B10000020D84908700BE00120D649087007E092
:100B20000220D449087003E00320D249087000BFB6
:100B300000BFD0480078D0490978884208D0CD4815
:100B40000178CEA005F09AFACA480078CA49087020
:100B5000C6480088C649088010BD10B504F0F4FDF1
:100B6000CE49088008460088CD49098888423AD095
:100B7000CA480088B0F5007F14D004DC50B1B0F54D
:100B8000807F1BD10AE0B0F5806F0FD0B0F5006F09
:100B900014D10FE00020C349087010E00120C149C2
:100BA00008700CE00120BF49087008E00220BD4930
:100BB000087004E00220BB49087000E000BF00BFDD
:100BC000B8480078B8490978884208D0B548017813
:100BD000AAA005F053FAB3480078B3490870AF48AB
:100BE0000088AF49088010BD70B5B04800780A2170
:100BF00090FBF1F0C4B2AD48007890FBF1F201FB3C
:100C00001200C5B2AA480078A8490978884216D0CF
:100C1000A64800780A2190FBF1F0A6490870A34885
:100C200000780A2190FBF1F201FB1200A249087042
:100C30009E4800789E4908700120A0490870A0488D
:100C40000078A0490978884206D09E4800789C49DF
:100C5000087001209949087098480078012809D146
:100C6000002096490870974803782A46214696A0A6
:100C700005F004FA70BD10B5FFF776FA01209A4925
:100C800008609A49C1F8940100209749091D08603D
:100C90000120974908600020091F0860012094493D
:100CA00014390860142093490880934908809348B8
:100CB00000789349097808449249097808448F4993
:100CC000C97B0844102802D101208F4908708B4845
:100CD00080798A49C97908448849097A08440128F1
:100CE00014DC89480078012810D10020864908705A
:100CF00086480078012803D100208549087005E066
:100D00008248007810B906208149087010BD70B57E
:100D10000546002402207F49087078480078784909
:100D2000097808447749097808447449C97B08441C
:100D30007949087071480078714909780844714907
:100D4000097808446D49C97B084410283BD1734891
:100D5000007848B972480078012805D11E207149F1
:100D600008800020704908806C480078012808D16C
:100D70006B48007828B900206A4908801E206A491B
:100D800008806648007808B9012000E00020644926
:100D9000097809B9012100E00021084028B10020AC
:100DA000604908801E20604908806048B0F9000052
:100DB000504908805E48B0F900004F490880002083
:100DC0005C49088018E0012049491039086000207A
:100DD0004649C1F8A001012045491439086042493B
:100DE00008600020091D0860414908603C20524904
:100DF000088020B204F010FC70BD10B54F48007898
:100E0000012805D1114802880021124801F0E7F8B5
:100E100010BD00BF05F03EF84FF4A06005F09EFE47
:100E20004FF4E13005F053F94FF4E13005F0D9F912
:100E30004FF4E13005F060FA4FF4E13005F018FBB3
:100E40004FF4165005F09EFB7AE0000004000020ED
:100E50003C0200205C5000206C77002092000020B3
:100E600091000020DA0000208E000020C200002047
:100E7000C4000020C8000020CA0000207B22636F4D
:100E80006E74656E74223A22303030303025643012
:100E90003030303030303030227D0000BE00002055
:100EA000C0000020C9000020CB000020610000200D
:100EB000A4000020CC000020CD000020DC00002099
:100EC000A6000020640000207B22636F6E74656EB4
:100ED00074223A2230302564256425643030303065
:100EE0003030303030227D008001234200802142AA
:100EF000A4812142FA000020F80000202C020020EA
:100F00006E0000206F000020900000208F00002065
:100F10009900002097000020CE000020B2010020A0
:100F2000B301002056010020540100205C01002084
:100F30005A0100205E010020580100208C00002092
:100F400000F0B0FC00F0BFFC00F037FD00F0D2FC78
:100F500040F2CF21632000F0DBF9132140F2CF20D3
:100F600000F039FB41F61F414FF6FF7000F0A3FB84
:100F70000121084606F089F90121880706F00CFED8
:100F80000120534908604FF43471524807F09EF82D
:100F90004FF434714F4807F097F800204E49C1F8DC
:100FA00094014B490C39086004F0C8FB1D2004F083
:100FB000E9FB642004F0ABFF1D2004F0F4FB642087
:100FC00004F0A5FF2820454908807FE044480078C8
:100FD000012805D14348FFF726FC0020404908704E
:100FE00041480078012801D1FFF707FF3F4800780A
:100FF00001280ED100203D490870FFF7F5FD3C485F
:1010000000783C490978884203D13948007804F0D7
:1010100000F839480078072856D2DFE800F00412BB
:10102000202E3C4A4D003548B0F900003449088074
:101030003448B0F900003449088000203349087072
:1010400043E02E48B0F900002D4908802D48B0F942
:1010500000002D49088000202C49087035E0274801
:10106000B0F90000264908802648B0F9000026495A
:10107000088000202549087027E02048B0F90000CA
:101080001F4908801F48B0F900001F490880002050
:101090001E49087019E01948B0F900001849088085
:1010A0001848B0F900001849088000201749087056
:1010B0000BE0FFF7E0FD08E015480078002802DCAF
:1010C00001201249087000E000BF00BF7EE7000069
:1010D0008C01234200040040008021426600002071
:1010E000E80100203C0200208C000020EA010020E2
:1010F00061000020BC000020990000205C0100205D
:10110000FA0000205A010020F8000020CF00002043
:1011100050010020704700BFFEE700BFFEE700BFA0
:10112000FEE700BFFEE7704770477047704700005A
:101130000CB50020019000906C48006840F48030AD
:101140006A49086000BF6948006800F400300090F8
:101150000198401C0190009818B90198B0F5A06F53
:10116000F1D16248006800F4003010B10120009015
:1011700001E0002000900098012843D15C480068FD
:1011800040F010005A4908600846006820F003004B
:1011900008600846006840F0020008605348406854
:1011A000524948600846406848600846406840F434
:1011B000806048600846406820F47C10486008461B
:1011C000406840F4E81048600846006840F08070CD
:1011D000086000BF4548006800F000700028F9D0A2
:1011E0004248406820F00300404948600846406893
:1011F00040F00200486000BF3C48406800F00C002E
:101200000828F9D10CBD10B5FFF792FF10BD10B53D
:101210003648006840F001003449086008464068DC
:10122000344908403149486008460068324908405E
:101230002E4908600846006820F4802008600846AF
:10124000406820F4FE0048604FF41F008860FFF7FC
:10125000DAFF4FF000602949086010BD10B5002189
:1012600000200022214B5B6803F00C0121B104290E
:1012700006D0082928D107E0214B224C236027E023
:101280001F4B204C236023E0184B5B6803F4701065
:10129000164B5B6803F48032022303EB904022B9C3
:1012A000194B4343174C23600DE0104B5B6803F46C
:1012B000003323B1144B4343124C236003E0104B23
:1012C0004343104C236003E00D4B0E4C236000BFE2
:1012D00000BF064B5B68C3F303130C4CE15C094B86
:1012E0001B68CB40074C236010BD0000001002407B
:1012F000002002400000FFF8FFFFF6FE08ED00E0CE
:1013000000127A00E000002000093D00E400002007
:101310007FB504460D460121084605F0B6FFADF83D
:101320000840681E80B2ADF804000020ADF80A0045
:10133000ADF8060001A94FF0804006F0D1F8002179
:101340004FF0804006F028FC1C208DF800000220A1
:101350008DF801008DF8020001208DF80300684629
:1013600005F001FC01224121880706F030FC7FBD19
:1013700010B50121880706F0D8FE00287ED0FA4873
:101380000068401CF8490860F8480088401CF7498C
:101390000880F7480088401CF5490880F548007827
:1013A000401CF4490870F248008814282BDB002008
:1013B000EF4908804FF40061EF4805F030FD012847
:1013C00011D1EE480078401CEC490870EC480088C8
:1013D000401CEB490880E94800781E2813DD1E20D8
:1013E000E64908700FE0E5480078002805DDE3488D
:1013F0000078401EE149087002E00020DF490870D3
:101400000020DF490880DB4800780A287EDB0020C6
:10141000D8490870DB48B0F90000DB49B1F9001089
:10142000884218DDD748B0F90000D749B1F900105B
:10143000401A142806DAD4480088401C00B2D24969
:10144000088030E0D0480088D0490978084400B2CC
:10145000CD49088027E0CB48B0F90000CA49B1F96E
:10146000001088421ADAC848B0F90000C549B1F93D
:101470000010401A142808DAC34800E087E000880A
:10148000401E00B2C04908800DE0BF480088BF4937
:101490000978401A00B2BC49088004E0B948B0F9A4
:1014A0000000B9490880BA48B0F90000B949B1F95B
:1014B0000010884218DDB648B0F90000B549B1F90E
:1014C0000010401A142806DAB2480088401C00B206
:1014D000B049088030E0AF480088AC49097808443A
:1014E00000B2AC49088027E0A948B0F90000A9493A
:1014F000B1F9001088421ADAA648B0F90000A449F0
:10150000B1F90010401A142808DA00E037E0A148C9
:101510000088401E00B29F4908800DE09D48008869
:101520009A490978401A00B29A49088004E098481C
:10153000B0F90000974908809748B0F90000974932
:10154000B1F90010884206DD94480088401C00B2C2
:101550009249088013E09048B0F900008F49B1F932
:101560000010884206DA8D480088401E00B28B4980
:10157000088004E08848B0F900008849088001210B
:10158000880706F0CFFD0121880706F0DFFD7748C8
:101590000088322804DDFFF7E0FA00207349088054
:1015A000714800680A2815D300206F4908607C48FC
:1015B0000078012802D1462004F0CEFA7948B0F92B
:1015C0000010002003F030FE7748B0F90010012031
:1015D00003F02AFE10BD30B589B004460D467348AD
:1015E00005F0AAFE0121022005F04FFE01210C208A
:1015F00005F03EFEC020ADF8200018208DF8230035
:1016000003208DF8220008A9694805F075FB032026
:10161000ADF8200018208DF8230003208DF822005B
:1016200008A9644805F068FBADF81840ADF81450FF
:101630000020ADF81A00ADF8160005A95B4805F0CA
:101640004FFF7020ADF804000120ADF80600002027
:10165000ADF80C00204604EBD071C1F34F01ADF89A
:101660000A1001A9514805F078FF01A94F4805F07B
:10167000B6FF01A94D4805F0FFFF01A94B4806F050
:1016800046F80821494806F0B7FB0821474806F00C
:10169000BCFB0821454806F0C5FB0821434806F07D
:1016A000CAFB0121414806F077FA01213F4806F0C4
:1016B0007FFA09B030BD30B585B005460C46012132
:1016C000042005F0E2FD0121082005F0D1FDC02035
:1016D000ADF8100028208DF8130004A9354805F056
:1016E0000BFBC021334805F0B6FBADF80850ADF850
:1016F00004400020ADF80A00ADF8060001A92E480C
:1017000005F0EEFE00202D490880488001208880E9
:101710000020C8800881284806F075F90420274970
:10172000088000204880012088800020C88008812F
:10173000214806F068F91E208DF8000000208DF881
:1017400001008DF8020001208DF80300684605F0C5
:101750000AFA01220621184806F039FA0121164832
:1017600006F01AFA05B030BD740000204C010020CC
:101770004E010020600100200018014050010020AF
:1017800062010020560100205C0100202801002099
:10179000540100205A010020580100205E01002061
:1017A000CF000020F8000020FA00002000040040D4
:1017B00000080140000C014000080040CC9E0020C1
:1017C00010B50221304806F0B0FC40B102212E488D
:1017D00006F0BCFC2D480068401C2C490860042120
:1017E000294806F0A2FC40B10421274806F0AEFCCF
:1017F00027480068401C2649086010BD00280CDD01
:101800000122244B1A600022234BC3F8A02101229D
:10181000204B1B1F1A60088012E000280DDA0122FD
:101820001C4B1A6000221C4BC3F8A021194B1B1F34
:101830001A60424210B2088002E00022154B1A6082
:10184000704700280BDD0122144B1A600022144B54
:10185000C3F884210F4B10331A60088013E000286E
:101860000EDA01220D4B1A6000220D4BC3F88421C1
:101870000122084B10331A60424210B2088002E085
:101880000022064B1A60704700080040200100202B
:1018900024010020948121420080214280012342C2
:1018A0000000234208B50121402005F0E1FC4FF47F
:1018B0000060ADF8000028208DF80300694652480A
:1018C00005F01AFA08BD08B50121402005F0D0FC4A
:1018D0000C20ADF8000010208DF8030003208DF8D7
:1018E00002006946484805F007FA0C21464805F011
:1018F000B0FA08BD08B50121482005F0B9FC4FF445
:101900004E70ADF800000121404805F0C6FA1020E5
:101910008DF8030003208DF8020069463C4805F06D
:10192000EBF94FF44E713A4805F093FA0320ADF805
:10193000000010208DF8030003208DF80200694696
:10194000314805F0D9F903212F4805F082FA08BD86
:1019500008B50121202005F08BFCF020ADF8000037
:1019600001212A4805F099FA10208DF80300032080
:101970008DF802006946274805F0BEF9F021254898
:1019800005F067FA08BD08B50121142005F070FCC8
:101990001020ADF8000048208DF8030069461E486D
:1019A00005F0AAF93020ADF8000048208DF80300BA
:1019B00069461A4805F0A0F908BD08B5012168205C
:1019C00005F056FC4FF47040ADF8000048208DF84B
:1019D000030069460E4805F08FF94FF47F40ADF8DB
:1019E000000048208DF8030069460A4805F084F994
:1019F0004FF68070ADF8000048208DF8030069466E
:101A0000014805F079F908BD0018014000023000D6
:101A1000000C01400014014000080140001001408A
:101A2000F8B504460D461646322C02D0332C2CD184
:101A300015E032462946F4A004F0F7FA00201E23F0
:101A4000022201210090F74804F0BBFE1022F54964
:101A5000F54804F0A5FF0020F449087015E032466F
:101A60002946F3A004F0E1FA00201E2303220121FD
:101A70000090EC4804F0A5FE1022EA49EA4804F080
:101A80008FFF0020E949087000BF00BFEF480078D1
:101A9000401EEE490870F8BD70B504460D46164666
:101AA000312C02D0342C0CD105E032462946E8A076
:101AB00004F0BBFA06E032462946ECA004F0B5FA81
:101AC00000E000BF00BFE1480078401EDF49087019
:101AD00070BD70B504460D461646312C02D0342C2C
:101AE00012D108E032462946E7A004F09EFA002011
:101AF000CE49087009E032462946EAA004F095FA7A
:101B00000020CA49087000E000BF00BFCF4800783D
:101B1000401ECE49087070BD70B504460D4616468D
:101B2000312C02D0342C12D108E032462946E4A0F0
:101B300004F07BFA0020BD49087009E032462946CE
:101B4000E6A004F072FA0020B849087000E000BF77
:101B500000BFBE480078401EBC49087070BD70B51B
:101B600004460D461646322C02D0332C12D108E022
:101B700032462946E0A004F058FA0020AB4908702C
:101B800009E032462946E3A004F04FFA0020A749B5
:101B9000087000E000BF00BFAC480078401EAB49B1
:101BA000087070BD70470020E14908600120E149DC
:101BB000C1F8A4010020DE49091D0860DE49C1F812
:101BC000800170474FF44871DC4A11800121D84AE6
:101BD00011600021D74AC2F8A41170474FF4487130
:101BE000D64A11800021D24A1160D24AC2F8A4110B
:101BF00070474FF44871D14A11800121CC4A1160DD
:101C0000CC4AC2F8A41170470020C9490860C949EC
:101C1000C1F8A401CA490860CA49C1F89C017047CB
:101C200010B1012808D103E00021C74A117003E078
:101C30000121C54A117000BF00BF70472DE9F04176
:101C400006460C4615461F46A4F13000082815D25A
:101C5000DFE800F004152633405364880020BB49B8
:101C600008700120BA4908700020BA490880BA49B2
:101C70000880BA4908700420B949087076E001204C
:101C8000B2490870B748008800B2B2490880B54828
:101C9000008800B2B04908800120B149087065E0B1
:101CA0000220AA4908703C20AB4908800020A949BD
:101CB00008800120AA49087058E00320A349087051
:101CC0000020A54908803C20A24908800120A449A1
:101CD00008704BE004209D490870A24800884042EB
:101CE00000B29D4908809F480088404200B299494F
:101CF000088001209A49087038E00520934908704F
:101D0000E8B2FFF78DFF6FF03B00934908803C205D
:101D10009049088001209249087027E006208B49ED
:101D2000087001208D49087000208F490880032029
:101D30008E4908708E4803F09AFB8E4803688E48DF
:101D400002688E4801688A4803F0A0FB4FF43470A3
:101D50008B4908608B49086000207E4908807E49D5
:101D6000088003E007207949087000BF00BF3748AA
:101D70000078401E35490870BDE8F08110B5044672
:101D8000A4F130000A282ED2DFE800F005090D1179
:101D900015191D2125297CA004F0F5F823E07BA06E
:101DA00004F0F1F81FE07AA004F0EDF81BE079A050
:101DB00004F0E9F817E078A004F0E5F813E077A064
:101DC00004F0E1F80FE076A004F0DDF80BE075A078
:101DD00004F0D9F807E074A004F0D5F803E073A08C
:101DE00004F0D1F800BF00BF18480078401E174922
:101DF000087010BD10B50446302C02D0312C01D132
:101E0000DEE0D5E0E4E000007B22303031363030D7
:101E10003030303132256425643030303030227D2E
:101E200000000000FCA5002058A400209400002021
:101E30007B2230303136303030303031332564253C
:101E4000643030303030227D00000000640100201A
:101E50007B2230303136303030303032312564251D
:101E6000643030303030227D000000007B22303082
:101E70003136303030303032342564256430303003
:101E80003030227D000000007B223030313630308F
:101E90003030303331256425643030303030227DAD
:101EA000000000007B2230303136303030303033AB
:101EB00034256425643030303030227D000000004D
:101EC0007B223030313630303030303431303030C9
:101ED000303030303030227D000000007B22303046
:101EE00031363030303030343430303030303030E3
:101EF0003030227D000000007B223030313630301F
:101F00003030303532256425643030303030227D39
:101F1000000000007B223030313630303030303538
:101F200033256425643030303030227D00000000DD
:101F300090812142008021420000234200020020C3
:101F400094812242008022428F00002099000020CC
:101F5000D00000205401002056010020CF000020B6
:101F600028010020660000205E010020E101002021
:101F7000D89E00208C0100208801002084010020D0
:101F8000AC010020A80100207B307D007B317D006A
:101F90007B327D007B337D007B347D007B357D0093
:101FA0007B367D007B377D007B387D007B397D0073
:101FB0000020FE490860AFF2100003F0E4FF07E0E4
:101FC0000120FA490860AFF23C0003F0DCFF00BFDB
:101FD00000BFF7480078401EF549087010BD2DE994
:101FE000FC5F04460D4617463846F91707EB11719A
:101FF000C1F30711EE4A11700020EE4908701CE190
:10200000EC49097805EB0111605CFEF754F942F2E6
:10201000107100FB01FBE74909786A1C02EB011112
:10202000605CFEF748F900EB4001C1EBC0100BEB20
:10203000C00BE0490978AA1C02EB0111605CFEF7B5
:102040003AF900EBC00101EB00100BEB800BD94912
:102050000978EA1C02EB0111605CFEF72CF900EB39
:1020600080000BEB400BD34909782A1D02EB0111CC
:10207000605CFEF720F958441FFA80F9CD480078DB
:10208000691D01EB0010205C0190CA480078A91D71
:1020900001EB001014F80080C649097805F1080228
:1020A00002EB0111605CFEF706F98346C14909782D
:1020B000EA1D02EB0111605CFEF7FDF800EB800009
:1020C0000BEB4006BB49097805F10B0202EB01114D
:1020D000605CFEF7F0F88346B649097805F109021D
:1020E00002EB0111605CFEF7E6F800EB80000BEB01
:1020F00040000090AF49097805F10B0202EB011195
:10210000605CFEF7D8F842F2107100FB01FBA949B0
:10211000097805F10C0202EB0111605CFEF7CBF8C7
:1021200000EB4001C1EBC0100BEBC00BA1490978DB
:1021300005F10D0202EB0111605CFEF7BCF800EB4B
:10214000C00101EB00100BEB800B9A49097805F1F7
:102150000E0202EB0111605CFEF7ADF800EB8000AF
:102160000BEB400B9349097805F10F0202EB0111CB
:10217000605CFEF7A0F858441FFA80FA01983138E5
:10218000142854D2DFE800F00A10161C2228464A10
:102190004B535353535353534F5051523146404670
:1021A000009AFFF73DFC42E031464046009AFFF7B7
:1021B00073FC3CE031464046009AFFF78AFC36E06B
:1021C00031464046009AFFF7A7FC30E031464046D2
:1021D000009AFFF7C4FC2AE036B95346324641461E
:1021E0004846FFF72BFD14E0022E0CD0042E06D03B
:1021F000052E0CD14FF48C706F49088008E0D22076
:102200006D49088004E028206B49088000E000BF89
:1022100000BF0CE04046FFF7B1FD08E007E0404694
:10222000FFF7E8FD03E002E001E000E000BF00BFCF
:1022300060480078401C5F4908705D4800780028BD
:102240007FF4DEAE5D490870BDE8FC9F2DE9FC5FC0
:1022500004460D4616463046F11706EB1171C1F3E0
:102260000711534A117000205549087011E1544973
:10227000097805EB0111605CFEF71DF842F2107160
:1022800000FB01FB4E4909786A1C02EB0111605CFE
:10229000FEF711F800EB4001C1EBC0100BEBC00BD7
:1022A00047490978AA1C02EB0111605CFEF703F8AC
:1022B00000EBC00101EB00100BEB800B40490978EB
:1022C000EA1C02EB0111605CFDF7F5FF00EB8000FA
:1022D0000BEB400B3A4909782A1D02EB0111605CB7
:1022E000FDF7E9FF58441FFA80F935480078691D69
:1022F00001EB0010205C019031480078A91D01EB32
:102300000010275C2E49097805F1080202EB011143
:10231000605CFDF7D0FF834629490978EA1D02EB8E
:102320000111605CFDF7C7FF00EB80000BEB40087C
:102330002349097805F10B0202EB0111605CFDF7FE
:10234000BAFF83461E49097805F1090202EB011123
:10235000605CFDF7B0FF00EB80000BEB40000090ED
:102360001749097805F10B0202EB0111605CFDF7DA
:10237000A2FF42F2107100FB01FB1149097805F13F
:102380000C0202EB0111605CFDF795FF00EB4001D0
:10239000C1EBC0100BEBC00B0949097805F10D0228
:1023A00002EB0111605CFDF786FF0BE08C0123421C
:1023B000640100206D010020660000208C000020D8
:1023C0006E01002000EBC00101EB00100BEB800B55
:1023D000FE49097805F10E0202EB0111605CFDF780
:1023E0006AFF00EB80000BEB400BF849097805F120
:1023F0000F0202EB0111605CFDF75DFF58441FFA0C
:1024000080FA0198313814283DD2DFE800F00A1034
:10241000161C22282F33343C3C3C3C3C3C3C383995
:102420003A3B41463846009AFFF7FAFA2BE041461C
:102430003846009AFFF730FB25E041463846009ABF
:10244000FFF747FB1FE041463846009AFFF764FB61
:1024500019E041463846009AFFF781FB13E05346E6
:10246000424639464846FFF7E9FB0CE03846FFF79D
:1024700085FC08E007E03846FFF7BCFC03E002E01B
:1024800001E000E000BF00BFD0480078401CCF4909
:102490000870CF48007800287FF4E9AECD49087075
:1024A000BDE8FC9F2DE9FC5F04460D46164630460C
:1024B000F11706EB1171C1F30711C54A1170002025
:1024C000C549087004E1C449097805EB0111605C55
:1024D000FDF7F1FE42F2107100FB01FBBE490978E5
:1024E0006A1C02EB0111605CFDF7E5FE00EB4001A8
:1024F000C1EBC0100BEBC00BB7490978AA1C02EB6B
:102500000111605CFDF7D7FE00EBC00101EB00108C
:102510000BEB800BB0490978EA1C02EB0111605CFF
:10252000FDF7C9FE00EB80000BEB400BAA490978D0
:102530002A1D02EB0111605CFDF7BDFE58441FFA35
:1025400080F9A5480078691D01EB0010205C01901E
:10255000A1480078A91D01EB0010275C9E4909786D
:1025600005F1080202EB0111605CFDF7A4FE834651
:1025700099490978EA1D02EB0111605CFDF79BFEA9
:1025800000EB80000BEB40089349097805F10B0242
:1025900002EB0111605CFDF78EFE83468E490978DF
:1025A00005F1090202EB0111605CFDF784FE00EB0E
:1025B00080000BEB400000908749097805F10B0281
:1025C00002EB0111605CFDF776FE42F2107100FB38
:1025D00001FB8149097805F10C0202EB0111605CF5
:1025E000FDF769FE00EB4001C1EBC0100BEBC00B27
:1025F0007949097805F10D0202EB0111605CFDF7E4
:102600005AFE00EBC00101EB00100BEB800B72498E
:10261000097805F10E0202EB0111605CFDF74BFE3B
:1026200000EB80000BEB400B6B49097805F10F02C2
:1026300002EB0111605CFDF73EFE58441FFA80FA80
:102640000198313814283DD2DFE800F00A10161C3A
:1026500022282F33343C3C3C3C3C3C3C38393A3B10
:1026600041463846009AFFF7DBF92BE041463846F1
:10267000009AFFF711FA25E041463846009AFFF725
:1026800028FA1FE041463846009AFFF745FA19E05C
:1026900041463846009AFFF762FA13E05346424635
:1026A00039464846FFF7CAFA0CE03846FFF766FBA2
:1026B00008E007E03846FFF79DFB03E002E001E099
:1026C00000E000BF00BF44480078401C4249087049
:1026D0003F48007800287FF4F6AE3E490870BDE818
:1026E000FC9F2DE9FC5F04460D46164600203B4941
:1026F00008703046F11706EB1171C1F30711344A27
:1027000011700FE13549097805EB0111605CFDF7A7
:10271000D2FD42F2107100FB01FB304909786A1CBE
:1027200002EB0111605CFDF7C6FD00EB4001C1EB5F
:10273000C0100BEBC00B29490978AA1C02EB011150
:10274000605CFDF7B8FD00EBC00101EB00100BEB86
:10275000800B22490978EA1C02EB0111605CFDF74D
:10276000AAFD00EB80000BEB400B1C4909782A1DE9
:1027700002EB0111605CFDF79EFD58441FFA80F9E1
:1027800016480078691D01EB0010205C0190134889
:102790000078A91D01EB0010275C1049097805F1AC
:1027A000080202EB0111605CFDF785FD83460B49D1
:1027B0000978EA1D02EB0111605CFDF77CFD00EB7E
:1027C00080000BEB40080549097809E06E01002004
:1027D00064010020920000206F01002070010020A1
:1027E00005F10B0202EB0111605CFDF764FD83460D
:1027F000FE49097805F1090202EB0111605CFDF761
:102800005AFD00EB80000BEB40000090F74909787F
:1028100005F10B0202EB0111605CFDF74CFD42F289
:10282000107100FB01FBF149097805F10C0202EB84
:102830000111605CFDF73FFD00EB4001C1EBC010F2
:102840000BEBC00BE949097805F10D0202EB011110
:10285000605CFDF730FD00EBC00101EB00100BEBFD
:10286000800BE249097805F10E0202EB0111605C70
:10287000FDF721FD00EB80000BEB400BDB490978F5
:1028800005F10F0202EB0111605CFDF714FD5844E5
:102890001FFA80FA0198313814283DD2DFE800F0A1
:1028A0000A10161C22282F33343C3C3C3C3C3C3C58
:1028B00038393A3B41463846009AFFF7B1F82BE0E9
:1028C00041463846009AFFF7E7F825E0414638468A
:1028D000009AFFF7FEF81FE041463846009AFFF7DE
:1028E0001BF919E041463846009AFFF738F913E022
:1028F0005346424639464846FFF7A0F90CE03846B1
:10290000FFF73CFA08E007E03846FFF773FA03E008
:1029100002E001E000E000BF00BFB4480078401CC6
:10292000B2490870B248007800287FF4EBAEB14994
:102930000870BDE8FC9F2DE9FC5F04460D46164675
:102940003046F11706EB1171C1F30711A84A117057
:102950000020A949087004E1A749097805EB011195
:10296000605CFDF7A8FC42F2107100FB01FBA2497C
:1029700009786A1C02EB0111605CFDF79CFC00EB1E
:102980004001C1EBC0100BEBC00B9B490978AA1C9E
:1029900002EB0111605CFDF78EFC00EBC00101EB66
:1029A00000100BEB800B94490978EA1C02EB011133
:1029B000605CFDF780FC00EB80000BEB400B8E4968
:1029C00009782A1D02EB0111605CFDF774FC584484
:1029D0001FFA80F988480078691D01EB0010205C1F
:1029E000019085480078A91D01EB0010275C824901
:1029F000097805F1080202EB0111605CFDF75BFC50
:102A000083467D490978EA1D02EB0111605CFDF700
:102A100052FC00EB80000BEB40087749097805F188
:102A20000B0202EB0111605CFDF745FC8346724925
:102A3000097805F1090202EB0111605CFDF73BFC2E
:102A400000EB80000BEB400000906B49097805F12A
:102A50000B0202EB0111605CFDF72DFC42F21071DC
:102A600000FB01FB6449097805F10C0202EB01113E
:102A7000605CFDF720FC00EB4001C1EBC0100BEBEC
:102A8000C00B5D49097805F10D0202EB0111605C94
:102A9000FDF711FC00EBC00101EB00100BEB800B0C
:102AA0005549097805F10E0202EB0111605CFDF752
:102AB00002FC00EB80000BEB400B4F49097805F15D
:102AC0000F0202EB0111605CFDF7F5FB58441FFAA1
:102AD00080FA0198313814283DD2DFE800F00A105E
:102AE000161C22282F33343C3C3C3C3C3C3C3839BF
:102AF0003A3B41463846009AFEF792FF2BE04146AA
:102B00003846009AFEF7C8FF25E041463846009A4D
:102B1000FEF7DFFF1FE041463846009AFEF7FCFF54
:102B200019E041463846009AFFF719F813E053467A
:102B3000424639464846FFF781F80CE03846FFF731
:102B40001DF908E007E03846FFF754F903E002E01A
:102B500001E000E000BF00BF27480078401C264984
:102B600008702348007800287FF4F6AE21490870E9
:102B7000BDE8FC9F2DE9FC5F04460D461646304635
:102B8000F11706EB1171C1F30711194A11700020FA
:102B90001A4908700FE11949097805EB0111605CC9
:102BA000FDF789FB42F2107100FB01FB1349097824
:102BB0006A1C02EB0111605CFDF77DFB00EB40013C
:102BC000C1EBC0100BEBC00B0C490978AA1C02EB3F
:102BD0000111605CFDF76FFB00EBC00101EB001021
:102BE0000BEB800B05490978EA1C09E07001002015
:102BF0006401002092000020710100207201002079
:102C000002EB0111605CFDF756FB00EB80000BEB63
:102C1000400BFD4909782A1D02EB0111605CFDF7AC
:102C20004AFB58441FFA80F9F7480078691D01EB08
:102C30000010205C0190F4480078A91D01EB001001
:102C4000275CF149097805F1080202EB0111605C8B
:102C5000FDF731FB8346EC490978EA1D02EB0111CF
:102C6000605CFDF728FB00EB80000BEB4008E649B9
:102C7000097805F10B0202EB0111605CFDF71BFB0B
:102C80008346E149097805F1090202EB0111605C14
:102C9000FDF711FB00EB80000BEB40000090DA49E0
:102CA000097805F10B0202EB0111605CFDF703FBF3
:102CB00042F2107100FB01FBD349097805F10C02C7
:102CC00002EB0111605CFDF7F6FA00EB4001C1EB8D
:102CD000C0100BEBC00BCC49097805F10D0202EBDB
:102CE0000111605CFDF7E7FA00EBC00101EB001099
:102CF0000BEB800BC449097805F10E0202EB0111C0
:102D0000605CFDF7D8FA00EB80000BEB400BBE498E
:102D1000097805F10F0202EB0111605CFDF7CBFAB7
:102D200058441FFA80FA0198313814283DD2DFE860
:102D300000F00A10161C22282F33343C3C3C3C3C4B
:102D40003C3C38393A3B41463846009AFEF768FE2B
:102D50002BE041463846009AFEF79EFE25E04146AC
:102D60003846009AFEF7B5FE1FE041463846009A05
:102D7000FEF7D2FE19E041463846009AFEF7EFFE14
:102D800013E05346424639464846FEF757FF0CE0EB
:102D90003846FEF7F3FF08E007E03846FFF72AF869
:102DA00003E002E001E000E000BF00BF96480078C9
:102DB000401C954908709548007800287FF4EBAED8
:102DC00093490870BDE8FC9F2DE9FC5F04460D4661
:102DD00016463046F11706EB1171C1F307118B4A05
:102DE000117000208B49087004E18A49097805EBCD
:102DF0000111605CFDF75FFA42F2107100FB01FB0C
:102E0000844909786A1C02EB0111605CFDF753FAF2
:102E100000EB4001C1EBC0100BEBC00B7D49097802
:102E2000AA1C02EB0111605CFDF745FA00EBC00142
:102E300001EB00100BEB800B76490978EA1C02EBE2
:102E40000111605CFDF737FA00EB80000BEB400BE3
:102E5000704909782A1D02EB0111605CFDF72BFA1D
:102E600058441FFA80F96B480078691D01EB001087
:102E7000205C019067480078A91D01EB0010275CD9
:102E80006449097805F1080202EB0111605CFDF765
:102E900012FA83465F490978EA1D02EB0111605C72
:102EA000FDF709FA00EB80000BEB4008594909785F
:102EB00005F10B0202EB0111605CFDF7FCF98346A2
:102EC0005449097805F1090202EB0111605CFDF734
:102ED000F2F900EB80000BEB400000904D490978BF
:102EE00005F10B0202EB0111605CFDF7E4F942F21F
:102EF000107100FB01FB4749097805F10C0202EB58
:102F00000111605CFDF7D7F900EB4001C1EBC01087
:102F10000BEBC00B3F49097805F10D0202EB0111E3
:102F2000605CFDF7C8F900EBC00101EB00100BEB92
:102F3000800B3849097805F10E0202EB0111605C43
:102F4000FDF7B9F900EB80000BEB400B3149097834
:102F500005F10F0202EB0111605CFDF7ACF958447A
:102F60001FFA80FA0198313814283DD2DFE800F0CA
:102F70000A10161C22282F33343C3C3C3C3C3C3C81
:102F800038393A3B41463846009AFEF749FD2BE076
:102F900041463846009AFEF77FFD25E04146384617
:102FA000009AFEF796FD1FE041463846009AFEF76C
:102FB000B3FD19E041463846009AFEF7D0FD13E014
:102FC0005346424639464846FEF738FE0CE038463E
:102FD000FEF7D4FE08E007E03846FEF70BFF03E0FB
:102FE00002E001E000E000BF00BF0A480078401C9A
:102FF000084908700548007800287FF4F6AE0449B7
:103000000870BDE8FC9F00007201002064010020F0
:1030100092000020730100202DE9FC5F04460D465C
:1030200016463046F11706EB1171C1F30711FC4A41
:1030300011700020FB49087004E1FA49097805EB9A
:103040000111605CFDF737F942F2107100FB01FBE2
:10305000F44909786A1C02EB0111605CFDF72BF959
:1030600000EB4001C1EBC0100BEBC00BED49097840
:10307000AA1C02EB0111605CFDF71DF900EBC00119
:1030800001EB00100BEB800BE6490978EA1C02EB20
:103090000111605CFDF70FF900EB80000BEB400BBA
:1030A000E04909782A1D02EB0111605CFDF703F984
:1030B00058441FFA80F9DB480078691D01EB0010C5
:1030C000205C0190D7480078A91D01EB0010275C17
:1030D000D449097805F1080202EB0111605CFDF7A3
:1030E000EAF88346CF490978EA1D02EB0111605CDA
:1030F000FDF7E1F800EB80000BEB4008C9490978C7
:1031000005F10B0202EB0111605CFDF7D4F8834678
:10311000C449097805F1090202EB0111605CFDF771
:10312000CAF800EB80000BEB40000090BD49097825
:1031300005F10B0202EB0111605CFDF7BCF842F2F5
:10314000107100FB01FBB749097805F10C0202EB95
:103150000111605CFDF7AFF800EB4001C1EBC0105E
:103160000BEBC00BAF49097805F10D0202EB011121
:10317000605CFDF7A0F800EBC00101EB00100BEB69
:10318000800BA849097805F10E0202EB0111605C81
:10319000FDF791F800EB80000BEB400BA14909789B
:1031A00005F10F0202EB0111605CFDF784F8584451
:1031B0001FFA80FA0198313814283DD2DFE800F078
:1031C0000A10161C22282F33343C3C3C3C3C3C3C2F
:1031D00038393A3B41463846009AFEF721FC2BE04D
:1031E00041463846009AFEF757FC25E041463846EE
:1031F000009AFEF76EFC1FE041463846009AFEF743
:103200008BFC19E041463846009AFEF7A8FC13E013
:103210005346424639464846FEF710FD0CE0384614
:10322000FEF7ACFD08E007E03846FEF7E3FD03E0FB
:1032300002E001E000E000BF00BF7A480078401CD7
:10324000784908707648007800287FF4F6AE764911
:103250000870BDE8FC9F2DE9FC5F04460D4616464C
:103260003046F11706EB1171C1F307116C4A11706A
:1032700000206E4908700DE16C49097805EB0111D9
:10328000605CFDF718F842F2107100FB01FB674922
:1032900009786A1C02EB0111605CFDF70CF800EB89
:1032A0004001C1EBC0100BEBC00B60490978AA1CB0
:1032B00002EB0111605CFCF7FEFF00EBC00101EBCB
:1032C00000100BEB800B59490978EA1C02EB011145
:1032D000605CFCF7F0FF00EB80000BEB400B534908
:1032E00009782A1D02EB0111605CFCF7E4FF5844E9
:1032F0001FFA80F94D480078691D01EB0010205C31
:1033000001904A480078A91D01EB0010275C47494D
:10331000097805F1080202EB0111605CFCF7CBFFB4
:10332000834642490978EA1D02EB0111605CFCF713
:10333000C2FF00EB80000BEB40083C49097805F127
:103340000B0202EB0111605CFCF7B5FF83463749C5
:10335000097805F1090202EB0111605CFCF7ABFF93
:1033600000EB80000BEB400000903049097805F13C
:103370000B0202EB0111605CFCF79DFF42F2107141
:1033800000FB01FB2949097805F10C0202EB011150
:10339000605CFCF790FF00EB4001C1EBC0100BEB51
:1033A000C00B2249097805F10D0202EB0111605CA6
:1033B000FCF781FF00EBC00101EB00100BEB800B71
:1033C0001A49097805F10E0202EB0111605CFCF765
:1033D00072FF00EB80000BEB400B1449097805F1FC
:1033E0000F0202EB0111605CFCF765FF58441FFA05
:1033F00080FA01983138142846D2DFE800F00A1923
:103400001F252B31383C3D45454545454545414205
:10341000434441463846009AFEF702FB34E0000080
:10342000640100207401002092000020750100203A
:1034300041463846009AFEF72FFB25E041463846C4
:10344000009AFEF746FB1FE041463846009AFEF719
:1034500063FB19E041463846009AFEF780FB13E013
:103460005346424639464846FEF7E8FB0CE03846EC
:10347000FEF784FC08E007E03846FEF7BBFC03E0FB
:1034800002E001E000E000BF00BFFE480078401C01
:10349000FC490870FC48007800287FF4EDAEFB4939
:1034A0000870BDE8FC9F2DE9FC5F04460D461646FA
:1034B0003046F11706EB1171C1F30711F24A117092
:1034C0000020F349087004E1F149097805EB011186
:1034D000605CFCF7F0FE42F2107100FB01FBEC496E
:1034E00009786A1C02EB0111605CFCF7E4FE00EB5A
:1034F0004001C1EBC0100BEBC00BE5490978AA1CD9
:1035000002EB0111605CFCF7D6FE00EBC00101EBA1
:1035100000100BEB800BDE490978EA1C02EB01116D
:10352000605CFCF7C8FE00EB80000BEB400BD84959
:1035300009782A1D02EB0111605CFCF7BCFE5844BF
:103540001FFA80F9D2480078691D01EB0010205C59
:103550000190CF480078A91D01EB0010275CCC49F1
:10356000097805F1080202EB0111605CFCF7A3FE8B
:103570008346C7490978EA1D02EB0111605CFCF73C
:103580009AFE00EB80000BEB4008C149097805F179
:103590000B0202EB0111605CFCF78DFE8346BC4917
:1035A000097805F1090202EB0111605CFCF783FE6A
:1035B00000EB80000BEB40000090B549097805F165
:1035C0000B0202EB0111605CFCF775FE42F2107118
:1035D00000FB01FBAE49097805F10C0202EB011179
:1035E000605CFCF768FE00EB4001C1EBC0100BEB28
:1035F000C00BA749097805F10D0202EB0111605CCF
:10360000FCF759FE00EBC00101EB00100BEB800B47
:103610009F49097805F10E0202EB0111605CFCF78D
:103620004AFE00EB80000BEB400B9949097805F14D
:103630000F0202EB0111605CFCF73DFE58441FFADB
:1036400080FA0198313814283DD2DFE800F00A10E2
:10365000161C22282F33343C3C3C3C3C3C3C383943
:103660003A3B41463846009AFEF7DAF92BE04146EC
:103670003846009AFEF710FA25E041463846009A8F
:10368000FEF727FA1FE041463846009AFEF744FA53
:1036900019E041463846009AFEF761FA13E05346B6
:1036A000424639464846FEF7C9FA0CE03846FEF76E
:1036B00065FB08E007E03846FEF79CFB03E002E00C
:1036C00001E000E000BF00BF71480078401C704975
:1036D00008706D48007800287FF4F6AE6B490870DA
:1036E000BDE8FC9F2DE9FC5F04460D4616463046BA
:1036F000F11706EB1171C1F30711634A1170002035
:10370000644908700FE16349097805EB0111605CB9
:10371000FCF7D1FD42F2107100FB01FB5D49097815
:103720006A1C02EB0111605CFCF7C5FD00EB400177
:10373000C1EBC0100BEBC00B56490978AA1C02EB79
:103740000111605CFCF7B7FD00EBC00101EB00105C
:103750000BEB800B4F490978EA1C02EB0111605C0E
:10376000FCF7A9FD00EB80000BEB400B4949097801
:103770002A1D02EB0111605CFCF79DFD58441FFA05
:1037800080F944480078691D01EB0010205C01902D
:1037900040480078A91D01EB0010275C3D490978DD
:1037A00005F1080202EB0111605CFCF784FD834621
:1037B00038490978EA1D02EB0111605CFCF77BFDDA
:1037C00000EB80000BEB40083249097805F10B0251
:1037D00002EB0111605CFCF76EFD83462D49097810
:1037E00005F1090202EB0111605CFCF764FD00EBDE
:1037F00080000BEB400000902649097805F10B0290
:1038000002EB0111605CFCF756FD42F2107100FB07
:1038100001FB2049097805F10C0202EB0111605C03
:10382000FCF749FD00EB4001C1EBC0100BEBC00BF6
:103830001849097805F10D0202EB0111605CFCF7F3
:103840003AFD00EBC00101EB00100BEB800B1149BE
:10385000097805F10E0202EB0111605CFCF72BFD0B
:1038600000EB80000BEB400B0A49097805F10F02D1
:1038700002EB0111605CFCF71EFD58441FFA80FA50
:10388000019809E0750100206401002092000020E9
:103890007601002077010020313814283DD2DFE87E
:1038A00000F00A10161C22282F33343C3C3C3C3CD0
:1038B0003C3C38393A3B41463846009AFEF7B0F86E
:1038C0002BE041463846009AFEF7E6F825E04146EF
:1038D0003846009AFEF7FDF81FE041463846009A48
:1038E000FEF71AF919E041463846009AFEF737F913
:1038F00013E05346424639464846FEF79FF90CE02E
:103900003846FEF73BFA08E007E03846FEF772FA61
:1039100003E002E001E000E000BF00BFFE480078E5
:10392000401CFD490870FD48007800287FF4EBAE8C
:10393000FB490870BDE8FC9F2DE9FC5F04460D467D
:1039400016463046F11706EB1171C1F30711F34A21
:1039500011700020F349087004E1F249097805EB81
:103960000111605CFCF7A7FC42F2107100FB01FB47
:10397000EC4909786A1C02EB0111605CFCF79BFCC6
:1039800000EB4001C1EBC0100BEBC00BE54909781F
:10399000AA1C02EB0111605CFCF78DFC00EBC0017E
:1039A00001EB00100BEB800BDE490978EA1C02EBFF
:1039B0000111605CFCF77FFC00EB80000BEB400B1F
:1039C000D84909782A1D02EB0111605CFCF773FCF1
:1039D00058441FFA80F9D3480078691D01EB0010A4
:1039E000205C0190CF480078A91D01EB0010275CF6
:1039F000CC49097805F1080202EB0111605CFCF783
:103A00005AFC8346C7490978EA1D02EB0111605C44
:103A1000FCF751FC00EB80000BEB4008C149097832
:103A200005F10B0202EB0111605CFCF744FC8346DC
:103A3000BC49097805F1090202EB0111605CFCF751
:103A40003AFC00EB80000BEB40000090B549097890
:103A500005F10B0202EB0111605CFCF72CFC42F259
:103A6000107100FB01FBAF49097805F10C0202EB74
:103A70000111605CFCF71FFC00EB4001C1EBC010C2
:103A80000BEBC00BA749097805F10D0202EB011100
:103A9000605CFCF710FC00EBC00101EB00100BEBCD
:103AA000800BA049097805F10E0202EB0111605C60
:103AB000FCF701FC00EB80000BEB400B9949097807
:103AC00005F10F0202EB0111605CFCF7F4FB5844B6
:103AD0001FFA80FA0198313814283DD2DFE800F04F
:103AE0000A10161C22282F33343C3C3C3C3C3C3C06
:103AF00038393A3B41463846009AFDF791FF2BE0B2
:103B000041463846009AFDF7C7FF25E04146384652
:103B1000009AFDF7DEFF1FE041463846009AFDF7A8
:103B2000FBFF19E041463846009AFEF718F813E00B
:103B30005346424639464846FEF780F80CE0384680
:103B4000FEF71CF908E007E03846FEF753F903E0FA
:103B500002E001E000E000BF00BF72480078401CB6
:103B6000704908706D48007800287FF4F6AE6C4903
:103B70000870BDE8FC9F2DE9FC5F04460D46164623
:103B80003046F11706EB1171C1F30711634A11704A
:103B90000020654908700FE16349097805EB0111C0
:103BA000605CFCF788FB42F2107100FB01FB5E4990
:103BB00009786A1C02EB0111605CFCF77CFB00EBEE
:103BC0004001C1EBC0100BEBC00B57490978AA1C90
:103BD00002EB0111605CFCF76EFB00EBC00101EB36
:103BE00000100BEB800B50490978EA1C02EB011125
:103BF000605CFCF760FB00EB80000BEB400B4A497C
:103C000009782A1D02EB0111605CFCF754FB584453
:103C10001FFA80F944480078691D01EB0010205C10
:103C2000019041480078A91D01EB0010275C3E4936
:103C3000097805F1080202EB0111605CFCF73BFB1F
:103C4000834639490978EA1D02EB0111605CFCF7F3
:103C500032FB00EB80000BEB40083349097805F19B
:103C60000B0202EB0111605CFCF725FB83462E4939
:103C7000097805F1090202EB0111605CFCF71BFBFE
:103C800000EB80000BEB400000902749097805F11C
:103C90000B0202EB0111605CFCF70DFB42F21071AC
:103CA00000FB01FB2049097805F10C0202EB011130
:103CB000605CFCF700FB00EB4001C1EBC0100BEBBC
:103CC000C00B1949097805F10D0202EB0111605C86
:103CD000FCF7F1FA00EBC00101EB00100BEB800BDD
:103CE0001149097805F10E0202EB0111605CFCF745
:103CF000E2FA00EB80000BEB400B0B49097805F171
:103D00000F0202EB0111605CFCF7D5FA58441FFA70
:103D100080FA0198313809E0770100206401002021
:103D200092000020780100207901002014283DD263
:103D3000DFE800F00A10161C22282F33343C3C3CEC
:103D40003C3C3C3C38393A3B41463846009AFDF70A
:103D500067FE2BE041463846009AFDF79DFE25E0C0
:103D600041463846009AFDF7B4FE1FE0414638460A
:103D7000009AFDF7D1FE19E041463846009AFDF75A
:103D8000EEFE13E05346424639464846FDF756FFDD
:103D90000CE03846FDF7F2FF08E007E03846FEF792
:103DA00029F803E002E001E000E000BF00BFFE48A8
:103DB0000078401CFC490870FC48007800287FF41B
:103DC000EBAEFB490870BDE8FC9F2DE9FC5F0446A3
:103DD0000D4616463046F11706EB1171C1F3071177
:103DE000F24A11700020F349087004E1F1490978A2
:103DF00005EB0111605CFCF75EFA42F2107100FB0A
:103E000001FBEC4909786A1C02EB0111605CFCF7CC
:103E100052FA00EB4001C1EBC0100BEBC00BE549BF
:103E20000978AA1C02EB0111605CFCF744FA00EB74
:103E3000C00101EB00100BEB800BDE490978EA1C96
:103E400002EB0111605CFCF736FA00EB80000BEB33
:103E5000400BD84909782A1D02EB0111605CFCF780
:103E60002AFA58441FFA80F9D2480078691D01EBFC
:103E70000010205C0190CF480078A91D01EB0010D4
:103E8000275CCC49097805F1080202EB0111605C5E
:103E9000FCF711FA8346C7490978EA1D02EB0111C4
:103EA000605CFCF708FA00EB80000BEB4008C149AE
:103EB000097805F10B0202EB0111605CFCF7FBF9DC
:103EC0008346BC49097805F1090202EB0111605CE7
:103ED000FCF7F1F900EB80000BEB40000090B549D6
:103EE000097805F10B0202EB0111605CFCF7E3F9C4
:103EF00042F2107100FB01FBAE49097805F10C029A
:103F000002EB0111605CFCF7D6F900EB4001C1EB5C
:103F1000C0100BEBC00BA749097805F10D0202EBAD
:103F20000111605CFCF7C7F900EBC00101EB001068
:103F30000BEB800B9F49097805F10E0202EB011192
:103F4000605CFCF7B8F900EB80000BEB400B994983
:103F5000097805F10F0202EB0111605CFCF7ABF987
:103F600058441FFA80FA0198313814283DD2DFE80E
:103F700000F00A10161C22282F33343C3C3C3C3CF9
:103F80003C3C38393A3B41463846009AFDF748FDFB
:103F90002BE041463846009AFDF77EFD25E041467C
:103FA0003846009AFDF795FD1FE041463846009AD5
:103FB000FDF7B2FD19E041463846009AFDF7CFFD06
:103FC00013E05346424639464846FDF737FE0CE0BB
:103FD0003846FDF7D3FE08E007E03846FDF70AFF54
:103FE00003E002E001E000E000BF00BF714800789C
:103FF000401C704908706D48007800287FF4F6AEC8
:104000006B490870BDE8FC9F2DE9FC5F04460D4636
:1040100016463046F11706EB1171C1F30711634ADA
:1040200011700020644908700FE16349097805EBBD
:104030000111605CFCF73FF942F2107100FB01FBDB
:104040005D4909786A1C02EB0111605CFCF733F9E9
:1040500000EB4001C1EBC0100BEBC00B56490978D7
:10406000AA1C02EB0111605CFCF725F900EBC00112
:1040700001EB00100BEB800B4F490978EA1C02EBB7
:104080000111605CFCF717F900EB80000BEB400BB3
:10409000494909782A1D02EB0111605CFCF70BF914
:1040A00058441FFA80F944480078691D01EB00105C
:1040B000205C019040480078A91D01EB0010275CAE
:1040C0003D49097805F1080202EB0111605CFCF73B
:1040D000F2F8834638490978EA1D02EB0111605C69
:1040E000FCF7E9F800EB80000BEB40083249097857
:1040F00005F10B0202EB0111605CFCF7DCF8834672
:104100002D49097805F1090202EB0111605CFCF709
:10411000D2F800EB80000BEB4000009026490978B4
:1041200005F10B0202EB0111605CFCF7C4F842F2EE
:10413000107100FB01FB2049097805F10C0202EB2C
:104140000111605CFCF7B7F800EB4001C1EBC01057
:104150000BEBC00B1849097805F10D0202EB0111B8
:10416000605CFCF7A8F800EBC00101EB00100BEB62
:10417000800B1149097805F10E0202EB0111605C18
:10418000FCF799F800EB80000BEB400B0A4909782B
:1041900005F10F0202EB0111605CFCF78CF858444A
:1041A0001FFA80FA019809E07901002064010020DB
:1041B000920000207A0100207B0100203138142871
:1041C0003DD2DFE800F00A10161C22282F33343CC1
:1041D0003C3C3C3C3C3C38393A3B41463846009AF2
:1041E000FDF71EFC2BE041463846009AFDF754FCD3
:1041F00025E041463846009AFDF76BFC1FE041463A
:104200003846009AFDF788FC19E041463846009A86
:10421000FDF7A5FC13E05346424639464846FDF7F4
:104220000DFD0CE03846FDF7A9FD08E007E0384633
:10423000FDF7E0FD03E002E001E000E000BF00BFA9
:10424000FE480078401CFD490870FD4800780028B1
:104250007FF4EBAEFB490870BDE8FC9F2DE9FC5FE5
:1042600004460D4616463046F11706EB1171C1F3B0
:104270000711F34A11700020F349087004E1F24974
:10428000097805EB0111605CFCF715F842F210713A
:1042900000FB01FBEC4909786A1C02EB0111605C30
:1042A000FCF709F800EB4001C1EBC0100BEBC00BB1
:1042B000E5490978AA1C02EB0111605CFBF7FBFFE2
:1042C00000EBC00101EB00100BEB800BDE4909781D
:1042D000EA1C02EB0111605CFBF7EDFF00EB8000D4
:1042E0000BEB400BD84909782A1D02EB0111605CE9
:1042F000FBF7E1FF58441FFA80F9D3480078691DA5
:1043000001EB0010205C0190CF480078A91D01EB63
:104310000010275CCC49097805F1080202EB011175
:10432000605CFBF7C8FF8346C7490978EA1D02EBCA
:104330000111605CFBF7BFFF00EB80000BEB400856
:10434000C149097805F10B0202EB0111605CFBF732
:10435000B2FF8346BC49097805F1090202EB01115D
:10436000605CFBF7A8FF00EB80000BEB40000090C7
:10437000B549097805F10B0202EB0111605CFBF70E
:104380009AFF42F2107100FB01FBAF49097805F179
:104390000C0202EB0111605CFBF78DFF00EB4001AA
:1043A000C1EBC0100BEBC00BA749097805F10D025A
:1043B00002EB0111605CFBF77EFF00EBC00101EB3B
:1043C00000100BEB800BA049097805F10E0202EBFF
:1043D0000111605CFBF76FFF00EB80000BEB400B03
:1043E0009949097805F10F0202EB0111605CFBF7B6
:1043F00062FF58441FFA80FA0198313814283DD2E0
:10440000DFE800F00A10161C22282F33343C3C3C15
:104410003C3C3C3C38393A3B41463846009AFDF733
:10442000FFFA2BE041463846009AFDF735FB25E0C0
:1044300041463846009AFDF74CFB1FE0414638469E
:10444000009AFDF769FB19E041463846009AFDF7EE
:1044500086FB13E05346424639464846FDF7EEFBDD
:104460000CE03846FDF78AFC08E007E03846FDF727
:10447000C1FC03E002E001E000E000BF00BF7248C1
:104480000078401C704908706D48007800287FF45F
:10449000F6AE6C490870BDE8FC9F2DE9FC5F044650
:1044A0000D4616463046F11706EB1171C1F30711A0
:1044B000634A11700020654908700FE1634909786B
:1044C00005EB0111605CFBF7F6FE42F2107100FB98
:1044D00001FB5E4909786A1C02EB0111605CFBF785
:1044E000EAFE00EB4001C1EBC0100BEBC00B5749DB
:1044F0000978AA1C02EB0111605CFBF7DCFE00EB03
:10450000C00101EB00100BEB800B50490978EA1C4D
:1045100002EB0111605CFBF7CEFE00EB80000BEBC1
:10452000400B4A4909782A1D02EB0111605CFBF738
:10453000C2FE58441FFA80F944480078691D01EB17
:104540000010205C019041480078A91D01EB00108B
:10455000275C3E49097805F1080202EB0111605C15
:10456000FBF7A9FE834639490978EA1D02EB0111E0
:10457000605CFBF7A0FE00EB80000BEB40083349CA
:10458000097805F10B0202EB0111605CFBF793FE69
:1045900083462E49097805F1090202EB0111605C9E
:1045A000FBF789FE00EB80000BEB400000902749F1
:1045B000097805F10B0202EB0111605CFBF77BFE51
:1045C00042F2107100FB01FB2049097805F10C0251
:1045D00002EB0111605CFBF76EFE00EB4001C1EBEA
:1045E000C0100BEBC00B1949097805F10D0202EB65
:1045F0000111605CFBF75FFE00EBC00101EB0010F6
:104600000BEB800B1149097805F10E0202EB011149
:10461000605CFBF750FE00EB80000BEB400B0B499E
:10462000097805F10F0202EB0111605CFBF743FE14
:1046300058441FFA80FA0198313809E07B010020C4
:1046400064010020920000207C0100207D010020F8
:1046500014283DD2DFE800F00A10161C22282F3360
:10466000343C3C3C3C3C3C3C38393A3B4146384687
:10467000009AFDF7D5F92BE041463846009AFDF740
:104680000BFA25E041463846009AFDF722FA1FE072
:1046900041463846009AFDF73FFA19E04146384650
:1046A000009AFDF75CFA13E0534642463946484605
:1046B000FDF7C4FA0CE03846FDF760FB08E007E0C0
:1046C0003846FDF797FB03E002E001E000E000BFA1
:1046D00000BFFE480078401CFC490870FC48007888
:1046E00000287FF4EBAEFB490870BDE8FC9F2DE984
:1046F000FC5F04460D4616463046F11706EB117175
:10470000C1F30711F24A11700020F349087004E167
:10471000F149097805EB0111605CFBF7CCFD42F231
:10472000107100FB01FBEC4909786A1C02EB0111D6
:10473000605CFBF7C0FD00EB4001C1EBC0100BEB70
:10474000C00BE5490978AA1C02EB0111605CFBF77C
:10475000B2FD00EBC00101EB00100BEB800BDE495A
:104760000978EA1C02EB0111605CFBF7A4FD00EB89
:1047700080000BEB400BD84909782A1D02EB011190
:10478000605CFBF798FD58441FFA80F9D248007826
:10479000691D01EB0010205C0190CF480078A91D35
:1047A00001EB0010275CCC49097805F1080202EB07
:1047B0000111605CFBF77FFD8346C7490978EA1D5C
:1047C00002EB0111605CFBF776FD00EB80000BEB68
:1047D0004008C149097805F10B0202EB0111605C48
:1047E000FBF769FD8346BC49097805F1090202EB34
:1047F0000111605CFBF75FFD00EB80000BEB4000FC
:104800000090B549097805F10B0202EB0111605CDB
:10481000FBF751FD42F2107100FB01FBAE49097834
:1048200005F10C0202EB0111605CFBF744FD00EBAB
:104830004001C1EBC0100BEBC00BA749097805F193
:104840000D0202EB0111605CFBF735FD00EBC001CE
:1048500001EB00100BEB800B9F49097805F10E026C
:1048600002EB0111605CFBF726FD00EB80000BEB17
:10487000400B9949097805F10F0202EB0111605CC8
:10488000FBF719FD58441FFA80FA019831381428B3
:104890003DD2DFE800F00A10161C22282F33343CEA
:1048A0003C3C3C3C3C3C38393A3B41463846009A1B
:1048B000FDF7B6F82BE041463846009AFDF7ECF8D4
:1048C00025E041463846009AFDF703F91FE04146CE
:1048D0003846009AFDF720F919E041463846009A1B
:1048E000FDF73DF913E05346424639464846FDF789
:1048F000A5F90CE03846FDF741FA08E007E0384634
:10490000FDF778FA03E002E001E000E000BF00BF3D
:1049100071480078401C704908706D480078002884
:104920007FF4F6AE6B490870BDE8FC9F2DE9FC5F93
:1049300004460D4616463046F11706EB1171C1F3D9
:104940000711634A11700020644908700FE1634940
:10495000097805EB0111605CFBF7ADFC42F21071C8
:1049600000FB01FB5D4909786A1C02EB0111605CE8
:10497000FBF7A1FC00EB4001C1EBC0100BEBC00B3F
:1049800056490978AA1C02EB0111605CFBF793FC05
:1049900000EBC00101EB00100BEB800B4F490978D5
:1049A000EA1C02EB0111605CFBF785FC00EB800068
:1049B0000BEB400B494909782A1D02EB0111605CA1
:1049C000FBF779FC58441FFA80F944480078691DC8
:1049D00001EB0010205C019040480078A91D01EB1C
:1049E0000010275C3D49097805F1080202EB01112E
:1049F000605CFBF760FC834638490978EA1D02EBEE
:104A00000111605CFBF757FC00EB80000BEB4008EA
:104A10003249097805F10B0202EB0111605CFBF7EA
:104A20004AFC83462D49097805F1090202EB011180
:104A3000605CFBF740FC00EB80000BEB400000905B
:104A40002649097805F10B0202EB0111605CFBF7C6
:104A500032FC42F2107100FB01FB2049097805F19C
:104A60000C0202EB0111605CFBF725FC00EB40013E
:104A7000C1EBC0100BEBC00B1849097805F10D0212
:104A800002EB0111605CFBF716FC00EBC00101EBCF
:104A900000100BEB800B1149097805F10E0202EBB7
:104AA0000111605CFBF707FC00EB80000BEB400B97
:104AB0000A49097805F10F0202EB0111605CFBF76E
:104AC000FAFB58441FFA80FA019809E07D010020A2
:104AD00064010020920000207E0100207F01002060
:104AE000313814283DD2DFE800F00A10161C2228C5
:104AF0002F33343C3C3C3C3C3C3C38393A3B41460F
:104B00003846009AFCF78CFF2BE041463846009A65
:104B1000FCF7C2FF25E041463846009AFCF7D9FF72
:104B20001FE041463846009AFCF7F6FF19E041467F
:104B30003846009AFDF713F813E0534642463946CB
:104B40004846FDF77BF80CE03846FDF717F908E01A
:104B500007E03846FDF74EF903E002E001E000E02F
:104B600000BF00BFFE480078401CFD490870FD48AA
:104B7000007800287FF4EBAEFB490870BDE8FC9F8D
:104B80002DE9FC5F04460D4616463046F11706EB4C
:104B90001171C1F30711F34A11700020F349087035
:104BA00004E1F249097805EB0111605CFBF783FB36
:104BB00042F2107100FB01FBEC4909786A1C02EB20
:104BC0000111605CFBF777FB00EB4001C1EBC0100B
:104BD0000BEBC00BE5490978AA1C02EB0111605CE4
:104BE000FBF769FB00EBC00101EB00100BEB800B46
:104BF000DE490978EA1C02EB0111605CFBF75BFB04
:104C000000EB80000BEB400BD84909782A1D02EB22
:104C10000111605CFBF74FFB58441FFA80F9D34841
:104C20000078691D01EB0010205C0190CF480078EE
:104C3000A91D01EB0010275CCC49097805F1080299
:104C400002EB0111605CFBF736FB8346C74909782C
:104C5000EA1D02EB0111605CFBF72DFB00EB80000D
:104C60000BEB4008C149097805F10B0202EB011179
:104C7000605CFBF720FB8346BC49097805F109021B
:104C800002EB0111605CFBF716FB00EB80000BEB05
:104C900040000090B549097805F10B0202EB0111C3
:104CA000605CFBF708FB42F2107100FB01FBAF49AF
:104CB000097805F10C0202EB0111605CFBF7FBFACD
:104CC00000EB4001C1EBC0100BEBC00BA74909780A
:104CD00005F10D0202EB0111605CFBF7ECFA00EB51
:104CE000C00101EB00100BEB800BA049097805F126
:104CF0000E0202EB0111605CFBF7DDFA00EB8000B5
:104D00000BEB400B9949097805F10F0202EB0111F9
:104D1000605CFBF7D0FA58441FFA80FA01983138EA
:104D200014283DD2DFE800F00A10161C22282F3389
:104D3000343C3C3C3C3C3C3C38393A3B41463846B0
:104D4000009AFCF76DFE2BE041463846009AFCF7CE
:104D5000A3FE25E041463846009AFCF7BAFE1FE064
:104D600041463846009AFCF7D7FE19E041463846DE
:104D7000009AFCF7F4FE13E0534642463946484693
:104D8000FCF75CFF0CE03846FCF7F8FF08E007E0B2
:104D90003846FDF72FF803E002E001E000E000BF35
:104DA00000BF72480078401C704908706D48007858
:104DB00000287FF4F6AE6C490870BDE8FC9F2DE931
:104DC000FC5F04460D4616463046F11706EB11719E
:104DD000C1F30711634A11700020654908700FE1A3
:104DE0006349097805EB0111605CFBF764FA42F254
:104DF000107100FB01FB5E4909786A1C02EB01118E
:104E0000605CFBF758FA00EB4001C1EBC0100BEB04
:104E1000C00B57490978AA1C02EB0111605CFBF733
:104E20004AFA00EBC00101EB00100BEB800B50497C
:104E30000978EA1C02EB0111605CFBF73CFA00EB1D
:104E400080000BEB400B4A4909782A1D02EB011147
:104E5000605CFBF730FA58441FFA80F94448007848
:104E6000691D01EB0010205C019041480078A91DEC
:104E700001EB0010275C3E49097805F1080202EBBE
:104E80000111605CFBF717FA834639490978EA1D7E
:104E900002EB0111605CFBF70EFA00EB80000BEBFC
:104EA00040083349097805F10B0202EB0111605CFF
:104EB000FBF701FA83462E49097805F1090202EB56
:104EC0000111605CFBF7F7F900EB80000BEB400091
:104ED00000902749097805F10B0202EB0111605C93
:104EE000FBF7E9F942F2107100FB01FB2049097858
:104EF00005F10C0202EB0111605CFBF7DCF900EB41
:104F00004001C1EBC0100BEBC00B1949097805F14A
:104F10000D0202EB0111605CFBF7CDF900EBC00163
:104F200001EB00100BEB800B1149097805F10E0223
:104F300002EB0111605CFBF7BEF900EB80000BEBAC
:104F4000400B0B49097805F10F0202EB0111605C7F
:104F5000FBF7B1F958441FFA80FA0198313809E09B
:104F60007F010020640100209200002080010020C9
:104F70008101002014283DD2DFE800F00A10161C41
:104F800022282F33343C3C3C3C3C3C3C38393A3BB7
:104F900041463846009AFCF743FD2BE0414638462F
:104FA000009AFCF779FD25E041463846009AFCF767
:104FB00090FD1FE041463846009AFCF7ADFD19E030
:104FC00041463846009AFCF7CAFD13E05346424674
:104FD00039464846FCF732FE0CE03846FCF7CEFE78
:104FE00008E007E03846FCF705FF03E002E001E0D7
:104FF00000E000BF00BF60480078401C5E490870B8
:105000005E48007800287FF4EBAE5D490870BDE88B
:10501000FC9F10B50446152C13D2DFE804F0AB0B4F
:10502000131B232B333B434B535B636B737B838B90
:10503000939BA30053480288534801885348FDF7C7
:1050400005F997E052480288524801884F48FDF719
:1050500029FA8FE050480288504801884B48FDF7F4
:1050600040FB87E04E4802884E4801884748FDF7DC
:1050700062FC7FE04C4802884C4801884348FDF7B9
:1050800079FD77E04A4802884A4801883F48FDF7A1
:105090009BFE6FE048480288484801883B48FDF77E
:1050A000BBFF67E046480288464801883748FEF75C
:1050B000D2F85FE044480288444801883348FEF74C
:1050C000F2F957E042480288424801882F48FEF72B
:1050D00009FB4FE040480288404801882B48FEF712
:1050E0002BFC47E03E4802883E4801882748FEF7EF
:1050F00042FD3FE03C4802883C4801882348FEF7D7
:1051000064FE37E03A4802883A4801881F48FEF7B3
:105110007BFF2FE038480288384801881B48FFF79A
:105120009DF827E036480288364801881748FFF77F
:10513000B4F91FE034480288344801881348FFF767
:10514000D6FA17E032480288324801880F48FFF744
:10515000EDFB0FE030480288304801880B48FFF72C
:105160000FFD07E02E4802882E4801880748FFF708
:1051700026FE00BF00BF10BD810100206401002099
:105180009200002008000020060000206C7700201C
:105190000C0000200A000020100000200E0000205B
:1051A000140000201200002018000020160000202B
:1051B0001C0000201A000020200000201E000020FB
:1051C00024000020220000202800002026000020CB
:1051D0002C0000202A000020300000202E0000209B
:1051E000340000203200002038000020360000206B
:1051F0003C0000203A000020400000203E0000203B
:10520000440000204200002048000020460000200A
:105210004C0000204A000020500000204E000020DA
:10522000540000205200002070B505460C4615B110
:10523000012D66D132E0002C12DA0120DA49086033
:105240000020DA49C1F8A001D749091F086060426F
:1052500004B2C4F5347081B2D54802F037FF1CE0C7
:10526000002C11DD0120D04908600020CF49C1F891
:10527000A0010120CC49091F0860C4F5347081B237
:10528000CB4802F023FF08E00020C7490860C4F5BE
:10529000347081B2C64802F017FF33E0002C13DAF5
:1052A0000120C44908600020C349C1F884010120DD
:1052B000BD4910310860604204B2C4F5347081B257
:1052C000BB4802F001FF1BE0002C10DD0120B949B2
:1052D00008600020B849C1F88401B3491031086062
:1052E000C4F5347081B2B24802F0EEFE08E000204E
:1052F000B0490860C4F5347081B2AD4802F0E4FEF4
:1053000000E000BF00BF70BD2DE9F04F89B004463A
:10531000AA4800680068A0EB0409A8490968486A1F
:1053200003F06DFB0546A54800688769C3693A46E6
:10533000284603F07AFACDE90401A0490968086A11
:1053400003F05DFB07469D480068056943692A46EE
:10535000384603F06AFACDE90001484603F04FFBF6
:1053600007468846954801688D68CB682A463846C6
:10537000414603F05AFA8246DDE9002303F04FFA72
:10538000CDE90201DDE9042303F0A8F9CDE9060126
:1053900003F06CFB089089480068006A8749096837
:1053A000486286480068C0F82090089809B0BDE8B7
:1053B000F08F7CB504460D46002001900090804897
:1053C0000068019000207E4908607C480068046005
:1053D00008460068FFF798FF00907A48B0F900008F
:1053E00000990844784908600846008801B2002006
:1053F000FFF71AFF7CBD7CB504460D4600200190E6
:1054000000907248006801906C48006804606F4822
:105410000068FFF779FF00906D48B0F9000000992F
:1054200008446C4908600846008801B20120FFF773
:10543000FBFE7CBD00206149096808625F4909687C
:105440004862002164485D4A12689160D0606349F7
:1054500063485A4A1268116150616248574A12689B
:105460009161D0617047C0F5347108B2704710B5D2
:1054700004463821204603F08AF8E22060731E209B
:1054800020730120A07710BD017070470161426157
:10549000836170472DE9F04F85B004460F46002523
:1054A0000026A84694F90000C51BA0682844A06007
:1054B000207F281A40B2E07794F91C00022101FBFA
:1054C0001050617F084440B284F8200068B284F82C
:1054D000210094F91F00002802DD4FF0010805E0CB
:1054E00094F91F00002801DA4FF0FF38002D02DD8B
:1054F000B8F1000F04DB002D05DAB8F1000F02DD72
:105500000020A07701E00120A07794F9200003F0AB
:105510006DFA8346A16903F0AFF8049094F9210075
:1055200003F064FA029094F91E0003F05FFA009011
:10553000616903F0A1F80190029903F09DF80390CE
:1055400094F91F0003F052FA0290216903F094F8D5
:105550008346039903F038F88246049903F034F83F
:10556000814603F06AFA06466662A06AB04201DA32
:10557000A66203E0E06AB04200DDE662207F607769
:1055800068B22077206B30446063606B20633046E4
:1055900005B0BDE8F08F70B504460D46294620469B
:1055A000FFF778FF70BD0000948121420080214206
:1055B00000040040800123420000234298010020A3
:1055C00020010020F8000020A80100202401002074
:1055D000FA000020AC0100200000F8BF9A999999C8
:1055E0009999E93F9999D93F2DE9F047824650466C
:1055F00003F016FA804642460B460020414903F06C
:1056000086F906460022404B03F00FF9044603F0EA
:105610004CFA80B2BDE8F087F0B5024600230025C1
:1056200000200024002100BF384E3678384F3F78E4
:105630003E44384F3F783E44344FFF7B3E44102E6B
:1056400020D01DE0314EF65C1EB90125661CF4B277
:1056500005E015B94E1CF1B201E0461CF0B22B4E2C
:10566000F65CC6F101062C4FFF56DFF8B0C0BCF95E
:1056700000C006FB07C636B2284F3E805E1CF3B260
:10568000102BDFD1254EB6F90060002E06DD002676
:10569000234F3E700126234F3E7010E01F4EB6F997
:1056A0000060002E06DA01261D4F3E7000261D4FB9
:1056B0003E7004E000261A4F3E701A4F3E701A4E9C
:1056C00030701A4E31701A4E347088420CDD461A12
:1056D00002EB460636B2174F3E80461AA2EB46064C
:1056E00036B2154F3E800BE00E1A02EB460636B27C
:1056F000114F3E800E1AA2EB460636B20D4F3E8089
:10570000F0BD00000000F03F0088C3402C020020E4
:105710006E0000206F000020C0010020BA010020B0
:10572000B2010020B3010020B4010020B601002026
:10573000B5010020F8000020FA00002010B500F0AC
:1057400061F800F096F810BD70B500250026002421
:1057500000F06FF8712000F018F900F0ABF80120AC
:1057600000F041F90546002000F03DF9064600F042
:1057700080F82C464FF6FF7000EA0424A01984B28A
:10578000204670BD10B5044600F053F8702000F0BC
:10579000FCF800F08FF8204600F0F7F800F08AF8E7
:1057A00000F067F810BD10B5044600F042F878200C
:1057B00000F0EBF800F07EF8204600F0E6F800F08C
:1057C00079F800F056F810BD70B50025002600F0FD
:1057D00030F8792000F0D9F800F06CF8012000F0E2
:1057E00002F90546002000F0FEF8064600F041F8F8
:1057F0002C464FF6FF7000EA0424A01984B220461C
:1058000070BD000008B50121102001F031FD0C2011
:10581000ADF8000010208DF8030003208DF8020081
:1058200069468A4801F068FA0C21884801F011FBAA
:1058300008BD10B58548006820F4704083490860B1
:105840000846006840F44050086001208049086024
:105850008049C1F88801502000F035FB00207C49C8
:105860000860502000F02FFB00207A49C1F8880121
:1058700010BD10B57548006820F470407349086089
:105880000846006840F44050086000207049091F35
:1058900008607049C1F88C01502000F014FB012011
:1058A0006B49091F08606B49C1F88C01502000F05A
:1058B0000AFB10BD10B500246448006820F4704055
:1058C000624908600846006840F400400860012012
:1058D0005F49091F0860142000F0F5FA05E0601C1C
:1058E000C4B2FA2C01DD012010BD5948803800688F
:1058F0000028F4D15649091F086000BFF4E710B52D
:1059000000205349091F08605048006820F4704087
:105910004E4908600846006840F440500860002086
:105920004C49C1F88C01282000F0CDFA01204849EB
:10593000091F0860282000F0C6FA00204549C1F878
:10594000880110BD10B500204149091F08603F487B
:10595000006820F470403D4908600846006840F443
:105960004050086001203B49C1F88C01282000F01C
:10597000AAFA01203649091F0860282000F0A3FA7E
:1059800000203449C1F8880110BD70B504462F4885
:10599000006820F470402D4908600846006840F413
:1059A0004050086000202A49091F0860002517E0C0
:1059B000E009274908606006040E282000F083FAF9
:1059C00001202449C1F88801282000F07CFA002039
:1059D0001F49091F0860282000F075FA681CC5B22D
:1059E000082DE5DB70BD70B505460024174800683A
:1059F00020F47040154908600846006840F40040F3
:105A00000860002617E000201149091F08602820BF
:105A100000F059FA01200F49C1F888016006040E10
:105A20000B488038006808B1601CC4B2142000F034
:105A30004AFA701CC6B2082EE5DB15B9FFF782FFE3
:105A400001E0FFF75CFF204670BD00000010014040
:105A50008C0122420000224208B50121682001F099
:105A600007FC4FF47040ADF8000048208DF80300AB
:105A70006946BE4801F040F94FF47F40ADF80000A0
:105A800048208DF803006946B94801F035F94FF612
:105A90008070ADF8000048208DF803006946B548D5
:105AA00001F02AF908BD70B50024B14801F0C0F931
:105AB00000F47F45AD4801F0BBF900F4704045EAC1
:105AC0002025AC4801F0B4F945EA1034AA48048016
:105AD000204670BD70B5034600240022002500BF9B
