:020000040800F2
:1000000000AA0020716C00084D1100084F11000873
:1000100053110008571100085B1100080000000090
:100020000000000000000000000000005F11000858
:10003000611100080000000063110008651100084C
:100040008B6C00088B6C00088B6C00088B6C0008B4
:100050008B6C00088B6C00088B6C00088B6C0008A4
:100060008B6C00088B6C00088B6C00088B6C000894
:100070008B6C00088B6C00088B6C00088B6C000884
:100080008B6C00088B6C00088B6C00088B6C000874
:100090008B6C00088B6C00088B6C00088B6C000864
:1000A0008B6C00088B6C00088B6C00088B6C000854
:1000B000A91300088B6C0008F91700088B6C000866
:1000C0008B6C00088B6C00088B6C00088B6C000834
:1000D0008B6C0008B1610008C76200082764000843
:1000E0008B6C00088B6C00088B6C00088B6C000814
:1000F0008B6C00088B6C00088B6C00088B6C000804
:100100008B6C00088B6C00088B6C00088B6C0008F3
:1001100085650008916600088B6C00088B6C0008F0
:100120008B6C00088B6C00088B6C00088B6C0008D3
:10013000DFF80CD008F0AAFE00480047130E0008B4
:1001400000AA002010B500BFF14808F0DFF95028E0
:10015000FAD11422EFA1F0A005F070FE1422EDA157
:10016000F1A005F06BFE10BD10B54FF40041F94849
:1001700006F0F1FEF849C8734FF48041F54806F0E7
:10018000EAFEF54988734FF40051F24806F0E3FEA9
:10019000F14948734FF48051EE4806F0DCFEEE4919
:1001A00008734FF40061EB4806F0D5FEEA49C872C7
:1001B0004FF48061E74806F0CEFEE74988724FF4BD
:1001C0000071E44806F0C7FEE34948724FF48071BD
:1001D000E04806F0C0FEE04908724FF40041DF48F5
:1001E00006F0B9FEDC49C8714FF48041DB4806F0E7
:1001F000B2FED94988714FF40051D84806F0ABFEE1
:10020000D54948714FF48051D44806F0A4FED24934
:1002100008714FF40041D24806F09DFECE49C870E7
:100220004FF48041CE4806F096FECB4988704FF4DB
:100230000051CB4806F08FFEC74948704FF48051FB
:10024000C74806F088FEC44908700846007A497A13
:100250000844C149897A0844BF49C97A0844BE495B
:10026000097B0844BC49497B0844BB49897B084455
:10027000BC490870B8484078B74989780844B649FD
:10028000C9780844B44909790844B349497908440C
:10029000B14989790844B049C9790844B24908701C
:1002A00010BD10B5044601F0A6FCFFF75DFF462027
:1002B00005F0D6F910BD0146A1F13002172A2DD262
:1002C000DFE802F00C0E10121416181A1C1E2C2C4B
:1002D0002C2C2C2C2C20222426282A0000201DE047
:1002E00001201BE0022019E0032017E0042015E0A4
:1002F000052013E0062011E007200FE008200DE0A4
:1003000009200BE00A2009E00B2007E00C2005E0A3
:100310000D2003E00E2001E00F2000BF00BF70475A
:100320002DE9FF41074600240D2500200390009091
:1003300038B2029070E2BDF90C10491C04FB0511A3
:100340008A4A505CFFF7B7FF642100FB01F8BDF952
:100350000C10891C04FB0511844A505CFFF7ABFFAD
:1003600000EB800008EB4008BDF90C10C91C04FB31
:1003700005117E4A505CFFF79EFF4044C6B2BDF9AE
:100380000C10C91D04FB0511784A505CFFF793FF60
:100390004FF47A7100FB01F8BDF90C10083104FB31
:1003A0000511724A505CFFF786FF00EBC00101EBBC
:1003B000001008EB8008BDF90C10093104FB051191
:1003C0006A4A505CFFF777FF00EB800008EB4008BB
:1003D000BDF90C100A3104FB0511644A505CFFF7AB
:1003E0006AFF404400B20090BDF90C000B3004FBE2
:1003F000050000B20190BDF80C00BDF800100844E3
:1004000000B20390601CC4B2152E1CD2DFE806F0C7
:100410000B1C3044586CCADEFFFDFCFBFAF9F8F700
:10042000F6F5F4F3F200BDF8040051490880BDF878
:10043000000050490880BDF808104F4800880D3072
:10044000081A00B20290E6E1BDF804004B490880AA
:10045000BDF8000048490880BDF8081046480088EB
:100460000D30081A00B20290012045490870D2E10F
:10047000BDF8040043490880BDF8000042490880E7
:10048000BDF80810404800880D30081A00B20290EC
:1004900002203B490870BEE1BDF804003B490880DA
:1004A000BDF800003A490880BDF8081038480088B7
:1004B0000D30081A00B20290032031490870AAE1F9
:1004C000BDF8040033490880BDF8000032490880B7
:1004D000BDF80810304800880D30081A00B20290AC
:1004E00004202749087096E1BDF804002B490880D4
:1004F000BDF800002A490880BDF808102848008887
:100500000D30081A00B2029005201D49087082E1E2
:10051000004C00404F4B000041542B4349504D4F7D
:1005200044453D310D0A000041542B43495053547A
:100530004152543D22544350222C223139322E3123
:1005400036382E352E313037222C383031350D0AE1
:1005500000000000001401402C020020000C0140AB
:10056000001801406E0000206F0000206C77002012
:1005700000000020020000200800002006000020EB
:10058000BC0000200A0000200C0000200E0000200B
:10059000100000201200002014000020160000208F
:1005A00018000020BDF80400FE490880BDF80000D6
:1005B000FD490880BDF80810FB4800880D30081A76
:1005C00000B202900620F949087024E1BDF8040049
:1005D000F7490880BDF80000F6490880BDF808100A
:1005E000F44800880D30081A00B202900720EF4945
:1005F000087010E1FBE0E6E0D1E0BCE0A7E092E0AB
:100600007DE068E053E03EE029E014E0FFE7BDF85C
:100610000400E9490880BDF80000E8490880BDF8F9
:100620000810E64800880D30081A00B20290082031
:10063000DE490870EFE0BDF80400E1490880BDF82C
:100640000000E0490880BDF80810DE4800880D3041
:10065000081A00B202900920D4490870DBE0BDF806
:100660000400D9490880BDF80000D8490880BDF8C9
:100670000810D64800880A30081A00B202900A20F2
:10068000CA490870C7E0BDF80400D1490880BDF828
:100690000000D0490880BDF80810CE4800880A3014
:1006A000081A00B202900B20C0490870B3E0BDF8F0
:1006B0000400C9490880BDF80000C8490880BDF899
:1006C0000810C64800880A30081A00B202900C20B0
:1006D000B64908709FE0BDF80400C1490880BDF824
:1006E0000000C0490880BDF80810BE4800880A30E4
:1006F000081A00B202900D20AC4908708BE0BDF8DA
:100700000400B9490880BDF80000B8490880BDF868
:100710000810B64800880A30081A00B202900E206D
:10072000A249087077E0BDF80400B1490880BDF81F
:100730000000B0490880BDF80810AE4800880A30B3
:10074000081A00B202900F209849087063E0BDF8C3
:100750000400A9490880BDF80000A8490880BDF838
:100760000810A64800880A30081A00B2029010202B
:100770008E4908704FE0BDF80400A1490880BDF81B
:100780000000A0490880BDF808109E4800880A3083
:10079000081A00B202901120844908703BE0BDF8AD
:1007A000040099490880BDF8000098490880BDF808
:1007B0000810964800880A30081A00B202901220E9
:1007C0007A49087027E0BDF8040091490880BDF817
:1007D000000090490880BDF808108E4800880A3053
:1007E000081A00B2029013207049087013E0BDF897
:1007F000040089490880BDF8000088490880BDF8D8
:100800000810864800880A30081A00B202901420A6
:100810006649087000BF00BFBDF908000C283FF70B
:100820008AADBDE8FF812DE9F04F04460025A846BA
:1008300000BFA078FFF73FFD642100FB01FBE078DB
:10084000FFF739FD00EB80000BEB400B2079FFF741
:1008500032FD584400F0FF0ABAF1000F54D10120D4
:100860006F490870207AFFF726FD4FF47A7100FB7C
:1008700001FB607AFFF71FFD00EBC00101EB0010E8
:100880000BEB800BA07AFFF716FD00EB80000BEB63
:10089000400BE07AFFF70FFD584462490880084694
:1008A0000088401C86B209E05F4905F10C00085C35
:1008B0005E494855681C85B2701E86B2002EF3DC76
:1008C000002500BF574800880D30205C2C281AD125
:1008D0000BE005F10E005349098808445249085CB1
:1008E00053494855681C85B22F464E4800880E3043
:1008F0002844205C7D28ECD100253846FFF710FD08
:1009000001204C490870D5E0207AFFF7D4FC4FF461
:100910007A7100FB01FB607AFFF7CDFC00EBC001B0
:1009200001EB00100BEB800BA07AFFF7C4FC00EB8F
:1009300080000BEB400BE07AFFF7BDFC584487B218
:100940000025AAE0681C205C2C282AD1E91C605CE8
:10095000FFF7B1FC642100FB01FB291D605CFFF780
:10096000AAFC00EB80000BEB400B691D605CFFF7FD
:10097000A2FC584400F0FF09B9F1000F70D101202A
:1009800027490870607AFFF796FC4FF47A7100FBF4
:1009900001FBA07AFFF78FFC00EBC00101EB001018
:1009A0004AE072E01A0000201C000020BC00002079
:1009B0001E00002020000020220000202400002033
:1009C00026000020280000202A0000202C00002003
:1009D0002E000020300000203200002034000020D3
:1009E00036000020380000203A0000203C000020A3
:1009F0003E00002040000020420000204400002073
:100A000046000020480000204A0000204C00002042
:100A10004E00002050000020520000205400002012
:100A20008C000020040000203C0200205C500020CC
:100A30006C770020920000200BEB800BE07AFFF730
:100A40003AFC00EB80000BEB400B207BFFF733FC04
:100A50005844FE49088008460088401C86B20FE0D2
:100A600012E0FB4905F10D00085CFA4901F80800A5
:100A7000681C85B208F101001FFA80F8701E86B26A
:100A8000002EEEDC4FF000080CE0F149681C085C19
:100A9000F1494855681C85B22F46681C205C7D28AA
:100AA0007FF450AF00BF00253846FFF739FC012026
:100AB000EA490870BDE8F08F704770470BE0E848DE
:100AC0000078012807D1E7480088401CE5490880E4
:100AD0000020E3490870E44800780028EFD0704710
:100AE00010B504F095FEE149088008460088E04909
:100AF0000988884230D0DD48008848B1B0F5807F51
:100B000012D0B0F5007F0BD0B0F5806F10D103E0AC
:100B10000020D84908700BE00120D649087007E092
:100B20000220D449087003E00320D249087000BFB6
:100B300000BFD0480078D0490978884208D0CD4815
:100B40000178CEA005F0BEFACA480078CA490870FC
:100B5000C6480088C649088010BD10B504F018FECC
:100B6000CE49088008460088CD49098888423AD095
:100B7000CA480088B0F5007F14D004DC50B1B0F54D
:100B8000807F1BD10AE0B0F5806F0FD0B0F5006F09
:100B900014D10FE00020C349087010E00120C149C2
:100BA00008700CE00120BF49087008E00220BD4930
:100BB000087004E00220BB49087000E000BF00BFDD
:100BC000B8480078B8490978884208D0B548017813
:100BD000AAA005F077FAB3480078B3490870AF4887
:100BE0000088AF49088010BD70B5B04800780A2170
:100BF00090FBF1F0C4B2AD48007890FBF1F201FB3C
:100C00001200C5B2AA480078A8490978884216D0CF
:100C1000A64800780A2190FBF1F0A6490870A34885
:100C200000780A2190FBF1F201FB1200A249087042
:100C30009E4800789E4908700120A0490870A0488D
:100C40000078A0490978884206D09E4800789C49DF
:100C5000087001209949087098480078012809D146
:100C6000002096490870974803782A46214696A0A6
:100C700005F028FA70BD10B5FFF776FA01209A4901
:100C800008609A49C1F8940100209749091D08603D
:100C90000120974908600020091F0860012094493D
:100CA00014390860142093490880934908809348B8
:100CB00000789349097808449249097808448F4993
:100CC000C97B0844102802D101208F4908708B4845
:100CD00080798A49C97908448849097A08440128F1
:100CE00014DC89480078012810D10020864908705A
:100CF00086480078012803D100208549087005E066
:100D00008248007810B906208149087010BD70B57E
:100D10000546002402207F49087078480078784909
:100D2000097808447749097808447449C97B08441C
:100D30007949087071480078714909780844714907
:100D4000097808446D49C97B084410283BD1734891
:100D5000007848B972480078012805D11E207149F1
:100D600008800020704908806C480078012808D16C
:100D70006B48007828B900206A4908801E206A491B
:100D800008806648007808B9012000E00020644926
:100D9000097809B9012100E00021084028B10020AC
:100DA000604908801E20604908806048B0F9000052
:100DB000504908805E48B0F900004F490880002083
:100DC0005C49088018E0012049491039086000207A
:100DD0004649C1F8A001012045491439086042493B
:100DE00008600020091D0860414908603C20524904
:100DF000088020B204F034FC70BD10B54F48007874
:100E0000012805D1114802880021124801F008F993
:100E100010BD1FB50020009001900290039000BF0C
:100E200005F05CF84FF4A06005F034FF4FF4E130BA
:100E300005F071F94FF4E13005F0F7F94FF4E130C6
:100E400005F07EFA4FF4E1307AE000000400002063
:100E50003C0200205C5000206C77002092000020B3
:100E600091000020DA0000208E000020C200002047
:100E7000C4000020C8000020CA0000207B22636F4D
:100E80006E74656E74223A22303030303025643012
:100E90003030303030303030227D0000BE00002055
:100EA000C0000020C9000020CB000020610000200D
:100EB000A4000020CC000020CD000020DC00002099
:100EC000A6000020640000207B22636F6E74656EB4
:100ED00074223A2230302564256425643030303065
:100EE0003030303030227D008001234200802142AA
:100EF000A4812142FA000020F80000202C020020EA
:100F00006E0000206F000020900000208F00002065
:100F10009900002097000020CE000020B2010020A0
:100F2000B301002056010020540100205C01002084
:100F30005A0100205E010020580100208C00002092
:100F400005F0D0FA4FF4165005F056FB00F0C6FC41
:100F500000F0D5FC00F04DFD00F0E8FC40F2CF21A0
:100F6000632000F0F1F9132140F2CF2000F04FFB95
:100F700041F61F414FF6FF7000F0B9FB0121084612
:100F800006F01FFA0121880706F0A2FE01205D4944
:100F900008604FF434715C4807F034F94FF4347151
:100FA000594807F02DF900205849C1F894015549D6
:100FB0000C39086004F0E6FB1D2004F007FC6420F7
:100FC00004F0C9FF1D2004F012FC642004F0C3FFEC
:100FD00014204F49088093E04E4805F036FD002864
:100FE0000EDD0020009001900290039010226946CF
:100FF000484805F0E4FD18B11021684605F05CFA98
:1010000045480078012805D14448FFF70CFC002032
:101010004149087042480078012801D1FFF7EDFEF0
:101020004048007801280ED100203E490870FFF7A3
:10103000DBFD3D4800783D490978884203D13A48B4
:10104000007804F008F83A480078072856D2DFE81C
:1010500000F00412202E3C4A4D003648B0F9000042
:10106000354908803548B0F900003549088000202E
:101070003449087043E02F48B0F900002E49088039
:101080002E48B0F900002E49088000202D49087034
:1010900035E02848B0F90000274908802748B0F912
:1010A00000002749088000202649087027E02148D1
:1010B000B0F90000204908802048B0F9000020491C
:1010C000088000201F49087019E01A48B0F9000094
:1010D000194908801948B0F9000019490880002012
:1010E000184908700BE0FFF7C6FD08E016480078C5
:1010F000002802DC01201349087000E000BF00BF97
:101100006AE700008C012342000400400080214275
:101110006600002058A40020E80100203C020020C6
:101120008C000020EA01002061000020BC000020AB
:10113000990000205C010020FA0000205A010020E4
:10114000F8000020CF00002050010020704700BFB1
:10115000FEE700BFFEE700BFFEE700BFFEE7704707
:1011600070477047704700000CB500200190009058
:101170006C48006840F480306A49086000BF6948E4
:10118000006800F4003000900198401C0190009825
:1011900018B90198B0F5A06FF1D16248006800F469
:1011A000003010B10120009001E000200090009874
:1011B000012843D15C48006840F010005A4908609B
:1011C0000846006820F0030008600846006840F008
:1011D0000200086053484068524948600846406829
:1011E00048600846406840F48060486008464068AF
:1011F00020F47C1048600846406840F4E8104860DD
:101200000846006840F08070086000BF45480068EC
:1012100000F000700028F9D04248406820F0030038
:10122000404948600846406840F00200486000BFFE
:101230003C48406800F00C000828F9D10CBD10B5FE
:10124000FFF792FF10BD10B53648006840F001006E
:1012500034490860084640683449084031494860CC
:1012600008460068324908402E4908600846006870
:1012700020F4802008600846406820F4FE004860A2
:101280004FF41F008860FFF7DAFF4FF00060294934
:10129000086010BD10B5002100200022214B5B68C2
:1012A00003F00C0121B1042906D0082928D107E058
:1012B000214B224C236027E01F4B204C236023E06E
:1012C000184B5B6803F47010164B5B6803F48032B4
:1012D000022303EB904022B9194B4343174C236080
:1012E0000DE0104B5B6803F4003323B1144B434310
:1012F000124C236003E0104B4343104C236003E087
:101300000D4B0E4C236000BF00BF064B5B68C3F360
:1013100003130C4CE15C094B1B68CB40074C23606A
:1013200010BD000000100240002002400000FFF845
:10133000FFFFF6FE08ED00E000127A00E00000205A
:1013400000093D00E40000207FB504460D46012160
:10135000084606F036F8ADF80840681E80B2ADF8D1
:1013600004000020ADF80A00ADF8060001A94FF016
:10137000804006F051F900214FF0804006F0A8FCB3
:101380001C208DF8000002208DF801008DF802006D
:1013900001208DF80300684605F081FC01224121FF
:1013A000880706F0B0FC7FBD10B50121880706F064
:1013B00058FF00287ED0FA480068401CF8490860B1
:1013C000F8480088401CF7490880F7480088401C0E
:1013D000F5490880F5480078401CF4490870F24847
:1013E000008814282BDB0020EF4908804FF40061AF
:1013F000EF4805F0B0FD012811D1EE480078401CFF
:10140000EC490870EC480088401CEB490880E9482A
:1014100000781E2813DD1E20E64908700FE0E5481D
:101420000078002805DDE3480078401EE149087097
:1014300002E00020DF4908700020DF490880DB4817
:1014400000780A287EDB0020D8490870DB48B0F914
:101450000000DB49B1F90010884218DDD748B0F927
:101460000000D749B1F90010401A142806DAD44810
:101470000088401C00B2D249088030E0D048008883
:10148000D0490978084400B2CD49088027E0CB480C
:10149000B0F90000CA49B1F9001088421ADAC84808
:1014A000B0F90000C549B1F90010401A142808DA53
:1014B000C34800E087E00088401E00B2C0490880B1
:1014C0000DE0BF480088BF490978401A00B2BC4906
:1014D000088004E0B948B0F90000B9490880BA486A
:1014E000B0F90000B949B1F90010884218DDB648DA
:1014F000B0F90000B549B1F90010401A142806DA15
:10150000B2480088401C00B2B049088030E0AF48C3
:101510000088AC490978084400B2AC49088027E04B
:10152000A948B0F90000A949B1F9001088421ADAB7
:10153000A648B0F90000A449B1F90010401A1428D7
:1015400008DA00E037E0A1480088401E00B29F4959
:1015500008800DE09D4800889A490978401A00B239
:101560009A49088004E09848B0F90000974908803B
:101570009748B0F900009749B1F90010884206DD9C
:1015800094480088401C00B29249088013E09048BB
:10159000B0F900008F49B1F90010884206DA8D4891
:1015A0000088401E00B28B49088004E08848B0F9EA
:1015B0000000884908800121880706F04FFE0121BC
:1015C000880706F05FFE77480088322804DDFFF7C1
:1015D000C4FA002073490880714800680A2815D3AE
:1015E00000206F4908607C480078012802D146201D
:1015F00004F0D6FA7948B0F90010002003F038FE64
:101600007748B0F90010012003F032FE10BD30B56C
:1016100089B004460D46734805F02AFF01210220D7
:1016200005F0CFFE01210C2005F0BEFEC020ADF874
:10163000200018208DF8230003208DF8220008A92F
:10164000694805F0F5FB0320ADF8200018208DF85F
:10165000230003208DF8220008A9644805F0E8FB68
:10166000ADF81840ADF814500020ADF81A00ADF8F0
:10167000160005A95B4805F0CFFF7020ADF8040007
:101680000120ADF806000020ADF80C00204604EB68
:10169000D071C1F34F01ADF80A1001A9514805F00E
:1016A000F8FF01A94F4806F036F801A94D4806F0A9
:1016B0007FF801A94B4806F0C6F80821494806F012
:1016C00037FC0821474806F03CFC0821454806F055
:1016D00045FC0821434806F04AFC0121414806F038
:1016E000F7FA01213F4806F0FFFA09B030BD30B5E6
:1016F00085B005460C460121042005F062FE01215B
:10170000082005F051FEC020ADF8100028208DF80B
:10171000130004A9354805F08BFBC021334805F0C0
:1017200036FCADF80850ADF804400020ADF80A00D2
:10173000ADF8060001A92E4805F06EFF00202D49E6
:1017400008804880012088800020C88008812848BF
:1017500006F0F5F904202749088000204880012080
:1017600088800020C8800881214806F0E8F91E2002
:101770008DF8000000208DF801008DF80200012096
:101780008DF80300684605F08AFA01220621184800
:1017900006F0B9FA0121164806F09AFA05B030BDF4
:1017A000740000204C0100204E0100206001002048
:1017B0000018014050010020620100205601002065
:1017C0005C01002028010020540100205A01002063
:1017D000580100205E010020CF000020F80000200A
:1017E000FA0000200004004000080140000C014005
:1017F00000080040CC9E002010B50221304806F0C1
:1018000030FD40B102212E4806F03CFD2D48006815
:10181000401C2C4908600421294806F022FD40B1F3
:101820000421274806F02EFD27480068401C264961
:10183000086010BD00280CDD0122244B1A60002234
:10184000234BC3F8A0210122204B1B1F1A600880E4
:1018500012E000280DDA01221C4B1A6000221C4BFA
:10186000C3F8A021194B1B1F1A60424210B2088016
:1018700002E00022154B1A60704700280BDD0122A0
:10188000144B1A600022144BC3F884210F4B103301
:101890001A60088013E000280EDA01220D4B1A604E
:1018A00000220D4BC3F884210122084B10331A602B
:1018B000424210B2088002E00022064B1A607047D4
:1018C00000080040200100202401002094812142D2
:1018D00000802142800123420000234208B50121FB
:1018E000402005F061FD4FF40060ADF800002820B5
:1018F0008DF803006946524805F09AFA08BD08B50C
:101900000121402005F050FD0C20ADF80000102012
:101910008DF8030003208DF802006946484805F061
:1019200087FA0C21464805F030FB08BD08B50121B7
:10193000482005F039FD4FF44E70ADF8000001214C
:10194000404805F046FB10208DF8030003208DF879
:10195000020069463C4805F06BFA4FF44E713A4874
:1019600005F013FB0320ADF8000010208DF80300F4
:1019700003208DF802006946314805F059FA032129
:101980002F4805F002FB08BD08B50121202005F015
:101990000BFDF020ADF8000001212A4805F019FBED
:1019A00010208DF8030003208DF8020069462748B7
:1019B00005F03EFAF021254805F0E7FA08BD08B524
:1019C0000121142005F0F0FC1020ADF800004820A3
:1019D0008DF8030069461E4805F02AFA3020ADF85C
:1019E000000048208DF8030069461A4805F020FAE7
:1019F00008BD08B50121682005F0D6FC4FF4704001
:101A0000ADF8000048208DF8030069460E4805F047
:101A10000FFA4FF47F40ADF8000048208DF8030026
:101A200069460A4805F004FA4FF68070ADF80000E8
:101A300048208DF803006946014805F0F9F908BD12
:101A40000018014000023000000C01400014014069
:101A500000080140001001400D2814D2DFE800F01A
:101A6000130708090A0B0C0D0E0F101112000BE0E2
:101A70000AE009E008E007E006E005E004E003E032
:101A800002E001E000E000BF00BF704770B504460F
:101A90000D461646322C02D0332C1ED10EE03246B3
:101AA0002946F6A004F0E5FA00231E2202210120B7
:101AB00004F0C1FE0020F84908700EE032462946C5
:101AC000F6A004F0D6FA00231E220321012004F020
:101AD000B2FE0020F049087000BF00BFF648007851
:101AE000401EF549087070BD70B504460D46164697
:101AF000312C02D0342C0CD105E032462946EFA01F
:101B000004F0B7FA06E032462946F3A004F0B1FA31
:101B100000E000BF00BFE8480078401EE6490870BA
:101B200070BD70B504460D461646312C02D0342CDB
:101B300012D108E032462946EEA004F09AFA0020BD
:101B4000D549087009E032462946F1A004F091FA1F
:101B50000020D149087000E000BF00BFD6480078DF
:101B6000401ED549087070BD70B504460D46164636
:101B7000312C02D0342C12D108E032462946EBA099
:101B800004F077FA0020C449087009E0324629467B
:101B9000EDA004F06EFA0020BF49087000E000BF1D
:101BA00000BFC5480078401EC349087070BD70B5BD
:101BB00004460D461646322C02D0332C12D108E0D2
:101BC00032462946E7A004F054FA0020B2490870D2
:101BD00009E032462946EAA004F04BFA0020AE495B
:101BE000087000E000BF00BFB3480078401EB24953
:101BF000087070BD70470020E84908600120E8497E
:101C0000C1F8A4010020E549091D0860E549C1F8B3
:101C1000800170474FF44871E34A11800121DF4A87
:101C200011600021DE4AC2F8A41170474FF44871D8
:101C3000DD4A11800021D94A1160D94AC2F8A411A5
:101C400070474FF44871D84A11800121D34A11607E
:101C5000D34AC2F8A41170470020D0490860D04987
:101C6000C1F8A401D1490860D149C1F89C0170476D
:101C700010B1012808D103E00021CE4A117003E021
:101C80000121CC4A117000BF00BF70472DE9F0411F
:101C900006460C4615461F46A4F13000082815D20A
:101CA000DFE800F004152633405364880020C24961
:101CB00008700120C14908700020C1490880C1494D
:101CC0000880C14908700420C049087076E00120EE
:101CD000B9490870BE48008800B2B9490880BC48BC
:101CE000008800B2B74908800120B849087065E053
:101CF0000220B14908701420B24908800020B04980
:101D000008800120B149087058E00320AA490870F2
:101D10000020AC4908801420A94908800120AB4963
:101D200008704BE00420A4490870A948008840428C
:101D300000B2A4490880A6480088404200B2A049E9
:101D400008800120A149087038E005209A490870F0
:101D5000E8B2FFF78DFF6FF013009A490880142056
:101D60009749088001209949087027E00620924988
:101D700008700120944908700020964908800320CB
:101D800095490870954803F096FB95480368954877
:101D9000026895480168914803F09CFB4FF4347049
:101DA0009249086092490860002085490880854969
:101DB000088003E007208049087000BF00BF3E484C
:101DC0000078401E3C490870BDE8F08110B504461B
:101DD000A4F130000A282ED2DFE800F005090D1129
:101DE00015191D21252983A004F0F1F823E082A014
:101DF00004F0EDF81FE081A004F0E9F81BE080A0FA
:101E000004F0E5F817E07FA004F0E1F813E07EA00D
:101E100004F0DDF80FE07DA004F0D9F80BE07CA021
:101E200004F0D5F807E07BA004F0D1F803E07AA035
:101E300004F0CDF800BF00BF1F480078401E1E49C7
:101E4000087010BD10B50446302C02D0312C0ED1D4
:101E500006E00020714908606EA004F0B8F806E0C2
:101E600001206E49086064A004F0B1F800BF00BF13
:101E700011480078401E1049087010BD7B22303098
:101E800031363030303030313225642564303030F6
:101E90003030227D00000000940000207B22303092
:101EA00031363030303030313325642564303030D5
:101EB0003030227D00000000640100207B223030A1
:101EC00031363030303030323125642564303030B6
:101ED0003030227D000000007B223030313630303F
:101EE0003030303234256425643030303030227D5B
:101EF000000000007B22303031363030303030335B
:101F000031256425643030303030227D00000000FF
:101F10007B22303031363030303030333425642558
:101F2000643030303030227D000000007B223030C1
:101F30003136303030303034313030303030303095
:101F40003030227D000000007B22303031363030CE
:101F50003030303434303030303030303030227D3A
:101F6000000000007B2230303136303030303035E8
:101F700032256425643030303030227D000000008E
:101F80007B223030313630303030303533256425E7
:101F9000643030303030227D0000000090812142DA
:101FA000008021420000234200020020948122424E
:101FB000008022428F00002099000020D0000020E5
:101FC0005401002056010020CF00002028010020ED
:101FD000660000205E010020E1010020D89E002064
:101FE0008C0100208801002084010020AC01002029
:101FF000A80100207B307D007B317D007B327D009D
:102000007B337D007B347D007B357D007B367D001E
:102010007B377D007B387D007B397D008C0123423E
:102020002DE9FC5F04460D4617463846F91707EBC5
:102030001171C1F30711FE4A11700020FD490870AB
:1020400026E1FC49097805EB0111605CFEF733F9E4
:1020500042F2107100FB01FBF64909786A1C02EBA1
:102060000111605CFEF727F900EB4001C1EBC010E5
:102070000BEBC00BEF490978AA1C02EB0111605C65
:10208000FEF719F900EBC00101EB00100BEB800B20
:10209000E8490978EA1C02EB0111605CFEF70BF9D4
:1020A00000EB80000BEB400BE24909782A1D02EBA4
:1020B0000111605CFEF7FFF858441FFA80FADD4812
:1020C0000078691D01EB0010205C0190D948007870
:1020D000A91D01EB001014F80090D649097805F10C
:1020E000080202EB0111605CFEF7E5F88346D14976
:1020F0000978EA1D02EB0111605CFEF7DCF800EBE9
:1021000080000BEB4006CB49097805F10B0202EB8E
:102110000111605CFEF7CFF88346C649097805F1E6
:10212000090202EB0111605CFEF7C5F800EB8000CC
:102130000BEB40000090BF49097805F10B0202EB60
:102140000111605CFEF7B7F842F2107100FB01FB71
:10215000B849097805F10C0202EB0111605CFEF749
:10216000AAF800EB4001C1EBC0100BEBC00BB1496A
:10217000097805F10D0202EB0111605CFEF79BF896
:1021800000EBC00101EB00100BEB800BA9490978B3
:1021900005F10E0202EB0111605CFEF78CF800EB1A
:1021A00080000BEB400BA349097805F10F0202EB0D
:1021B0000111605CFEF77FF858441FFA80F801981F
:1021C000313814285ED2DFE800F00A10161C2228ED
:1021D000464D4E5D5D5D5D5D5D5D52575B5C3146BC
:1021E0004846009AFFF752FC4CE031464846009AB8
:1021F000FFF77AFC46E031464846009AFFF791FC2B
:1022000040E031464846009AFFF7AEFC3AE03146DE
:102210004846009AFFF7CBFC34E036B943463246D5
:1022200049465046FFF732FD14E0022E0CD0042E32
:1022300006D0052E0CD14FF48C707F49088008E041
:10224000D2207D49088004E014207B49088000E00A
:1022500000BF00BF16E04846FFF7B8FD484604F04F
:102260007AFB0FE00EE04846FFF7ECFD0AE041463E
:10227000002004F029FB05E0484604F0A5FB01E03E
:1022800000E000BF00BF6B480078401C694908703F
:102290006748007800287FF4D4AE68490870BDE82C
:1022A000FC9F2DE9FC5F04460D4616463046F117AB
:1022B00006EB1171C1F307115D4A117000206049EE
:1022C00008700FE15E49097805EB0111605CFDF7CC
:1022D000F2FF42F2107100FB01FB594909786A1CB8
:1022E00002EB0111605CFDF7E6FF00EB4001C1EB82
:1022F000C0100BEBC00B52490978AA1C02EB01116C
:10230000605CFDF7D8FF00EBC00101EB00100BEBA8
:10231000800B4B490978EA1C02EB0111605CFDF768
:10232000CAFF00EB80000BEB400B454909782A1DE2
:1023300002EB0111605CFDF7BEFF58441FFA80F903
:102340003F480078691D01EB0010205C01903C487B
:102350000078A91D01EB0010275C3949097805F1C7
:10236000080202EB0111605CFDF7A5FF83463449CA
:102370000978EA1D02EB0111605CFDF79CFF00EBA0
:1023800080000BEB40082E49097805F10B0202EBA7
:102390000111605CFDF78FFF83462949097805F13B
:1023A000090202EB0111605CFDF785FF00EB800084
:1023B0000BEB400000902249097805F10B0202EB7B
:1023C0000111605CFDF777FF42F2107100FB01FB29
:1023D0001B49097805F10C0202EB0111605CFDF765
:1023E0006AFF00EB4001C1EBC0100BEBC00B1449BE
:1023F000097805F10D0202EB0111605CFDF75BFF4E
:1024000000EBC00101EB00100BEB800B0C490978CD
:1024100005F10E0202EB0111605CFDF74CFF00EBD1
:1024200080000BEB400B0649097805F10F0209E02B
:10243000640100206D010020660000208C00002057
:102440006E01002002EB0111605CFDF734FF58447F
:102450001FFA80FA0198313814283DD2DFE800F0E5
:102460000A10161C22282F33343C3C3C3C3C3C3C9C
:1024700038393A3B41463846009AFFF707FB2BE0D4
:1024800041463846009AFFF72FFB25E04146384683
:10249000009AFFF746FB1FE041463846009AFFF7D7
:1024A00063FB19E041463846009AFFF780FB13E0D2
:1024B0005346424639464846FFF7E8FB0CE03846AB
:1024C000FFF784FC08E007E03846FFF7BBFC03E0B9
:1024D00002E001E000E000BF00BFFE480078401CC1
:1024E000FC490870FC48007800287FF4EBAEFB49FB
:1024F0000870BDE8FC9F2DE9FC5F04460D461646BA
:102500003046F11706EB1171C1F30711F24A117051
:102510000020F349087004E1F149097805EB011145
:10252000605CFDF7C8FE42F2107100FB01FBEC4954
:1025300009786A1C02EB0111605CFDF7BCFE00EB40
:102540004001C1EBC0100BEBC00BE5490978AA1C98
:1025500002EB0111605CFDF7AEFE00EBC00101EB88
:1025600000100BEB800BDE490978EA1C02EB01112D
:10257000605CFDF7A0FE00EB80000BEB400BD84940
:1025800009782A1D02EB0111605CFDF794FE5844A6
:102590001FFA80F9D2480078691D01EB0010205C19
:1025A0000190CF480078A91D01EB0010275CCC49B1
:1025B000097805F1080202EB0111605CFDF77BFE72
:1025C0008346C7490978EA1D02EB0111605CFDF7FB
:1025D00072FE00EB80000BEB4008C149097805F161
:1025E0000B0202EB0111605CFDF765FE8346BC49FE
:1025F000097805F1090202EB0111605CFDF75BFE51
:1026000000EB80000BEB40000090B549097805F124
:102610000B0202EB0111605CFDF74DFE42F21071FE
:1026200000FB01FBAE49097805F10C0202EB011138
:10263000605CFDF740FE00EB4001C1EBC0100BEB0E
:10264000C00BA749097805F10D0202EB0111605C8E
:10265000FDF731FE00EBC00101EB00100BEB800B2E
:102660009F49097805F10E0202EB0111605CFDF74C
:1026700022FE00EB80000BEB400B9949097805F135
:102680000F0202EB0111605CFDF715FE58441FFAC2
:1026900080FA0198313814283DD2DFE800F00A10A2
:1026A000161C22282F33343C3C3C3C3C3C3C383903
:1026B0003A3B41463846009AFFF7E8F92BE041469D
:1026C0003846009AFFF710FA25E041463846009A4E
:1026D000FFF727FA1FE041463846009AFFF744FA11
:1026E00019E041463846009AFFF761FA13E0534675
:1026F000424639464846FFF7C9FA0CE03846FFF72C
:1027000065FB08E007E03846FFF79CFB03E002E0CA
:1027100001E000E000BF00BF71480078401C704934
:1027200008706D48007800287FF4F6AE6B49087099
:10273000BDE8FC9F2DE9FC5F04460D4616460020CF
:10274000684908703046F11706EB1171C1F30711A3
:10275000614A11700FE16349097805EB0111605C72
:10276000FDF7A9FD42F2107100FB01FB5D490978FC
:102770006A1C02EB0111605CFDF79DFD00EB40015E
:10278000C1EBC0100BEBC00B56490978AA1C02EB39
:102790000111605CFDF78FFD00EBC00101EB001043
:1027A0000BEB800B4F490978EA1C02EB0111605CCE
:1027B000FDF781FD00EB80000BEB400B49490978E8
:1027C0002A1D02EB0111605CFDF775FD58441FFAEC
:1027D00080F944480078691D01EB0010205C0190ED
:1027E00040480078A91D01EB0010275C3D4909789D
:1027F00005F1080202EB0111605CFDF75CFD834608
:1028000038490978EA1D02EB0111605CFDF753FDC0
:1028100000EB80000BEB40083249097805F10B0210
:1028200002EB0111605CFDF746FD83462D490978F6
:1028300005F1090202EB0111605CFDF73CFD00EBC4
:1028400080000BEB400000902649097805F10B024F
:1028500002EB0111605CFDF72EFD42F2107100FBEE
:1028600001FB2049097805F10C0202EB0111605CC3
:10287000FDF721FD00EB4001C1EBC0100BEBC00BDD
:102880001849097805F10D0202EB0111605CFDF7B2
:1028900012FD00EBC00101EB00100BEB800B1149A6
:1028A000097805F10E0202EB0111605CFDF703FDF2
:1028B00000EB80000BEB400B0A49097805F10F0291
:1028C00002EB0111605CFDF7F6FC58441FFA80FA38
:1028D000019809E06E0100206401002092000020B0
:1028E0006F01002070010020313814283DD2DFE84C
:1028F00000F00A10161C22282F33343C3C3C3C3C90
:102900003C3C38393A3B41463846009AFFF7BEF81E
:102910002BE041463846009AFFF7E6F825E04146AD
:102920003846009AFFF7FDF81FE041463846009A06
:10293000FFF71AF919E041463846009AFFF737F9D0
:1029400013E05346424639464846FFF79FF90CE0EC
:102950003846FFF73BFA08E007E03846FFF772FA1F
:1029600003E002E001E000E000BF00BFFE480078A5
:10297000401CFD490870FD48007800287FF4EBAE4C
:10298000FB490870BDE8FC9F2DE9FC5F04460D463D
:1029900016463046F11706EB1171C1F30711F34AE1
:1029A00011700020F349087004E1F249097805EB41
:1029B0000111605CFDF77FFC42F2107100FB01FB2E
:1029C000EC4909786A1C02EB0111605CFDF773FCAD
:1029D00000EB4001C1EBC0100BEBC00BE5490978DF
:1029E000AA1C02EB0111605CFDF765FC00EBC00165
:1029F00001EB00100BEB800BDE490978EA1C02EBBF
:102A00000111605CFDF757FC00EB80000BEB400B05
:102A1000D84909782A1D02EB0111605CFDF74BFCD7
:102A200058441FFA80F9D3480078691D01EB001063
:102A3000205C0190CF480078A91D01EB0010275CB5
:102A4000CC49097805F1080202EB0111605CFDF741
:102A500032FC8346C7490978EA1D02EB0111605C2C
:102A6000FDF729FC00EB80000BEB4008C149097819
:102A700005F10B0202EB0111605CFDF71CFC8346C3
:102A8000BC49097805F1090202EB0111605CFDF710
:102A900012FC00EB80000BEB40000090B549097878
:102AA00005F10B0202EB0111605CFDF704FC42F240
:102AB000107100FB01FBAF49097805F10C0202EB34
:102AC0000111605CFDF7F7FB00EB4001C1EBC010AA
:102AD0000BEBC00BA749097805F10D0202EB0111C0
:102AE000605CFDF7E8FB00EBC00101EB00100BEBB5
:102AF000800BA049097805F10E0202EB0111605C20
:102B0000FDF7D9FB00EB80000BEB400B99490978EE
:102B100005F10F0202EB0111605CFDF7CCFB58449C
:102B20001FFA80FA0198313814283DD2DFE800F00E
:102B30000A10161C22282F33343C3C3C3C3C3C3CC5
:102B400038393A3B41463846009AFEF79FFF2BE062
:102B500041463846009AFEF7C7FF25E04146384611
:102B6000009AFEF7DEFF1FE041463846009AFEF766
:102B7000FBFF19E041463846009AFFF718F813E0CA
:102B80005346424639464846FFF780F80CE038463F
:102B9000FFF71CF908E007E03846FFF753F903E0B8
:102BA00002E001E000E000BF00BF72480078401C76
:102BB000704908706D48007800287FF4F6AE6C49C3
:102BC0000870BDE8FC9F2DE9FC5F04460D461646E3
:102BD0003046F11706EB1171C1F30711634A11700A
:102BE0000020654908700FE16349097805EB011180
:102BF000605CFDF760FB42F2107100FB01FB5E4977
:102C000009786A1C02EB0111605CFDF754FB00EBD4
:102C10004001C1EBC0100BEBC00B57490978AA1C4F
:102C200002EB0111605CFDF746FB00EBC00101EB1C
:102C300000100BEB800B50490978EA1C02EB0111E4
:102C4000605CFDF738FB00EB80000BEB400B4A4962
:102C500009782A1D02EB0111605CFDF72CFB58443A
:102C60001FFA80F944480078691D01EB0010205CD0
:102C7000019041480078A91D01EB0010275C3E49F6
:102C8000097805F1080202EB0111605CFDF713FB06
:102C9000834639490978EA1D02EB0111605CFDF7B2
:102CA0000AFB00EB80000BEB40083349097805F183
:102CB0000B0202EB0111605CFDF7FDFA83462E4921
:102CC000097805F1090202EB0111605CFDF7F3FAE6
:102CD00000EB80000BEB400000902749097805F1DC
:102CE0000B0202EB0111605CFDF7E5FA42F2107194
:102CF00000FB01FB2049097805F10C0202EB0111F0
:102D0000605CFDF7D8FA00EB4001C1EBC0100BEBA3
:102D1000C00B1949097805F10D0202EB0111605C45
:102D2000FDF7C9FA00EBC00101EB00100BEB800BC3
:102D30001149097805F10E0202EB0111605CFDF703
:102D4000BAFA00EB80000BEB400B0B49097805F158
:102D50000F0202EB0111605CFDF7ADFA58441FFA57
:102D600080FA0198313809E07001002064010020E8
:102D700092000020710100207201002014283DD231
:102D8000DFE800F00A10161C22282F33343C3C3CAC
:102D90003C3C3C3C38393A3B41463846009AFEF7C9
:102DA00075FE2BE041463846009AFEF79DFE25E071
:102DB00041463846009AFEF7B4FE1FE041463846C9
:102DC000009AFEF7D1FE19E041463846009AFEF718
:102DD000EEFE13E05346424639464846FEF756FF9C
:102DE0000CE03846FEF7F2FF08E007E03846FFF750
:102DF00029F803E002E001E000E000BF00BFFE4868
:102E00000078401CFC490870FC48007800287FF4DA
:102E1000EBAEFB490870BDE8FC9F2DE9FC5F044662
:102E20000D4616463046F11706EB1171C1F3071136
:102E3000F24A11700020F349087004E1F149097861
:102E400005EB0111605CFDF736FA42F2107100FBF0
:102E500001FBEC4909786A1C02EB0111605CFDF78B
:102E60002AFA00EB4001C1EBC0100BEBC00BE549A7
:102E70000978AA1C02EB0111605CFDF71CFA00EB5B
:102E8000C00101EB00100BEB800BDE490978EA1C56
:102E900002EB0111605CFDF70EFA00EB80000BEB1A
:102EA000400BD84909782A1D02EB0111605CFDF73F
:102EB00002FA58441FFA80F9D2480078691D01EBE4
:102EC0000010205C0190CF480078A91D01EB001094
:102ED000275CCC49097805F1080202EB0111605C1E
:102EE000FDF7E9F98346C7490978EA1D02EB0111AC
:102EF000605CFDF7E0F900EB80000BEB4008C14996
:102F0000097805F10B0202EB0111605CFDF7D3F9C2
:102F10008346BC49097805F1090202EB0111605CA6
:102F2000FDF7C9F900EB80000BEB40000090B549BC
:102F3000097805F10B0202EB0111605CFDF7BBF9AA
:102F400042F2107100FB01FBAE49097805F10C0259
:102F500002EB0111605CFDF7AEF900EB4001C1EB43
:102F6000C0100BEBC00BA749097805F10D0202EB6D
:102F70000111605CFDF79FF900EBC00101EB00104F
:102F80000BEB800B9F49097805F10E0202EB011152
:102F9000605CFDF790F900EB80000BEB400B99496A
:102FA000097805F10F0202EB0111605CFDF783F96E
:102FB00058441FFA80FA0198313814283DD2DFE8CE
:102FC00000F00A10161C22282F33343C3C3C3C3CB9
:102FD0003C3C38393A3B41463846009AFEF756FDAC
:102FE0002BE041463846009AFEF77EFD25E041463B
:102FF0003846009AFEF795FD1FE041463846009A94
:10300000FEF7B2FD19E041463846009AFEF7CFFDC3
:1030100013E05346424639464846FEF737FE0CE079
:103020003846FEF7D3FE08E007E03846FEF70AFF11
:1030300003E002E001E000E000BF00BF714800785B
:10304000401C704908706D48007800287FF4F6AE87
:103050006B490870BDE8FC9F2DE9FC5F04460D46F6
:1030600016463046F11706EB1171C1F30711634A9A
:1030700011700020644908700FE16349097805EB7D
:103080000111605CFDF717F942F2107100FB01FBC2
:103090005D4909786A1C02EB0111605CFDF70BF9D0
:1030A00000EB4001C1EBC0100BEBC00B5649097897
:1030B000AA1C02EB0111605CFDF7FDF800EBC001FA
:1030C00001EB00100BEB800B4F490978EA1C02EB77
:1030D0000111605CFDF7EFF800EB80000BEB400B9B
:1030E000494909782A1D02EB0111605CFDF7E3F8FC
:1030F00058441FFA80F944480078691D01EB00101C
:10310000205C019040480078A91D01EB0010275C6D
:103110003D49097805F1080202EB0111605CFDF7F9
:10312000CAF8834638490978EA1D02EB0111605C50
:10313000FDF7C1F800EB80000BEB4008324909783D
:1031400005F10B0202EB0111605CFDF7B4F8834658
:103150002D49097805F1090202EB0111605CFDF7C8
:10316000AAF800EB80000BEB40000090264909789C
:1031700005F10B0202EB0111605CFDF79CF842F2D5
:10318000107100FB01FB2049097805F10C0202EBEC
:103190000111605CFDF78FF800EB4001C1EBC0103E
:1031A0000BEBC00B1849097805F10D0202EB011178
:1031B000605CFDF780F800EBC00101EB00100BEB49
:1031C000800B1149097805F10E0202EB0111605CD8
:1031D000FDF771F800EB80000BEB400B0A49097812
:1031E00005F10F0202EB0111605CFDF764F8584431
:1031F0001FFA80FA019809E07201002064010020A2
:10320000920000207301002074010020313814283E
:103210003DD2DFE800F00A10161C22282F33343C80
:103220003C3C3C3C3C3C38393A3B41463846009AB1
:10323000FEF72CFC2BE041463846009AFEF754FC82
:1032400025E041463846009AFEF76BFC1FE04146F8
:103250003846009AFEF788FC19E041463846009A45
:10326000FEF7A5FC13E05346424639464846FEF7B2
:103270000DFD0CE03846FEF7A9FD08E007E03846F2
:10328000FEF7E0FD03E002E001E000E000BF00BF68
:10329000FE480078401CFD490870FD480078002871
:1032A0007FF4EBAEFB490870BDE8FC9F2DE9FC5FA5
:1032B00004460D4616463046F11706EB1171C1F370
:1032C0000711F34A11700020F349087004E1F24934
:1032D000097805EB0111605CFCF7EDFF42F210711B
:1032E00000FB01FBEC4909786A1C02EB0111605CF0
:1032F000FCF7E1FF00EB4001C1EBC0100BEBC00B92
:10330000E5490978AA1C02EB0111605CFCF7D3FFC8
:1033100000EBC00101EB00100BEB800BDE490978DC
:10332000EA1C02EB0111605CFCF7C5FF00EB8000BA
:103330000BEB400BD84909782A1D02EB0111605CA8
:10334000FCF7B9FF58441FFA80F9D3480078691D8B
:1033500001EB0010205C0190CF480078A91D01EB23
:103360000010275CCC49097805F1080202EB011135
:10337000605CFCF7A0FF8346C7490978EA1D02EBB1
:103380000111605CFCF797FF00EB80000BEB40083D
:10339000C149097805F10B0202EB0111605CFCF7F1
:1033A0008AFF8346BC49097805F1090202EB011145
:1033B000605CFCF780FF00EB80000BEB40000090AE
:1033C000B549097805F10B0202EB0111605CFCF7CD
:1033D00072FF42F2107100FB01FBAF49097805F161
:1033E0000C0202EB0111605CFCF765FF00EB400191
:1033F000C1EBC0100BEBC00BA749097805F10D021A
:1034000002EB0111605CFCF756FF00EBC00101EB21
:1034100000100BEB800BA049097805F10E0202EBBE
:103420000111605CFCF747FF00EB80000BEB400BE9
:103430009949097805F10F0202EB0111605CFCF774
:103440003AFF58441FFA80FA0198313814283DD2C7
:10345000DFE800F00A10161C22282F33343C3C3CD5
:103460003C3C3C3C38393A3B41463846009AFEF7F2
:103470000DFB2BE041463846009AFEF735FB25E070
:1034800041463846009AFEF74CFB1FE0414638465D
:10349000009AFEF769FB19E041463846009AFEF7AC
:1034A00086FB13E05346424639464846FEF7EEFB9C
:1034B0000CE03846FEF78AFC08E007E03846FEF7E5
:1034C000C1FC03E002E001E000E000BF00BF724881
:1034D0000078401C704908706D48007800287FF41F
:1034E000F6AE6C490870BDE8FC9F2DE9FC5F044610
:1034F0000D4616463046F11706EB1171C1F3071160
:10350000634A11700020654908700FE1634909782A
:1035100005EB0111605CFCF7CEFE42F2107100FB7E
:1035200001FB5E4909786A1C02EB0111605CFCF743
:10353000C2FE00EB4001C1EBC0100BEBC00B5749C2
:103540000978AA1C02EB0111605CFCF7B4FE00EBE9
:10355000C00101EB00100BEB800B50490978EA1C0D
:1035600002EB0111605CFCF7A6FE00EB80000BEBA8
:10357000400B4A4909782A1D02EB0111605CFCF7F7
:103580009AFE58441FFA80F944480078691D01EBFF
:103590000010205C019041480078A91D01EB00104B
:1035A000275C3E49097805F1080202EB0111605CD5
:1035B000FCF781FE834639490978EA1D02EB0111C7
:1035C000605CFCF778FE00EB80000BEB40083349B1
:1035D000097805F10B0202EB0111605CFCF76BFE50
:1035E00083462E49097805F1090202EB0111605C5E
:1035F000FCF761FE00EB80000BEB400000902749D8
:10360000097805F10B0202EB0111605CFCF753FE37
:1036100042F2107100FB01FB2049097805F10C0210
:1036200002EB0111605CFCF746FE00EB4001C1EBD0
:10363000C0100BEBC00B1949097805F10D0202EB24
:103640000111605CFCF737FE00EBC00101EB0010DC
:103650000BEB800B1149097805F10E0202EB011109
:10366000605CFCF728FE00EB80000BEB400B0B4985
:10367000097805F10F0202EB0111605CFCF71BFEFB
:1036800058441FFA80FA0198313809E0740100208B
:1036900064010020920000207501002076010020C6
:1036A00014283DD2DFE800F00A10161C22282F3320
:1036B000343C3C3C3C3C3C3C38393A3B4146384647
:1036C000009AFEF7E3F92BE041463846009AFEF7F0
:1036D0000BFA25E041463846009AFEF722FA1FE031
:1036E00041463846009AFEF73FFA19E0414638460F
:1036F000009AFEF75CFA13E05346424639464846C4
:10370000FEF7C4FA0CE03846FEF760FB08E007E07D
:103710003846FEF797FB03E002E001E000E000BF5F
:1037200000BFFE480078401CFC490870FC48007847
:1037300000287FF4EBAEFB490870BDE8FC9F2DE943
:10374000FC5F04460D4616463046F11706EB117134
:10375000C1F30711F24A11700020F349087004E127
:10376000F149097805EB0111605CFCF7A4FD42F218
:10377000107100FB01FBEC4909786A1C02EB011196
:10378000605CFCF798FD00EB4001C1EBC0100BEB57
:10379000C00BE5490978AA1C02EB0111605CFCF73B
:1037A0008AFD00EBC00101EB00100BEB800BDE4942
:1037B0000978EA1C02EB0111605CFCF77CFD00EB70
:1037C00080000BEB400BD84909782A1D02EB011150
:1037D000605CFCF770FD58441FFA80F9D24800780D
:1037E000691D01EB0010205C0190CF480078A91DF5
:1037F00001EB0010275CCC49097805F1080202EBC7
:103800000111605CFCF757FD8346C7490978EA1D42
:1038100002EB0111605CFCF74EFD00EB80000BEB4E
:103820004008C149097805F10B0202EB0111605C07
:10383000FCF741FD8346BC49097805F1090202EB1A
:103840000111605CFCF737FD00EB80000BEB4000E2
:103850000090B549097805F10B0202EB0111605C9B
:10386000FCF729FD42F2107100FB01FBAE4909781B
:1038700005F10C0202EB0111605CFCF71CFD00EB92
:103880004001C1EBC0100BEBC00BA749097805F153
:103890000D0202EB0111605CFCF70DFD00EBC001B5
:1038A00001EB00100BEB800B9F49097805F10E022C
:1038B00002EB0111605CFCF7FEFC00EB80000BEBFF
:1038C000400B9949097805F10F0202EB0111605C88
:1038D000FCF7F1FC58441FFA80FA0198313814289B
:1038E0003DD2DFE800F00A10161C22282F33343CAA
:1038F0003C3C3C3C3C3C38393A3B41463846009ADB
:10390000FEF7C4F82BE041463846009AFEF7ECF883
:1039100025E041463846009AFEF703F91FE041468C
:103920003846009AFEF720F919E041463846009AD9
:10393000FEF73DF913E05346424639464846FEF746
:10394000A5F90CE03846FEF741FA08E007E03846F2
:10395000FEF778FA03E002E001E000E000BF00BFFC
:1039600071480078401C704908706D480078002844
:103970007FF4F6AE6B490870BDE8FC9F2DE9FC5F53
:1039800004460D4616463046F11706EB1171C1F399
:103990000711634A11700020644908700FE1634900
:1039A000097805EB0111605CFCF785FC42F21071AF
:1039B00000FB01FB5D4909786A1C02EB0111605CA8
:1039C000FCF779FC00EB4001C1EBC0100BEBC00B26
:1039D00056490978AA1C02EB0111605CFCF76BFCEC
:1039E00000EBC00101EB00100BEB800B4F49097895
:1039F000EA1C02EB0111605CFCF75DFC00EB80004F
:103A00000BEB400B494909782A1D02EB0111605C60
:103A1000FCF751FC58441FFA80F944480078691DAE
:103A200001EB0010205C019040480078A91D01EBDB
:103A30000010275C3D49097805F1080202EB0111ED
:103A4000605CFCF738FC834638490978EA1D02EBD4
:103A50000111605CFCF72FFC00EB80000BEB4008D1
:103A60003249097805F10B0202EB0111605CFCF7A9
:103A700022FC83462D49097805F1090202EB011168
:103A8000605CFCF718FC00EB80000BEB4000009042
:103A90002649097805F10B0202EB0111605CFCF785
:103AA0000AFC42F2107100FB01FB2049097805F184
:103AB0000C0202EB0111605CFCF7FDFB00EB400126
:103AC000C1EBC0100BEBC00B1849097805F10D02D2
:103AD00002EB0111605CFCF7EEFB00EBC00101EBB7
:103AE00000100BEB800B1149097805F10E0202EB77
:103AF0000111605CFCF7DFFB00EB80000BEB400B7F
:103B00000A49097805F10F0202EB0111605CFCF72C
:103B1000D2FB58441FFA80FA019809E07601002090
:103B2000640100209200002077010020780100202D
:103B3000313814283DD2DFE800F00A10161C222884
:103B40002F33343C3C3C3C3C3C3C38393A3B4146CE
:103B50003846009AFDF79AFF2BE041463846009A16
:103B6000FDF7C2FF25E041463846009AFDF7D9FF30
:103B70001FE041463846009AFDF7F6FF19E041463E
:103B80003846009AFEF713F813E05346424639468A
:103B90004846FEF77BF80CE03846FEF717F908E0D8
:103BA00007E03846FEF74EF903E002E001E000E0EE
:103BB00000BF00BFFE480078401CFD490870FD486A
:103BC000007800287FF4EBAEFB490870BDE8FC9F4D
:103BD0002DE9FC5F04460D4616463046F11706EB0C
:103BE0001171C1F30711F34A11700020F3490870F5
:103BF00004E1F249097805EB0111605CFCF75BFB1D
:103C000042F2107100FB01FBEC4909786A1C02EBDF
:103C10000111605CFCF74FFB00EB4001C1EBC010F1
:103C20000BEBC00BE5490978AA1C02EB0111605CA3
:103C3000FCF741FB00EBC00101EB00100BEB800B2C
:103C4000DE490978EA1C02EB0111605CFCF733FBEA
:103C500000EB80000BEB400BD84909782A1D02EBE2
:103C60000111605CFCF727FB58441FFA80F9D34828
:103C70000078691D01EB0010205C0190CF480078AE
:103C8000A91D01EB0010275CCC49097805F1080259
:103C900002EB0111605CFCF70EFB8346C749097813
:103CA000EA1D02EB0111605CFCF705FB00EB8000F4
:103CB0000BEB4008C149097805F10B0202EB011139
:103CC000605CFCF7F8FA8346BC49097805F1090203
:103CD00002EB0111605CFCF7EEFA00EB80000BEBED
:103CE00040000090B549097805F10B0202EB011183
:103CF000605CFCF7E0FA42F2107100FB01FBAF4997
:103D0000097805F10C0202EB0111605CFCF7D3FAB3
:103D100000EB4001C1EBC0100BEBC00BA7490978C9
:103D200005F10D0202EB0111605CFCF7C4FA00EB37
:103D3000C00101EB00100BEB800BA049097805F1E5
:103D40000E0202EB0111605CFCF7B5FA00EB80009B
:103D50000BEB400B9949097805F10F0202EB0111B9
:103D6000605CFCF7A8FA58441FFA80FA01983138D1
:103D700014283DD2DFE800F00A10161C22282F3349
:103D8000343C3C3C3C3C3C3C38393A3B4146384670
:103D9000009AFDF77BFE2BE041463846009AFDF77E
:103DA000A3FE25E041463846009AFDF7BAFE1FE023
:103DB00041463846009AFDF7D7FE19E0414638469D
:103DC000009AFDF7F4FE13E0534642463946484652
:103DD000FDF75CFF0CE03846FDF7F8FF08E007E070
:103DE0003846FEF72FF803E002E001E000E000BFF4
:103DF00000BF72480078401C704908706D48007818
:103E000000287FF4F6AE6C490870BDE8FC9F2DE9F0
:103E1000FC5F04460D4616463046F11706EB11715D
:103E2000C1F30711634A11700020654908700FE162
:103E30006349097805EB0111605CFCF73CFA42F23A
:103E4000107100FB01FB5E4909786A1C02EB01114D
:103E5000605CFCF730FA00EB4001C1EBC0100BEBEB
:103E6000C00B57490978AA1C02EB0111605CFCF7F2
:103E700022FA00EBC00101EB00100BEB800B504964
:103E80000978EA1C02EB0111605CFCF714FA00EB04
:103E900080000BEB400B4A4909782A1D02EB011107
:103EA000605CFCF708FA58441FFA80F9444800782F
:103EB000691D01EB0010205C019041480078A91DAC
:103EC00001EB0010275C3E49097805F1080202EB7E
:103ED0000111605CFCF7EFF9834639490978EA1D66
:103EE00002EB0111605CFCF7E6F900EB80000BEBE4
:103EF00040083349097805F10B0202EB0111605CBF
:103F0000FCF7D9F983462E49097805F1090202EB3D
:103F10000111605CFCF7CFF900EB80000BEB400077
:103F200000902749097805F10B0202EB0111605C52
:103F3000FCF7C1F942F2107100FB01FB204909783E
:103F400005F10C0202EB0111605CFCF7B4F900EB27
:103F50004001C1EBC0100BEBC00B1949097805F10A
:103F60000D0202EB0111605CFCF7A5F900EBC0014A
:103F700001EB00100BEB800B1149097805F10E02E3
:103F800002EB0111605CFCF796F900EB80000BEB93
:103F9000400B0B49097805F10F0202EB0111605C3F
:103FA000FCF789F958441FFA80FA0198313809E082
:103FB0007801002064010020920000207901002097
:103FC0007A01002014283DD2DFE800F00A10161C08
:103FD00022282F33343C3C3C3C3C3C3C38393A3B77
:103FE00041463846009AFDF751FD2BE041463846E0
:103FF000009AFDF779FD25E041463846009AFDF725
:1040000090FD1FE041463846009AFDF7ADFD19E0EE
:1040100041463846009AFDF7CAFD13E05346424632
:1040200039464846FDF732FE0CE03846FDF7CEFE35
:1040300008E007E03846FDF705FF03E002E001E095
:1040400000E000BF00BFFE480078401CFC4908703B
:10405000FC48007800287FF4EBAEFB490870BDE80F
:10406000FC9F2DE9FC5F04460D4616463046F117CD
:1040700006EB1171C1F30711F24A11700020F349E8
:10408000087004E1F149097805EB0111605CFCF767
:1040900012F942F2107100FB01FBEC4909786A1C2D
:1040A00002EB0111605CFCF706F900EB4001C1EB8B
:1040B000C0100BEBC00BE5490978AA1C02EB0111FB
:1040C000605CFCF7F8F800EBC00101EB00100BEBB3
:1040D000800BDE490978EA1C02EB0111605CFCF7F9
:1040E000EAF800EB80000BEB400BD84909782A1D59
:1040F00002EB0111605CFCF7DEF858441FFA80F90E
:10410000D2480078691D01EB0010205C0190CF4877
:104110000078A91D01EB0010275CCC49097805F156
:10412000080202EB0111605CFCF7C5F88346C74941
:104130000978EA1D02EB0111605CFCF7BCF800EBAA
:1041400080000BEB4008C149097805F10B0202EB36
:104150000111605CFCF7AFF88346BC49097805F1B2
:10416000090202EB0111605CFCF7A5F800EB80008E
:104170000BEB40000090B549097805F10B0202EB0A
:104180000111605CFCF797F842F2107100FB01FB33
:10419000AE49097805F10C0202EB0111605CFCF7F5
:1041A0008AF800EB4001C1EBC0100BEBC00BA74934
:1041B000097805F10D0202EB0111605CFCF77BF858
:1041C00000EBC00101EB00100BEB800B9F4909785D
:1041D00005F10E0202EB0111605CFCF76CF800EBDC
:1041E00080000BEB400B9949097805F10F0202EBB7
:1041F0000111605CFCF75FF858441FFA80FA0198DF
:10420000313814283DD2DFE800F00A10161C2228AD
:104210002F33343C3C3C3C3C3C3C38393A3B4146F7
:104220003846009AFDF732FC2BE041463846009AAA
:10423000FDF75AFC25E041463846009AFDF771FC2F
:104240001FE041463846009AFDF78EFC19E04146D2
:104250003846009AFDF7ABFC13E053464246394618
:104260004846FDF713FD0CE03846FDF7AFFD08E0CA
:1042700007E03846FDF7E6FD03E002E001E000E07C
:1042800000BF00BF71480078401C704908706D483D
:10429000007800287FF4F6AE6B490870BDE8FC9FFB
:1042A0002DE9FC5F04460D4616463046F11706EB35
:1042B0001171C1F30711634A11700020644908703D
:1042C0000FE16349097805EB0111605CFBF7F3FF2F
:1042D00042F2107100FB01FB5D4909786A1C02EB98
:1042E0000111605CFBF7E7FF00EB4001C1EBC01080
:1042F0000BEBC00B56490978AA1C02EB0111605C5C
:10430000FBF7D9FF00EBC00101EB00100BEB800BBA
:104310004F490978EA1C02EB0111605CFBF7CBFF07
:1043200000EB80000BEB400B494909782A1D02EB9A
:104330000111605CFBF7BFFF58441FFA80F9444845
:104340000078691D01EB0010205C01904048007866
:10435000A91D01EB0010275C3D49097805F1080211
:1043600002EB0111605CFBF7A6FF83463849097830
:10437000EA1D02EB0111605CFBF79DFF00EB800082
:104380000BEB40083249097805F10B0202EB0111F1
:10439000605CFBF790FF83462D49097805F109021F
:1043A00002EB0111605CFBF786FF00EB80000BEB7A
:1043B000400000902649097805F10B0202EB01113B
:1043C000605CFBF778FF42F2107100FB01FB2049B3
:1043D000097805F10C0202EB0111605CFBF76BFF41
:1043E00000EB4001C1EBC0100BEBC00B1849097882
:1043F00005F10D0202EB0111605CFBF75CFF00EBC5
:10440000C00101EB00100BEB800B1149097805F19D
:104410000E0202EB0111605CFBF74DFF00EB800028
:104420000BEB400B0A49097805F10F0202EB011171
:10443000605CFBF740FF58441FFA80FA019809E0DE
:104440007A01002064010020920000207B010020FE
:104450007C010020313814283DD2DFE800F00A103A
:10446000161C22282F33343C3C3C3C3C3C3C383925
:104470003A3B41463846009AFDF708FB2BE041469F
:104480003846009AFDF730FB25E041463846009A51
:10449000FDF747FB1FE041463846009AFDF764FBF5
:1044A00019E041463846009AFDF781FB13E0534678
:1044B000424639464846FDF7E9FB0CE03846FDF731
:1044C00085FC08E007E03846FDF7BCFC03E002E0AD
:1044D00001E000E000BF00BFFE480078401CFD493D
:1044E0000870FD48007800287FF4EBAEFB490870A7
:1044F000BDE8FC9F2DE9FC5F04460D46164630469C
:10450000F11706EB1171C1F30711F34A1170002086
:10451000F349087004E1F249097805EB0111605C88
:10452000FBF7C9FE42F2107100FB01FBEC49097870
:104530006A1C02EB0111605CFBF7BDFE00EB400161
:10454000C1EBC0100BEBC00BE5490978AA1C02EBCC
:104550000111605CFBF7AFFE00EBC00101EB001046
:104560000BEB800BDE490978EA1C02EB0111605C61
:10457000FBF7A1FE00EB80000BEB400BD84909785C
:104580002A1D02EB0111605CFBF795FE58441FFAEF
:1045900080F9D3480078691D01EB0010205C019080
:1045A000CF480078A91D01EB0010275CCC490978A1
:1045B00005F1080202EB0111605CFBF77CFE83460B
:1045C000C7490978EA1D02EB0111605CFBF773FE35
:1045D00000EB80000BEB4008C149097805F10B02A4
:1045E00002EB0111605CFBF766FE8346BC4909786B
:1045F00005F1090202EB0111605CFBF75CFE00EBC8
:1046000080000BEB40000090B549097805F10B02E2
:1046100002EB0111605CFBF74EFE42F2107100FBF1
:1046200001FBAF49097805F10C0202EB0111605C56
:10463000FBF741FE00EB4001C1EBC0100BEBC00BE0
:10464000A749097805F10D0202EB0111605CFBF747
:1046500032FE00EBC00101EB00100BEB800BA04918
:10466000097805F10E0202EB0111605CFBF723FEF5
:1046700000EB80000BEB400B9949097805F10F0224
:1046800002EB0111605CFBF716FE58441FFA80FA3A
:104690000198313814283DD2DFE800F00A10161CCA
:1046A00022282F33343C3C3C3C3C3C3C38393A3BA0
:1046B00041463846009AFDF7E9F92BE04146384675
:1046C000009AFDF711FA25E041463846009AFDF7B9
:1046D00028FA1FE041463846009AFDF745FA19E0EE
:1046E00041463846009AFDF762FA13E053464246C7
:1046F00039464846FDF7CAFA0CE03846FDF766FB36
:1047000008E007E03846FDF79DFB03E002E001E02A
:1047100000E000BF00BF72480078401C704908707C
:104720006D48007800287FF4F6AE6C490870BDE84B
:10473000FC9F2DE9FC5F04460D4616463046F117F6
:1047400006EB1171C1F30711634A1170002065492E
:1047500008700FE16349097805EB0111605CFBF714
:10476000AAFD42F2107100FB01FB5E4909786A1C48
:1047700002EB0111605CFBF79EFD00EB4001C1EB19
:10478000C0100BEBC00B57490978AA1C02EB0111B2
:10479000605CFBF790FD00EBC00101EB00100BEB40
:1047A000800B50490978EA1C02EB0111605CFBF7B1
:1047B00082FD00EB80000BEB400B4A4909782A1D73
:1047C00002EB0111605CFBF776FD58441FFA80F99B
:1047D00044480078691D01EB0010205C01904148BD
:1047E0000078A91D01EB0010275C3E49097805F10E
:1047F000080202EB0111605CFBF75DFD834639495D
:104800000978EA1D02EB0111605CFBF754FD00EB37
:1048100080000BEB40083349097805F10B0202EBED
:104820000111605CFBF747FD83462E49097805F1CD
:10483000090202EB0111605CFBF73DFD00EB80001B
:104840000BEB400000902749097805F10B0202EBC1
:104850000111605CFBF72FFD42F2107100FB01FBC0
:104860002049097805F10C0202EB0111605CFBF7AD
:1048700022FD00EB4001C1EBC0100BEBC00B19494E
:10488000097805F10D0202EB0111605CFBF713FDE5
:1048900000EBC00101EB00100BEB800B1149097814
:1048A00005F10E0202EB0111605CFBF704FD00EB69
:1048B00080000BEB400B0B49097805F10F0202EB6E
:1048C0000111605CFBF7F7FC58441FFA80FA01986D
:1048D000313809E07C0100206401002092000020B2
:1048E0007D0100207E01002014283DD2DFE800F089
:1048F0000A10161C22282F33343C3C3C3C3C3C3CE8
:1049000038393A3B41463846009AFDF7BFF82BE06C
:1049100041463846009AFDF7E7F825E0414638461B
:10492000009AFDF7FEF81FE041463846009AFDF771
:104930001BF919E041463846009AFDF738F913E0B3
:104940005346424639464846FDF7A0F90CE0384642
:10495000FDF73CFA08E007E03846FDF773FA03E09C
:1049600002E001E000E000BF00BFFE480078401C0C
:10497000FC490870FC48007800287FF4EBAEFB4946
:104980000870BDE8FC9F2DE9FC5F04460D46164605
:104990003046F11706EB1171C1F30711F24A11709D
:1049A0000020F349087004E1F149097805EB011191
:1049B000605CFBF780FC42F2107100FB01FBEC49EC
:1049C00009786A1C02EB0111605CFBF774FC00EBD8
:1049D0004001C1EBC0100BEBC00BE5490978AA1CE4
:1049E00002EB0111605CFBF766FC00EBC00101EB20
:1049F00000100BEB800BDE490978EA1C02EB011179
:104A0000605CFBF758FC00EB80000BEB400BD849D7
:104A100009782A1D02EB0111605CFBF74CFC58443D
:104A20001FFA80F9D2480078691D01EB0010205C64
:104A30000190CF480078A91D01EB0010275CCC49FC
:104A4000097805F1080202EB0111605CFBF733FC09
:104A50008346C7490978EA1D02EB0111605CFBF748
:104A60002AFC00EB80000BEB4008C149097805F1F6
:104A70000B0202EB0111605CFBF71DFC8346BC4995
:104A8000097805F1090202EB0111605CFBF713FCE8
:104A900000EB80000BEB40000090B549097805F170
:104AA0000B0202EB0111605CFBF705FC42F2107196
:104AB00000FB01FBAE49097805F10C0202EB011184
:104AC000605CFBF7F8FB00EB4001C1EBC0100BEBA7
:104AD000C00BA749097805F10D0202EB0111605CDA
:104AE000FBF7E9FB00EBC00101EB00100BEB800BC7
:104AF0009F49097805F10E0202EB0111605CFBF79A
:104B0000DAFB00EB80000BEB400B9949097805F1CB
:104B10000F0202EB0111605CFBF7CDFB58441FFA5A
:104B200080FA0198313814283DD2DFE800F00A10ED
:104B3000161C22282F33343C3C3C3C3C3C3C38394E
:104B40003A3B41463846009AFCF7A0FF2BE041462D
:104B50003846009AFCF7C8FF25E041463846009ADF
:104B6000FCF7DFFF1FE041463846009AFCF7FCFFE8
:104B700019E041463846009AFDF719F813E053460C
:104B8000424639464846FDF781F80CE03846FDF7C5
:104B90001DF908E007E03846FDF754F903E002E0AC
:104BA00001E000E000BF00BF71480078401C704980
:104BB00008706D48007800287FF4F6AE6B490870E5
:104BC000BDE8FC9F2DE9FC5F04460D4616463046C5
:104BD000F11706EB1171C1F30711634A1170002040
:104BE000644908700FE16349097805EB0111605CC5
:104BF000FBF761FB42F2107100FB01FB5D49097894
:104C00006A1C02EB0111605CFBF755FB00EB4001F5
:104C1000C1EBC0100BEBC00B56490978AA1C02EB84
:104C20000111605CFBF747FB00EBC00101EB0010DA
:104C30000BEB800B4F490978EA1C02EB0111605C19
:104C4000FBF739FB00EB80000BEB400B494909787F
:104C50002A1D02EB0111605CFBF72DFB58441FFA83
:104C600080F944480078691D01EB0010205C019038
:104C700040480078A91D01EB0010275C3D490978E8
:104C800005F1080202EB0111605CFBF714FB83469F
:104C900038490978EA1D02EB0111605CFBF70BFB58
:104CA00000EB80000BEB40083249097805F10B025C
:104CB00002EB0111605CFBF7FEFA83462D4909788F
:104CC00005F1090202EB0111605CFBF7F4FA00EB5D
:104CD00080000BEB400000902649097805F10B029B
:104CE00002EB0111605CFBF7E6FA42F2107100FB87
:104CF00001FB2049097805F10C0202EB0111605C0F
:104D0000FBF7D9FA00EB4001C1EBC0100BEBC00B75
:104D10001849097805F10D0202EB0111605CFBF7FF
:104D2000CAFA00EBC00101EB00100BEB800B11493C
:104D3000097805F10E0202EB0111605CFBF7BBFA8A
:104D400000EB80000BEB400B0A49097805F10F02DC
:104D500002EB0111605CFBF7AEFA58441FFA80FACF
:104D6000019809E07E0100206401002092000020EB
:104D70007F01002080010020313814283DD2DFE877
:104D800000F00A10161C22282F33343C3C3C3C3CDB
:104D90003C3C38393A3B41463846009AFCF776FEAF
:104DA0002BE041463846009AFCF79EFE25E041463E
:104DB0003846009AFCF7B5FE1FE041463846009A97
:104DC000FCF7D2FE19E041463846009AFCF7EFFEA8
:104DD00013E05346424639464846FCF757FF0CE07D
:104DE0003846FCF7F3FF08E007E03846FDF72AF8FD
:104DF00003E002E001E000E000BF00BFEF48007800
:104E0000401CEE490870EE48007800287FF4EBAEB5
:104E1000EC490870BDE8FC9F2DE9FC5F04460D4697
:104E200016463046F11706EB1171C1F30711E44A3B
:104E300011700020E449087004E1E349097805EBAA
:104E40000111605CFBF737FA42F2107100FB01FBC5
:104E5000DD4909786A1C02EB0111605CFBF72BFA53
:104E600000EB4001C1EBC0100BEBC00BD649097839
:104E7000AA1C02EB0111605CFBF71DFA00EBC001FC
:104E800001EB00100BEB800BCF490978EA1C02EB19
:104E90000111605CFBF70FFA00EB80000BEB400B9D
:104EA000C94909782A1D02EB0111605CFBF703FA7E
:104EB00058441FFA80F9C4480078691D01EB0010BE
:104EC000205C0190C0480078A91D01EB0010275C10
:104ED000BD49097805F1080202EB0111605CFBF79E
:104EE000EAF98346B8490978EA1D02EB0111605CD2
:104EF000FBF7E1F900EB80000BEB4008B2490978C1
:104F000005F10B0202EB0111605CFBF7D4F983465B
:104F1000AD49097805F1090202EB0111605CFBF76C
:104F2000CAF900EB80000BEB40000090A64909781D
:104F300005F10B0202EB0111605CFBF7BCF942F2D8
:104F4000107100FB01FBA049097805F10C0202EB8E
:104F50000111605CFBF7AFF900EB4001C1EBC01041
:104F60000BEBC00B9849097805F10D0202EB01111A
:104F7000605CFBF7A0F900EBC00101EB00100BEB4C
:104F8000800B9149097805F10E0202EB0111605C7A
:104F9000FBF791F900EB80000BEB400B8A49097895
:104FA00005F10F0202EB0111605CFBF784F9584434
:104FB0001FFA80FA0198313814283DD2DFE800F05A
:104FC0000A10161C22282F33343C3C3C3C3C3C3C11
:104FD00038393A3B41463846009AFCF757FD2BE0FA
:104FE00041463846009AFCF77FFD25E041463846A9
:104FF000009AFCF796FD1FE041463846009AFCF700
:10500000B3FD19E041463846009AFCF7D0FD13E0A5
:105010005346424639464846FCF738FE0CE03846CF
:10502000FCF7D4FE08E007E03846FCF70BFF03E08E
:1050300002E001E000E000BF00BF63480078401CD0
:10504000614908705E48007800287FF4F6AE5D493B
:105050000870BDE8FC9F10B50446152C13D2DFE89C
:1050600004F0AB0B131B232B333B434B535B636BA2
:10507000737B838B939BA300544802885448018818
:105080005448FDF70EF997E05348028853480188C9
:105090005048FDF730FA8FE05148028851480188A6
:1050A0004C48FDF747FB87E04F4802884F4801888E
:1050B0004848FDF769FC7FE04D4802884D4801886B
:1050C0004448FDF780FD77E04B4802884B48018853
:1050D0004048FDF7A2FE6FE0494802884948018830
:1050E0003C48FDF7B9FF67E0474802884748018818
:1050F0003848FEF7DBF85FE04548028845480188FC
:105100003448FEF7F2F957E04348028843480188E3
:105110003048FEF714FB4FE04148028841480188BF
:105120002C48FEF72BFC47E03F4802883F480188A7
:105130002848FEF74DFD3FE03D4802883D48018884
:105140002448FEF764FE37E03B4802883B4801886C
:105150002048FEF786FF2FE0394802883948018849
:105160001C48FFF79DF827E0374802883748018838
:105170001848FFF7BFF91FE0354802883548018815
:105180001448FFF7D6FA17E03348028833480188FD
:105190001048FFF7F8FB0FE03148028831480188DA
:1051A0000C48FFF70FFD07E02F4802882F480188C1
:1051B0000848FFF731FE00BF00BF10BD800100208E
:1051C00064010020920000208101002008000020DE
:1051D000060000206C7700200C0000200A00002050
:1051E000100000200E0000201400002012000020FB
:1051F00018000020160000201C0000201A000020CB
:10520000200000201E00002024000020220000209A
:1052100028000020260000202C0000202A0000206A
:10522000300000202E00002034000020320000203A
:1052300038000020360000203C0000203A0000200A
:10524000400000203E0000204400002042000020DA
:1052500048000020460000204C0000204A000020AA
:10526000500000204E00002054000020520000207A
:1052700070B505460C4615B1012D66D132E0002C03
:1052800012DA0120DA4908600020DA49C1F8A001E9
:10529000D749091F0860604204B2C4F5347081B276
:1052A000D54802F0AFFF1CE0002C11DD0120D049F1
:1052B00008600020CF49C1F8A0010120CC49091F96
:1052C0000860C4F5347081B2CB4802F09BFF08E05F
:1052D0000020C7490860C4F5347081B2C64802F0A6
:1052E0008FFF33E0002C13DA0120C449086000204E
:1052F000C349C1F884010120BD49103108606042F2
:1053000004B2C4F5347081B2BB4802F079FF1BE0EF
:10531000002C10DD0120B94908600020B849C1F80F
:105320008401B34910310860C4F5347081B2B248C9
:1053300002F066FF08E00020B0490860C4F5347050
:1053400081B2AD4802F05CFF00E000BF00BF70BD5D
:105350002DE9F04F89B00446AA4800680068A0EB28
:105360000409A8490968486A03F0E5FB0546A54811
:1053700000688769C3693A46284603F0F2FACDE926
:105380000401A0490968086A03F0D5FB07469D4857
:105390000068056943692A46384603F0E2FACDE918
:1053A0000001484603F0C7FB074688469548016858
:1053B0008D68CB682A463846414603F0D2FA8246C9
:1053C000DDE9002303F0C7FACDE90201DDE904239A
:1053D00003F020FACDE9060103F0E4FB08908948C8
:1053E0000068006A87490968486286480068C0F812
:1053F0002090089809B0BDE8F08F7CB504460D46B2
:1054000000200190009080480068019000207E49B3
:1054100008607C480068046008460068FFF798FF51
:1054200000907A48B0F90000009908447849086073
:105430000846008801B20020FFF71AFF7CBD7CB54A
:1054400004460D46002001900090724800680190CB
:105450006C48006804606F480068FFF779FF0090AF
:105460006D48B0F90000009908446C49086008468E
:10547000008801B20120FFF7FBFE7CBD00206149DE
:10548000096808625F4909684862002164485D4A0A
:1054900012689160D060634963485A4A126811618A
:1054A00050616248574A12689161D0617047C0F5F7
:1054B000347108B2704710B504463821204603F015
:1054C00002F9E22060731E2020730120A07710BD36
:1054D0000170704701614261836170472DE9F04FAF
:1054E00085B004460F4600250026A84694F9000022
:1054F000C51BA0682844A060207F281A40B2E0772E
:1055000094F91C00022101FB1050617F084440B255
:1055100084F8200068B284F8210094F91F00002864
:1055200002DD4FF0010805E094F91F00002801DAC0
:105530004FF0FF38002D02DDB8F1000F04DB002D25
:1055400005DAB8F1000F02DD0020A07701E00120AC
:10555000A07794F9200003F0E5FA8346A16903F0EF
:1055600027F9049094F9210003F0DCFA029094F9F1
:105570001E0003F0D7FA0090616903F019F9019059
:10558000029903F015F9039094F91F0003F0CAFA89
:105590000290216903F00CF98346039903F0B0F8F7
:1055A0008246049903F0ACF8814603F0E2FA06461D
:1055B0006662A06AB04201DAA66203E0E06AB04225
:1055C00000DDE662207F607768B22077206B304490
:1055D0006063606B2063304605B0BDE8F08F70B546
:1055E00004460D4629462046FFF778FF70BD0000AF
:1055F0009481214200802142000400408001234226
:10560000000023429801002020010020F800002023
:10561000A801002024010020FA000020AC01002095
:105620000000F8BF9A9999999999E93F9999D93FBA
:105630002DE9F0478246504603F08EFA80464246F6
:105640000B460020414903F0FEF906460022404B7C
:1056500003F087F9044603F0C4FA80B2BDE8F0878E
:10566000F0B502460023002500200024002100BFE1
:10567000384E3678384F3F783E44384F3F783E4476
:10568000344FFF7B3E44102E20D01DE0314EF65C9F
:105690001EB90125661CF4B205E015B94E1CF1B225
:1056A00001E0461CF0B22B4EF65CC6F101062C4F11
:1056B000FF56DFF8B0C0BCF900C006FB07C636B223
:1056C000284F3E805E1CF3B2102BDFD1254EB6F979
:1056D0000060002E06DD0026234F3E700126234F7A
:1056E0003E7010E01F4EB6F90060002E06DA01266B
:1056F0001D4F3E7000261D4F3E7004E000261A4FDD
:105700003E701A4F3E701A4E30701A4E31701A4E5B
:10571000347088420CDD461A02EB460636B2174F4B
:105720003E80461AA2EB460636B2154F3E800BE08D
:105730000E1A02EB460636B2114F3E800E1AA2EB4D
:10574000460636B20D4F3E80F0BD00000000F03F2F
:105750000088C3402C0200206E0000206F00002053
:10576000C0010020BA010020B2010020B3010020D6
:10577000B4010020B6010020B5010020F80000208F
:10578000FA00002010B500F061F800F096F810BDA6
:1057900070B500250026002400F06FF8712000F09D
:1057A00018F900F0ABF8012000F041F9054600209F
:1057B00000F03DF9064600F080F82C464FF6FF70E9
:1057C00000EA0424A01984B2204670BD10B5044636
:1057D00000F053F8702000F0FCF800F08FF820463D
:1057E00000F0F7F800F08AF800F067F810BD10B587
:1057F000044600F042F8782000F0EBF800F07EF864
:10580000204600F0E6F800F079F800F056F810BDF8
:1058100070B50025002600F030F8792000F0D9F8A6
:1058200000F06CF8012000F002F90546002000F0BD
:10583000FEF8064600F041F82C464FF6FF7000EAED
:105840000424A01984B2204670BD000008B50121CF
:10585000102001F0A9FD0C20ADF8000010208DF8FB
:10586000030003208DF8020069468A4801F0E0FA3F
:105870000C21884801F089FB08BD10B585480068F7
:1058800020F47040834908600846006840F44050A6
:1058900008600120804908608049C1F888015020D3
:1058A00000F035FB00207C490860502000F02FFB01
:1058B00000207A49C1F8880110BD10B5754800680C
:1058C00020F47040734908600846006840F4405076
:1058D000086000207049091F08607049C1F88C01F8
:1058E000502000F014FB01206B49091F08606B4930
:1058F000C1F88C01502000F00AFB10BD10B5002447
:105900006448006820F470406249086008460068F6
:1059100040F40040086001205F49091F086014201E
:1059200000F0F5FA05E0601CC4B2FA2C01DD01209C
:1059300010BD5948803800680028F4D15649091F25
:10594000086000BFF4E710B500205349091F086044
:105950005048006820F470404E49086008460068CE
:1059600040F44050086000204C49C1F88C012820C8
:1059700000F0CDFA01204849091F0860282000F0F6
:10598000C6FA00204549C1F8880110BD10B50020B5
:105990004149091F08603F48006820F470403D49B4
:1059A00008600846006840F44050086001203B4908
:1059B000C1F88C01282000F0AAFA01203649091FFD
:1059C0000860282000F0A3FA00203449C1F88801BB
:1059D00010BD70B504462F48006820F470402D4972
:1059E00008600846006840F44050086000202A49DA
:1059F000091F0860002517E0E009274908606006D4
:105A0000040E282000F083FA01202449C1F88801FF
:105A1000282000F07CFA00201F49091F0860282078
:105A200000F075FA681CC5B2082DE5DB70BD70B5D5
:105A3000054600241748006820F4704015490860A6
:105A40000846006840F400400860002617E0002087
:105A50001149091F0860282000F059FA01200F4958
:105A6000C1F888016006040E0B488038006808B150
:105A7000601CC4B2142000F04AFA701CC6B2082E92
:105A8000E5DB15B9FFF782FF01E0FFF75CFF204679
:105A900070BD0000001001408C0122420000224233
:105AA00008B50121682001F07FFC4FF47040ADF88B
:105AB000000048208DF803006946BE4801F0B8F99F
:105AC0004FF47F40ADF8000048208DF80300694690
:105AD000B94801F0ADF94FF68070ADF800004820EC
