:020000040800F2
:1000000030B10020F5770008910D0008930D00082D
:10001000970D00089B0D00089F0D000800000000D0
:10002000000000000000000000000000A30D000818
:10003000A50D000800000000A70D0008A90D00088C
:100040000F7800080F7800080F7800080F78000874
:100050000F7800080F7800080F7800080F78000864
:100060000F7800080F7800080F7800080F78000854
:100070000F7800080F7800080F7800080F78000844
:100080000F7800080F7800080F7800080F78000834
:100090000F7800080F7800080F78000863650008E3
:1000A0000F7800080F7800080F7800080F78000814
:1000B000A91500080F780008871900080F780008B4
:1000C0000F7800080F7800080F7800080F780008F4
:1000D0000F780008816E00089F6F000831710008DA
:1000E0000F7800080F7800080F7800080F780008D4
:1000F0000F7800080F7800080F7800080F780008C4
:100100000F7800080F7800080F7800080F780008B3
:100110008F720008F56900080F7800080F78000852
:100120000F7800080F7800080F7800080F78000893
:10013000DFF80CD009F04AFE00480047910B000898
:1001400030B1002010B500BFF14808F0A1FF5028E1
:10015000FAD11422EFA1F0A006F0D8FC1422EDA1F0
:10016000F1A006F0D3FC10BD10B54FF40041F948E2
:1001700007F0B3FCF849C8734FF48041F54807F025
:10018000ACFCF54988734FF40051F24807F0A5FC28
:10019000F14948734FF48051EE4807F09EFCEE4958
:1001A00008734FF40061EB4807F097FCEA49C87206
:1001B0004FF48061E74807F090FCE74988724FF4FC
:1001C0000071E44807F089FCE34948724FF48071FC
:1001D000E04807F082FCE04908724FF40041DF4834
:1001E00007F07BFCDC49C8714FF48041DB4807F025
:1001F00074FCD94988714FF40051D84807F06DFC60
:10020000D54948714FF48051D44807F066FCD24973
:1002100008714FF40041D24807F05FFCCE49C87026
:100220004FF48041CE4807F058FCCB4988704FF41A
:100230000051CB4807F051FCC74948704FF480513A
:10024000C74807F04AFCC44908700846007A497A52
:100250000844C149897A0844BF49C97A0844BE495B
:10026000097B0844BC49497B0844BB49897B084455
:10027000BC490870B8484078B74989780844B649FD
:10028000C9780844B44909790844B349497908440C
:10029000B14989790844B049C9790844B24908701C
:1002A00010BD10B5044601F0B8FDFFF75DFF462014
:1002B00005F0C6FB10BD0146A1F13002172A2DD270
:1002C000DFE802F00C0E10121416181A1C1E2C2C4B
:1002D0002C2C2C2C2C20222426282A0000201DE047
:1002E00001201BE0022019E0032017E0042015E0A4
:1002F000052013E0062011E007200FE008200DE0A4
:1003000009200BE00A2009E00B2007E00C2005E0A3
:100310000D2003E00E2001E00F2000BF00BF70475A
:100320002DE9FF41074600240D2500200390009091
:1003300038B2029070E2BDF90C10491C04FB0511A3
:100340008A4A505CFFF7B7FF642100FB01F8BDF952
:100350000C10891C04FB0511844A505CFFF7ABFFAD
:1003600000EB800008EB4008BDF90C10C91C04FB31
:1003700005117E4A505CFFF79EFF4044C6B2BDF9AE
:100380000C10C91D04FB0511784A505CFFF793FF60
:100390004FF47A7100FB01F8BDF90C10083104FB31
:1003A0000511724A505CFFF786FF00EBC00101EBBC
:1003B000001008EB8008BDF90C10093104FB051191
:1003C0006A4A505CFFF777FF00EB800008EB4008BB
:1003D000BDF90C100A3104FB0511644A505CFFF7AB
:1003E0006AFF404400B20090BDF90C000B3004FBE2
:1003F000050000B20190BDF80C00BDF800100844E3
:1004000000B20390601CC4B2152E1CD2DFE806F0C7
:100410000B1C3044586CCADEFFFDFCFBFAF9F8F700
:10042000F6F5F4F3F200BDF8040051490880BDF878
:10043000000050490880BDF808104F4800880D3072
:10044000081A00B20290E6E1BDF804004B490880AA
:10045000BDF8000048490880BDF8081046480088EB
:100460000D30081A00B20290012045490870D2E10F
:10047000BDF8040043490880BDF8000042490880E7
:10048000BDF80810404800880D30081A00B20290EC
:1004900002203B490870BEE1BDF804003B490880DA
:1004A000BDF800003A490880BDF8081038480088B7
:1004B0000D30081A00B20290032031490870AAE1F9
:1004C000BDF8040033490880BDF8000032490880B7
:1004D000BDF80810304800880D30081A00B20290AC
:1004E00004202749087096E1BDF804002B490880D4
:1004F000BDF800002A490880BDF808102848008887
:100500000D30081A00B2029005201D49087082E1E2
:10051000004C00404F4B000041542B4349504D4F7D
:1005200044453D310D0A000041542B43495053547A
:100530004152543D22544350222C223139322E3123
:1005400036382E352E313037222C383031350D0AE1
:1005500000000000001401408C020020000C01404B
:10056000001801406E0000206F000020CC770020B2
:1005700000000020020000200800002006000020EB
:10058000BC0000200A0000200C0000200E0000200B
:10059000100000201200002014000020160000208F
:1005A00018000020BDF80400FE490880BDF80000D6
:1005B000FD490880BDF80810FB4800880D30081A76
:1005C00000B202900620F949087024E1BDF8040049
:1005D000F7490880BDF80000F6490880BDF808100A
:1005E000F44800880D30081A00B202900720EF4945
:1005F000087010E1FBE0E6E0D1E0BCE0A7E092E0AB
:100600007DE068E053E03EE029E014E0FFE7BDF85C
:100610000400E9490880BDF80000E8490880BDF8F9
:100620000810E64800880D30081A00B20290082031
:10063000DE490870EFE0BDF80400E1490880BDF82C
:100640000000E0490880BDF80810DE4800880D3041
:10065000081A00B202900920D4490870DBE0BDF806
:100660000400D9490880BDF80000D8490880BDF8C9
:100670000810D64800880A30081A00B202900A20F2
:10068000CA490870C7E0BDF80400D1490880BDF828
:100690000000D0490880BDF80810CE4800880A3014
:1006A000081A00B202900B20C0490870B3E0BDF8F0
:1006B0000400C9490880BDF80000C8490880BDF899
:1006C0000810C64800880A30081A00B202900C20B0
:1006D000B64908709FE0BDF80400C1490880BDF824
:1006E0000000C0490880BDF80810BE4800880A30E4
:1006F000081A00B202900D20AC4908708BE0BDF8DA
:100700000400B9490880BDF80000B8490880BDF868
:100710000810B64800880A30081A00B202900E206D
:10072000A249087077E0BDF80400B1490880BDF81F
:100730000000B0490880BDF80810AE4800880A30B3
:10074000081A00B202900F209849087063E0BDF8C3
:100750000400A9490880BDF80000A8490880BDF838
:100760000810A64800880A30081A00B2029010202B
:100770008E4908704FE0BDF80400A1490880BDF81B
:100780000000A0490880BDF808109E4800880A3083
:10079000081A00B202901120844908703BE0BDF8AD
:1007A000040099490880BDF8000098490880BDF808
:1007B0000810964800880A30081A00B202901220E9
:1007C0007A49087027E0BDF8040091490880BDF817
:1007D000000090490880BDF808108E4800880A3053
:1007E000081A00B2029013207049087013E0BDF897
:1007F000040089490880BDF8000088490880BDF8D8
:100800000810864800880A30081A00B202901420A6
:100810006649087000BF00BFBDF908000C283FF70B
:100820008AADBDE8FF812DE9F04F04460025A846BA
:1008300000BFA078FFF73FFD642100FB01FBE078DB
:10084000FFF739FD00EB80000BEB400B2079FFF741
:1008500032FD584400F0FF0ABAF1000F54D10120D4
:100860006F490870207AFFF726FD4FF47A7100FB7C
:1008700001FB607AFFF71FFD00EBC00101EB0010E8
:100880000BEB800BA07AFFF716FD00EB80000BEB63
:10089000400BE07AFFF70FFD584462490880084694
:1008A0000088401C86B209E05F4905F10C00085C35
:1008B0005E494855681C85B2701E86B2002EF3DC76
:1008C000002500BF574800880D30205C2C281AD125
:1008D0000BE005F10E005349098808445249085CB1
:1008E00053494855681C85B22F464E4800880E3043
:1008F0002844205C7D28ECD100253846FFF710FD08
:1009000001204C490870D5E0207AFFF7D4FC4FF461
:100910007A7100FB01FB607AFFF7CDFC00EBC001B0
:1009200001EB00100BEB800BA07AFFF7C4FC00EB8F
:1009300080000BEB400BE07AFFF7BDFC584487B218
:100940000025AAE0681C205C2C282AD1E91C605CE8
:10095000FFF7B1FC642100FB01FB291D605CFFF780
:10096000AAFC00EB80000BEB400B691D605CFFF7FD
:10097000A2FC584400F0FF09B9F1000F70D101202A
:1009800027490870607AFFF796FC4FF47A7100FBF4
:1009900001FBA07AFFF78FFC00EBC00101EB001018
:1009A0004AE072E01A0000201C000020BC00002079
:1009B0001E00002020000020220000202400002033
:1009C00026000020280000202A0000202C00002003
:1009D0002E000020300000203200002034000020D3
:1009E00036000020380000203A0000203C000020A3
:1009F0003E00002040000020420000204400002073
:100A000046000020480000204A0000204C00002042
:100A10004E00002050000020520000205400002012
:100A20008C000020040000209C020020BC5000200C
:100A3000CC770020920000200BEB800BE07AFFF7D0
:100A40003AFC00EB80000BEB400B207BFFF733FC04
:100A50005844AD49088008460088401C86B20FE023
:100A600012E0AA4905F10D00085CA94901F8080047
:100A7000681C85B208F101001FFA80F8701E86B26A
:100A8000002EEEDC4FF000080CE0A049681C085C6A
:100A9000A0494855681C85B22F46681C205C7D28FB
:100AA0007FF450AF00BF00253846FFF739FC012026
:100AB00099490870BDE8F08F704770470BE0974880
:100AC0000078012807D196480088401C9449088086
:100AD000002092490870934800780028EFD07047B2
:100AE00010B5FFF741FB01208F4908608F49C1F81D
:100AF000940100208C49091D086001208C49086080
:100B00000020091F08600120894914390860142059
:100B10008849088088490880884800788849097889
:100B200008448849097808448449C97B0844102846
:100B300002D1012084490870804880797F49C979B1
:100B400008447E49097A0844012814DC7E4800786C
:100B5000012810D100207C4908707C4800780128C9
:100B600003D100207A49087005E07848007810B970
:100B700006207749087010BD10B576480078012826
:100B800005D1614802880021614801F07FFB10BD5A
:100B90001CB500200090019006F008F84FF4A0600A
:100BA00006F03AFE4FF4E13006F01DF94FF4E13063
:100BB00006F0A3F94FF4E13006F041FA4FF4E130CA
:100BC00006F015FB05F010FF01F03DF805F083F885
:100BD000132140F2CF2000F01DFE40F2CF21632010
:100BE00000F0B2FC05F0E1FC0121084607F0ABF98A
:100BF0000121880707F02EFE01204B490C310860C7
:100C00005549C1F894011D21702004F0D3FF6420E0
:100C100006F009F8642006F006F819204F4908800C
:100C20000E214F4808F093FC00203F491431086022
:100C300069E008F029FC05F02EFF06F04AFC49485F
:100C40000078012805D13148FFF7EDFD0020454926
:100C5000087040480078012801D1FFF78DFF424815
:100C6000007801280CD100203F4908703F480078E7
:100C70003F490978884203D13C48007804F03AFBA8
:100C80003348007807283CD2DFE800F004080C1055
:100C900014181B0000203749087033E00020354944
:100CA00008702FE00020334908702BE00020314904
:100CB000087027E000202F49087023E0FFF710FF9D
:100CC00020E02D480078002817DD08F0ADFBA0B12A
:100CD00000202A4908802A4908802A4908800A20D9
:100CE000294908700021084605F0FCFD012027492C
:100CF000087000201F49087002E001201D4908709B
:100D000000E000BF00BF94E7040000209C02002028
:100D1000BC500020CC7700209200002091000020E1
:100D2000D60000208E000020800123420080214256
:100D3000A4812142F2000020F00000208C0200205B
:100D40006E0000206F000020900000208F00002027
:100D5000990000208C000020000023426600002043
:100D600020AD00203C0200203E0200206100002057
:100D7000BC000020C8000020480100204C010020D9
:100D80004E0100205001002020010020840200209C
:100D9000704700BFFEE700BFFEE700BFFEE700BFF1
:100DA000FEE7704770477047704700000CB50020A1
:100DB000019000906C48006840F480306A490860F7
:100DC00000BF6948006800F4003000900198401CA2
:100DD0000190009818B90198B0F5A06FF1D1624860
:100DE000006800F4003010B10120009001E0002004
:100DF00000900098012843D15C48006840F0100042
:100E00005A4908600846006820F003000860084658
:100E1000006840F00200086053484068524948604A
:100E20000846406848600846406840F48060486072
:100E30000846406820F47C1048600846406840F44A
:100E4000E81048600846006840F08070086000BF05
:100E50004548006800F000700028F9D0424840681A
:100E600020F00300404948600846406840F0020016
:100E7000486000BF3C48406800F00C000828F9D1E9
:100E80000CBD10B5FFF792FF10BD10B536480068D5
:100E900040F0010034490860084640683449084081
:100EA0003149486008460068324908402E490860C8
:100EB0000846006820F4802008600846406820F456
:100EC000FE0048604FF41F008860FFF7DAFF4FF024
:100ED00000602949086010BD10B5002100200022E3
:100EE000214B5B6803F00C0121B1042906D00829CD
:100EF00028D107E0214B224C236027E01F4B204CD8
:100F0000236023E0184B5B6803F47010164B5B689A
:100F100003F48032022303EB904022B9194B434380
:100F2000174C23600DE0104B5B6803F4003323B1D2
:100F3000144B4343124C236003E0104B4343104CCB
:100F4000236003E00D4B0E4C236000BF00BF064B37
:100F50005B68C3F303130C4CE15C094B1B68CB408B
:100F6000074C236010BD000000100240002002402A
:100F70000000FFF8FFFFF6FE08ED00E000127A0027
:100F8000D800002000093D00DC00002001460020C0
:100F9000FE4A106800F03800084310607047FB49B3
:100FA000096821F00801F94A1160114609680143F6
:100FB00011607047F549096821F01001F34A11608A
:100FC00011460968014311607047F148EF494860D4
:100FD000F04848607047EE48EC494860ED4848608A
:100FE0007047EA48006940F08000E84908617047AE
:100FF000E648006940F08000E44908617047042039
:10100000E249C96801F0010109B101200EE0DF49A0
:10101000C96801F0040109B1022007E0DB49C96891
:1010200001F0100109B1032000E00420704700B571
:1010300002460423FFF7E3FF034603E0FFF7DFFF69
:101040000346521E012B01D1002AF7D102B9052314
:10105000184600BD30B5044604254FF43020FFF794
:10106000E6FF0546042D17D1C848006940F002008C
:10107000C649086108464461006940F040000861C3
:101080004FF43020FFF7D3FF0546C048006941F612
:10109000FD710840BD490861284630BD10B50424E3
:1010A0004FF43020FFF7C3FF0446042C16D1B74895
:1010B000006940F00400B54908610846006940F045
:1010C000400008614FF43020FFF7B1FF0446AF48FD
:1010D000006941F6FB710840AC490861204610BD2B
:1010E00000B502460423FFF78AFF034603E0FFF73B
:1010F00086FF0346521E012B01D1002AF7D102B907
:101100000523184600BD10B504244FF43020FFF726
:10111000E7FF0446042C16D19C48006940F0040007
:101120009A4908610846006940F0400008614FF4A0
:101130003020FFF7D5FF04469448006941F6FB7163
:10114000084092490861204610BD00208F49C969B6
:1011500001F0020109B1012000E00020704730B524
:10116000A5250424FFF7F1FF00B100254FF430203E
:10117000FFF75DFF0446042C3AD185488349886017
:10118000844888600846006940F0200008610846ED
:10119000006940F0400008614FF43020FFF747FF3E
:1011A0000446042C1BD17948006941F6DF710840E0
:1011B000764908610846006940F0100008617648E9
:1011C0000580E002FFF733FF0446052C10D06F487E
:1011D000006941F6EF7108406C49086108E0052C90
:1011E00006D06A48006941F6EF7108406749086116
:1011F000204630BD78B506460C46042500200090F8
:10120000E802FFF714FF0546042D24D15F4800696A
:1012100040F001005D4908613480E802FFF707FFF4
:101220000546042D10D1B01C0090200C00990880B8
:10123000E802FFF7FCFE05465448006941F6FE71DE
:1012400008405249086106E05048006941F6FE71C5
:1012500008404E490861284678BD70B504460D46E1
:101260000426F002FFF7E3FE0646042E11D147489C
:10127000006940F00100454908612580F002FFF750
:10128000D6FE06464148006941F6FE7108403F49D6
:101290000861304670BD70B505460E460424E00274
:1012A000FFF7C5FE0446042C17D13948374988603A
:1012B000384888600846006940F0100008612E80B8
:1012C000E002FFF7B4FE0446052C06D02F48006963
:1012D00041F6EF7108402D490861204670BD2DE9A7
:1012E000F04304464FF6FF763746B046B146042534
:1012F000E443E6B2C4F30727C4F307484FEA14698E
:10130000E802FFF794FE0546042D49D120481F4905
:101310008860204888600846006940F01000086135
:10132000FF2E06D01C4808300680E802FFF77FFE3B
:101330000546042D08D1FF2F06D017480A30078034
:10134000E802FFF774FE0546042D0AD1B8F1FF0F3D
:1013500007D011480C30A0F80080E802FFF767FEC4
:101360000546042D0AD1B9F1FF0F07D00A480E3007
:10137000A0F80090E802FFF75AFE0546052D0FD0B1
:101380000248006941F6EF71084007E00020024082
:1013900023016745AB89EFCD00F8FF1F664908615F
:1013A0002846BDE8F08330B5054604244FF43020CC
:1013B000FFF73DFE0446042C41D160485E49886039
:1013C0005F4888600846006940F0200008610846D0
:1013D000006940F0400008614FF43020FFF727FE1D
:1013E0000446042C22D15448006941F6DF710840BC
:1013F000514908610846006940F0100008611DB1BC
:1014000000205049088002E0A5204E4908804FF492
:101410003020FFF70CFE0446052C10D0464800692A
:1014200041F6EF7108404449086108E0052C06D0F8
:101430004148006941F6DF7108403F490861204694
:1014400030BDF0B505460E46174604243B483A49E0
:1014500088603B488860E002FFF7E9FD0446042C01
:1014600019D13548006940F010003349086147F050
:10147000F800304328433349891C0880E002FFF715
:10148000D6FD0446052C06D02B48006941F6EF71C5
:101490000840294908612046F0BD2748C0698008F6
:1014A00070472548006A704700202349096801F009
:1014B000200109B1012000E00020704729B11E4A37
:1014C000126902431C4B1A6104E01B4A12698243F1
:1014D000194B1A61704701460020012908D1164AAC
:1014E000D26902F001020AB1012008E0002006E002
:1014F000114AD2680A400AB1012000E0002070477A
:101500000D49C860704704200B49C96801F001010A
:1015100009B101200EE00849C96801F0040109B1D0
:10152000022007E00449C96801F0100109B1032055
:1015300000E00420704700000020024023016745BE
:10154000AB89EFCD00F8FF1F7FB504460D460121A2
:10155000084606F0F8FCADF80840681E80B2ADF809
:1015600004000020ADF80A00ADF8060001A94FF014
:10157000804006F013FE00214FF0804007F06AF92A
:101580001C208DF8000002208DF801008DF802006B
:1015900001208DF80300684606F043F9012241213D
:1015A000880707F072F97FBD10B500240121880774
:1015B00007F019FC00286FD0FE480068401CFD4968
:1015C0000860FD480088401CFB490880FB480088F3
:1015D000401CFA490880FA480078401CF849087015
:1015E000F8480078401CF7490870F448008814282F
:1015F0002ADB0020F149088007F0DDFE00F08000C2
:10160000002811DDF0480078401CEF490870EF48D1
:101610000088401CED490880EB4800781E2813DD47
:101620001E20E94908700FE0E7480078002805DD32
:10163000E5480078401EE449087002E00020E249D5
:1016400008700020E1490880DD4800780A287DDB29
:101650000020DB490870DE48B0F90000DD49B1F92F
:101660000010884219DDDA48B0F90000D949B1F913
:101670000010401A142806DAD6480088401C00B230
:10168000D44908802FE0D3480088D349097808441A
:1016900000B2D049088026E0A4E0CD48B0F90000AF
:1016A000CC49B1F90010884218DACA48B0F90000F4
:1016B000C749B1F90010401A142806DAC548008855
:1016C000401E00B2C34908800DE0C2480088C249EC
:1016D0000978401A00B2BF49088004E0BC48B0F95C
:1016E0000000BC490880BD48B0F90000BC49B1F910
:1016F0000010884218DDB948B0F90000B849B1F9C6
:101700000010401A142806DAB5480088401C00B2C0
:10171000B349088030E0B2480088AF4909780844EE
:1017200000B2AF49088027E0AC48B0F90000AC49EE
:10173000B1F9001088421ADAA948B0F90000A749A7
:10174000B1F90010401A142808DA00E037E0A44884
:101750000088401E00B2A24908800DE0A048008821
:101760009D490978401A00B29D49088004E09B48D1
:10177000B0F900009A4908809A48B0F900009A49E7
:10178000B1F90010884206DD97480088401C00B27D
:101790009549088013E09348B0F900009249B1F9E7
:1017A0000010884206DA90480088401E00B28E4938
:1017B000088004E08B48B0F900008B49088081481C
:1017C0000078322806DB7F48007805F09FF800207B
:1017D0007C4908700121880707F002FB0121880776
:1017E00007F012FB74480088322804DD04F0F4F995
:1017F0000020714908806F4800680A2809D300203A
:101800006C49086079480078012802D1462004F02C
:10181000E7FB10BD30B589B004460D46744806F0AC
:10182000E9FB0121022006F08EFB01210C2006F0CD
:101830007DFBC020ADF8200018208DF82300032088
:101840008DF8220008A96B4806F0B4F80320ADF823
:10185000200018208DF8230003208DF8220008A90D
:10186000654806F0A7F8ADF81840ADF81450002010
:10187000ADF81A00ADF8160005A95D4806F08EFC1B
:101880007020ADF804000120ADF806000020ADF88E
:101890000C00204604EBD071C1F34F01ADF80A10E3
:1018A00001A9534806F0B7FC01A9514806F0F5FC20
:1018B00008214F4807F0FEF808214D4807F003F9CA
:1018C00001214B4806F0C6FF0121494806F0CEFF32
:1018D00009B030BD30B585B005460C460121042065
:1018E00006F031FB0121082006F020FBC020ADF8F6
:1018F000100028208DF8130004A93F4806F05AF87C
:10190000C0213D4806F005F9ADF80850ADF8044097
:101910000020ADF80A00ADF8060001A9374806F02E
:101920003DFC002036490880488001208880002046
:10193000C8800881314806F0C4FE04203049088080
:1019400000204880012088800020C88008812B4822
:1019500006F0B7FE1E208DF8000000208DF8010073
:101960008DF8020001208DF80300684605F059FF4C
:1019700001220621214806F088FF01211F4806F0B8
:1019800069FF05B030BD10B502211C4807F02BFAE5
:1019900040B10221194807F037FA1A480068401C84
:1019A000184908600421154807F01DFA60B30421A6
:1019B00012482AE074000020440100204601002063
:1019C000580100205C010020480100205A0100203D
:1019D0004E01002054010020200100204C01002075
:1019E000520100205001002056010020C8000020B4
:1019F0000004004000080140000C014000080040C5
:101A00002C9F00201801002006E007F0FDF9264871
:101A10000068401C2449086010BD00280CDD01222C
:101A2000224B1A600022224BC3F8A02101221F4B37
:101A30001B1F1A60088012E000280DDA01221B4BE0
:101A40001A6000221A4BC3F8A021184B1B1F1A6002
:101A5000424210B2088002E00022144B1A60704724
:101A600000280BDD0122134B1A600022124BC3F831
:101A700084210E4B10331A60088013E000280EDA20
:101A800001220C4B1A6000220B4BC3F88421012267
:101A9000064B10331A60424210B2088002E0002266
:101AA000044B1A60704700001C0100209481214201
:101AB00000802142800123420000234208B5012119
:101AC000402006F033FA4FF40060ADF80000282003
:101AD0008DF803006946634805F06CFF08BD08B542
:101AE0000121402006F022FA0C20ADF80000102061
:101AF0008DF8030003208DF802006946594805F06F
:101B000059FF0C21574806F002F808BD08B501211D
:101B1000482006F00BFA4FF44E70ADF8000001219A
:101B2000514806F018F810208DF8030003208DF8B6
:101B3000020069464D4805F03DFF4FF44E714B4899
:101B400005F0E5FF0320ADF8000010208DF803003C
:101B500003208DF802006946424805F02BFF03215F
:101B6000404805F0D4FF08BD08B50121142006F057
:101B7000DDF91020ADF8000048208DF8030069461B
:101B80003B4805F017FF3020ADF8000048208DF8E5
:101B900003006946374805F00DFF08BD08B501216F
:101BA000682006F0C3F94FF47040ADF800004820FB
:101BB0008DF8030069462D4805F0FCFE4FF47F4088
:101BC000ADF8000048208DF8030069462A4805F06A
:101BD000F1FE4FF68070ADF8000048208DF803004C
:101BE0006946204805F0E6FE08BD08B50121402001
:101BF00006F09CF92020ADF8000010208DF80300BD
:101C000003208DF802006946164805F0D3FE202116
:101C1000144805F07EFF08BD08B50121402006F0FC
:101C200085F92020ADF8000010208DF80300032076
:101C30008DF8020069460B4805F0BCFE04210948F6
:101C400005F067FF08BD10B5FFF738FFFFF747FF46
:101C5000FFF75CFFFFF788FFFFF7A0FFFFF7C5FF67
:101C600010BD00000018014000023000000C0140CF
:101C70000008014000100140001401400D2814D25A
:101C8000DFE800F0130708090A0B0C0D0E0F101106
:101C900012000BE00AE009E008E007E006E005E0DA
:101CA00004E003E002E001E000E000BF00BF704795
:101CB00070B504460D461646322C02D0332C1ED188
:101CC0000EE032462946F4A005F03BF800231E2220
:101CD0000221012005F047FB0020F64908700EE0C4
:101CE00032462946F4A005F02CF800231E220321D9
:101CF000012005F038FB0020EE49087000BF00BF4E
:101D0000F4480078401EF349087070BD70B5044671
:101D10000D461646312C02D0342C0CD105E032464B
:101D20002946EDA005F00DF806E032462946F1A05F
:101D300005F007F800E000BF00BFE6480078401E4D
:101D4000E449087070BD70B504460D461646312C46
:101D500002D0342C12D108E032462946ECA004F01F
:101D6000F0FF0020D349087009E032462946EFA071
:101D700004F0E7FF0020CF49087000E000BF00BF7B
:101D8000D4480078401ED349087070BD70B5044631
:101D90000D461646312C02D0342C12D108E03246C2
:101DA0002946E9A004F0CDFF0020C249087009E0EF
:101DB00032462946EBA004F0C4FF0020BD4908705C
:101DC00000E000BF00BFC3480078401EC149087052
:101DD00070BD70B504460D461646322C02D0332C29
:101DE00012D108E032462946E5A004F0AAFF0020FF
:101DF000B049087009E032462946E8A004F0A1FF86
:101E00000020AC49087000E000BF00BFB148007876
:101E1000401EB049087070BD70470020E649086058
:101E20000120E649C1F8A4010020E349091D08602A
:101E3000E349C1F8800170474FF44871E14A1180CD
:101E40000121DD4A11600021DC4AC2F8A41170476B
:101E50004FF44871DB4A11800021D74A1160D74AFC
:101E6000C2F8A41170474FF44871D64A118001217D
:101E7000D14A1160D14AC2F8A41170470020CE495E
:101E80000860CE49C1F8A401CF490860CF49C1F824
:101E90009C01704710B1012808D103E00021CC4A11
:101EA000117003E00121CA4A117000BF00BF7047E2
:101EB0002DE9F04106460C4615461F46A4F13000B8
:101EC00008281AD2DFE800F0041A33495F7A8BAF92
:101ED0000020C04908700120BF4908700020BF4998
:101EE0000880BF4908800021084604F0FBFC002060
:101EF000BC4908700420BC49087098E00120B5492D
:101F00000870BA48008800B2B4490880B748008811
:101F100000B2B34908800120B3490870B048B0F955
:101F20000010AE48B0F9000004F0DCFC7FE00220B5
:101F3000A84908701920AA4908800020A7490880EC
:101F40000120A9490870A648B0F90010A348B0F9CB
:101F50000000404204F0C6FC69E003209D4908707F
:101F600000209F49088019209C49088001209E4933
:101F700008709B48B0F9000041429848B0F9000051
:101F800004F0B0FC53E004209249087097480088A0
:101F900000B2934908809548008800B28F490880B4
:101FA0000120914908708E48B0F9000041428B48E9
:101FB000B0F90000404204F095FC38E00520854966
:101FC0000870E8B2FFF766FF6FF0180084490880D8
:101FD00019208249088001208349087027E00620E3
:101FE0007C49087001207F490870002080490880E2
:101FF000032080490870804803F04DFC7F48036847
:102000007F4802687F4801687B4803F053FC4FF427
:1020100034707D4908607D49086000206F49088060
:102020006F49088003E007206A49087000BF00BFBD
:1020300028480078401E27490870BDE8F08110B597
:102040000446A4F130000A2809D2DFE800F00509AF
:102050000D1115191D21F3F76DA004F020FEF1E01C
:102060006CA004F01CFEEDE06BA004F018FEE9E0AB
:102070006AA004F014FEE5E069A004F010FEE1E0BF
:1020800068A004F00CFEDDE067A004F008FED9E0D3
:1020900066A004F004FED5E07B22303031363030CB
:1020A0003030303132256425643030303030227D9C
:1020B00000000000940000207B22303031363030A8
:1020C0003030303133256425643030303030227D7B
:1020D000000000005E0100207B22303031363030BD
:1020E0003030303231256425643030303030227D5C
:1020F000000000007B22303031363030303030325A
:1021000034256425643030303030227D00000000FA
:102110007B22303031363030303030333125642559
:10212000643030303030227D000000007B223030BF
:10213000313630303030303334256425643030303F
:102140003030227D000000007B22303031363030CC
:102150003030303431303030303030303030227D3B
:10216000000000007B2230303136303030303034E7
:1021700034303030303030303030227D00000000DC
:102180007B223030313630303030303532256425E6
:10219000643030303030227D000000007B2230304F
:1021A00031363030303030353325642564303030CE
:1021B0003030227D000000009081214200802142C9
:1021C00000002342540200209481224200802242D7
:1021D0008F00002099000020C90000204C01002041
:1021E0004E010020C80000202001002066000020D1
:1021F00056010020D501002038A700203CA7000888
:1022000038A7000834A70008980100209401002096
:102210007B307D007B317D007B327D007B337D0018
:102220007B347D007B357D007B367D007B377D00F8
:1022300004E0FFE7FEA004F032FD03E0FDA004F09F
:102240002EFD00BF00BFFC480078401EFA49087010
:1022500010BD10B50446302C02D0312C0FD106E051
:102260000020F6490860F2A004F019FD07E0012003
:10227000F2490860AFF2640004F011FD00BF00BF36
:10228000ED480078401EEC49087010BD2DE9FC5F58
:1022900004460D4617463846F91707EB1171C1F38E
:1022A0000711E54A11700020E549087031E1E44961
:1022B000097805EB0111605CFDF7FDFF42F210713A
:1022C00000FB01FBDE4909786A1C02EB0111605C2E
:1022D000FDF7F1FF00EB4001C1EBC0100BEBC00BB1
:1022E000D7490978AA1C02EB0111605CFDF7E3FFF6
:1022F00000EBC00101EB00100BEB800BD04909781B
:10230000EA1C02EB0111605CFDF7D5FF00EB8000D9
:102310000BEB400BCA4909782A1D02EB0111605CE6
:10232000FDF7C9FF58441FFA80FAC5480078691DB7
:1023300001EB0010205C0190C1480078A91D01EB61
:10234000001014F80080BE49097805F1080202EB7C
:102350000111605CFDF7AFFF8346B9490978EA1DBA
:1023600002EB0111605CFDF7A6FF00EB80000BEBB8
:102370004006B349097805F10B0202EB0111605CDC
:10238000FDF799FF8346AE49097805F1090202EB92
:102390000111605CFDF78FFF00EB80000BEB40004C
:1023A0000090A749097805F10B0202EB0111605C6E
:1023B000FDF781FF42F2107100FB01FBA049097893
:1023C00005F10C0202EB0111605CFDF774FF00EBFC
:1023D0004001C1EBC0100BEBC00B9949097805F126
:1023E0000D0202EB0111605CFDF765FF00EBC0011F
:1023F00001EB00100BEB800B9149097805F10E02FF
:1024000002EB0111605CFDF756FF00EB80000BEB67
:10241000400B8B49097805F10F0202EB0111605C5A
:10242000FDF749FF58441FFA80F901983138142804
:1024300069D2DFE800F00A10161C2228454C4D68CE
:10244000686868686868515B666731464046009A0C
:10245000FFF72EFC57E031464046009AFFF756FC46
:1024600051E031464046009AFFF76DFC4BE03146A3
:102470004046009AFFF78AFC45E031464046009A04
:10248000FFF7A7FC3FE036B94B463246414650467F
:10249000FFF70EFD13E0322E0BD0342E05D0352E73
:1024A0000BD14B206749088008E03220654908803D
:1024B00004E019206349088000E000BF00BF22E06B
:1024C000404604F091FF4046FFF7B9FD1BE01AE0DB
:1024D0004046FFF7BEFE16E009F0FF0006F0ADFF34
:1024E00055480078401E544908700CE0A8F13001AE
:1024F000C8B204F0B5FF50480078401E4E4908703D
:1025000001E000E000BF00BF4D480078401C4C498E
:1025100008704948007800287FF4C9AE4A4908701D
:10252000BDE8FC9F2DE9FC5F04460D46164630468B
:10253000F11706EB1171C1F307113F4A117000202A
:102540004249087015E14149097805EB0111605CC9
:10255000FDF7B1FE42F2107100FB01FB3B49097827
:102560006A1C02EB0111605CFDF7A5FE00EB400167
:10257000C1EBC0100BEBC00B34490978AA1C02EB6D
:102580000111605CFDF797FE00EBC00101EB00104C
:102590000BEB800B2D490978EA1C02EB0111605C02
:1025A000FDF789FE00EB80000BEB400B2749097813
:1025B0002A1D02EB0111605CFDF77DFE58441FFAF5
:1025C00080F922480078691D01EB0010205C019021
:1025D0001E480078A91D01EB0010275C1B490978F3
:1025E00005F1080202EB0111605CFDF764FE834611
:1025F00016490978EA1D02EB0111605CFDF75BFEEC
:1026000000EB80000BEB40081049097805F10B0244
:1026100002EB0111605CFDF74EFE83460B49097821
:1026200005F1090202EB0111605CFDF744FE0FE0C9
:102630007B387D007B397D005E0100208C012342C8
:1026400067010020660000208C0000206801002047
:1026500000EB80000BEB40000090FE49097805F18B
:102660000B0202EB0111605CFDF725FE42F21071D6
:1026700000FB01FBF749097805F10C0202EB01119F
:10268000605CFDF718FE00EB4001C1EBC0100BEBE6
:10269000C00BF049097805F10D0202EB0111605CF5
:1026A000FDF709FE00EBC00101EB00100BEB800B06
:1026B000E849097805F10E0202EB0111605CFDF7B3
:1026C000FAFD00EB80000BEB400BE249097805F1C5
:1026D0000F0202EB0111605CFDF7EDFD58441FFA9B
:1026E00080FA0198313814283DD2DFE800F00A1052
:1026F000161C22282F33343C3C3C3C3C3C3C3839B3
:102700003A3B41463846009AFFF7D2FA2BE0414661
:102710003846009AFFF7FAFA25E041463846009A13
:10272000FFF711FB1FE041463846009AFFF72EFBEA
:1027300019E041463846009AFFF74BFB13E0534639
:10274000424639464846FFF7B3FB0CE03846FFF7F0
:1027500076FC08E007E03846FFF77BFD03E002E087
:1027600001E000E000BF00BFBA480078401CB94952
:102770000870B948007800287FF4E5AEB7490870C2
:10278000BDE8FC9F2DE9FC5F04460D461646304629
:10279000F11706EB1171C1F30711AF4A1170002058
:1027A000AF49087004E1AE49097805EB0111605C9E
:1027B000FDF781FD42F2107100FB01FBA849097889
:1027C0006A1C02EB0111605CFDF775FD00EB400136
:1027D000C1EBC0100BEBC00BA1490978AA1C02EB9E
:1027E0000111605CFDF767FD00EBC00101EB00101B
:1027F0000BEB800B9A490978EA1C02EB0111605C33
:10280000FDF759FD00EB80000BEB400B9449097874
:102810002A1D02EB0111605CFDF74DFD58441FFAC3
:1028200080F98F480078691D01EB0010205C019051
:102830008B480078A91D01EB0010275C88490978B6
:1028400005F1080202EB0111605CFDF734FD8346DF
:1028500083490978EA1D02EB0111605CFDF72BFD4D
:1028600000EB80000BEB40087D49097805F10B0275
:1028700002EB0111605CFDF71EFD83467849097883
:1028800005F1090202EB0111605CFDF714FD00EB9C
:1028900080000BEB400000907149097805F10B02B4
:1028A00002EB0111605CFDF706FD42F2107100FBC6
:1028B00001FB6B49097805F10C0202EB0111605C28
:1028C000FDF7F9FC00EB4001C1EBC0100BEBC00BB6
:1028D0006349097805F10D0202EB0111605CFDF717
:1028E000EAFC00EBC00101EB00100BEB800B5C4934
:1028F000097805F10E0202EB0111605CFDF7DBFCCB
:1029000000EB80000BEB400B5549097805F10F02F5
:1029100002EB0111605CFDF7CEFC58441FFA80FA0F
:102920000198313814283DD2DFE800F00A10161C57
:1029300022282F33343C3C3C3C3C3C3C38393A3B2D
:1029400041463846009AFFF7B3F92BE04146384636
:10295000009AFFF7DBF925E041463846009AFFF779
:10296000F2F91FE041463846009AFFF70FFA19E0E6
:1029700041463846009AFFF72CFA13E05346424688
:1029800039464846FFF794FA0CE03846FFF757FB04
:1029900008E007E03846FFF75CFC03E002E001E0F6
:1029A00000E000BF00BF2E480078401C2C49087092
:1029B0002948007800287FF4F6AE28490870BDE861
:1029C000FC9F2DE9FC5F04460D4616460020254974
:1029D00008703046F11706EB1171C1F307111E4A5A
:1029E000117010E11F49097805EB0111605CFDF7DA
:1029F00062FC42F2107100FB01FB1A4909786A1C63
:102A000002EB0111605CFDF756FC00EB4001C1EBED
:102A1000C0100BEBC00B13490978AA1C02EB011183
:102A2000605CFDF748FC00EBC00101EB00100BEB14
:102A3000800B0C490978EA1C02EB0111605CFDF780
:102A40003AFC00EB80000BEB400B064909782A1D8D
:102A50000AE00000680100205E01002092000020D2
:102A6000690100206A01002002EB0111605CFDF7A2
:102A700022FC58441FFA80F9F7480078691D01EBE1
:102A80000010205C0190F4480078A91D01EB0010B3
:102A9000275CF149097805F1080202EB0111605C3D
:102AA000FDF709FC8346EC490978EA1D02EB0111A8
:102AB000605CFDF700FC00EB80000BEB4008E64992
:102AC000097805F10B0202EB0111605CFDF7F3FBE5
:102AD0008346E149097805F1090202EB0111605CC6
:102AE000FDF7E9FB00EB80000BEB40000090DA49BA
:102AF000097805F10B0202EB0111605CFDF7DBFBCD
:102B000042F2107100FB01FBD349097805F10C0278
:102B100002EB0111605CFDF7CEFB00EB4001C1EB65
:102B2000C0100BEBC00BCC49097805F10D0202EB8C
:102B30000111605CFDF7BFFB00EBC00101EB001071
:102B40000BEB800BC449097805F10E0202EB011171
:102B5000605CFDF7B0FB00EB80000BEB400BBE4967
:102B6000097805F10F0202EB0111605CFDF7A3FB90
:102B700058441FFA80FA0198313814283DD2DFE812
:102B800000F00A10161C22282F33343C3C3C3C3CFD
:102B90003C3C38393A3B41463846009AFFF788F8C2
:102BA0002BE041463846009AFFF7B0F825E0414651
:102BB0003846009AFFF7C7F81FE041463846009AAA
:102BC000FFF7E4F819E041463846009AFFF701F9AB
:102BD00013E05346424639464846FFF769F90CE090
:102BE0003846FFF72CFA08E007E03846FFF731FBDC
:102BF00003E002E001E000E000BF00BF964800787B
:102C0000401C954908709548007800287FF4EAAE8A
:102C100093490870BDE8FC9F2DE9FC5F04460D4612
:102C200016463046F11706EB1171C1F307118B4AB6
:102C3000117000208B49087004E18A49097805EB7E
:102C40000111605CFDF737FB42F2107100FB01FBE4
:102C5000844909786A1C02EB0111605CFDF72BFBCB
:102C600000EB4001C1EBC0100BEBC00B7D490978B4
:102C7000AA1C02EB0111605CFDF71DFB00EBC0011B
:102C800001EB00100BEB800B76490978EA1C02EB94
:102C90000111605CFDF70FFB00EB80000BEB400BBC
:102CA000704909782A1D02EB0111605CFDF703FBF6
:102CB00058441FFA80F96B480078691D01EB001039
:102CC000205C019067480078A91D01EB0010275C8B
:102CD0006449097805F1080202EB0111605CFDF717
:102CE000EAFA83465F490978EA1D02EB0111605C4C
:102CF000FDF7E1FA00EB80000BEB40085949097839
:102D000005F10B0202EB0111605CFDF7D4FA83467A
:102D10005449097805F1090202EB0111605CFDF7E5
:102D2000CAFA00EB80000BEB400000904D49097897
:102D300005F10B0202EB0111605CFDF7BCFA42F2F7
:102D4000107100FB01FB4749097805F10C0202EB09
:102D50000111605CFDF7AFFA00EB4001C1EBC01060
:102D60000BEBC00B3F49097805F10D0202EB011195
:102D7000605CFDF7A0FA00EBC00101EB00100BEB6B
:102D8000800B3849097805F10E0202EB0111605CF5
:102D9000FDF791FA00EB80000BEB400B314909780D
:102DA00005F10F0202EB0111605CFDF784FA584453
:102DB0001FFA80FA0198313814283DD2DFE800F07C
:102DC0000A10161C22282F33343C3C3C3C3C3C3C33
:102DD00038393A3B41463846009AFEF769FF2BE006
:102DE00041463846009AFEF791FF25E041463846B5
:102DF000009AFEF7A8FF1FE041463846009AFEF70A
:102E0000C5FF19E041463846009AFEF7E2FF13E09D
:102E10005346424639464846FFF74AF80CE03846E2
:102E2000FFF70DF908E007E03846FFF712FA03E074
:102E300002E001E000E000BF00BF0A480078401C4B
:102E4000084908700548007800287FF4F6AE044968
:102E50000870BDE8FC9F00006A0100205E010020B0
:102E6000920000206B0100202DE9FC5F04460D4616
:102E700016463046F11706EB1171C1F30711FC4AF3
:102E800011700020FB49087004E1FA49097805EB4C
:102E90000111605CFDF70FFA42F2107100FB01FBBB
:102EA000F44909786A1C02EB0111605CFDF703FA32
:102EB00000EB4001C1EBC0100BEBC00BED490978F2
:102EC000AA1C02EB0111605CFDF7F5F900EBC001F3
:102ED00001EB00100BEB800BE6490978EA1C02EBD2
:102EE0000111605CFDF7E7F900EB80000BEB400B94
:102EF000E04909782A1D02EB0111605CFDF7DBF95E
:102F000058441FFA80F9DB480078691D01EB001076
:102F1000205C0190D7480078A91D01EB0010275CC8
:102F2000D449097805F1080202EB0111605CFDF754
:102F3000C2F98346CF490978EA1D02EB0111605CB2
:102F4000FDF7B9F900EB80000BEB4008C94909789F
:102F500005F10B0202EB0111605CFDF7ACF9834651
:102F6000C449097805F1090202EB0111605CFDF723
:102F7000A2F900EB80000BEB40000090BD490978FE
:102F800005F10B0202EB0111605CFDF794F942F2CE
:102F9000107100FB01FBB749097805F10C0202EB47
:102FA0000111605CFDF787F900EB4001C1EBC01037
:102FB0000BEBC00BAF49097805F10D0202EB0111D3
:102FC000605CFDF778F900EBC00101EB00100BEB42
:102FD000800BA849097805F10E0202EB0111605C33
:102FE000FDF769F900EB80000BEB400BA149097874
:102FF00005F10F0202EB0111605CFDF75CF958442A
:103000001FFA80FA0198313814283DD2DFE800F029
:103010000A10161C22282F33343C3C3C3C3C3C3CE0
:1030200038393A3B41463846009AFEF741FE2BE0DC
:1030300041463846009AFEF769FE25E0414638468B
:10304000009AFEF780FE1FE041463846009AFEF7E0
:103050009DFE19E041463846009AFEF7BAFE13E09D
:103060005346424639464846FEF722FF0CE03846B2
:10307000FEF7E5FF08E007E03846FFF7EAF803E06F
:1030800002E001E000E000BF00BF7A480078401C89
:10309000784908707648007800287FF4F6AE7649C3
:1030A0000870BDE8FC9F2DE9FC5F04460D461646FE
:1030B0003046F11706EB1171C1F307116C4A11701C
:1030C00000206E4908700DE16C49097805EB01118B
:1030D000605CFDF7F0F842F2107100FB01FB6749FC
:1030E00009786A1C02EB0111605CFDF7E4F800EB63
:1030F0004001C1EBC0100BEBC00B60490978AA1C62
:1031000002EB0111605CFDF7D6F800EBC00101EBAA
:1031100000100BEB800B59490978EA1C02EB0111F6
:10312000605CFDF7C8F800EB80000BEB400B5349E7
:1031300009782A1D02EB0111605CFDF7BCF85844C8
:103140001FFA80F94D480078691D01EB0010205CE2
:1031500001904A480078A91D01EB0010275C4749FF
:10316000097805F1080202EB0111605CFDF7A3F894
:10317000834642490978EA1D02EB0111605CFDF7C4
:103180009AF800EB80000BEB40083C49097805F108
:103190000B0202EB0111605CFDF78DF883463749A5
:1031A000097805F1090202EB0111605CFDF783F873
:1031B00000EB80000BEB400000903049097805F1EE
:1031C0000B0202EB0111605CFDF775F842F2107121
:1031D00000FB01FB2949097805F10C0202EB011102
:1031E000605CFDF768F800EB4001C1EBC0100BEB31
:1031F000C00B2249097805F10D0202EB0111605C58
:10320000FDF759F800EBC00101EB00100BEB800B50
:103210001A49097805F10E0202EB0111605CFDF715
:103220004AF800EB80000BEB400B1449097805F1DC
:103230000F0202EB0111605CFDF73DF858441FFAE4
:1032400080FA01983138142846D2DFE800F00A19D4
:103250001F252B31383C3D454545454545454142B7
:10326000434441463846009AFEF722FD34E0000010
:103270005E0100206C010020920000206D01002002
:1032800041463846009AFEF741FD25E04146384662
:10329000009AFEF758FD1FE041463846009AFEF7B7
:1032A00075FD19E041463846009AFEF792FD13E09D
:1032B0005346424639464846FEF7FAFD0CE038468A
:1032C000FEF7BDFE08E007E03846FEF7C2FF03E068
:1032D00002E001E000E000BF00BFFE480078401CB3
:1032E000FC490870FC48007800287FF4EDAEFB49EB
:1032F0000870BDE8FC9F2DE9FC5F04460D461646AC
:103300003046F11706EB1171C1F30711F24A117043
:103310000020F349087004E1F149097805EB011137
:10332000605CFCF7C8FF42F2107100FB01FBEC4946
:1033300009786A1C02EB0111605CFCF7BCFF00EB32
:103340004001C1EBC0100BEBC00BE5490978AA1C8A
:1033500002EB0111605CFCF7AEFF00EBC00101EB7A
:1033600000100BEB800BDE490978EA1C02EB01111F
:10337000605CFCF7A0FF00EB80000BEB400BD84932
:1033800009782A1D02EB0111605CFCF794FF584498
:103390001FFA80F9D2480078691D01EB0010205C0B
:1033A0000190CF480078A91D01EB0010275CCC49A3
:1033B000097805F1080202EB0111605CFCF77BFF64
:1033C0008346C7490978EA1D02EB0111605CFCF7EE
:1033D00072FF00EB80000BEB4008C149097805F152
:1033E0000B0202EB0111605CFCF765FF8346BC49F0
:1033F000097805F1090202EB0111605CFCF75BFF43
:1034000000EB80000BEB40000090B549097805F116
:103410000B0202EB0111605CFCF74DFF42F21071F0
:1034200000FB01FBAE49097805F10C0202EB01112A
:10343000605CFCF740FF00EB4001C1EBC0100BEB00
:10344000C00BA749097805F10D0202EB0111605C80
:10345000FCF731FF00EBC00101EB00100BEB800B20
:103460009F49097805F10E0202EB0111605CFCF73F
:1034700022FF00EB80000BEB400B9949097805F126
:103480000F0202EB0111605CFCF715FF58441FFAB4
:1034900080FA0198313814283DD2DFE800F00A1094
:1034A000161C22282F33343C3C3C3C3C3C3C3839F5
:1034B0003A3B41463846009AFEF7FAFB2BE041467C
:1034C0003846009AFEF722FC25E041463846009A2D
:1034D000FEF739FC1FE041463846009AFEF756FCDD
:1034E00019E041463846009AFEF773FC13E0534654
:1034F000424639464846FEF7DBFC0CE03846FEF70C
:103500009EFD08E007E03846FEF7A3FE03E002E078
:1035100001E000E000BF00BF71480078401C704926
:1035200008706D48007800287FF4F6AE6B4908708B
:10353000BDE8FC9F2DE9FC5F04460D46164630466B
:10354000F11706EB1171C1F30711634A11700020E6
:10355000644908700FE16349097805EB0111605C6B
:10356000FCF7A9FE42F2107100FB01FB5D490978EE
:103570006A1C02EB0111605CFCF79DFE00EB400150
:10358000C1EBC0100BEBC00B56490978AA1C02EB2B
:103590000111605CFCF78FFE00EBC00101EB001035
:1035A0000BEB800B4F490978EA1C02EB0111605CC0
:1035B000FCF781FE00EB80000BEB400B49490978DA
:1035C0002A1D02EB0111605CFCF775FE58441FFADE
:1035D00080F944480078691D01EB0010205C0190DF
:1035E00040480078A91D01EB0010275C3D4909788F
:1035F00005F1080202EB0111605CFCF75CFE8346FA
:1036000038490978EA1D02EB0111605CFCF753FEB2
:1036100000EB80000BEB40083249097805F10B0202
:1036200002EB0111605CFCF746FE83462D490978E8
:1036300005F1090202EB0111605CFCF73CFE00EBB6
:1036400080000BEB400000902649097805F10B0241
:1036500002EB0111605CFCF72EFE42F2107100FBE0
:1036600001FB2049097805F10C0202EB0111605CB5
:10367000FCF721FE00EB4001C1EBC0100BEBC00BCF
:103680001849097805F10D0202EB0111605CFCF7A5
:1036900012FE00EBC00101EB00100BEB800B114997
:1036A000097805F10E0202EB0111605CFCF703FEE4
:1036B00000EB80000BEB400B0A49097805F10F0283
:1036C00002EB0111605CFCF7F6FD58441FFA80FA2A
:1036D000019809E06D0100205E01002092000020A9
:1036E0006E0100206F010020313814283DD2DFE840
:1036F00000F00A10161C22282F33343C3C3C3C3C82
:103700003C3C38393A3B41463846009AFEF7D0FAFD
:103710002BE041463846009AFEF7F8FA25E041468C
:103720003846009AFEF70FFB1FE041463846009AE4
:10373000FEF72CFB19E041463846009AFEF749FB9C
:1037400013E05346424639464846FEF7B1FB0CE0CB
:103750003846FEF774FC08E007E03846FEF779FDCE
:1037600003E002E001E000E000BF00BFFE48007897
:10377000401CFD490870FD48007800287FF4EBAE3E
:10378000FB490870BDE8FC9F2DE9FC5F04460D462F
:1037900016463046F11706EB1171C1F30711F34AD3
:1037A00011700020F349087004E1F249097805EB33
:1037B0000111605CFCF77FFD42F2107100FB01FB20
:1037C000EC4909786A1C02EB0111605CFCF773FD9F
:1037D00000EB4001C1EBC0100BEBC00BE5490978D1
:1037E000AA1C02EB0111605CFCF765FD00EBC00157
:1037F00001EB00100BEB800BDE490978EA1C02EBB1
:103800000111605CFCF757FD00EB80000BEB400BF7
:10381000D84909782A1D02EB0111605CFCF74BFDC9
:1038200058441FFA80F9D3480078691D01EB001055
:10383000205C0190CF480078A91D01EB0010275CA7
:10384000CC49097805F1080202EB0111605CFCF734
:1038500032FD8346C7490978EA1D02EB0111605C1D
:10386000FCF729FD00EB80000BEB4008C14909780B
:1038700005F10B0202EB0111605CFCF71CFD8346B5
:10388000BC49097805F1090202EB0111605CFCF703
:1038900012FD00EB80000BEB40000090B549097869
:1038A00005F10B0202EB0111605CFCF704FD42F232
:1038B000107100FB01FBAF49097805F10C0202EB26
:1038C0000111605CFCF7F7FC00EB4001C1EBC0109C
:1038D0000BEBC00BA749097805F10D0202EB0111B2
:1038E000605CFCF7E8FC00EBC00101EB00100BEBA7
:1038F000800BA049097805F10E0202EB0111605C12
:10390000FCF7D9FC00EB80000BEB400B99490978E0
:1039100005F10F0202EB0111605CFCF7CCFC58448E
:103920001FFA80FA0198313814283DD2DFE800F000
:103930000A10161C22282F33343C3C3C3C3C3C3CB7
:1039400038393A3B41463846009AFEF7B1F92BE048
:1039500041463846009AFEF7D9F925E041463846F7
:10396000009AFEF7F0F91FE041463846009AFEF74C
:103970000DFA19E041463846009AFEF72AFA13E09C
:103980005346424639464846FEF792FA0CE038461E
:10399000FEF755FB08E007E03846FEF75AFC03E067
:1039A00002E001E000E000BF00BF72480078401C68
:1039B000704908706D48007800287FF4F6AE6C49B5
:1039C0000870BDE8FC9F2DE9FC5F04460D461646D5
:1039D0003046F11706EB1171C1F30711634A1170FC
:1039E0000020654908700FE16349097805EB011172
:1039F000605CFCF760FC42F2107100FB01FB5E4969
:103A000009786A1C02EB0111605CFCF754FC00EBC6
:103A10004001C1EBC0100BEBC00B57490978AA1C41
:103A200002EB0111605CFCF746FC00EBC00101EB0E
:103A300000100BEB800B50490978EA1C02EB0111D6
:103A4000605CFCF738FC00EB80000BEB400B4A4954
:103A500009782A1D02EB0111605CFCF72CFC58442C
:103A60001FFA80F944480078691D01EB0010205CC2
:103A7000019041480078A91D01EB0010275C3E49E8
:103A8000097805F1080202EB0111605CFCF713FCF8
:103A9000834639490978EA1D02EB0111605CFCF7A5
:103AA0000AFC00EB80000BEB40083349097805F174
:103AB0000B0202EB0111605CFCF7FDFB83462E4913
:103AC000097805F1090202EB0111605CFCF7F3FBD8
:103AD00000EB80000BEB400000902749097805F1CE
:103AE0000B0202EB0111605CFCF7E5FB42F2107186
:103AF00000FB01FB2049097805F10C0202EB0111E2
:103B0000605CFCF7D8FB00EB4001C1EBC0100BEB95
:103B1000C00B1949097805F10D0202EB0111605C37
:103B2000FCF7C9FB00EBC00101EB00100BEB800BB5
:103B30001149097805F10E0202EB0111605CFCF7F6
:103B4000BAFB00EB80000BEB400B0B49097805F149
:103B50000F0202EB0111605CFCF7ADFB58441FFA49
:103B600080FA0198313809E06F0100205E010020E1
:103B700092000020700100207101002014283DD225
:103B8000DFE800F00A10161C22282F33343C3C3C9E
:103B90003C3C3C3C38393A3B41463846009AFEF7BB
:103BA00087F82BE041463846009AFEF7AFF825E04B
:103BB00041463846009AFEF7C6F81FE041463846AF
:103BC000009AFEF7E3F819E041463846009AFEF7FE
:103BD00000F913E05346424639464846FEF768F975
:103BE0000CE03846FEF72BFA08E007E03846FEF70F
:103BF00030FB03E002E001E000E000BF00BFFE4850
:103C00000078401CFC490870FC48007800287FF4CC
:103C1000EBAEFB490870BDE8FC9F2DE9FC5F044654
:103C20000D4616463046F11706EB1171C1F3071128
:103C3000F24A11700020F349087004E1F149097853
:103C400005EB0111605CFCF736FB42F2107100FBE2
:103C500001FBEC4909786A1C02EB0111605CFCF77E
:103C60002AFB00EB4001C1EBC0100BEBC00BE54998
:103C70000978AA1C02EB0111605CFCF71CFB00EB4D
:103C8000C00101EB00100BEB800BDE490978EA1C48
:103C900002EB0111605CFCF70EFB00EB80000BEB0C
:103CA000400BD84909782A1D02EB0111605CFCF732
:103CB00002FB58441FFA80F9D2480078691D01EBD5
:103CC0000010205C0190CF480078A91D01EB001086
:103CD000275CCC49097805F1080202EB0111605C10
:103CE000FCF7E9FA8346C7490978EA1D02EB01119E
:103CF000605CFCF7E0FA00EB80000BEB4008C14988
:103D0000097805F10B0202EB0111605CFCF7D3FAB4
:103D10008346BC49097805F1090202EB0111605C98
:103D2000FCF7C9FA00EB80000BEB40000090B549AE
:103D3000097805F10B0202EB0111605CFCF7BBFA9C
:103D400042F2107100FB01FBAE49097805F10C024B
:103D500002EB0111605CFCF7AEFA00EB4001C1EB35
:103D6000C0100BEBC00BA749097805F10D0202EB5F
:103D70000111605CFCF79FFA00EBC00101EB001041
:103D80000BEB800B9F49097805F10E0202EB011144
:103D9000605CFCF790FA00EB80000BEB400B99495C
:103DA000097805F10F0202EB0111605CFCF783FA60
:103DB00058441FFA80FA0198313814283DD2DFE8C0
:103DC00000F00A10161C22282F33343C3C3C3C3CAB
:103DD0003C3C38393A3B41463846009AFDF768FF8B
:103DE0002BE041463846009AFDF790FF25E041461A
:103DF0003846009AFDF7A7FF1FE041463846009A73
:103E0000FDF7C4FF19E041463846009AFDF7E1FF8F
:103E100013E05346424639464846FEF749F80CE05F
:103E20003846FEF70CF908E007E03846FEF711FACD
:103E300003E002E001E000E000BF00BF714800784D
:103E4000401C704908706D48007800287FF4F6AE79
:103E50006B490870BDE8FC9F2DE9FC5F04460D46E8
:103E600016463046F11706EB1171C1F30711634A8C
:103E700011700020644908700FE16349097805EB6F
:103E80000111605CFCF717FA42F2107100FB01FBB4
:103E90005D4909786A1C02EB0111605CFCF70BFAC2
:103EA00000EB4001C1EBC0100BEBC00B5649097889
:103EB000AA1C02EB0111605CFCF7FDF900EBC001EC
:103EC00001EB00100BEB800B4F490978EA1C02EB69
:103ED0000111605CFCF7EFF900EB80000BEB400B8D
:103EE000494909782A1D02EB0111605CFCF7E3F9EE
:103EF00058441FFA80F944480078691D01EB00100E
:103F0000205C019040480078A91D01EB0010275C5F
:103F10003D49097805F1080202EB0111605CFCF7EC
:103F2000CAF9834638490978EA1D02EB0111605C41
:103F3000FCF7C1F900EB80000BEB4008324909782F
:103F400005F10B0202EB0111605CFCF7B4F983464A
:103F50002D49097805F1090202EB0111605CFCF7BB
:103F6000AAF900EB80000BEB40000090264909788D
:103F700005F10B0202EB0111605CFCF79CF942F2C7
:103F8000107100FB01FB2049097805F10C0202EBDE
:103F90000111605CFCF78FF900EB4001C1EBC01030
:103FA0000BEBC00B1849097805F10D0202EB01116A
:103FB000605CFCF780F900EBC00101EB00100BEB3B
:103FC000800B1149097805F10E0202EB0111605CCA
:103FD000FCF771F900EB80000BEB400B0A49097804
:103FE00005F10F0202EB0111605CFCF764F9584423
:103FF0001FFA80FA019809E0710100205E0100209B
:104000009200002072010020730100203138142832
:104010003DD2DFE800F00A10161C22282F33343C72
:104020003C3C3C3C3C3C38393A3B41463846009AA3
:10403000FDF73EFE2BE041463846009AFDF766FE4E
:1040400025E041463846009AFDF77DFE1FE04146D7
:104050003846009AFDF79AFE19E041463846009A24
:10406000FDF7B7FE13E05346424639464846FDF792
:104070001FFF0CE03846FDF7E2FF08E007E0384696
:10408000FEF7E7F803E002E001E000E000BF00BF58
:10409000FE480078401CFD490870FD480078002863
:1040A0007FF4EBAEFB490870BDE8FC9F2DE9FC5F97
:1040B00004460D4616463046F11706EB1171C1F362
:1040C0000711F34A11700020F349087004E1F24926
:1040D000097805EB0111605CFCF7EDF842F2107114
:1040E00000FB01FBEC4909786A1C02EB0111605CE2
:1040F000FCF7E1F800EB4001C1EBC0100BEBC00B8B
:10410000E5490978AA1C02EB0111605CFCF7D3F8C1
:1041100000EBC00101EB00100BEB800BDE490978CE
:10412000EA1C02EB0111605CFCF7C5F800EB8000B3
:104130000BEB400BD84909782A1D02EB0111605C9A
:10414000FCF7B9F858441FFA80F9D3480078691D84
:1041500001EB0010205C0190CF480078A91D01EB15
:104160000010275CCC49097805F1080202EB011127
:10417000605CFCF7A0F88346C7490978EA1D02EBAA
:104180000111605CFCF797F800EB80000BEB400836
:10419000C149097805F10B0202EB0111605CFCF7E3
:1041A0008AF88346BC49097805F1090202EB01113E
:1041B000605CFCF780F800EB80000BEB40000090A7
:1041C000B549097805F10B0202EB0111605CFCF7BF
:1041D00072F842F2107100FB01FBAF49097805F15A
:1041E0000C0202EB0111605CFCF765F800EB40018A
:1041F000C1EBC0100BEBC00BA749097805F10D020C
:1042000002EB0111605CFCF756F800EBC00101EB1A
:1042100000100BEB800BA049097805F10E0202EBB0
:104220000111605CFCF747F800EB80000BEB400BE2
:104230009949097805F10F0202EB0111605CFCF766
:104240003AF858441FFA80FA0198313814283DD2C0
:10425000DFE800F00A10161C22282F33343C3C3CC7
:104260003C3C3C3C38393A3B41463846009AFDF7E5
:104270001FFD2BE041463846009AFDF747FD25E03B
:1042800041463846009AFDF75EFD1FE0414638463C
:10429000009AFDF77BFD19E041463846009AFDF78C
:1042A00098FD13E05346424639464846FDF700FE66
:1042B0000CE03846FDF7C3FE08E007E03846FDF79E
:1042C000C8FF03E002E001E000E000BF00BF724869
:1042D0000078401C704908706D48007800287FF411
:1042E000F6AE6C490870BDE8FC9F2DE9FC5F044602
:1042F0000D4616463046F11706EB1171C1F3071152
:10430000634A11700020654908700FE1634909781C
:1043100005EB0111605CFBF7CEFF42F2107100FB70
:1043200001FB5E4909786A1C02EB0111605CFBF736
:10433000C2FF00EB4001C1EBC0100BEBC00B5749B3
:104340000978AA1C02EB0111605CFBF7B4FF00EBDB
:10435000C00101EB00100BEB800B50490978EA1CFF
:1043600002EB0111605CFBF7A6FF00EB80000BEB9A
:10437000400B4A4909782A1D02EB0111605CFBF7EA
:104380009AFF58441FFA80F944480078691D01EBF0
:104390000010205C019041480078A91D01EB00103D
:1043A000275C3E49097805F1080202EB0111605CC7
:1043B000FBF781FF834639490978EA1D02EB0111B9
:1043C000605CFBF778FF00EB80000BEB40083349A3
:1043D000097805F10B0202EB0111605CFBF76BFF42
:1043E00083462E49097805F1090202EB0111605C50
:1043F000FBF761FF00EB80000BEB400000902749CA
:10440000097805F10B0202EB0111605CFBF753FF29
:1044100042F2107100FB01FB2049097805F10C0202
:1044200002EB0111605CFBF746FF00EB4001C1EBC2
:10443000C0100BEBC00B1949097805F10D0202EB16
:104440000111605CFBF737FF00EBC00101EB0010CE
:104450000BEB800B1149097805F10E0202EB0111FB
:10446000605CFBF728FF00EB80000BEB400B0B4977
:10447000097805F10F0202EB0111605CFBF71BFFED
:1044800058441FFA80FA0198313809E0730100207E
:104490005E010020920000207401002075010020C0
:1044A00014283DD2DFE800F00A10161C22282F3312
:1044B000343C3C3C3C3C3C3C38393A3B4146384639
:1044C000009AFDF7F5FB2BE041463846009AFDF7D0
:1044D0001DFC25E041463846009AFDF734FC1FE0FC
:1044E00041463846009AFDF751FC19E041463846EE
:1044F000009AFDF76EFC13E05346424639464846A3
:10450000FDF7D6FC0CE03846FDF799FD08E007E022
:104510003846FDF79EFE03E002E001E000E000BF48
:1045200000BFFE480078401CFC490870FC48007839
:1045300000287FF4EBAEFB490870BDE8FC9F2DE935
:10454000FC5F04460D4616463046F11706EB117126
:10455000C1F30711F24A11700020F349087004E119
:10456000F149097805EB0111605CFBF7A4FE42F20A
:10457000107100FB01FBEC4909786A1C02EB011188
:10458000605CFBF798FE00EB4001C1EBC0100BEB49
:10459000C00BE5490978AA1C02EB0111605CFBF72E
:1045A0008AFE00EBC00101EB00100BEB800BDE4933
:1045B0000978EA1C02EB0111605CFBF77CFE00EB62
:1045C00080000BEB400BD84909782A1D02EB011142
:1045D000605CFBF770FE58441FFA80F9D2480078FF
:1045E000691D01EB0010205C0190CF480078A91DE7
:1045F00001EB0010275CCC49097805F1080202EBB9
:104600000111605CFBF757FE8346C7490978EA1D34
:1046100002EB0111605CFBF74EFE00EB80000BEB40
:104620004008C149097805F10B0202EB0111605CF9
:10463000FBF741FE8346BC49097805F1090202EB0C
:104640000111605CFBF737FE00EB80000BEB4000D4
:104650000090B549097805F10B0202EB0111605C8D
:10466000FBF729FE42F2107100FB01FBAE4909780D
:1046700005F10C0202EB0111605CFBF71CFE00EB84
:104680004001C1EBC0100BEBC00BA749097805F145
:104690000D0202EB0111605CFBF70DFE00EBC001A7
:1046A00001EB00100BEB800B9F49097805F10E021E
:1046B00002EB0111605CFBF7FEFD00EB80000BEBF1
:1046C000400B9949097805F10F0202EB0111605C7A
:1046D000FBF7F1FD58441FFA80FA0198313814288D
:1046E0003DD2DFE800F00A10161C22282F33343C9C
:1046F0003C3C3C3C3C3C38393A3B41463846009ACD
:10470000FDF7D6FA2BE041463846009AFDF7FEFA4F
:1047100025E041463846009AFDF715FB1FE041466B
:104720003846009AFDF732FB19E041463846009AB8
:10473000FDF74FFB13E05346424639464846FDF726
:10474000B7FB0CE03846FDF77AFC08E007E0384696
:10475000FDF77FFD03E002E001E000E000BF00BFE5
:1047600071480078401C704908706D480078002836
:104770007FF4F6AE6B490870BDE8FC9F2DE9FC5F45
:1047800004460D4616463046F11706EB1171C1F38B
:104790000711634A11700020644908700FE16349F2
:1047A000097805EB0111605CFBF785FD42F21071A1
:1047B00000FB01FB5D4909786A1C02EB0111605C9A
:1047C000FBF779FD00EB4001C1EBC0100BEBC00B18
:1047D00056490978AA1C02EB0111605CFBF76BFDDE
:1047E00000EBC00101EB00100BEB800B4F49097887
:1047F000EA1C02EB0111605CFBF75DFD00EB800041
:104800000BEB400B494909782A1D02EB0111605C52
:10481000FBF751FD58441FFA80F944480078691DA0
:1048200001EB0010205C019040480078A91D01EBCD
:104830000010275C3D49097805F1080202EB0111DF
:10484000605CFBF738FD834638490978EA1D02EBC6
:104850000111605CFBF72FFD00EB80000BEB4008C3
:104860003249097805F10B0202EB0111605CFBF79C
:1048700022FD83462D49097805F1090202EB011159
:10488000605CFBF718FD00EB80000BEB4000009034
:104890002649097805F10B0202EB0111605CFBF778
:1048A0000AFD42F2107100FB01FB2049097805F175
:1048B0000C0202EB0111605CFBF7FDFC00EB400118
:1048C000C1EBC0100BEBC00B1849097805F10D02C4
:1048D00002EB0111605CFBF7EEFC00EBC00101EBA9
:1048E00000100BEB800B1149097805F10E0202EB69
:1048F0000111605CFBF7DFFC00EB80000BEB400B71
:104900000A49097805F10F0202EB0111605CFBF71F
:10491000D2FC58441FFA80FA019809E07501002082
:104920005E01002092000020760100207701002027
:10493000313814283DD2DFE800F00A10161C222876
:104940002F33343C3C3C3C3C3C3C38393A3B4146C0
:104950003846009AFDF7ACF92BE041463846009AFC
:10496000FDF7D4F925E041463846009AFDF7EBF90A
:104970001FE041463846009AFDF708FA19E0414623
:104980003846009AFDF725FA13E053464246394669
:104990004846FDF78DFA0CE03846FDF750FB08E07D
:1049A00007E03846FDF755FC03E002E001E000E0D7
:1049B00000BF00BFFE480078401CFD490870FD485C
:1049C000007800287FF4EBAEFB490870BDE8FC9F3F
:1049D0002DE9FC5F04460D4616463046F11706EBFE
:1049E0001171C1F30711F34A11700020F3490870E7
:1049F00004E1F249097805EB0111605CFBF75BFC0F
:104A000042F2107100FB01FBEC4909786A1C02EBD1
:104A10000111605CFBF74FFC00EB4001C1EBC010E3
:104A20000BEBC00BE5490978AA1C02EB0111605C95
:104A3000FBF741FC00EBC00101EB00100BEB800B1E
:104A4000DE490978EA1C02EB0111605CFBF733FCDC
:104A500000EB80000BEB400BD84909782A1D02EBD4
:104A60000111605CFBF727FC58441FFA80F9D3481A
:104A70000078691D01EB0010205C0190CF480078A0
:104A8000A91D01EB0010275CCC49097805F108024B
:104A900002EB0111605CFBF70EFC8346C749097805
:104AA000EA1D02EB0111605CFBF705FC00EB8000E6
:104AB0000BEB4008C149097805F10B0202EB01112B
:104AC000605CFBF7F8FB8346BC49097805F10902F5
:104AD00002EB0111605CFBF7EEFB00EB80000BEBDF
:104AE00040000090B549097805F10B0202EB011175
:104AF000605CFBF7E0FB42F2107100FB01FBAF4989
:104B0000097805F10C0202EB0111605CFBF7D3FBA5
:104B100000EB4001C1EBC0100BEBC00BA7490978BB
:104B200005F10D0202EB0111605CFBF7C4FB00EB29
:104B3000C00101EB00100BEB800BA049097805F1D7
:104B40000E0202EB0111605CFBF7B5FB00EB80008D
:104B50000BEB400B9949097805F10F0202EB0111AB
:104B6000605CFBF7A8FB58441FFA80FA01983138C3
:104B700014283DD2DFE800F00A10161C22282F333B
:104B8000343C3C3C3C3C3C3C38393A3B4146384662
:104B9000009AFDF78DF82BE041463846009AFDF764
:104BA000B5F825E041463846009AFDF7CCF81FE0FD
:104BB00041463846009AFDF7E9F819E04146384683
:104BC000009AFDF706F913E0534642463946484637
:104BD000FDF76EF90CE03846FDF731FA08E007E022
:104BE0003846FDF736FB03E002E001E000E000BFDD
:104BF00000BF72480078401C704908706D4800780A
:104C000000287FF4F6AE6C490870BDE8FC9F2DE9E2
:104C1000FC5F04460D4616463046F11706EB11714F
:104C2000C1F30711634A11700020654908700FE154
:104C30006349097805EB0111605CFBF73CFB42F22C
:104C4000107100FB01FB5E4909786A1C02EB01113F
:104C5000605CFBF730FB00EB4001C1EBC0100BEBDD
:104C6000C00B57490978AA1C02EB0111605CFBF7E5
:104C700022FB00EBC00101EB00100BEB800B504955
:104C80000978EA1C02EB0111605CFBF714FB00EBF6
:104C900080000BEB400B4A4909782A1D02EB0111F9
:104CA000605CFBF708FB58441FFA80F94448007821
:104CB000691D01EB0010205C019041480078A91D9E
:104CC00001EB0010275C3E49097805F1080202EB70
:104CD0000111605CFBF7EFFA834639490978EA1D58
:104CE00002EB0111605CFBF7E6FA00EB80000BEBD6
:104CF00040083349097805F10B0202EB0111605CB1
:104D0000FBF7D9FA83462E49097805F1090202EB2F
:104D10000111605CFBF7CFFA00EB80000BEB400069
:104D200000902749097805F10B0202EB0111605C44
:104D3000FBF7C1FA42F2107100FB01FB2049097830
:104D400005F10C0202EB0111605CFBF7B4FA00EB19
:104D50004001C1EBC0100BEBC00B1949097805F1FC
:104D60000D0202EB0111605CFBF7A5FA00EBC0013C
:104D700001EB00100BEB800B1149097805F10E02D5
:104D800002EB0111605CFBF796FA00EB80000BEB85
:104D9000400B0B49097805F10F0202EB0111605C31
:104DA000FBF789FA58441FFA80FA0198313809E074
:104DB000770100205E010020920000207801002091
:104DC0007901002014283DD2DFE800F00A10161CFB
:104DD00022282F33343C3C3C3C3C3C3C38393A3B69
:104DE00041463846009AFCF763FF2BE041463846BF
:104DF000009AFCF78BFF25E041463846009AFCF705
:104E0000A2FF1FE041463846009AFCF7BFFF19E0B9
:104E100041463846009AFCF7DCFF13E05346424611
:104E200039464846FDF744F80CE03846FDF707F9E7
:104E300008E007E03846FDF70CFA03E002E001E085
:104E400000E000BF00BFFE480078401CFC4908702D
:104E5000FC48007800287FF4EBAEFB490870BDE801
:104E6000FC9F2DE9FC5F04460D4616463046F117BF
:104E700006EB1171C1F30711F24A11700020F349DA
:104E8000087004E1F149097805EB0111605CFBF75A
:104E900012FA42F2107100FB01FBEC4909786A1C1E
:104EA00002EB0111605CFBF706FA00EB4001C1EB7D
:104EB000C0100BEBC00BE5490978AA1C02EB0111ED
:104EC000605CFBF7F8F900EBC00101EB00100BEBA5
:104ED000800BDE490978EA1C02EB0111605CFBF7EC
:104EE000EAF900EB80000BEB400BD84909782A1D4A
:104EF00002EB0111605CFBF7DEF958441FFA80F900
:104F0000D2480078691D01EB0010205C0190CF4869
:104F10000078A91D01EB0010275CCC49097805F148
:104F2000080202EB0111605CFBF7C5F98346C74933
:104F30000978EA1D02EB0111605CFBF7BCF900EB9C
:104F400080000BEB4008C149097805F10B0202EB28
:104F50000111605CFBF7AFF98346BC49097805F1A4
:104F6000090202EB0111605CFBF7A5F900EB800080
:104F70000BEB40000090B549097805F10B0202EBFC
:104F80000111605CFBF797F942F2107100FB01FB25
:104F9000AE49097805F10C0202EB0111605CFBF7E8
:104FA0008AF900EB4001C1EBC0100BEBC00BA74925
:104FB000097805F10D0202EB0111605CFBF77BF94A
:104FC00000EBC00101EB00100BEB800B9F4909784F
:104FD00005F10E0202EB0111605CFBF76CF900EBCE
:104FE00080000BEB400B9949097805F10F0202EBA9
:104FF0000111605CFBF75FF958441FFA80FA0198D1
:10500000313814283DD2DFE800F00A10161C22289F
:105010002F33343C3C3C3C3C3C3C38393A3B4146E9
:105020003846009AFCF744FE2BE041463846009A89
:10503000FCF76CFE25E041463846009AFCF783FEFB
:105040001FE041463846009AFCF7A0FE19E04146B1
:105050003846009AFCF7BDFE13E0534642463946F7
:105060004846FCF725FF0CE03846FCF7E8FF08E06F
:1050700007E03846FDF7EDF803E002E001E000E06C
:1050800000BF00BF71480078401C704908706D482F
:10509000007800287FF4F6AE6B490870BDE8FC9FED
:1050A0002DE9FC5F04460D4616463046F11706EB27
:1050B0001171C1F30711634A11700020644908702F
:1050C0000FE16349097805EB0111605CFBF7F3F828
:1050D00042F2107100FB01FB5D4909786A1C02EB8A
:1050E0000111605CFBF7E7F800EB4001C1EBC01079
:1050F0000BEBC00B56490978AA1C02EB0111605C4E
:10510000FBF7D9F800EBC00101EB00100BEB800BB3
:105110004F490978EA1C02EB0111605CFBF7CBF800
:1051200000EB80000BEB400B494909782A1D02EB8C
:105130000111605CFBF7BFF858441FFA80F944483E
:105140000078691D01EB0010205C01904048007858
:10515000A91D01EB0010275C3D49097805F1080203
:1051600002EB0111605CFBF7A6F883463849097829
:10517000EA1D02EB0111605CFBF79DF800EB80007B
:105180000BEB40083249097805F10B0202EB0111E3
:10519000605CFBF790F883462D49097805F1090218
:1051A00002EB0111605CFBF786F800EB80000BEB73
:1051B000400000902649097805F10B0202EB01112D
:1051C000605CFBF778F842F2107100FB01FB2049AC
:1051D000097805F10C0202EB0111605CFBF76BF83A
:1051E00000EB4001C1EBC0100BEBC00B1849097874
:1051F00005F10D0202EB0111605CFBF75CF800EBBE
:10520000C00101EB00100BEB800B1149097805F18F
:105210000E0202EB0111605CFBF74DF800EB800021
:105220000BEB400B0A49097805F10F0202EB011163
:10523000605CFBF740F858441FFA80FA019809E0D7
:10524000790100205E010020920000207A010020F8
:105250007B010020313814283DD2DFE800F00A102D
:10526000161C22282F33343C3C3C3C3C3C3C383917
:105270003A3B41463846009AFCF71AFD2BE041467E
:105280003846009AFCF742FD25E041463846009A30
:10529000FCF759FD1FE041463846009AFCF776FDC1
:1052A00019E041463846009AFCF793FD13E0534657
:1052B000424639464846FCF7FBFD0CE03846FCF711
:1052C000BEFE08E007E03846FCF7C3FF03E002E05B
:1052D00001E000E000BF00BF60480078401C5F496B
:1052E00008705F48007800287FF4EBAE5D490870D5
:1052F000BDE8FC9F10B50446152C13D2DFE804F07E
:10530000AB0B131B232B333B434B535B636B737B05
:10531000838B939BA30054480288544801885448C7
:10532000FDF700F997E05348028853480188504838
:10533000FDF728FA8FE051480288514801884C480F
:10534000FDF73FFB87E04F4802884F4801884848F7
:10535000FDF762FC7FE04D4802884D4801884448D3
:10536000FDF782FD77E04B4802884B4801884048B2
:10537000FDF799FE6FE049480288494801883C489A
:10538000FDF7B9FF67E04748028847480188384879
:10539000FEF7D0F85FE04548028845480188344868
:1053A000FEF7F2F957E04348028843480188304845
:1053B000FEF709FB4FE041480288414801882C482C
:1053C000FEF72BFC47E03F4802883F480188284809
:1053D000FEF742FD3FE03D4802883D4801882448F1
:1053E000FEF764FE37E03B4802883B4801882048CE
:1053F000FEF77BFF2FE039480288394801881C48B6
:10540000FFF79DF827E03748028837480188184899
:10541000FFF7B4F91FE03548028835480188144881
:10542000FFF7D6FA17E0334802883348018810485E
:10543000FFF7EDFB0FE031480288314801880C4846
:10544000FFF70FFD07E02F4802882F480188084822
:10545000FFF726FE00BF00BF10BD00007B0100204B
:105460005E010020920000200800002006000020BD
:10547000CC7700200C0000200A0000201000002043
:105480000E00002014000020120000201800002050
:10549000160000201C0000201A0000202000002020
:1054A0001E000020240000202200002028000020F0
:1054B000260000202C0000202A00002030000020C0
:1054C0002E00002034000020320000203800002090
:1054D000360000203C0000203A0000204000002060
:1054E0003E00002044000020420000204800002030
:1054F000460000204C0000204A0000205000002000
:105500004E00002054000020520000200146088870
:1055100070472DE9F04105460E461746002407E086
:1055200036F814102846FBF798FEAD1C601C84B2B8
:10553000BC42F5DBBDE8F08130B503460C461546AC
:10554000002207E01846FFF7E1FF24F812009B1C39
:10555000501C82B2AA42F5DB30BD2DE9F05F8046D7
:105560008A461746B8F1006F02D33748804501D309
:10557000BDE8F09FFBF729FDA8F1006B4FEADB25A2
:10558000CBF34909C9F58064A74200DC3C464DE0F5
:105590004FF0006101EBC5204A142C49FFF7CCFF06
:1055A00000260BE009EB0600284931F810004FF601
:1055B000FF71884200D003E0701C86B2A642F1DB86
:1055C00000BFA6421BDA4FF0006101EBC520FBF7DC
:1055D00041FD002608E03AF8160006EB09011B4AD7
:1055E00022F81100701C86B2A642F4DB4FF0006175
:1055F00001EBC5204A141549FFF78BFF04E0224652
:1056000051464046FFF785FFA74200D10FE06D1CD1
:105610004FF000090AEB440AA044381B87B2B7F5E3
:10562000806F02DD4FF4806400E03C46B0E700BFCD
:10563000FBF7D7FC00BF9BE713B50446012201A985
:105640002046FFF78AFF1CBD00000808369F002097
:1056500070B505460C4615B1012D66D132E0002C1F
:1056600012DA0120DA4908600020DA49C1F8A00105
:10567000D749091F0860604204B2C4F5347081B292
:10568000D54803F081FB1CE0002C11DD0120D0493E
:1056900008600020CF49C1F8A0010120CC49091FB2
:1056A0000860C4F5347081B2CB4803F06DFB08E0AC
:1056B0000020C7490860C4F5347081B2C64803F0C1
:1056C00061FB33E0002C13DA0120C449086000209C
:1056D000C349C1F884010120BD491031086060420E
:1056E00004B2C4F5347081B2BB4803F04BFB1BE03D
:1056F000002C10DD0120B94908600020B849C1F82C
:105700008401B34910310860C4F5347081B2B248E5
:1057100003F038FB08E00020B0490860C4F534709D
:1057200081B2AD4803F02EFB00E000BF00BF70BDAA
:105730002DE9F04F89B00446AA4800680068A0EB44
:105740000409A8490968486A04F03EF90546A548D5
:1057500000688769C3693A46284604F046F8CDE9EF
:105760000401A0490968086A04F02EF907469D481B
:105770000068056943692A46384604F036F8CDE9E1
:105780000001484604F020F907468846954801681C
:105790008D68CB682A463846414604F026F8824692
:1057A000DDE9002304F01BF8CDE90201DDE9042363
:1057B00003F074FFCDE9060104F051F9089089481F
:1057C0000068006A87490968486286480068C0F82E
:1057D0002090089809B0BDE8F08F7CB504460D46CE
:1057E00000200190009080480068019000207E49D0
:1057F00008607C480068046008460068FFF798FF6E
:1058000000907A48B0F9000000990844784908608F
:105810000846008801B20020FFF71AFF7CBD7CB566
:1058200004460D46002001900090724800680190E7
:105830006C48006804606F480068FFF779FF0090CB
:105840006D48B0F90000009908446C4908600846AA
:10585000008801B20120FFF7FBFE7CBD00206149FA
:10586000096808625F4909684862002164485D4A26
:1058700012689160D060634963485A4A12681161A6
:1058800050616248574A12689161D0617047C0F513
:10589000347108B2704710B504463821204603F031
:1058A00056FEE22060731E2020730120A07710BDF9
:1058B0000170704701614261836170472DE9F04FCB
:1058C00085B004460F4600250026A84694F900003E
:1058D000C51BA0682844A060207F281A40B2E0774A
:1058E00094F91C00022101FB1050617F084440B272
:1058F00084F8200068B284F8210094F91F00002881
:1059000002DD4FF0010805E094F91F00002801DADC
:105910004FF0FF38002D02DDB8F1000F04DB002D41
:1059200005DAB8F1000F02DD0020A07701E00120C8
:10593000A07794F9200004F039F88346A16903F0B8
:105940007BFE049094F9210004F030F8029094F961
:105950001E0004F02BF80090616903F06DFE0190C9
:10596000029903F069FE039094F91F0004F01EF8F9
:105970000290216903F060FE8346039903F004FE60
:105980008246049903F000FE814604F03BF8064687
:105990006662A06AB04201DAA66203E0E06AB04241
:1059A00000DDE662207F607768B22077206B3044AC
:1059B0006063606B2063304605B0BDE8F08F70B562
:1059C00004460D4629462046FFF778FF70BD0000CB
:1059D0009481214200802142000400408001234242
:1059E000000023428401002018010020F000002064
:1059F000940100201C010020F200002098010020EA
:105A00000000F8BF9A9999999999E93F9999D93FD6
:105A10002DE9F0478246504603F0E7FF80464246B4
:105A20000B460020414903F052FF06460022404B3E
:105A300003F0DBFE044604F031F880B2BDE8F087E5
:105A4000F0B502460023002500200024002100BFFD
:105A5000384E3678384F3F783E44384F3F783E4492
:105A6000344FFF7B3E44102E20D01DE0314EF65CBB
:105A70001EB90125661CF4B205E015B94E1CF1B241
:105A800001E0461CF0B22B4EF65CC6F101062C4F2D
:105A9000FF56DFF8B0C0BCF900C006FB07C636B23F
:105AA000284F3E805E1CF3B2102BDFD1254EB6F995
:105AB0000060002E06DD0026234F3E700126234F96
:105AC0003E7010E01F4EB6F90060002E06DA012687
:105AD0001D4F3E7000261D4F3E7004E000261A4FF9
