:020000040800F2
:1000000000AA0020C96D0008891200088B120008A0
:100010008F120008931200089712000800000000D9
:100020000000000000000000000000009B1200081B
:100030009D120008000000009F120008A112000895
:10004000E36D0008E36D0008E36D0008E36D000850
:10005000E36D0008E36D0008E36D0008E36D000840
:10006000E36D0008E36D0008E36D0008E36D000830
:10007000E36D0008E36D0008E36D0008E36D000820
:10008000E36D0008E36D0008E36D0008E36D000810
:10009000E36D0008E36D0008E36D0008E36D000800
:1000A000E36D0008E36D0008E36D0008E36D0008F0
:1000B000E5140008E36D000835190008E36D000839
:1000C000E36D0008E36D0008E36D0008E36D0008D0
:1000D000E36D0008156300082B64000893650008B1
:1000E000E36D0008E36D0008E36D0008E36D0008B0
:1000F000E36D0008E36D0008E36D0008E36D0008A0
:10010000E36D0008E36D0008E36D0008E36D00088F
:10011000F1660008FD670008E36D0008E36D000864
:10012000E36D0008E36D0008E36D0008E36D00086F
:10013000DFF80CD008F056FF00480047130E000807
:1001400000AA002010B500BFF14808F08BFA502833
:10015000FAD11422EFA1F0A005F022FF1422EDA1A4
:10016000F1A005F01DFF10BD10B54FF40041F94896
:1001700006F09DFFF849C8734FF48041F54806F03A
:1001800096FFF54988734FF40051F24806F08FFF4F
:10019000F14948734FF48051EE4806F088FFEE496C
:1001A00008734FF40061EB4806F081FFEA49C8721A
:1001B0004FF48061E74806F07AFFE74988724FF410
:1001C0000071E44806F073FFE34948724FF4807110
:1001D000E04806F06CFFE04908724FF40041DF4848
:1001E00006F065FFDC49C8714FF48041DB4806F03A
:1001F0005EFFD94988714FF40051D84806F057FF87
:10020000D54948714FF48051D44806F050FFD24987
:1002100008714FF40041D24806F049FFCE49C8703A
:100220004FF48041CE4806F042FFCB4988704FF42E
:100230000051CB4806F03BFFC74948704FF480514E
:10024000C74806F034FFC44908700846007A497A66
:100250000844C149897A0844BF49C97A0844BE495B
:10026000097B0844BC49497B0844BB49897B084455
:10027000BC490870B8484078B74989780844B649FD
:10028000C9780844B44909790844B349497908440C
:10029000B14989790844B049C9790844B24908701C
:1002A00010BD10B5044601F044FDFFF75DFF462088
:1002B00005F088FA10BD0146A1F13002172A2DD2AF
:1002C000DFE802F00C0E10121416181A1C1E2C2C4B
:1002D0002C2C2C2C2C20222426282A0000201DE047
:1002E00001201BE0022019E0032017E0042015E0A4
:1002F000052013E0062011E007200FE008200DE0A4
:1003000009200BE00A2009E00B2007E00C2005E0A3
:100310000D2003E00E2001E00F2000BF00BF70475A
:100320002DE9FF41074600240D2500200390009091
:1003300038B2029070E2BDF90C10491C04FB0511A3
:100340008A4A505CFFF7B7FF642100FB01F8BDF952
:100350000C10891C04FB0511844A505CFFF7ABFFAD
:1003600000EB800008EB4008BDF90C10C91C04FB31
:1003700005117E4A505CFFF79EFF4044C6B2BDF9AE
:100380000C10C91D04FB0511784A505CFFF793FF60
:100390004FF47A7100FB01F8BDF90C10083104FB31
:1003A0000511724A505CFFF786FF00EBC00101EBBC
:1003B000001008EB8008BDF90C10093104FB051191
:1003C0006A4A505CFFF777FF00EB800008EB4008BB
:1003D000BDF90C100A3104FB0511644A505CFFF7AB
:1003E0006AFF404400B20090BDF90C000B3004FBE2
:1003F000050000B20190BDF80C00BDF800100844E3
:1004000000B20390601CC4B2152E1CD2DFE806F0C7
:100410000B1C3044586CCADEFFFDFCFBFAF9F8F700
:10042000F6F5F4F3F200BDF8040051490880BDF878
:10043000000050490880BDF808104F4800880D3072
:10044000081A00B20290E6E1BDF804004B490880AA
:10045000BDF8000048490880BDF8081046480088EB
:100460000D30081A00B20290012045490870D2E10F
:10047000BDF8040043490880BDF8000042490880E7
:10048000BDF80810404800880D30081A00B20290EC
:1004900002203B490870BEE1BDF804003B490880DA
:1004A000BDF800003A490880BDF8081038480088B7
:1004B0000D30081A00B20290032031490870AAE1F9
:1004C000BDF8040033490880BDF8000032490880B7
:1004D000BDF80810304800880D30081A00B20290AC
:1004E00004202749087096E1BDF804002B490880D4
:1004F000BDF800002A490880BDF808102848008887
:100500000D30081A00B2029005201D49087082E1E2
:10051000004C00404F4B000041542B4349504D4F7D
:1005200044453D310D0A000041542B43495053547A
:100530004152543D22544350222C223139322E3123
:1005400036382E352E313037222C383031350D0AE1
:1005500000000000001401402C020020000C0140AB
:10056000001801406E0000206F0000206C77002012
:1005700000000020020000200800002006000020EB
:10058000BC0000200A0000200C0000200E0000200B
:10059000100000201200002014000020160000208F
:1005A00018000020BDF80400FE490880BDF80000D6
:1005B000FD490880BDF80810FB4800880D30081A76
:1005C00000B202900620F949087024E1BDF8040049
:1005D000F7490880BDF80000F6490880BDF808100A
:1005E000F44800880D30081A00B202900720EF4945
:1005F000087010E1FBE0E6E0D1E0BCE0A7E092E0AB
:100600007DE068E053E03EE029E014E0FFE7BDF85C
:100610000400E9490880BDF80000E8490880BDF8F9
:100620000810E64800880D30081A00B20290082031
:10063000DE490870EFE0BDF80400E1490880BDF82C
:100640000000E0490880BDF80810DE4800880D3041
:10065000081A00B202900920D4490870DBE0BDF806
:100660000400D9490880BDF80000D8490880BDF8C9
:100670000810D64800880A30081A00B202900A20F2
:10068000CA490870C7E0BDF80400D1490880BDF828
:100690000000D0490880BDF80810CE4800880A3014
:1006A000081A00B202900B20C0490870B3E0BDF8F0
:1006B0000400C9490880BDF80000C8490880BDF899
:1006C0000810C64800880A30081A00B202900C20B0
:1006D000B64908709FE0BDF80400C1490880BDF824
:1006E0000000C0490880BDF80810BE4800880A30E4
:1006F000081A00B202900D20AC4908708BE0BDF8DA
:100700000400B9490880BDF80000B8490880BDF868
:100710000810B64800880A30081A00B202900E206D
:10072000A249087077E0BDF80400B1490880BDF81F
:100730000000B0490880BDF80810AE4800880A30B3
:10074000081A00B202900F209849087063E0BDF8C3
:100750000400A9490880BDF80000A8490880BDF838
:100760000810A64800880A30081A00B2029010202B
:100770008E4908704FE0BDF80400A1490880BDF81B
:100780000000A0490880BDF808109E4800880A3083
:10079000081A00B202901120844908703BE0BDF8AD
:1007A000040099490880BDF8000098490880BDF808
:1007B0000810964800880A30081A00B202901220E9
:1007C0007A49087027E0BDF8040091490880BDF817
:1007D000000090490880BDF808108E4800880A3053
:1007E000081A00B2029013207049087013E0BDF897
:1007F000040089490880BDF8000088490880BDF8D8
:100800000810864800880A30081A00B202901420A6
:100810006649087000BF00BFBDF908000C283FF70B
:100820008AADBDE8FF812DE9F04F04460025A846BA
:1008300000BFA078FFF73FFD642100FB01FBE078DB
:10084000FFF739FD00EB80000BEB400B2079FFF741
:1008500032FD584400F0FF0ABAF1000F54D10120D4
:100860006F490870207AFFF726FD4FF47A7100FB7C
:1008700001FB607AFFF71FFD00EBC00101EB0010E8
:100880000BEB800BA07AFFF716FD00EB80000BEB63
:10089000400BE07AFFF70FFD584462490880084694
:1008A0000088401C86B209E05F4905F10C00085C35
:1008B0005E494855681C85B2701E86B2002EF3DC76
:1008C000002500BF574800880D30205C2C281AD125
:1008D0000BE005F10E005349098808445249085CB1
:1008E00053494855681C85B22F464E4800880E3043
:1008F0002844205C7D28ECD100253846FFF710FD08
:1009000001204C490870D5E0207AFFF7D4FC4FF461
:100910007A7100FB01FB607AFFF7CDFC00EBC001B0
:1009200001EB00100BEB800BA07AFFF7C4FC00EB8F
:1009300080000BEB400BE07AFFF7BDFC584487B218
:100940000025AAE0681C205C2C282AD1E91C605CE8
:10095000FFF7B1FC642100FB01FB291D605CFFF780
:10096000AAFC00EB80000BEB400B691D605CFFF7FD
:10097000A2FC584400F0FF09B9F1000F70D101202A
:1009800027490870607AFFF796FC4FF47A7100FBF4
:1009900001FBA07AFFF78FFC00EBC00101EB001018
:1009A0004AE072E01A0000201C000020BC00002079
:1009B0001E00002020000020220000202400002033
:1009C00026000020280000202A0000202C00002003
:1009D0002E000020300000203200002034000020D3
:1009E00036000020380000203A0000203C000020A3
:1009F0003E00002040000020420000204400002073
:100A000046000020480000204A0000204C00002042
:100A10004E00002050000020520000205400002012
:100A20008C000020040000203C0200205C500020CC
:100A30006C770020920000200BEB800BE07AFFF730
:100A40003AFC00EB80000BEB400B207BFFF733FC04
:100A50005844FE49088008460088401C86B20FE0D2
:100A600012E0FB4905F10D00085CFA4901F80800A5
:100A7000681C85B208F101001FFA80F8701E86B26A
:100A8000002EEEDC4FF000080CE0F149681C085C19
:100A9000F1494855681C85B22F46681C205C7D28AA
:100AA0007FF450AF00BF00253846FFF739FC012026
:100AB000EA490870BDE8F08F704770470BE0E848DE
:100AC0000078012807D1E7480088401CE5490880E4
:100AD0000020E3490870E44800780028EFD0704710
:100AE00010B504F047FFE149088008460088E04956
:100AF0000988884230D0DD48008848B1B0F5807F51
:100B000012D0B0F5007F0BD0B0F5806F10D103E0AC
:100B10000020D84908700BE00120D649087007E092
:100B20000220D449087003E00320D249087000BFB6
:100B300000BFD0480078D0490978884208D0CD4815
:100B40000178CEA005F070FBCA480078CA49087049
:100B5000C6480088C649088010BD10B504F0CAFE1A
:100B6000CE49088008460088CD49098888423AD095
:100B7000CA480088B0F5007F14D004DC50B1B0F54D
:100B8000807F1BD10AE0B0F5806F0FD0B0F5006F09
:100B900014D10FE00020C349087010E00120C149C2
:100BA00008700CE00120BF49087008E00220BD4930
:100BB000087004E00220BB49087000E000BF00BFDD
:100BC000B8480078B8490978884208D0B548017813
:100BD000AAA005F029FBB3480078B3490870AF48D4
:100BE0000088AF49088010BD70B5B04800780A2170
:100BF00090FBF1F0C4B2AD48007890FBF1F201FB3C
:100C00001200C5B2AA480078A8490978884216D0CF
:100C1000A64800780A2190FBF1F0A6490870A34885
:100C200000780A2190FBF1F201FB1200A249087042
:100C30009E4800789E4908700120A0490870A0488D
:100C40000078A0490978884206D09E4800789C49DF
:100C5000087001209949087098480078012809D146
:100C6000002096490870974803782A46214696A0A6
:100C700005F0DAFA70BD10B5FFF776FA01209A494F
:100C800008609A49C1F8940100209749091D08603D
:100C90000120974908600020091F0860012094493D
:100CA00014390860142093490880934908809348B8
:100CB00000789349097808449249097808448F4993
:100CC000C97B0844102802D101208F4908708B4845
:100CD00080798A49C97908448849097A08440128F1
:100CE00014DC89480078012810D10020864908705A
:100CF00086480078012803D100208549087005E066
:100D00008248007810B906208149087010BD70B57E
:100D10000546002402207F49087078480078784909
:100D2000097808447749097808447449C97B08441C
:100D30007949087071480078714909780844714907
:100D4000097808446D49C97B084410283BD1734891
:100D5000007848B972480078012805D11E207149F1
:100D600008800020704908806C480078012808D16C
:100D70006B48007828B900206A4908801E206A491B
:100D800008806648007808B9012000E00020644926
:100D9000097809B9012100E00021084028B10020AC
:100DA000604908801E20604908806048B0F9000052
:100DB000504908805E48B0F900004F490880002083
:100DC0005C49088018E0012049491039086000207A
:100DD0004649C1F8A001012045491439086042493B
:100DE00008600020091D0860414908603C20524904
:100DF000088020B204F0E6FC70BD10B54F480078C2
:100E0000012805D1114802880021124801F0A6F9F5
:100E100010BD8CB0142107A807F001FD00BF05F03C
:100E20000FF94FF4A06005F0E1FF4FF4E13005F059
:100E300024FA4FF4E13005F0AAFA4FF4E13005F05E
:100E400031FB4FF4E13005F003FC79E004000020B1
:100E50003C0200205C5000206C77002092000020B3
:100E600091000020DE0000208E000020C200002043
:100E7000C4000020C8000020CA0000207B22636F4D
:100E80006E74656E74223A22303030303025643012
:100E90003030303030303030227D0000BE00002055
:100EA000C0000020C9000020CB000020610000200D
:100EB000A4000020CC000020CD000020E000002095
:100EC000A6000020640000207B22636F6E74656EB4
:100ED00074223A2230302564256425643030303065
:100EE0003030303030227D008001234200802142AA
:100EF000A4812142FA000020F80000202C020020EA
:100F00006E0000206F000020900000208F00002065
:100F10009900002097000020CE000020B2010020A0
:100F2000B301002056010020540100205C01002084
:100F30005A0100205E010020580100208C00002092
:100F40004FF4165005F00EFC00F066FD00F075FD44
:100F500000F0EDFD00F088FD40F2CF21632000F0AD
:100F600091FA132140F2CF2000F0EFFB41F61F4130
:100F70004FF6FF7000F059FC0121084606F0CDFA4B
:100F80000121880706F050FF0120984908604FF4BE
:100F90003471974807F0E2F94FF43471944807F040
:100FA000DBF900209349C1F8940190490C3908609D
:100FB00004F09AFC1D2004F0BBFC642005F07DF8D1
:100FC0001D2004F0C6FC642005F077F814208A493F
:100FD00008800AE1894805F0E4FD00280DDD1421B0
:100FE00007A807F01CFC112207A9844805F093FE0E
:100FF00018B1112107A805F015FB814805F0D1FDB6
:10100000002825DD142102A807F009FC112202A9FD
:101010007B4805F080FEC0B19DF80800022810D181
:101020009DF8180003280CD19DF81200754908702E
:101030009DF81300744908709DF8140073490870F6
:1010400006E06F4805F0A6FD02E06D4805F0A2FD40
:101050006F480078012805D16E48FFF7E4FB0020B7
:101060006B4908706C480078012801D1FFF7C5FE74
:101070006A48007801280ED1002068490870FFF7FF
:10108000B3FD6748007867490978884203D164480E
:10109000007804F094F864480078072877D2DFE8F5
:1010A00000F00412202E3C4A4D006048B0F90000C8
:1010B0005F4908805F48B0F900005F490880002060
:1010C0005E49087090E05948B0F90000584908801E
:1010D0005848B0F900005849088000205749087066
:1010E00082E05248B0F90000514908805148B0F9F7
:1010F00000005149088000205049087074E04B48B6
:10110000B0F900004A4908804A48B0F900004A494D
:10111000088000204949087066E04448B0F90000A2
:10112000434908804348B0F9000043490880002043
:101130004249087058E0FFF79EFD55E040480078AE
:1011400000284CDD00203F4908803F4908803F4986
:1011500008800A203E4908703548B0F90000002890
:1011600006DD33480088323800B23149088002E099
:1011700000202F4908803048B0F90000002807DD22
:101180002D480088323800B22B49088003E02AE05D
:101190000020294908800020274908802449088028
:1011A00001202C4908702C480088052808D02A48BE
:1011B00000884FF4967190FBF1F201FB120050B9D8
:1011C00000200090234803782448027824480178BE
:1011D00024A005F029F800201849087002E0012039
:1011E0001649087000E000BF00BFF3E68C012342FF
:1011F00000040040008021426600002058A4002026
:1012000044A40020DA000020DB000020DC000020E5
:10121000E80100203C0200208C000020EA010020B0
:1012200061000020BC000020990000205C0100202B
:10123000FA0000205A010020F8000020CF00002012
:1012400050010020540100205601002058010020C8
:1012500028010020D900002062010020CD000020DC
:10126000CC0000207B22636F6E74656E74223A227C
:1012700030302564256425642564303030303030CA
:101280003030227D00000000704700BFFEE700BF45
:10129000FEE700BFFEE700BFFEE7704770477047FC
:1012A000704700000CB50020019000906C48006869
:1012B00040F480306A49086000BF6948006800F463
:1012C000003000900198401C0190009818B90198D6
:1012D000B0F5A06FF1D16248006800F4003010B1A1
:1012E0000120009001E0002000900098012843D1E7
:1012F0005C48006840F010005A49086008460068E1
:1013000020F0030008600846006840F00200086012
:10131000534840685249486008464068486008465B
:10132000406840F4806048600846406820F47C10C3
:1013300048600846406840F4E81048600846006885
:1013400040F08070086000BF4548006800F0007001
:101350000028F9D04248406820F003004049486026
:101360000846406840F00200486000BF3C484068C2
:1013700000F00C000828F9D10CBD10B5FFF792FF62
:1013800010BD10B53648006840F0010034490860CF
:1013900008464068344908403149486008460068BA
:1013A000324908402E4908600846006820F4802031
:1013B00008600846406820F4FE0048604FF41F00B3
:1013C0008860FFF7DAFF4FF000602949086010BD20
:1013D00010B5002100200022214B5B6803F00C01B6
:1013E00021B1042906D0082928D107E0214B224C3D
:1013F000236027E01F4B204C236023E0184B5B68E1
:1014000003F47010164B5B6803F48032022303EB85
:10141000904022B9194B4343174C23600DE0104B09
:101420005B6803F4003323B1144B4343124C236035
:1014300003E0104B4343104C236003E00D4B0E4C74
:10144000236000BF00BF064B5B68C3F303130C4C63
:10145000E15C094B1B68CB40074C236010BD0000CA
:1014600000100240002002400000FFF8FFFFF6FEDF
:1014700008ED00E000127A00E400002000093D00C1
:10148000E80000207FB504460D460121084606F01D
:1014900044F8ADF80840681E80B2ADF804000020A2
:1014A000ADF80A00ADF8060001A94FF0804006F043
:1014B0005FF900214FF0804006F0B6FC1C208DF84B
:1014C000000002208DF801008DF8020001208DF847
:1014D0000300684605F08FFC01224121880706F0D1
:1014E000BEFC7FBD10B50121880706F066FF00280D
:1014F0007ED0FA480068401CF8490860F848008827
:10150000401CF7490880F7480088401CF5490880CE
:10151000F5480078401CF4490870F2480088142807
:101520002BDB0020EF4908804FF40061EF4805F005
:10153000BEFD012811D1EE480078401CEC4908702E
:10154000EC480088401CEB490880E94800781E28D8
:1015500013DD1E20E64908700FE0E54800780028FA
:1015600005DDE3480078401EE149087002E00020F4
:10157000DF4908700020DF490880DB4800780A282E
:101580007EDB0020D8490870DB48B0F90000DB4959
:10159000B1F90010884218DDD748B0F90000D749EA
:1015A000B1F90010401A142806DAD4480088401C0B
:1015B00000B2D249088030E0D0480088D04909788C
:1015C000084400B2CD49088027E0CB48B0F90000BC
:1015D000CA49B1F9001088421ADAC848B0F90000C7
:1015E000C549B1F90010401A142808DAC34800E0D0
:1015F00087E00088401E00B2C04908800DE0BF4867
:101600000088BF490978401A00B2BC49088004E04C
:10161000B948B0F90000B9490880BA48B0F90000EB
:10162000B949B1F90010884218DDB648B0F9000098
:10163000B549B1F90010401A142806DAB2480088FA
:10164000401C00B2B049088030E0AF480088AC4987
:101650000978084400B2AC49088027E0A948B0F9ED
:101660000000A949B1F9001088421ADAA648B0F979
:101670000000A449B1F90010401A142808DA00E06B
:1016800037E0A1480088401E00B29F4908800DE065
:101690009D4800889A490978401A00B29A49088002
:1016A00004E09848B0F90000974908809748B0F9DD
:1016B00000009749B1F90010884206DD944800887F
:1016C000401C00B29249088013E09048B0F9000035
:1016D0008F49B1F90010884206DA8D480088401E13
:1016E00000B28B49088004E08848B0F900008849BE
:1016F00008800121880706F05DFE0121880706F0B9
:101700006DFE77480088322804DDFFF726FA0020B6
:1017100073490880714800680A2815D300206F4972
:1017200008607C480078012802D1462004F0EAFADB
:101730007948B0F90010002003F04CFE7748B0F96A
:101740000010012003F046FE10BD30B589B00446FC
:101750000D46734805F038FF0121022005F0DDFE3B
:1017600001210C2005F0CCFEC020ADF8200018208F
:101770008DF8230003208DF8220008A9694805F0A0
:1017800003FC0320ADF8200018208DF8230003206F
:101790008DF8220008A9644805F0F6FBADF8184062
:1017A000ADF814500020ADF81A00ADF8160005A9E8
:1017B0005B4805F0DDFF7020ADF804000120ADF8B6
:1017C00006000020ADF80C00204604EBD071C1F3F8
:1017D0004F01ADF80A1001A9514806F006F801A919
:1017E0004F4806F044F801A94D4806F08DF801A9CC
:1017F0004B4806F0D4F80821494806F045FC08217A
:10180000474806F04AFC0821454806F053FC0821E9
:10181000434806F058FC0121414806F005FB012130
:101820003F4806F00DFB09B030BD30B585B0054628
:101830000C460121042005F070FE0121082005F06E
:101840005FFEC020ADF8100028208DF8130004A919
:10185000354805F099FBC021334805F044FCADF84C
:101860000850ADF804400020ADF80A00ADF80600BD
:1018700001A92E4805F07CFF00202D4908804880F2
:10188000012088800020C8800881284806F003FADB
:1018900004202749088000204880012088800020FB
:1018A000C8800881214806F0F6F91E208DF8000056
:1018B00000208DF801008DF8020001208DF8030052
:1018C000684605F098FA01220621184806F0C7FA82
:1018D0000121164806F0A8FA05B030BD74000020BA
:1018E0004C0100204E010020600100200018014042
:1018F0005001002062010020560100205C01002000
:1019000028010020540100205A0100205801002025
:101910005E010020CF000020F8000020FA00002027
:101920000004004000080140000C01400008004095
:10193000CC9E002010B50221304806F03EFD40B19B
:1019400002212E4806F04AFD2D480068401C2C4913
:1019500008600421294806F030FD40B104212748E1
:1019600006F03CFD27480068401C2649086010BD71
:1019700000280CDD0122244B1A600022234BC3F8FF
:10198000A0210122204B1B1F1A60088012E00028B2
:101990000DDA01221C4B1A6000221C4BC3F8A02157
:1019A000194B1B1F1A60424210B2088002E000224D
:1019B000154B1A60704700280BDD0122144B1A608A
:1019C0000022144BC3F884210F4B10331A60088097
:1019D00013E000280EDA01220D4B1A6000220D4B95
:1019E000C3F884210122084B10331A60424210B21E
:1019F000088002E00022064B1A6070470008004091
:101A000020010020240100209481214200802142F5
:101A1000800123420000234208B50121402005F047
:101A20006FFD4FF40060ADF8000028208DF8030032
:101A30006946524805F0A8FA08BD08B501214020C2
:101A400005F05EFD0C20ADF8000010208DF80300BD
:101A500003208DF802006946484805F095FA0C21EC
:101A6000464805F03EFB08BD08B50121482005F0B9
:101A700047FD4FF44E70ADF800000121404805F0DD
:101A800054FB10208DF8030003208DF802006946F6
:101A90003C4805F079FA4FF44E713A4805F021FBC5
:101AA0000320ADF8000010208DF8030003208DF80E
:101AB00002006946314805F067FA03212F4805F016
:101AC00010FB08BD08B50121202005F019FDF0200C
:101AD000ADF8000001212A4805F027FB10208DF801
:101AE000030003208DF802006946274805F04CFAF0
:101AF000F021254805F0F5FA08BD08B501211420AC
:101B000005F0FEFC1020ADF8000048208DF8030021
:101B100069461E4805F038FA3020ADF8000048202C
:101B20008DF8030069461A4805F02EFA08BD08B57D
:101B30000121682005F0E4FC4FF47040ADF800008E
:101B400048208DF8030069460E4805F01DFA4FF451
:101B50007F40ADF8000048208DF8030069460A4830
:101B600005F012FA4FF68070ADF8000048208DF8AD
:101B700003006946014805F007FA08BD0018014056
:101B800000023000000C0140001401400008014038
:101B9000001001400D2814D2DFE800F013070809F7
:101BA0000A0B0C0D0E0F101112000BE00AE009E0F9
:101BB00008E007E006E005E004E003E002E001E001
:101BC00000E000BF00BF704770B504460D461646E2
:101BD000322C02D0332C1ED10EE032462946F6A01C
:101BE00004F0F9FA00231E220221012004F0D9FE9C
:101BF0000020F84908700EE032462946F6A004F0AD
:101C0000EAFA00231E220321012004F0CAFE00206C
:101C1000F049087000BF00BFF6480078401EF54943
:101C2000087070BD70B504460D461646312C02D0C2
:101C3000342C0CD105E032462946EFA004F0CBFA53
:101C400006E032462946F3A004F0C5FA00E000BFE2
:101C500000BFE8480078401EE649087070BD70B5C6
:101C600004460D461646312C02D0342C12D108E021
:101C700032462946EEA004F0AEFA0020D54908709D
:101C800009E032462946F1A004F0A5FA0020D14926
:101C9000087000E000BF00BFD6480078401ED5495C
:101CA000087070BD70B504460D461646312C02D042
:101CB000342C12D108E032462946EBA004F08BFA0E
:101CC0000020C449087009E032462946EDA004F01E
:101CD00082FA0020BF49087000E000BF00BFC5487D
:101CE0000078401EC349087070BD70B504460D46AB
:101CF0001646322C02D0332C12D108E03246294647
:101D0000E7A004F068FA0020B249087009E0324602
:101D10002946EAA004F05FFA0020AE49087000E00E
:101D200000BF00BFB3480078401EB249087070BDC4
:101D300070470020E84908600120E849C1F8A40183
:101D40000020E549091D0860E549C1F88001704798
:101D50004FF44871E34A11800121DF4A11600021EC
:101D6000DE4AC2F8A41170474FF44871DD4A118071
:101D70000021D94A1160D94AC2F8A41170474FF422
:101D80004871D84A11800121D34A1160D34AC2F860
:101D9000A41170470020D0490860D049C1F8A401BF
:101DA000D1490860D149C1F89C01704710B10128A0
:101DB00008D103E00021CE4A117003E00121CC4A92
:101DC000117000BF00BF70472DE9F04106460C4678
:101DD00015461F46A4F13000082815D2DFE800F0B0
:101DE00004152633405364880020C249087001203E
:101DF000C14908700020C1490880C1490880C14913
:101E000008700420C049087076E00120B9490870C4
:101E1000BE48008800B2B9490880BC48008800B2BA
:101E2000B74908800120B849087065E00220B1492F
:101E300008701420B24908800020B04908800120B1
:101E4000B149087058E00320AA4908700020AC4945
:101E500008801420A94908800120AB4908704BE094
:101E60000420A4490870A9480088404200B2A4494F
:101E70000880A6480088404200B2A049088001209E
:101E8000A149087038E005209A490870E8B2FFF7C8
:101E90008DFF6FF013009A4908801420974908803D
:101EA00001209949087027E0062092490870012016
:101EB00094490870002096490880032095490870CD
:101EC000954803F0AAFB9548036895480268954831
:101ED0000168914803F0B0FB4FF4347092490860F8
:101EE000924908600020854908808549088003E000
:101EF00007208049087000BF00BF3E480078401EA0
:101F00003C490870BDE8F08110B50446A4F13000EA
:101F10000A282ED2DFE800F005090D1115191D2140
:101F2000252983A004F005F923E082A004F001F93B
:101F30001FE081A004F0FDF81BE080A004F0F9F898
:101F400017E07FA004F0F5F813E07EA004F0F1F8AC
:101F50000FE07DA004F0EDF80BE07CA004F0E9F8C0
:101F600007E07BA004F0E5F803E07AA004F0E1F8D4
:101F700000BF00BF1F480078401E1E49087010BDFA
:101F800010B50446302C02D0312C0ED106E00020D2
:101F9000714908606EA004F0CCF806E001206E499B
:101FA000086064A004F0C5F800BF00BF11480078C5
:101FB000401E1049087010BD7B2230303136303061
:101FC0003030303132256425643030303030227D7D
:101FD00000000000940000207B2230303136303089
:101FE0003030303133256425643030303030227D5C
:101FF00000000000640100207B2230303136303098
:102000003030303231256425643030303030227D3C
:10201000000000007B22303031363030303030323A
:1020200034256425643030303030227D00000000DB
:102030007B2230303136303030303033312564253A
:10204000643030303030227D000000007B223030A0
:102050003136303030303033342564256430303020
:102060003030227D000000007B22303031363030AD
:102070003030303431303030303030303030227D1C
:10208000000000007B2230303136303030303034C8
:1020900034303030303030303030227D00000000BD
:1020A0007B223030313630303030303532256425C7
:1020B000643030303030227D000000007B22303030
:1020C00031363030303030353325642564303030AF
:1020D0003030227D000000009081214200802142AA
:1020E000000023420002002094812242008022420C
:1020F0008F00002099000020D00000205401002013
:1021000056010020CF00002028010020660000209A
:102110005E010020E1010020D89E00208C010020FB
:102120008801002084010020AC010020A8010020CB
:102130007B307D007B317D007B327D007B337D00F9
:102140007B347D007B357D007B367D007B377D00D9
:102150007B387D007B397D008C0123422DE9FC5FBB
:1021600004460D46904640464FEAE87108EB11716F
:10217000C1F30711FE4A11700020FE49087033E1D7
:10218000FC49097805EB0111605CFEF794F842F216
:10219000107100FB01FBF74909786A1C02EB011181
:1021A000605CFEF788F800EB4001C1EBC0100BEB60
:1021B000C00BF0490978AA1C02EB0111605CFEF724
:1021C0007AF800EBC00101EB00100BEB800BE94942
:1021D0000978EA1C02EB0111605CFEF76CF800EB79
:1021E00080000BEB400BE34909782A1D02EB01113B
:1021F000605CFEF760F858441FFA80FADD4800780A
:10220000691D01EB0010205C0190DA480078A91DDF
:1022100001EB001014F80090D649097805F1080286
:1022200002EB0111605CFEF746F88346D14909785C
:10223000EA1D02EB0111605CFEF73DF800EB800047
:102240000BEB4007CB49097805F10B0202EB0111BA
:10225000605CFEF730F88346C649097805F109024B
:1022600002EB0111605CFEF726F800EB80000BEB3F
:1022700040000090BF49097805F10B0202EB011103
:10228000605CFEF718F842F2107100FB01FBB949DF
:10229000097805F10C0202EB0111605CFEF70BF806
:1022A00000EB4001C1EBC0100BEBC00BB14909784A
:1022B00005F10D0202EB0111605CFDF7FCFF00EB84
:1022C000C00101EB00100BEB800BAA49097805F166
:1022D0000E0202EB0111605CFDF7EDFF00EB8000E8
:1022E0000BEB400BA349097805F10F0202EB01113A
:1022F000605CFDF7E0FF584486B20198313814283D
:102300006CD2DFE800F00A10161C2228464D4E6BF6
:102310006B6B6B6B6B6B525E696A39464846009A11
:10232000FFF752FC5AE039464846009AFFF77AFC1C
:1023300054E039464846009AFFF791FC4EE0394692
:102340004846009AFFF7AEFC48E039464846009AF6
:10235000FFF7CBFC42E037B933463A464946504690
:10236000FFF732FD14E0022F0CD0042F06D0052F0A
:102370000CD14FF48C708049088008E0D2207E494F
:10238000088004E014207C49088000E000BF00BF02
:1023900024E0484604F087FB4846FFF7B5FD1DE002
:1023A0001CE04846FFF7ECFD18E0F3B2F2B2F1B2E0
:1023B000002004F037FB6E480078401E6C4908701E
:1023C0000CE0A9F13001C8B204F0A9FB684800781C
:1023D000401E6749087001E000E000BF00BF65488B
:1023E0000078401C634908706148007800287FF439
:1023F000C7AE62490870BDE8FC9F2DE9FC5F04464A
:102400000D4616463046F11706EB1171C1F3071160
:10241000574A117000205A49087010E1584909784C
:1024200005EB0111605CFDF746FF42F2107100FB05
:1024300001FB534909786A1C02EB0111605CFDF74E
:102440003AFF00EB4001C1EBC0100BEBC00B4C4955
:102450000978AA1C02EB0111605CFDF72CFF00EB70
:10246000C00101EB00100BEB800B45490978EA1C19
:1024700002EB0111605CFDF71EFF00EB80000BEB2F
:10248000400B3F4909782A1D02EB0111605CFDF702
:1024900012FF58441FFA80F939480078691D01EB92
:1024A0000010205C019036480078A91D01EB001057
:1024B000275C3349097805F1080202EB0111605CE1
:1024C000FDF7F9FE83462E490978EA1D02EB01115A
:1024D000605CFDF7F0FE00EB80000BEB4008284944
:1024E000097805F10B0202EB0111605CFDF7E3FED8
:1024F00083462349097805F1090202EB0111605C6A
:10250000FDF7D9FE00EB80000BEB400000901C496A
:10251000097805F10B0202EB0111605CFDF7CBFEBF
:1025200042F2107100FB01FB1549097805F10C021C
:1025300002EB0111605CFDF7BEFE00EB4001C1EB58
:10254000C0100BEBC00B0E49097805F10D0202EB30
:102550000111605CFDF7AFFE00EBC00101EB001064
:102560000BEB800B0649097805F10E020AE000002A
:10257000640100206D010020660000208C00002016
:102580006E01002002EB0111605CFDF794FE00EB90
:1025900080000BEB400BFE49097805F10F0202EBBE
:1025A0000111605CFDF787FE58441FFA80FA01981C
:1025B000313814283DD2DFE800F00A10161C22281A
:1025C0002F33343C3C3C3C3C3C3C38393A3B414664
:1025D0003846009AFFF7F8FA2BE041463846009A51
:1025E000FFF720FB25E041463846009AFFF737FB0E
:1025F0001FE041463846009AFFF754FB19E0414678
:102600003846009AFFF771FB13E0534642463946BD
:102610004846FFF7D9FB0CE03846FFF775FC08E0A9
:1026200007E03846FFF7ACFC03E002E001E000E021
:1026300000BF00BFD6480078401CD5490870D54877
:10264000007800287FF4EAAED3490870BDE8FC9F0B
:102650002DE9FC5F04460D4616463046F11706EBA1
:102660001171C1F30711CB4A11700020CB490870DA
:1026700004E1CA49097805EB0111605CFDF71BFE16
:1026800042F2107100FB01FBC44909786A1C02EB9D
:102690000111605CFDF70FFE00EB4001C1EBC010C3
:1026A0000BEBC00BBD490978AA1C02EB0111605C61
:1026B000FDF701FE00EBC00101EB00100BEB800BFE
:1026C000B6490978EA1C02EB0111605CFDF7F3FDE5
:1026D00000EB80000BEB400BB04909782A1D02EBA0
:1026E0000111605CFDF7E7FD58441FFA80F9AB4823
:1026F0000078691D01EB0010205C0190A74800786C
:10270000A91D01EB0010275CA449097805F1080216
:1027100002EB0111605CFDF7CEFD83469F4909780D
:10272000EA1D02EB0111605CFDF7C5FD00EB8000C6
:102730000BEB40089949097805F10B0202EB0111F6
:10274000605CFDF7B8FD83469449097805F10902FC
:1027500002EB0111605CFDF7AEFD00EB80000BEBBE
:10276000400000908D49097805F10B0202EB011140
:10277000605CFDF7A0FD42F2107100FB01FB874990
:10278000097805F10C0202EB0111605CFDF793FD85
:1027900000EB4001C1EBC0100BEBC00B7F49097887
:1027A00005F10D0202EB0111605CFDF784FD00EB09
:1027B000C00101EB00100BEB800B7849097805F1A3
:1027C0000E0202EB0111605CFDF775FD00EB80006D
:1027D0000BEB400B7149097805F10F0202EB011177
:1027E000605CFDF768FD58441FFA80FA01983138A3
:1027F00014283DD2DFE800F00A10161C22282F33DF
:10280000343C3C3C3C3C3C3C38393A3B4146384605
:10281000009AFFF7D9F92BE041463846009AFFF7B6
:1028200001FA25E041463846009AFFF718FA1FE002
:1028300041463846009AFFF735FA19E041463846D6
:10284000009AFFF752FA13E053464246394648468B
:10285000FFF7BAFA0CE03846FFF756FB08E007E04E
:102860003846FFF78DFB03E002E001E000E000BF27
:1028700000BF4A480078401C484908704548007825
:1028800000287FF4F6AE44490870BDE8FC9F2DE9AE
:10289000FC5F04460D46164600204149087030464C
:1028A000F11706EB1171C1F307113A4A11700FE1EC
:1028B0003B49097805EB0111605CFDF7FCFC42F235
:1028C000107100FB01FB364909786A1C02EB01110B
:1028D000605CFDF7F0FC00EB4001C1EBC0100BEBBE
:1028E000C00B2F490978AA1C02EB0111605CFDF7AF
:1028F000E2FC00EBC00101EB00100BEB800B284960
:102900000978EA1C02EB0111605CFDF7D4FC00EBD6
:1029100080000BEB400B224909782A1D02EB0111C4
:10292000605CFDF7C8FC58441FFA80F91C48007829
:10293000691D01EB0010205C019019480078A91D69
:1029400001EB0010275C1649097805F1080202EB3B
:102950000111605CFDF7AFFC834611490978EA1D5F
:1029600002EB0111605CFDF7A6FC00EB80000BEBB5
:1029700040080B49097805F10B0202EB0111605C7C
:10298000FDF799FC83460649097805F1090209E03B
:102990006E01002064010020920000206F010020E1
:1029A0007001002002EB0111605CFDF784FC00EB7C
:1029B00080000BEB40000090FE49097805F10B0206
:1029C00002EB0111605CFDF776FC42F2107100FB36
:1029D00001FBF849097805F10C0202EB0111605C7A
:1029E000FDF769FC00EB4001C1EBC0100BEBC00B25
:1029F000F049097805F10D0202EB0111605CFDF769
:102A00005AFC00EBC00101EB00100BEB800BE94915
:102A1000097805F10E0202EB0111605CFDF74BFC39
:102A200000EB80000BEB400BE249097805F10F0247
:102A300002EB0111605CFDF73EFC58441FFA80FA7E
:102A40000198313814283DD2DFE800F00A10161C36
:102A500022282F33343C3C3C3C3C3C3C38393A3B0C
:102A600041463846009AFFF7AFF82BE0414638461A
:102A7000009AFFF7D7F825E041463846009AFFF75D
:102A8000EEF81FE041463846009AFFF70BF919E0CF
:102A900041463846009AFFF728F913E0534642466C
:102AA00039464846FFF790F90CE03846FFF72CFA14
:102AB00008E007E03846FFF763FA03E002E001E0D0
:102AC00000E000BF00BFBB480078401CB949087057
:102AD000B948007800287FF4EBAEB8490870BDE82B
:102AE000FC9F2DE9FC5F04460D4616463046F11763
:102AF00006EB1171C1F30711AF4A11700020B04904
:102B0000087004E1AE49097805EB0111605CFDF73E
:102B1000D2FB42F2107100FB01FBA94909786A1C43
:102B200002EB0111605CFDF7C6FB00EB4001C1EB5D
:102B3000C0100BEBC00BA2490978AA1C02EB0111D3
:102B4000605CFDF7B8FB00EBC00101EB00100BEB84
:102B5000800B9B490978EA1C02EB0111605CFDF7D0
:102B6000AAFB00EB80000BEB400B954909782A1D6E
:102B700002EB0111605CFDF79EFB58441FFA80F9DF
:102B80008F480078691D01EB0010205C01908C4893
:102B90000078A91D01EB0010275C8949097805F12F
:102BA000080202EB0111605CFDF785FB8346844956
:102BB0000978EA1D02EB0111605CFDF77CFB00EB7C
:102BC00080000BEB40087E49097805F10B0202EB0F
:102BD0000111605CFDF76FFB83467949097805F1C7
:102BE000090202EB0111605CFDF765FB00EB800060
:102BF0000BEB400000907249097805F10B0202EBE3
:102C00000111605CFDF757FB42F2107100FB01FB04
:102C10006B49097805F10C0202EB0111605CFDF7CC
:102C20004AFB00EB4001C1EBC0100BEBC00B644949
:102C3000097805F10D0202EB0111605CFDF73BFB29
:102C400000EBC00101EB00100BEB800B5C49097835
:102C500005F10E0202EB0111605CFDF72CFB00EBAD
:102C600080000BEB400B5649097805F10F0202EB8F
:102C70000111605CFDF71FFB58441FFA80FA0198B0
:102C8000313814283DD2DFE800F00A10161C222843
:102C90002F33343C3C3C3C3C3C3C38393A3B41468D
:102CA0003846009AFEF790FF2BE041463846009ADE
:102CB000FEF7B8FF25E041463846009AFEF7CFFF01
:102CC0001FE041463846009AFEF7ECFF19E0414606
:102CD0003846009AFFF709F813E053464246394652
:102CE0004846FFF771F80CE03846FFF70DF908E0A9
:102CF00007E03846FFF744F903E002E001E000E0B6
:102D000000BF00BF2E480078401C2D4908702A489B
:102D1000007800287FF4F6AE28490870BDE8FC9FD3
:102D20002DE9FC5F04460D4616463046F11706EBCA
:102D30001171C1F30711204A117000202149087058
:102D40000FE12049097805EB0111605CFDF7B3FA4A
:102D500042F2107100FB01FB1A4909786A1C02EB70
:102D60000111605CFDF7A7FA00EB4001C1EBC01058
:102D70000BEBC00B13490978AA1C02EB0111605C34
:102D8000FDF799FA00EBC00101EB00100BEB800B93
:102D90000C490978EA1C02EB0111605CFDF78BFA23
:102DA00000EB80000BEB400B064909782A1D02EB73
:102DB000011109E070010020640100209200002050
:102DC0007101002072010020605CFDF774FA584424
:102DD0001FFA80F9F7480078691D01EB0010205CAC
:102DE0000190F4480078A91D01EB0010275CF1491F
:102DF000097805F1080202EB0111605CFDF75BFA4E
:102E00008346EC490978EA1D02EB0111605CFDF78D
:102E100052FA00EB80000BEB4008E649097805F117
:102E20000B0202EB0111605CFDF745FA8346E149B4
:102E3000097805F1090202EB0111605CFDF73BFA2C
:102E400000EB80000BEB40000090DA49097805F1B7
:102E50000B0202EB0111605CFDF72DFA42F21071DA
:102E600000FB01FBD349097805F10C0202EB0111CB
:102E7000605CFDF720FA00EB4001C1EBC0100BEBEA
:102E8000C00BCC49097805F10D0202EB0111605C21
:102E9000FDF711FA00EBC00101EB00100BEB800B0A
:102EA000C449097805F10E0202EB0111605CFDF7DF
:102EB00002FA00EB80000BEB400BBE49097805F1EC
:102EC0000F0202EB0111605CFDF7F5F958441FFA9F
:102ED00080FA0198313814283DD2DFE800F00A105A
:102EE000161C22282F33343C3C3C3C3C3C3C3839BB
:102EF0003A3B41463846009AFEF766FE2BE04146D3
:102F00003846009AFEF78EFE25E041463846009A84
:102F1000FEF7A5FE1FE041463846009AFEF7C2FEC6
:102F200019E041463846009AFEF7DFFE13E05346AB
:102F3000424639464846FEF747FF0CE03846FEF762
:102F4000E3FF08E007E03846FFF71AF803E002E085
:102F500001E000E000BF00BF96480078401C9549A2
:102F600008709548007800287FF4EBAE934908700C
:102F7000BDE8FC9F2DE9FC5F04460D461646304631
:102F8000F11706EB1171C1F307118B4A1170002084
:102F90008B49087004E18A49097805EB0111605CEE
:102FA000FDF789F942F2107100FB01FB84490978B1
:102FB0006A1C02EB0111605CFDF77DF900EB40013A
:102FC000C1EBC0100BEBC00B7D490978AA1C02EBCA
:102FD0000111605CFDF76FF900EBC00101EB00101F
:102FE0000BEB800B76490978EA1C02EB0111605C5F
:102FF000FDF761F900EB80000BEB400B704909789D
:103000002A1D02EB0111605CFDF755F958441FFAC7
:1030100080F96B480078691D01EB0010205C01907D
:1030200067480078A91D01EB0010275C6449097806
:1030300005F1080202EB0111605CFDF73CF98346E3
:103040005F490978EA1D02EB0111605CFDF733F975
:1030500000EB80000BEB40085949097805F10B02A1
:1030600002EB0111605CFDF726F9834654490978AB
:1030700005F1090202EB0111605CFDF71CF900EBA0
:1030800080000BEB400000904D49097805F10B02E0
:1030900002EB0111605CFDF70EF942F2107100FBCA
:1030A00001FB4749097805F10C0202EB0111605C54
:1030B000FDF701F900EB4001C1EBC0100BEBC00BB9
:1030C0003F49097805F10D0202EB0111605CFDF743
:1030D000F2F800EBC00101EB00100BEB800B38495C
:1030E000097805F10E0202EB0111605CFDF7E3F8CF
:1030F00000EB80000BEB400B3149097805F10F0222
:1031000002EB0111605CFDF7D6F858441FFA80FA13
:103110000198313814283DD2DFE800F00A10161C5F
:1031200022282F33343C3C3C3C3C3C3C38393A3B35
:1031300041463846009AFEF747FD2BE041463846A7
:10314000009AFEF76FFD25E041463846009AFEF7EB
:1031500086FD1FE041463846009AFEF7A3FD19E0C0
:1031600041463846009AFEF7C0FD13E053464246FA
:1031700039464846FEF728FE0CE03846FEF7C4FE06
:1031800008E007E03846FEF7FBFE03E002E001E05E
:1031900000E000BF00BF0A480078401C08490870E2
:1031A0000548007800287FF4F6AE04490870BDE8B1
:1031B000FC9F0000720100206401002092000020AA
:1031C000730100202DE9FC5F04460D46164630468B
:1031D000F11706EB1171C1F30711FC4A11700020C1
:1031E000FB49087004E1FA49097805EB0111605CBC
:1031F000FDF761F842F2107100FB01FBF449097818
:103200006A1C02EB0111605CFDF755F800EB400110
:10321000C1EBC0100BEBC00BED490978AA1C02EB07
:103220000111605CFDF747F800EBC00101EB0010F5
:103230000BEB800BE6490978EA1C02EB0111605C9C
:10324000FDF739F800EB80000BEB400BE049097803
:103250002A1D02EB0111605CFDF72DF858441FFA9E
:1032600080F9DB480078691D01EB0010205C0190BB
:10327000D7480078A91D01EB0010275CD4490978D4
:1032800005F1080202EB0111605CFDF714F88346BA
:10329000CF490978EA1D02EB0111605CFDF70BF8DC
:1032A00000EB80000BEB4008C949097805F10B02DF
:1032B00002EB0111605CFCF7FEFF8346C44909780C
:1032C00005F1090202EB0111605CFCF7F4FF00EB71
:1032D00080000BEB40000090BD49097805F10B021E
:1032E00002EB0111605CFCF7E6FF42F2107100FB9B
:1032F00001FBB749097805F10C0202EB0111605C92
:10330000FCF7D9FF00EB4001C1EBC0100BEBC00B89
:10331000AF49097805F10D0202EB0111605CFCF781
:10332000CAFF00EBC00101EB00100BEB800BA849BA
:10333000097805F10E0202EB0111605CFCF7BBFF9E
:1033400000EB80000BEB400BA149097805F10F025F
:1033500002EB0111605CFCF7AEFF58441FFA80FAE3
:103360000198313814283DD2DFE800F00A10161C0D
:1033700022282F33343C3C3C3C3C3C3C38393A3BE3
:1033800041463846009AFEF71FFC2BE0414638467E
:10339000009AFEF747FC25E041463846009AFEF7C2
:1033A0005EFC1FE041463846009AFEF77BFC19E0C0
:1033B00041463846009AFEF798FC13E053464246D1
:1033C00039464846FEF700FD0CE03846FEF79CFD06
:1033D00008E007E03846FEF7D3FD03E002E001E035
:1033E00000E000BF00BF7A480078401C78490870B0
:1033F0007648007800287FF4F6AE76490870BDE87C
:10340000FC9F2DE9FC5F04460D4616463046F11739
:1034100006EB1171C1F307116C4A117000206E495F
:1034200008700DE16C49097805EB0111605CFCF74F
:1034300042FF42F2107100FB01FB674909786A1CE8
:1034400002EB0111605CFCF736FF00EB4001C1EBC1
:10345000C0100BEBC00B60490978AA1C02EB0111EC
:10346000605CFCF728FF00EBC00101EB00100BEBE8
:10347000800B59490978EA1C02EB0111605CFCF7EA
:103480001AFF00EB80000BEB400B534909782A1D13
:1034900002EB0111605CFCF70EFF58441FFA80F943
:1034A0004D480078691D01EB0010205C01904A48EE
:1034B0000078A91D01EB0010275C4749097805F148
:1034C000080202EB0111605CFCF7F5FE83464249FD
:1034D0000978EA1D02EB0111605CFCF7ECFE00EBE1
:1034E00080000BEB40083C49097805F10B0202EB28
:1034F0000111605CFCF7DFFE83463749097805F16E
:10350000090202EB0111605CFCF7D5FE00EB8000C4
:103510000BEB400000903049097805F10B0202EBFB
:103520000111605CFCF7C7FE42F2107100FB01FB69
:103530002949097805F10C0202EB0111605CFCF7E6
:10354000BAFE00EB4001C1EBC0100BEBC00B2249EF
:10355000097805F10D0202EB0111605CFCF7ABFE8E
:1035600000EBC00101EB00100BEB800B1A4909784E
:1035700005F10E0202EB0111605CFCF79CFE00EB12
:1035800080000BEB400B1449097805F10F0202EBA8
:103590000111605CFCF78FFE58441FFA80FA019815
:1035A0003138142846D2DFE800F00A191F252B31E4
:1035B000383C3D45454545454545414243444146E6
:1035C0003846009AFEF700FB34E00000640100205A
:1035D0007401002092000020750100204146384609
:1035E000009AFEF71FFB25E041463846009AFEF799
:1035F00036FB1FE041463846009AFEF753FB19E0C0
:1036000041463846009AFEF770FB13E053464246A7
:1036100039464846FEF7D8FB0CE03846FEF774FC06
:1036200008E007E03846FEF7ABFC03E002E001E00B
:1036300000E000BF00BFFE480078401CFC49087055
:10364000FC48007800287FF4EDAEFB490870BDE827
:10365000FC9F2DE9FC5F04460D4616463046F117E7
:1036600006EB1171C1F30711F24A11700020F34902
:10367000087004E1F149097805EB0111605CFCF781
:103680001AFE42F2107100FB01FBEC4909786A1C3A
:1036900002EB0111605CFCF70EFE00EB4001C1EB98
:1036A000C0100BEBC00BE5490978AA1C02EB011115
:1036B000605CFCF700FE00EBC00101EB00100BEBBF
:1036C000800BDE490978EA1C02EB0111605CFCF713
:1036D000F2FD00EB80000BEB400BD84909782A1D66
:1036E00002EB0111605CFCF7E6FD58441FFA80F91B
:1036F000D2480078691D01EB0010205C0190CF4892
:103700000078A91D01EB0010275CCC49097805F170
:10371000080202EB0111605CFCF7CDFD8346C7494E
:103720000978EA1D02EB0111605CFCF7C4FD00EBB7
:1037300080000BEB4008C149097805F10B0202EB50
:103740000111605CFCF7B7FD8346BC49097805F1BF
:10375000090202EB0111605CFCF7ADFD00EB80009B
:103760000BEB40000090B549097805F10B0202EB24
:103770000111605CFCF79FFD42F2107100FB01FB40
:10378000AE49097805F10C0202EB0111605CFCF70F
:1037900092FD00EB4001C1EBC0100BEBC00BA74941
:1037A000097805F10D0202EB0111605CFCF783FD65
:1037B00000EBC00101EB00100BEB800B9F49097877
:1037C00005F10E0202EB0111605CFCF774FD00EBE9
:1037D00080000BEB400B9949097805F10F0202EBD1
:1037E0000111605CFCF767FD58441FFA80FA0198EC
:1037F000313814283DD2DFE800F00A10161C2228C8
:103800002F33343C3C3C3C3C3C3C38393A3B414611
:103810003846009AFEF7D8F92BE041463846009A20
:10382000FEF700FA25E041463846009AFEF717FAFF
:103830001FE041463846009AFEF734FA19E0414647
:103840003846009AFEF751FA13E05346424639468D
:103850004846FEF7B9FA0CE03846FEF755FB08E09B
:1038600007E03846FEF78CFB03E002E001E000E0F1
:1038700000BF00BF71480078401C704908706D4857
:10388000007800287FF4F6AE6B490870BDE8FC9F15
:103890002DE9FC5F04460D4616463046F11706EB4F
:1038A0001171C1F30711634A117000206449087057
:1038B0000FE16349097805EB0111605CFCF7FBFC43
:1038C00042F2107100FB01FB5D4909786A1C02EBB2
:1038D0000111605CFCF7EFFC00EB4001C1EBC01094
:1038E0000BEBC00B56490978AA1C02EB0111605C76
:1038F000FCF7E1FC00EBC00101EB00100BEB800BCF
:103900004F490978EA1C02EB0111605CFCF7D3FC1B
:1039100000EB80000BEB400B494909782A1D02EBB4
:103920000111605CFCF7C7FC58441FFA80F9444859
:103930000078691D01EB0010205C01904048007880
:10394000A91D01EB0010275C3D49097805F108022B
:1039500002EB0111605CFCF7AEFC83463849097844
:10396000EA1D02EB0111605CFCF7A5FC00EB800096
:103970000BEB40083249097805F10B0202EB01110B
:10398000605CFCF798FC83462D49097805F1090233
:1039900002EB0111605CFCF78EFC00EB80000BEB8E
:1039A000400000902649097805F10B0202EB011155
:1039B000605CFCF780FC42F2107100FB01FB2049C7
:1039C000097805F10C0202EB0111605CFCF773FC55
:1039D00000EB4001C1EBC0100BEBC00B184909789C
:1039E00005F10D0202EB0111605CFCF764FC00EBD9
:1039F000C00101EB00100BEB800B1149097805F1B8
:103A00000E0202EB0111605CFCF755FC00EB80003C
:103A10000BEB400B0A49097805F10F0202EB01118B
:103A2000605CFCF748FC58441FFA80FA019809E0F2
:103A30007501002064010020920000207601002022
:103A400077010020313814283DD2DFE800F00A1059
:103A5000161C22282F33343C3C3C3C3C3C3C38393F
:103A60003A3B41463846009AFEF7AEF82BE0414615
:103A70003846009AFEF7D6F825E041463846009AC7
:103A8000FEF7EDF81FE041463846009AFEF70AF9C6
:103A900019E041463846009AFEF727F913E05346ED
:103AA000424639464846FEF78FF90CE03846FEF7A5
:103AB0002BFA08E007E03846FEF762FA03E002E07E
:103AC00001E000E000BF00BFFE480078401CFD4957
:103AD0000870FD48007800287FF4EBAEFB490870C1
:103AE000BDE8FC9F2DE9FC5F04460D4616463046B6
:103AF000F11706EB1171C1F30711F34A11700020A1
:103B0000F349087004E1F249097805EB0111605CA2
:103B1000FCF7D1FB42F2107100FB01FBEC49097884
:103B20006A1C02EB0111605CFCF7C5FB00EB400175
:103B3000C1EBC0100BEBC00BE5490978AA1C02EBE6
:103B40000111605CFCF7B7FB00EBC00101EB00105A
:103B50000BEB800BDE490978EA1C02EB0111605C7B
:103B6000FCF7A9FB00EB80000BEB400BD849097870
:103B70002A1D02EB0111605CFCF79DFB58441FFA03
:103B800080F9D3480078691D01EB0010205C01909A
:103B9000CF480078A91D01EB0010275CCC490978BB
:103BA00005F1080202EB0111605CFCF784FB83461F
:103BB000C7490978EA1D02EB0111605CFCF77BFB49
:103BC00000EB80000BEB4008C149097805F10B02BE
:103BD00002EB0111605CFCF76EFB8346BC4909787F
:103BE00005F1090202EB0111605CFCF764FB00EBDC
:103BF00080000BEB40000090B549097805F10B02FD
:103C000002EB0111605CFCF756FB42F2107100FB05
:103C100001FBAF49097805F10C0202EB0111605C70
:103C2000FCF749FB00EB4001C1EBC0100BEBC00BF4
:103C3000A749097805F10D0202EB0111605CFCF760
:103C40003AFB00EBC00101EB00100BEB800BA0492D
:103C5000097805F10E0202EB0111605CFCF72BFB09
:103C600000EB80000BEB400B9949097805F10F023E
:103C700002EB0111605CFCF71EFB58441FFA80FA4E
:103C80000198313814283DD2DFE800F00A10161CE4
:103C900022282F33343C3C3C3C3C3C3C38393A3BBA
:103CA00041463846009AFDF78FFF2BE041463846E3
:103CB000009AFDF7B7FF25E041463846009AFDF728
:103CC000CEFF1FE041463846009AFDF7EBFF19E0B2
:103CD00041463846009AFEF708F813E0534642463C
:103CE00039464846FEF770F80CE03846FEF70CF906
:103CF00008E007E03846FEF743F903E002E001E0A0
:103D000000E000BF00BF72480078401C7049087096
:103D10006D48007800287FF4F6AE6C490870BDE865
:103D2000FC9F2DE9FC5F04460D4616463046F11710
:103D300006EB1171C1F30711634A11700020654948
:103D400008700FE16349097805EB0111605CFCF72D
:103D5000B2FA42F2107100FB01FB5E4909786A1C5D
:103D600002EB0111605CFCF7A6FA00EB4001C1EB2D
:103D7000C0100BEBC00B57490978AA1C02EB0111CC
:103D8000605CFCF798FA00EBC00101EB00100BEB54
:103D9000800B50490978EA1C02EB0111605CFCF7CA
:103DA0008AFA00EB80000BEB400B4A4909782A1D88
:103DB00002EB0111605CFCF77EFA58441FFA80F9AF
:103DC00044480078691D01EB0010205C01904148D7
:103DD0000078A91D01EB0010275C3E49097805F128
:103DE000080202EB0111605CFCF765FA8346394971
:103DF0000978EA1D02EB0111605CFCF75CFA00EB4C
:103E000080000BEB40083349097805F10B0202EB07
:103E10000111605CFCF74FFA83462E49097805F1E1
:103E2000090202EB0111605CFCF745FA00EB80002F
:103E30000BEB400000902749097805F10B0202EBDB
:103E40000111605CFCF737FA42F2107100FB01FBD4
:103E50002049097805F10C0202EB0111605CFCF7C6
:103E60002AFA00EB4001C1EBC0100BEBC00B194963
:103E7000097805F10D0202EB0111605CFCF71BFAF9
:103E800000EBC00101EB00100BEB800B114909782E
:103E900005F10E0202EB0111605CFCF70CFA00EB7D
:103EA00080000BEB400B0B49097805F10F0202EB88
:103EB0000111605CFCF7FFF958441FFA80FA019881
:103EC000313809E0770100206401002092000020D1
:103ED000780100207901002014283DD2DFE800F0AD
:103EE0000A10161C22282F33343C3C3C3C3C3C3C02
:103EF00038393A3B41463846009AFDF765FE2BE0DB
:103F000041463846009AFDF78DFE25E04146384689
:103F1000009AFDF7A4FE1FE041463846009AFDF7DF
:103F2000C1FE19E041463846009AFDF7DEFE13E077
:103F30005346424639464846FDF746FF0CE03846B0
:103F4000FDF7E2FF08E007E03846FEF719F803E066
:103F500002E001E000E000BF00BFFE480078401C26
:103F6000FC490870FC48007800287FF4EBAEFB4960
:103F70000870BDE8FC9F2DE9FC5F04460D4616461F
:103F80003046F11706EB1171C1F30711F24A1170B7
:103F90000020F349087004E1F149097805EB0111AB
:103FA000605CFCF788F942F2107100FB01FBEC4900
:103FB00009786A1C02EB0111605CFCF77CF900EBEC
:103FC0004001C1EBC0100BEBC00BE5490978AA1CFE
:103FD00002EB0111605CFCF76EF900EBC00101EB34
:103FE00000100BEB800BDE490978EA1C02EB011193
:103FF000605CFCF760F900EB80000BEB400BD849EC
:1040000009782A1D02EB0111605CFCF754F9584451
:104010001FFA80F9D2480078691D01EB0010205C7E
:104020000190CF480078A91D01EB0010275CCC4916
:10403000097805F1080202EB0111605CFCF73BF91D
:104040008346C7490978EA1D02EB0111605CFCF761
:1040500032F900EB80000BEB4008C149097805F10B
:104060000B0202EB0111605CFCF725F98346BC49A9
:10407000097805F1090202EB0111605CFCF71BF9FC
:1040800000EB80000BEB40000090B549097805F18A
:104090000B0202EB0111605CFCF70DF942F21071AA
:1040A00000FB01FBAE49097805F10C0202EB01119E
:1040B000605CFCF700F900EB4001C1EBC0100BEBBA
:1040C000C00BA749097805F10D0202EB0111605CF4
:1040D000FCF7F1F800EBC00101EB00100BEB800BDB
:1040E0009F49097805F10E0202EB0111605CFCF7B3
:1040F000E2F800EB80000BEB400B9949097805F1E1
:104100000F0202EB0111605CFCF7D5F858441FFA6E
:1041100080FA0198313814283DD2DFE800F00A1007
:10412000161C22282F33343C3C3C3C3C3C3C383968
:104130003A3B41463846009AFDF746FD2BE04146A2
:104140003846009AFDF76EFD25E041463846009A54
:10415000FDF785FD1FE041463846009AFDF7A2FDB8
:1041600019E041463846009AFDF7BFFD13E053467B
:10417000424639464846FDF727FE0CE03846FDF733
:10418000C3FE08E007E03846FDF7FAFE03E002E070
:1041900001E000E000BF00BF71480078401C70499A
:1041A00008706D48007800287FF4F6AE6B490870FF
:1041B000BDE8FC9F2DE9FC5F04460D4616463046DF
:1041C000F11706EB1171C1F30711634A117000205A
:1041D000644908700FE16349097805EB0111605CDF
:1041E000FCF769F842F2107100FB01FB5D490978A8
:1041F0006A1C02EB0111605CFCF75DF800EB40010A
:10420000C1EBC0100BEBC00B56490978AA1C02EB9E
:104210000111605CFCF74FF800EBC00101EB0010EE
:104220000BEB800B4F490978EA1C02EB0111605C33
:10423000FCF741F800EB80000BEB400B4949097893
:104240002A1D02EB0111605CFCF735F858441FFA97
:1042500080F944480078691D01EB0010205C019052
:1042600040480078A91D01EB0010275C3D49097802
:1042700005F1080202EB0111605CFCF71CF88346B3
:1042800038490978EA1D02EB0111605CFCF713F86C
:1042900000EB80000BEB40083249097805F10B0276
:1042A00002EB0111605CFCF706F883462D490978A2
:1042B00005F1090202EB0111605CFBF7FCFF00EB6A
:1042C00080000BEB400000902649097805F10B02B5
:1042D00002EB0111605CFBF7EEFF42F2107100FB94
:1042E00001FB2049097805F10C0202EB0111605C29
:1042F000FBF7E1FF00EB4001C1EBC0100BEBC00B83
:104300001849097805F10D0202EB0111605CFBF719
:10431000D2FF00EBC00101EB00100BEB800B114949
:10432000097805F10E0202EB0111605CFBF7C3FF97
:1043300000EB80000BEB400B0A49097805F10F02F6
:1043400002EB0111605CFBF7B6FF58441FFA80FADC
:10435000019809E07901002064010020920000200A
:104360007A0100207B010020313814283DD2DFE89B
:1043700000F00A10161C22282F33343C3C3C3C3CF5
:104380003C3C38393A3B41463846009AFDF71CFC24
:104390002BE041463846009AFDF744FC25E04146B3
:1043A0003846009AFDF75BFC1FE041463846009A0C
:1043B000FDF778FC19E041463846009AFDF795FC78
:1043C00013E05346424639464846FDF7FDFC0CE0F3
:1043D0003846FDF799FD08E007E03846FDF7D0FDC7
:1043E00003E002E001E000E000BF00BFFE4800780B
:1043F000401CFD490870FD48007800287FF4EBAEB2
:10440000FB490870BDE8FC9F2DE9FC5F04460D46A2
:1044100016463046F11706EB1171C1F30711F34A46
:1044200011700020F349087004E1F249097805EBA6
:104430000111605CFBF73FFF42F2107100FB01FBD2
:10444000EC4909786A1C02EB0111605CFBF733FF51
:1044500000EB4001C1EBC0100BEBC00BE549097844
:10446000AA1C02EB0111605CFBF725FF00EBC00109
:1044700001EB00100BEB800BDE490978EA1C02EB24
:104480000111605CFBF717FF00EB80000BEB400BAA
:10449000D84909782A1D02EB0111605CFBF70BFF7C
:1044A00058441FFA80F9D3480078691D01EB0010C9
:1044B000205C0190CF480078A91D01EB0010275C1B
:1044C000CC49097805F1080202EB0111605CFBF7A9
:1044D000F2FE8346C7490978EA1D02EB0111605CD0
:1044E000FBF7E9FE00EB80000BEB4008C1490978BF
:1044F00005F10B0202EB0111605CFBF7DCFE834669
:10450000BC49097805F1090202EB0111605CFBF777
:10451000D2FE00EB80000BEB40000090B54909781B
:1045200005F10B0202EB0111605CFBF7C4FE42F2E5
:10453000107100FB01FBAF49097805F10C0202EB99
:104540000111605CFBF7B7FE00EB4001C1EBC0104E
:104550000BEBC00BA749097805F10D0202EB011125
:10456000605CFBF7A8FE00EBC00101EB00100BEB59
:10457000800BA049097805F10E0202EB0111605C85
:10458000FBF799FE00EB80000BEB400B9949097893
:1045900005F10F0202EB0111605CFBF78CFE584441
:1045A0001FFA80FA0198313814283DD2DFE800F074
:1045B0000A10161C22282F33343C3C3C3C3C3C3C2B
:1045C00038393A3B41463846009AFDF7FDFA2BE070
:1045D00041463846009AFDF725FB25E0414638461E
:1045E000009AFDF73CFB1FE041463846009AFDF774
:1045F00059FB19E041463846009AFDF776FB13E077
:104600005346424639464846FDF7DEFB0CE0384645
:10461000FDF77AFC08E007E03846FDF7B1FC03E05F
:1046200002E001E000E000BF00BF72480078401CDB
:10463000704908706D48007800287FF4F6AE6C4928
:104640000870BDE8FC9F2DE9FC5F04460D46164648
:104650003046F11706EB1171C1F30711634A11706F
:104660000020654908700FE16349097805EB0111E5
:10467000605CFBF720FE42F2107100FB01FB5E491B
:1046800009786A1C02EB0111605CFBF714FE00EB79
:104690004001C1EBC0100BEBC00B57490978AA1CB5
:1046A00002EB0111605CFBF706FE00EBC00101EBC1
:1046B00000100BEB800B50490978EA1C02EB01114A
:1046C000605CFBF7F8FD00EB80000BEB400B4A4908
:1046D00009782A1D02EB0111605CFBF7ECFD5844E0
:1046E0001FFA80F944480078691D01EB0010205C36
:1046F000019041480078A91D01EB0010275C3E495C
:10470000097805F1080202EB0111605CFBF7D3FDAB
:10471000834639490978EA1D02EB0111605CFBF719
:10472000CAFD00EB80000BEB40083349097805F126
:104730000B0202EB0111605CFBF7BDFD83462E49C5
:10474000097805F1090202EB0111605CFBF7B3FD8A
:1047500000EB80000BEB400000902749097805F141
:104760000B0202EB0111605CFBF7A5FD42F2107138
:1047700000FB01FB2049097805F10C0202EB011155
:10478000605CFBF798FD00EB4001C1EBC0100BEB48
:10479000C00B1949097805F10D0202EB0111605CAB
:1047A000FBF789FD00EBC00101EB00100BEB800B68
:1047B0001149097805F10E0202EB0111605CFBF76B
:1047C0007AFD00EB80000BEB400B0B49097805F1FB
:1047D0000F0202EB0111605CFBF76DFD58441FFAFC
:1047E00080FA0198313809E07B0100206401002043
:1047F000920000207C0100207D01002014283DD281
:10480000DFE800F00A10161C22282F33343C3C3C11
:104810003C3C3C3C38393A3B41463846009AFDF72F
:10482000D3F92BE041463846009AFDF7FBF925E025
:1048300041463846009AFDF712FA1FE041463846D5
:10484000009AFDF72FFA19E041463846009AFDF725
:104850004CFA13E05346424639464846FDF7B4FA4F
:104860000CE03846FDF750FB08E007E03846FDF75E
:1048700087FB03E002E001E000E000BF00BFFE486C
:104880000078401CFC490870FC48007800287FF440
:10489000EBAEFB490870BDE8FC9F2DE9FC5F0446C8
:1048A0000D4616463046F11706EB1171C1F307119C
:1048B000F24A11700020F349087004E1F1490978C7
:1048C00005EB0111605CFBF7F6FC42F2107100FB96
:1048D00001FBEC4909786A1C02EB0111605CFBF7F3
:1048E000EAFC00EB4001C1EBC0100BEBC00BE5494B
:1048F0000978AA1C02EB0111605CFBF7DCFC00EB01
:10490000C00101EB00100BEB800BDE490978EA1CBB
:1049100002EB0111605CFBF7CEFC00EB80000BEBBF
:10492000400BD84909782A1D02EB0111605CFBF7A6
:10493000C2FC58441FFA80F9D2480078691D01EB87
:104940000010205C0190CF480078A91D01EB0010F9
:10495000275CCC49097805F1080202EB0111605C83
:10496000FBF7A9FC8346C7490978EA1D02EB011150
:10497000605CFBF7A0FC00EB80000BEB4008C1493A
:10498000097805F10B0202EB0111605CFBF793FC67
:104990008346BC49097805F1090202EB0111605C0C
:1049A000FBF789FC00EB80000BEB40000090B54961
:1049B000097805F10B0202EB0111605CFBF77BFC4F
:1049C00042F2107100FB01FBAE49097805F10C02BF
:1049D00002EB0111605CFBF76EFC00EB4001C1EBE8
:1049E000C0100BEBC00BA749097805F10D0202EBD3
:1049F0000111605CFBF75FFC00EBC00101EB0010F4
:104A00000BEB800B9F49097805F10E0202EB0111B7
:104A1000605CFBF750FC00EB80000BEB400B99490E
:104A2000097805F10F0202EB0111605CFBF743FC12
:104A300058441FFA80FA0198313814283DD2DFE833
:104A400000F00A10161C22282F33343C3C3C3C3C1E
:104A50003C3C38393A3B41463846009AFDF7B4F8B9
:104A60002BE041463846009AFDF7DCF825E0414648
:104A70003846009AFDF7F3F81FE041463846009AA1
:104A8000FDF710F919E041463846009AFDF72DF977
:104A900013E05346424639464846FDF795F90CE087
:104AA0003846FDF731FA08E007E03846FDF768FAC6
:104AB00003E002E001E000E000BF00BF71480078C1
:104AC000401C704908706D48007800287FF4F6AEED
:104AD0006B490870BDE8FC9F2DE9FC5F04460D465C
:104AE00016463046F11706EB1171C1F30711634A00
:104AF00011700020644908700FE16349097805EBE3
:104B00000111605CFBF7D7FB42F2107100FB01FB67
:104B10005D4909786A1C02EB0111605CFBF7CBFB75
:104B200000EB4001C1EBC0100BEBC00B56490978FC
:104B3000AA1C02EB0111605CFBF7BDFB00EBC0019E
:104B400001EB00100BEB800B4F490978EA1C02EBDC
:104B50000111605CFBF7AFFB00EB80000BEB400B3F
:104B6000494909782A1D02EB0111605CFBF7A3FBA0
:104B700058441FFA80F944480078691D01EB001081
:104B8000205C019040480078A91D01EB0010275CD3
:104B90003D49097805F1080202EB0111605CFBF761
:104BA0008AFB834638490978EA1D02EB0111605CF3
:104BB000FBF781FB00EB80000BEB400832490978E2
:104BC00005F10B0202EB0111605CFBF774FB8346FD
:104BD0002D49097805F1090202EB0111605CFBF730
:104BE0006AFB00EB80000BEB40000090264909783F
:104BF00005F10B0202EB0111605CFBF75CFB42F27A
:104C0000107100FB01FB2049097805F10C0202EB51
:104C10000111605CFBF74FFB00EB4001C1EBC010E2
:104C20000BEBC00B1849097805F10D0202EB0111DD
:104C3000605CFBF740FB00EBC00101EB00100BEBED
:104C4000800B1149097805F10E0202EB0111605C3D
:104C5000FBF731FB00EB80000BEB400B0A490978B6
:104C600005F10F0202EB0111605CFBF724FB5844D5
:104C70001FFA80FA019809E07D01002064010020FC
:104C8000920000207E0100207F010020313814288E
:104C90003DD2DFE800F00A10161C22282F33343CE6
:104CA0003C3C3C3C3C3C38393A3B41463846009A17
:104CB000FCF78AFF2BE041463846009AFCF7B2FF2A
:104CC00025E041463846009AFCF7C9FF1FE04146FF
:104CD0003846009AFCF7E6FF19E041463846009A4C
:104CE000FDF703F813E05346424639464846FDF7C0
:104CF0006BF80CE03846FDF707F908E007E03846A6
:104D0000FDF73EF903E002E001E000E000BF00BF74
:104D1000FE480078401CFD490870FD4800780028D6
:104D20007FF4EBAEFB490870BDE8FC9F2DE9FC5F0A
:104D300004460D4616463046F11706EB1171C1F3D5
:104D40000711F34A11700020F349087004E1F24999
:104D5000097805EB0111605CFBF7ADFA42F21071C6
:104D600000FB01FBEC4909786A1C02EB0111605C55
:104D7000FBF7A1FA00EB4001C1EBC0100BEBC00B3D
:104D8000E5490978AA1C02EB0111605CFBF793FA74
:104D900000EBC00101EB00100BEB800BDE49097842
:104DA000EA1C02EB0111605CFBF785FA00EB800066
:104DB0000BEB400BD84909782A1D02EB0111605C0E
:104DC000FBF779FA58441FFA80F9D3480078691D37
:104DD00001EB0010205C0190CF480078A91D01EB89
:104DE0000010275CCC49097805F1080202EB01119B
:104DF000605CFBF760FA8346C7490978EA1D02EB5D
:104E00000111605CFBF757FA00EB80000BEB4008E8
:104E1000C149097805F10B0202EB0111605CFBF757
:104E20004AFA8346BC49097805F1090202EB0111EF
:104E3000605CFBF740FA00EB80000BEB4000009059
:104E4000B549097805F10B0202EB0111605CFBF733
:104E500032FA42F2107100FB01FBAF49097805F10B
:104E60000C0202EB0111605CFBF725FA00EB40013C
:104E7000C1EBC0100BEBC00BA749097805F10D027F
:104E800002EB0111605CFBF716FA00EBC00101EBCD
:104E900000100BEB800BA049097805F10E0202EB24
:104EA0000111605CFBF707FA00EB80000BEB400B95
:104EB0009949097805F10F0202EB0111605CFBF7DB
:104EC000FAF958441FFA80FA0198313814283DD273
:104ED000DFE800F00A10161C22282F33343C3C3C3B
:104EE0003C3C3C3C38393A3B41463846009AFCF75A
:104EF0006BFE2BE041463846009AFCF793FE25E016
:104F000041463846009AFCF7AAFE1FE04146384663
:104F1000009AFCF7C7FE19E041463846009AFCF7B4
:104F2000E4FE13E05346424639464846FCF74CFF40
:104F30000CE03846FCF7E8FF08E007E03846FDF7EC
:104F40001FF803E002E001E000E000BF00BF72488C
:104F50000078401C704908706D48007800287FF484
:104F6000F6AE6C490870BDE8FC9F2DE9FC5F044675
:104F70000D4616463046F11706EB1171C1F30711C5
:104F8000634A11700020654908700FE16349097890
:104F900005EB0111605CFBF78EF942F2107100FB2A
:104FA00001FB5E4909786A1C02EB0111605CFBF7AA
:104FB00082F900EB4001C1EBC0100BEBC00B57496D
:104FC0000978AA1C02EB0111605CFBF774F900EB95
:104FD000C00101EB00100BEB800B50490978EA1C73
:104FE00002EB0111605CFBF766F900EB80000BEB54
:104FF000400B4A4909782A1D02EB0111605CFBF75E
:105000005AF958441FFA80F944480078691D01EBA9
:105010000010205C019041480078A91D01EB0010B0
:10502000275C3E49097805F1080202EB0111605C3A
:10503000FBF741F9834639490978EA1D02EB011172
:10504000605CFBF738F900EB80000BEB400833495C
:10505000097805F10B0202EB0111605CFBF72BF9FB
:1050600083462E49097805F1090202EB0111605CC3
:10507000FBF721F900EB80000BEB40000090274983
:10508000097805F10B0202EB0111605CFBF713F9E3
:1050900042F2107100FB01FB2049097805F10C0276
:1050A00002EB0111605CFBF706F900EB4001C1EB7C
:1050B000C0100BEBC00B1949097805F10D0202EB8A
:1050C0000111605CFBF7F7F800EBC00101EB001089
:1050D0000BEB800B1149097805F10E0202EB01116F
:1050E000605CFBF7E8F800EB80000BEB400B0B4932
:1050F000097805F10F0202EB0111605CFBF7DBF8A8
:1051000058441FFA80FA0198313809E07F010020E5
:105110006401002092000020800100208101002015
:1051200014283DD2DFE800F00A10161C22282F3385
:10513000343C3C3C3C3C3C3C38393A3B41463846AC
:10514000009AFCF741FD2BE041463846009AFCF7F7
:1051500069FD25E041463846009AFCF780FD1FE0D6
:1051600041463846009AFCF79DFD19E04146384615
:10517000009AFCF7BAFD13E05346424639464846CA
:10518000FCF722FE0CE03846FCF7BEFE08E007E024
:105190003846FCF7F5FE03E002E001E000E000BF66
:1051A00000BF60480078401C5E4908705E48007887
:1051B00000287FF4EBAE5D490870BDE8FC9F10B598
:1051C0000446152C13D2DFE804F0AB0B131B232B82
:1051D000333B434B535B636B737B838B939BA3008A
:1051E00053480288534801885348FDF706F997E071
:1051F00052480288524801884F48FDF729FA8FE04B
:1052000050480288504801884B48FDF740FB87E032
:105210004E4802884E4801884748FDF762FC7FE00F
:105220004C4802884C4801884348FDF779FD77E0F7
:105230004A4802884A4801883F48FDF79BFE6FE0D4
:1052400048480288484801883B48FDF7BBFF67E0B3
:1052500046480288464801883748FEF7D2F85FE0A2
:1052600044480288444801883348FEF7F2F957E081
:1052700042480288424801882F48FEF709FB4FE068
:1052800040480288404801882B48FEF72BFC47E045
:105290003E4802883E4801882748FEF742FD3FE02D
:1052A0003C4802883C4801882348FEF764FE37E00A
:1052B0003A4802883A4801881F48FEF77BFF2FE0F2
:1052C00038480288384801881B48FFF79DF827E0D6
:1052D00036480288364801881748FFF7B4F91FE0BE
:1052E00034480288344801881348FFF7D6FA17E09B
:1052F00032480288324801880F48FFF7EDFB0FE083
:1053000030480288304801880B48FFF70FFD07E05E
:105310002E4802882E4801880748FFF726FE00BF66
:1053200000BF10BD81010020640100209200002018
:1053300008000020060000206C7700200C000020F0
:105340000A000020100000200E00002014000020A1
:105350001200002018000020160000201C00002071
:105360001A000020200000201E0000202400002041
:105370002200002028000020260000202C00002011
:105380002A000020300000202E00002034000020E1
:105390003200002038000020360000203C000020B1
:1053A0003A000020400000203E0000204400002081
:1053B0004200002048000020460000204C00002051
:1053C0004A000020500000204E0000205400002021
:1053D0005200002070B505460C4615B1012D66D16E
:1053E00032E0002C12DA0120DA4908600020DA49A4
:1053F000C1F8A001D749091F0860604204B2C4F592
:10540000347081B2D54802F0A9FF1CE0002C11DDF8
:105410000120D04908600020CF49C1F8A001012037
:10542000CC49091F0860C4F5347081B2CB4802F042
:1054300095FF08E00020C7490860C4F5347081B2C8
:10544000C64802F089FF33E0002C13DA0120C4497A
:1054500008600020C349C1F884010120BD49103112
:105460000860604204B2C4F5347081B2BB4802F0F7
:1054700073FF1BE0002C10DD0120B94908600020FB
:10548000B849C1F88401B34910310860C4F53470DB
:1054900081B2B24802F060FF08E00020B049086025
:1054A000C4F5347081B2AD4802F056FF00E000BF91
:1054B00000BF70BD2DE9F04F89B00446AA480068CE
:1054C0000068A0EB0409A8490968486A03F0DFFBFB
:1054D0000546A54800688769C3693A46284603F02F
:1054E000ECFACDE90401A0490968086A03F0CFFB92
:1054F00007469D480068056943692A46384603F017
:10550000DCFACDE90001484603F0C1FB07468846B6
:10551000954801688D68CB682A463846414603F0B5
:10552000CCFA8246DDE9002303F0C1FACDE902019D
:10553000DDE9042303F01AFACDE9060103F0DEFBEE
:10554000089089480068006A874909684862864867
:105550000068C0F82090089809B0BDE8F08F7CB5CD
:1055600004460D460020019000908048006801909C
:1055700000207E4908607C48006804600846006896
:10558000FFF798FF00907A48B0F9000000990844AE
:10559000784908600846008801B20020FFF71AFF2A
:1055A0007CBD7CB504460D460020019000907248F9
:1055B000006801906C48006804606F480068FFF75D
:1055C00079FF00906D48B0F90000009908446C49DB
:1055D00008600846008801B20120FFF7FBFE7CBD91
:1055E00000206149096808625F4909684862002132
:1055F00064485D4A12689160D060634963485A4AC2
:105600001268116150616248574A12689161D06115
:105610007047C0F5347108B2704710B504463821A0
:10562000204603F0FCF8E22060731E202073012066
:10563000A07710BD017070470161426183617047BE
:105640002DE9F04F85B004460F4600250026A846F8
:1056500094F90000C51BA0682844A060207F281A88
:1056600040B2E07794F91C00022101FB1050617FE9
:10567000084440B284F8200068B284F8210094F90C
:105680001F00002802DD4FF0010805E094F91F001B
:10569000002801DA4FF0FF38002D02DDB8F1000FCD
:1056A00004DB002D05DAB8F1000F02DD0020A07741
:1056B00001E00120A07794F9200003F0DFFA83468F
:1056C000A16903F021F9049094F9210003F0D6FABE
:1056D000029094F91E0003F0D1FA0090616903F082
:1056E00013F90190029903F00FF9039094F91F0048
:1056F00003F0C4FA0290216903F006F98346039986
:1057000003F0AAF88246049903F0A6F8814603F054
:10571000DCFA06466662A06AB04201DAA66203E0DD
:10572000E06AB04200DDE662207F607768B22077F1
:10573000206B30446063606B2063304605B0BDE889
:10574000F08F70B504460D4629462046FFF778FFD6
:1057500070BD00009481214200802142000400407D
:1057600080012342000023429801002020010020F4
:10577000F8000020A801002024010020FA000020E9
:10578000AC0100200000F8BF9A9999999999E93FD6
:105790009999D93F2DE9F0478246504603F088FA9F
:1057A000804642460B460020414903F0F8F9064680
:1057B0000022404B03F081F9044603F0BEFA80B2A8
:1057C000BDE8F087F0B50246002300250020002444
:1057D000002100BF384E3678384F3F783E44384F6E
:1057E0003F783E44344FFF7B3E44102E20D01DE0D6
:1057F000314EF65C1EB90125661CF4B205E015B900
:105800004E1CF1B201E0461CF0B22B4EF65CC6F124
:1058100001062C4FFF56DFF8B0C0BCF900C006FBF4
:1058200007C636B2284F3E805E1CF3B2102BDFD184
:10583000254EB6F90060002E06DD0026234F3E708F
:105840000126234F3E7010E01F4EB6F90060002E77
:1058500006DA01261D4F3E7000261D4F3E7004E003
:1058600000261A4F3E701A4F3E701A4E30701A4E74
:1058700031701A4E347088420CDD461A02EB46062F
:1058800036B2174F3E80461AA2EB460636B2154F87
:105890003E800BE00E1A02EB460636B2114F3E80F8
:1058A0000E1AA2EB460636B20D4F3E80F0BD000048
:1058B0000000F03F0088C3402C0200206E00002052
:1058C0006F000020C0010020BA010020B2010020BA
:1058D000B3010020B4010020B6010020B501002072
:1058E000F8000020FA00002010B500F061F800F088
:1058F00096F810BD70B500250026002400F06FF862
:10590000712000F018F900F0ABF8012000F041F927
:105910000546002000F03DF9064600F080F82C46D0
:105920004FF6FF7000EA0424A01984B2204670BD2F
:1059300010B5044600F053F8702000F0FCF800F0B9
:105940008FF8204600F0F7F800F08AF800F067F8CA
:1059500010BD10B5044600F042F8782000F0EBF8D6
:1059600000F07EF8204600F0E6F800F079F800F04C
:1059700056F810BD70B50025002600F030F87920EB
:1059800000F0D9F800F06CF8012000F002F90546AB
:10599000002000F0FEF8064600F041F82C464FF6D5
:1059A000FF7000EA0424A01984B2204670BD0000F4
:1059B00008B50121102001F0A3FD0C20ADF8000076
:1059C00010208DF8030003208DF8020069468A48F4
:1059D00001F0DAFA0C21884801F083FB08BD10B50C
:1059E0008548006820F470408349086008460068D4
:1059F00040F4405008600120804908608049C1F8A7
:105A00008801502000F035FB00207C4908605020C0
:105A100000F02FFB00207A49C1F8880110BD10B5B5
:105A20007548006820F470407349086008460068B3
:105A300040F44050086000207049091F0860704918
:105A4000C1F88C01502000F014FB01206B49091FA4
:105A500008606B49C1F88C01502000F00AFB10BDB2
:105A600010B500246448006820F470406249086062
:105A70000846006840F40040086001205F49091FA3
:105A80000860142000F0F5FA05E0601CC4B2FA2C9E
:105A900001DD012010BD5948803800680028F4D18C
:105AA0005649091F086000BFF4E710B500205349AC
:105AB000091F08605048006820F470404E49086093
:105AC0000846006840F44050086000204C49C1F886
:105AD0008C01282000F0CDFA01204849091F0860F8
