:020000040800F2
:1000000020AA002029A90008B9110008BB11000886
:10001000BF110008C3110008C7110008000000004C
:10002000000000000000000000000000CB110008EC
:10003000CD11000800000000CF110008D111000808
:1000400043A9000843A9000843A9000843A90008E0
:1000500043A9000843A9000843A9000843A90008D0
:1000600043A9000843A9000843A9000843A90008C0
:1000700043A9000843A9000843A9000843A90008B0
:1000800043A9000843A9000843A9000843A90008A0
:1000900043A9000843A9000843A900082B610008F0
:1000A00043A9000843A9000843A9000843A9000880
:1000B0001514000843A900087516000843A9000894
:1000C00043A9000843A9000843A9000843A9000860
:1000D00043A90008459E0008639F0008F5A000089A
:1000E00043A9000843A9000843A9000843A9000840
:1000F00043A9000843A9000843A9000843A9000830
:1001000043A9000843A9000843A9000843A900081F
:1001100053A200085FA3000843A9000843A90008F0
:1001200043A9000843A9000843A9000843A90008FF
:10013000DFF80CD00CF090FF00480047150E0008C7
:1001400020AA002010B500BFF1480CF03BF8502861
:10015000FAD11422EFA1F0A009F0BAFC1422EDA10B
:10016000F1A009F0B5FC10BD10B54FF40041F948FD
:100170000AF04DFDF849C8734FF48041F5480AF084
:1001800046FDF54988734FF40051F2480AF03FFDEF
:10019000F14948734FF48051EE480AF038FDEE49BA
:1001A00008734FF40061EB480AF031FDEA49C87268
:1001B0004FF48061E7480AF02AFDE74988724FF45E
:1001C0000071E4480AF023FDE34948724FF480715E
:1001D000E0480AF01CFDE04908724FF40041DF4896
:1001E0000AF015FDDC49C8714FF48041DB480AF084
:1001F0000EFDD94988714FF40051D8480AF007FD27
:10020000D54948714FF48051D4480AF000FDD249D5
:1002100008714FF40041D2480AF0F9FCCE49C87089
:100220004FF48041CE480AF0F2FCCB4988704FF47D
:100230000051CB480AF0EBFCC74948704FF480519D
:10024000C7480AF0E4FCC44908700846007A497AB5
:100250000844C149897A0844BF49C97A0844BE495B
:10026000097B0844BC49497B0844BB49897B084455
:10027000BC490870B8484078B74989780844B649FD
:10028000C9780844B44909790844B349497908440C
:10029000B14989790844B049C9790844B24908701C
:1002A00010BD10B5044601F008FCFFF75DFF4620C5
:1002B00005F078F910BD0146A1F13002172A2DD2C0
:1002C000DFE802F00C0E10121416181A1C1E2C2C4B
:1002D0002C2C2C2C2C20222426282A0000201DE047
:1002E00001201BE0022019E0032017E0042015E0A4
:1002F000052013E0062011E007200FE008200DE0A4
:1003000009200BE00A2009E00B2007E00C2005E0A3
:100310000D2003E00E2001E00F2000BF00BF70475A
:100320002DE9FF41074600240D2500200390009091
:1003300038B2029070E2BDF90C10491C04FB0511A3
:100340008A4A505CFFF7B7FF642100FB01F8BDF952
:100350000C10891C04FB0511844A505CFFF7ABFFAD
:1003600000EB800008EB4008BDF90C10C91C04FB31
:1003700005117E4A505CFFF79EFF4044C6B2BDF9AE
:100380000C10C91D04FB0511784A505CFFF793FF60
:100390004FF47A7100FB01F8BDF90C10083104FB31
:1003A0000511724A505CFFF786FF00EBC00101EBBC
:1003B000001008EB8008BDF90C10093104FB051191
:1003C0006A4A505CFFF777FF00EB800008EB4008BB
:1003D000BDF90C100A3104FB0511644A505CFFF7AB
:1003E0006AFF404400B20090BDF90C000B3004FBE2
:1003F000050000B20190BDF80C00BDF800100844E3
:1004000000B20390601CC4B2152E1CD2DFE806F0C7
:100410000B1C3044586CCADEFFFDFCFBFAF9F8F700
:10042000F6F5F4F3F200BDF8040051490880BDF878
:10043000000050490880BDF808104F4800880D3072
:10044000081A00B20290E6E1BDF804004B490880AA
:10045000BDF8000048490880BDF8081046480088EB
:100460000D30081A00B20290012045490870D2E10F
:10047000BDF8040043490880BDF8000042490880E7
:10048000BDF80810404800880D30081A00B20290EC
:1004900002203B490870BEE1BDF804003B490880DA
:1004A000BDF800003A490880BDF8081038480088B7
:1004B0000D30081A00B20290032031490870AAE1F9
:1004C000BDF8040033490880BDF8000032490880B7
:1004D000BDF80810304800880D30081A00B20290AC
:1004E00004202749087096E1BDF804002B490880D4
:1004F000BDF800002A490880BDF808102848008887
:100500000D30081A00B2029005201D49087082E1E2
:10051000004C00404F4B000041542B4349504D4F7D
:1005200044453D310D0A000041542B43495053547A
:100530004152543D22544350222C223139322E3123
:1005400036382E352E313037222C383031350D0AE1
:100550000000000000140140C4020020000C014013
:10056000001801406E0000206F0000200478002079
:1005700000000020020000200800002006000020EB
:10058000BC0000200A0000200C0000200E0000200B
:10059000100000201200002014000020160000208F
:1005A00018000020BDF80400FE490880BDF80000D6
:1005B000FD490880BDF80810FB4800880D30081A76
:1005C00000B202900620F949087024E1BDF8040049
:1005D000F7490880BDF80000F6490880BDF808100A
:1005E000F44800880D30081A00B202900720EF4945
:1005F000087010E1FBE0E6E0D1E0BCE0A7E092E0AB
:100600007DE068E053E03EE029E014E0FFE7BDF85C
:100610000400E9490880BDF80000E8490880BDF8F9
:100620000810E64800880D30081A00B20290082031
:10063000DE490870EFE0BDF80400E1490880BDF82C
:100640000000E0490880BDF80810DE4800880D3041
:10065000081A00B202900920D4490870DBE0BDF806
:100660000400D9490880BDF80000D8490880BDF8C9
:100670000810D64800880A30081A00B202900A20F2
:10068000CA490870C7E0BDF80400D1490880BDF828
:100690000000D0490880BDF80810CE4800880A3014
:1006A000081A00B202900B20C0490870B3E0BDF8F0
:1006B0000400C9490880BDF80000C8490880BDF899
:1006C0000810C64800880A30081A00B202900C20B0
:1006D000B64908709FE0BDF80400C1490880BDF824
:1006E0000000C0490880BDF80810BE4800880A30E4
:1006F000081A00B202900D20AC4908708BE0BDF8DA
:100700000400B9490880BDF80000B8490880BDF868
:100710000810B64800880A30081A00B202900E206D
:10072000A249087077E0BDF80400B1490880BDF81F
:100730000000B0490880BDF80810AE4800880A30B3
:10074000081A00B202900F209849087063E0BDF8C3
:100750000400A9490880BDF80000A8490880BDF838
:100760000810A64800880A30081A00B2029010202B
:100770008E4908704FE0BDF80400A1490880BDF81B
:100780000000A0490880BDF808109E4800880A3083
:10079000081A00B202901120844908703BE0BDF8AD
:1007A000040099490880BDF8000098490880BDF808
:1007B0000810964800880A30081A00B202901220E9
:1007C0007A49087027E0BDF8040091490880BDF817
:1007D000000090490880BDF808108E4800880A3053
:1007E000081A00B2029013207049087013E0BDF897
:1007F000040089490880BDF8000088490880BDF8D8
:100800000810864800880A30081A00B202901420A6
:100810006649087000BF00BFBDF908000C283FF70B
:100820008AADBDE8FF812DE9F04F04460025A846BA
:1008300000BFA078FFF73FFD642100FB01FBE078DB
:10084000FFF739FD00EB80000BEB400B2079FFF741
:1008500032FD584400F0FF0ABAF1000F54D10120D4
:100860006F490870207AFFF726FD4FF47A7100FB7C
:1008700001FB607AFFF71FFD00EBC00101EB0010E8
:100880000BEB800BA07AFFF716FD00EB80000BEB63
:10089000400BE07AFFF70FFD584462490880084694
:1008A0000088401C86B209E05F4905F10C00085C35
:1008B0005E494855681C85B2701E86B2002EF3DC76
:1008C000002500BF574800880D30205C2C281AD125
:1008D0000BE005F10E005349098808445249085CB1
:1008E00053494855681C85B22F464E4800880E3043
:1008F0002844205C7D28ECD100253846FFF710FD08
:1009000001204C490870D5E0207AFFF7D4FC4FF461
:100910007A7100FB01FB607AFFF7CDFC00EBC001B0
:1009200001EB00100BEB800BA07AFFF7C4FC00EB8F
:1009300080000BEB400BE07AFFF7BDFC584487B218
:100940000025AAE0681C205C2C282AD1E91C605CE8
:10095000FFF7B1FC642100FB01FB291D605CFFF780
:10096000AAFC00EB80000BEB400B691D605CFFF7FD
:10097000A2FC584400F0FF09B9F1000F70D101202A
:1009800027490870607AFFF796FC4FF47A7100FBF4
:1009900001FBA07AFFF78FFC00EBC00101EB001018
:1009A0004AE072E01A0000201C000020BC00002079
:1009B0001E00002020000020220000202400002033
:1009C00026000020280000202A0000202C00002003
:1009D0002E000020300000203200002034000020D3
:1009E00036000020380000203A0000203C000020A3
:1009F0003E00002040000020420000204400002073
:100A000046000020480000204A0000204C00002042
:100A10004E00002050000020520000205400002012
:100A20008C00002004000020D4020020F45000209C
:100A300004780020920000200BEB800BE07AFFF797
:100A40003AFC00EB80000BEB400B207BFFF733FC04
:100A50005844FE49088008460088401C86B20FE0D2
:100A600012E0FB4905F10D00085CFA4901F80800A5
:100A7000681C85B208F101001FFA80F8701E86B26A
:100A8000002EEEDC4FF000080CE0F149681C085C19
:100A9000F1494855681C85B22F46681C205C7D28AA
:100AA0007FF450AF00BF00253846FFF739FC012026
:100AB000EA490870BDE8F08F704770470BE0E848DE
:100AC0000078012807D1E7480088401CE5490880E4
:100AD0000020E3490870E44800780028EFD0704710
:100AE00010B504F03CFEE149088008460088E04962
:100AF0000988884230D0DD48008848B1B0F5807F51
:100B000012D0B0F5007F0BD0B0F5806F10D103E0AC
:100B10000020D84908700BE00120D649087007E092
:100B20000220D449087003E00320D249087000BFB6
:100B300000BFD0480078D0490978884208D0CD4815
:100B40000178CEA009F008F9CA480078CA490870AF
:100B5000C6480088C649088010BD10B5702004F052
:100B6000B9FDCE49088008460088CD4909888842E9
:100B70003AD0CA480088B0F5007F14D004DC50B1E8
:100B8000B0F5807F1BD10AE0B0F5806F0FD0B0F5D3
:100B9000006F14D10FE00020C249087010E001205E
:100BA000C04908700CE00120BE49087008E002202E
:100BB000BC49087004E00220BA49087000E000BF98
:100BC00000BFB8480078B8490978884208D0B548CD
:100BD0000178AAA009F0C0F8B2480078B2490870BC
:100BE000AE480088AE49088010BD70B5AF480078A7
:100BF0000A2190FBF1F0C4B2AC48007890FBF1F20E
:100C000001FB1200C5B2AA480078A84909788842B9
:100C100016D0A64800780A2190FBF1F0A54908708B
:100C2000A24800780A2190FBF1F201FB1200A249D0
:100C300008709E4800789E49087001209F490870FE
:100C40009F4800789F490978884206D09D480078DF
:100C50009B4908700120994908709848007801283C
:100C600009D1002095490870964803782A46214604
:100C700095A009F071F870BD10B5FFF775FA012065
:100C8000994908609949C1F8940100209649091DC5
:100C900008600120964908600020091F08600120B3
:100CA00093491439086014209249088092490880B9
:100CB0009248007892490978084492490978084492
:100CC0008E49C97B0844102802D101208E49087042
:100CD0008A4880798949C97908448849097A084449
:100CE000012814DC88480078012810D100208649AA
:100CF000087086480078012803D1002084490870D4
:100D000005E08248007810B906208149087010BDBE
:100D100070B50546002402207E49087077480078A7
:100D20007749097808447749097808447349C97BA9
:100D30000844794908707148007871490978084475
:100D40007049097808446D49C97B084410283BD193
:100D50007248007848B972480078012805D11E20F1
:100D6000704908800020704908806C48007801288C
:100D700008D16B48007828B900206A4908801E20F5
:100D8000694908806548007808B9012000E0002022
:100D90006349097809B9012100E00021084028B120
:100DA0000020604908801E205F4908805F48B0F934
:100DB0000000504908805E48B0F900004E490880A4
:100DC00000205C49088018E001204949103908607A
:100DD00000204649C1F8A0010120454914390860A6
:100DE000414908600020091D0860414908603C2015
:100DF0005149088020B204F0D5FB70BD10B54F48B2
:100E00000078012805D1114802880021114801F01D
:100E10008DF810BD8EB0142109A80BF07AFC0020CB
:100E20000790089000BF08F0A3FE4FF4A06009F0FF
:100E30008DFD4FF4E13008F0B8FF4FF4E13009F0D8
:100E40003EF84FF4E13009F0DCF879E004000020CE
:100E5000D4020020F45000200478002092000020EA
:100E600091000020DE0000208E000020C200002043
:100E7000C4000020C8000020CA0000207B22636F4D
:100E80006E74656E74223A22303030303025643012
:100E90003030303030303030227D0000BE00002055
:100EA000C0000020C9000020CB000020610000200D
:100EB000A4000020CC000020CD000020E000002095
:100EC000A6000020640000207B22636F6E74656EB4
:100ED00074223A2230302564256425643030303065
:100EE0003030303030227D008001234200802142AA
:100EF000A4812142FA000020F8000020C402002052
:100F00006E0000206F000020900000208F00002065
:100F10009900002097000020CE000020A6010020AC
:100F2000A701002056010020540100205C01002090
:100F30005A0100205E010020580100208C00002092
:100F40004FF4E13009F035F94FF4165009F0BBF9D0
:100F500000F0CAFC02E0C82008F047FE07F086FD5A
:100F60000028F8D140F2CF21632000F023FA05F0E9
:100F700023F805F0FEF80021084605F097FA012154
:100F800008460AF07AF8012188070AF0FDFC0120E2
:100F9000694908606949C1F8940104F095FB1D2175
:100FA000702004F0B9FB642008F01FFE642008F0F4
:100FB0001CFEC820624908800E2162480BF0A9FB84
:100FC00000205D4908310860B5E05F4809F099FBF1
:100FD00000280DDD142109A80BF09BFB112209A9A3
:100FE000594809F048FC18B1112109A809F0CBF8BB
:100FF0000BF03AFA04460BF075FA544809F081FBFD
:1010000000281DDD142102A80BF083FB112202A988
:101010004E4809F030FC80B19DF80800022808D144
:101020009DF81800032804D19DF812004849087063
:1010300006E0464809F05EFB02E0444809F05AFB2E
:1010400044480078012805D14348FFF7ECFB002015
:101050004049087041480078012801D1FFF7CEFED1
:101060003F48007801280ED100203D490870FFF765
:10107000BCFD3C4800783C490978884203D1394896
:10108000007803F08BFF39480078072851D2DFE859
:1010900000F004080C1014181B00002034490870DC
:1010A00048E000203249087044E0002030490870D0
:1010B00040E000202E4908703CE000202C490870D8
:1010C00038E0FFF7D9FD35E02A48007800282CDD0C
:1010D00000202949088029490880294908800A20D8
:1010E000284908700021084605F0E0F90120184958
:1010F000087025480088052808D0234800884FF448
:10110000967190FBF1F201FB120050B900200090A3
:101110000F4803781D4802781D4801781DA008F08B
:101120001BFE00201249087002E0012010490870DF
:1011300000E000BF00BF48E78C01234200002342CB
:101140006600002010A600206CA4002058A40020F7
:10115000D900002070020020D40200208C00002062
:101160007202002061000020BC00002099000020D5
:10117000CF00002050010020540100205601002023
:10118000580100202801002062010020CD0000202D
:10119000CC0000207B22636F6E74656E74223A224D
:1011A000303025642564256425643030303030309B
:1011B0003030227D00000000704700BFFEE700BF16
:1011C000FEE700BFFEE700BFFEE7704770477047CD
:1011D000704700000CB50020019000906C4800683A
:1011E00040F480306A49086000BF6948006800F434
:1011F000003000900198401C0190009818B90198A7
:10120000B0F5A06FF1D16248006800F4003010B171
:101210000120009001E0002000900098012843D1B7
:101220005C48006840F010005A49086008460068B1
:1012300020F0030008600846006840F002000860E3
:10124000534840685249486008464068486008462C
:10125000406840F4806048600846406820F47C1094
:1012600048600846406840F4E81048600846006856
:1012700040F08070086000BF4548006800F00070D2
:101280000028F9D04248406820F0030040494860F7
:101290000846406840F00200486000BF3C48406893
:1012A00000F00C000828F9D10CBD10B5FFF792FF33
:1012B00010BD10B53648006840F0010034490860A0
:1012C000084640683449084031494860084600688B
:1012D000324908402E4908600846006820F4802002
:1012E00008600846406820F4FE0048604FF41F0084
:1012F0008860FFF7DAFF4FF000602949086010BDF1
:1013000010B5002100200022214B5B6803F00C0186
:1013100021B1042906D0082928D107E0214B224C0D
:10132000236027E01F4B204C236023E0184B5B68B1
:1013300003F47010164B5B6803F48032022303EB56
:10134000904022B9194B4343174C23600DE0104BDA
:101350005B6803F4003323B1144B4343124C236006
:1013600003E0104B4343104C236003E00D4B0E4C45
:10137000236000BF00BF064B5B68C3F303130C4C34
:10138000E15C094B1B68CB40074C236010BD00009B
:1013900000100240002002400000FFF8FFFFF6FEB0
:1013A00008ED00E000127A00E400002000093D0092
:1013B000E80000207FB504460D460121084609F0EB
:1013C0005CFEADF80840681E80B2ADF80400002055
:1013D000ADF80A00ADF8060001A94FF0804009F011
:1013E00077FF00214FF080400AF0CEFA1C208DF8E4
:1013F000000002208DF801008DF8020001208DF818
:101400000300684609F0A7FA0122412188070AF083
:10141000D6FA7FBD10B50024012188070AF07DFDB2
:10142000002858D0C5480068401CC4490860C4481A
:101430000088401CC2490880C2480088401CC1493D
:101440000880C1480078401CBF490870BF48007838
:10145000401CBE490870BB480088142828DB0020C7
:10146000B8490880BA480078002811DDB9480078EA
:10147000401CB8490870B8480088401CB64908802C
:10148000B44800781E2813DD1E20B24908700FE012
:10149000B0480078002805DDAE480078401EAD4910
:1014A000087002E00020AB4908700020AA490880BB
:1014B000A6480078322806DBA448007805F00AF830
:1014C0000020A2490870012188070AF023FD0121AC
:1014D00088070AF033FD9A480088052802DD0020BD
:1014E00097490880954800680A2809D30020934945
:1014F00008609A480078012802D1462004F0F8FAE2
:1015000010BD30B589B004460D46954809F00CFE73
:101510000121022009F0B1FD01210C2009F0A0FDFC
:10152000C020ADF8200018208DF8230003208DF88E
:10153000220008A98B4809F0D7FA0320ADF8200053
:1015400018208DF8230003208DF8220008A9864872
:1015500009F0CAFAADF81840ADF814500020ADF803
:101560001A00ADF8160005A97D4809F0B1FE7020FB
:10157000ADF804000120ADF806000020ADF80C0025
:10158000204604EBD071C1F34F01ADF80A1001A958
:10159000734809F0DAFE01A9714809F018FF082123
:1015A0006F480AF021FB08216D480AF026FB012153
:1015B0006B480AF0E9F9012169480AF0F1F909B02C
:1015C00030BD30B585B005460C460121042009F038
:1015D00054FD0121082009F043FDC020ADF81000A2
:1015E00028208DF8130004A95F4809F07DFAC02176
:1015F0005D4809F028FBADF80850ADF80440002024
:10160000ADF80A00ADF8060001A9584809F060FEDF
:101610000020574908804880012088800020C88029
:10162000088152480AF0E7F8042051490880002058
:101630004880012088800020C88008814B480AF03B
:10164000DAF81E208DF8000000208DF801008DF8DA
:10165000020001208DF80300684609F07CF90122A0
:10166000062142480AF0ABF9012140480AF08CF902
:1016700005B030BD10B502213C480AF04EFC40B127
:1016800002213A480AF05AFC3A480068401C39499D
:101690000860042135480AF040FC40B10421334879
:1016A0000AF04CFC34480068401C3349086010BD07
:1016B00000280CDD0122314B1A600022304BC3F8A8
:1016C000A02101222D4B1B1F1A60088012E0002868
:1016D0000DDA0122294B1A600022294BC3F8A02100
:1016E000264B1B1F1A60424210B2088002E0002203
:1016F000224B1A60704700280BDD0122214B1A6033
:101700000022214BC3F884211C4B10331A6008803F
:1017100013E000280EDA01221A4B1A6000221A4B3D
:10172000C3F884210122154B10331A60424210B2D3
:10173000088002E00022134B1A60704774000020FA
:101740004C0100204E0100206001002064010020B7
:10175000D90000205001002062010020CF000020AD
:101760000004004000080140000C01400008004057
:10177000649F002020010020240100209481214248
:1017800000802142800123420000234208B501214C
:10179000402009F065FC4FF40060ADF800002820FF
:1017A0008DF803006946574809F09EF908BD08B551
:1017B0000121402009F054FC0C20ADF8000010205D
:1017C0008DF8030003208DF8020069464D4809F0AA
:1017D0008BF90C214B4809F034FA08BD08B50121FA
:1017E000482009F03DFC4FF44E70ADF80000012197
:1017F000454809F04AFA10208DF8030003208DF8BF
:1018000002006946414809F06FF94FF44E713F48B4
:1018100009F017FA0320ADF8000010208DF803003E
:1018200003208DF802006946364809F05DF903216E
:10183000344809F006FA08BD08B50121142009F062
:101840000FFC1020ADF8000048208DF80300694619
:101850002F4809F049F93020ADF8000048208DF8F4
:10186000030069462B4809F03FF908BD08B501217E
:10187000682009F0F5FB4FF47040ADF800004820F7
:101880008DF803006946214809F02EF94FF47F4096
:10189000ADF8000048208DF8030069461E4809F0A5
:1018A00023F94FF68070ADF8000048208DF8030052
:1018B0006946144809F018F908BD08B5012140200F
:1018C00009F0CEFB2020ADF8000010208DF80300B9
:1018D00003208DF8020069460A4809F005F9202125
:1018E000084809F0B0F908BD10B5FFF74FFFFFF742
:1018F0005EFFFFF773FFFFF79FFFFFF7B7FFFFF7ED
:10190000DCFF10BD0018014000023000000C014057
:101910000008014000100140001401400D2814D2BD
:10192000DFE800F0130708090A0B0C0D0E0F101169
:1019300012000BE00AE009E008E007E006E005E03D
:1019400004E003E002E001E000E000BF00BF7047F8
:1019500070B504460D461646322C02D0332C1ED1EB
:101960000EE032462946F4A008F0CDF900231E22ED
:101970000221012008F0C5FD0020F64908700EE0A4
:1019800032462946F4A008F0BEF900231E220321A6
:10199000012008F0B6FD0020EE49087000BF00BF2E
:1019A000F4480078401EF349087070BD70B50446D5
:1019B0000D461646312C02D0342C0CD105E03246AF
:1019C0002946EDA008F09FF906E032462946F1A02D
:1019D00008F099F900E000BF00BFE6480078401E1B
:1019E000E449087070BD70B504460D461646312CAA
:1019F00002D0342C12D108E032462946ECA008F07F
:101A000082F90020D349087009E032462946EFA048
:101A100008F079F90020CF49087000E000BF00BF4E
:101A2000D4480078401ED349087070BD70B5044694
:101A30000D461646312C02D0342C12D108E0324625
:101A40002946E9A008F05FF90020C249087009E0C2
:101A500032462946EBA008F056F90020BD4908702F
:101A600000E000BF00BFC3480078401EC1490870B5
:101A700070BD70B504460D461646322C02D0332C8C
:101A800012D108E032462946E5A008F03CF90020D2
:101A9000B049087009E032462946E8A008F033F959
:101AA0000020AC49087000E000BF00BFB1480078DA
:101AB000401EB049087070BD70470020E6490860BC
:101AC0000120E649C1F8A4010020E349091D08608E
:101AD000E349C1F8800170474FF44871E14A118031
:101AE0000121DD4A11600021DC4AC2F8A4117047CF
:101AF0004FF44871DB4A11800021D74A1160D74A60
:101B0000C2F8A41170474FF44871D64A11800121E0
:101B1000D14A1160D14AC2F8A41170470020CE49C1
:101B20000860CE49C1F8A401CF490860CF49C1F887
:101B30009C01704710B1012808D103E00021CC4A74
:101B4000117003E00121CA4A117000BF00BF704745
:101B50002DE9F04106460C4615461F46A4F130001B
:101B600008281AD2DFE800F0041A33495F7A8BAFF5
:101B70000020C04908700120BF4908700020BF49FB
:101B80000880BF4908800021084604F08FFC00202F
:101B9000BC4908700420BC49087098E00120B54990
:101BA0000870BA48008800B2B4490880B748008875
:101BB00000B2B34908800120B3490870B048B0F9B9
:101BC0000010AE48B0F9000004F070FC7FE0022085
:101BD000A8490870C820AA4908800020A7490880A1
:101BE0000120A9490870A648B0F90010A348B0F92F
:101BF0000000404204F05AFC69E003209D4908704F
:101C000000209F490880C8209C49088001209E49E7
:101C100008709B48B0F9000041429848B0F90000B4
:101C200004F044FC53E0042092490870974800886F
:101C300000B2934908809548008800B28F49088017
:101C40000120914908708E48B0F9000041428B484C
:101C5000B0F90000404204F029FC38E00520854935
:101C60000870E8B2FFF766FF6FF0C700844908808C
:101C7000C8208249088001208349087027E0062097
:101C80007C49087001207F49087000208049088045
:101C9000032080490870804803F0AFFB7F48036849
:101CA0007F4802687F4801687B4803F0B5FB4FF42A
:101CB00034707D4908607D49086000206F490880C4
:101CC0006F49088003E007206A49087000BF00BF21
:101CD00028480078401E27490870BDE8F08110B5FB
:101CE0000446A4F130000A2809D2DFE800F0050913
:101CF0000D1115191D21F3F76DA007F0B2FFF1E0EA
:101D00006CA007F0AEFFEDE06BA007F0AAFFE9E0E2
:101D10006AA007F0A6FFE5E069A007F0A2FFE1E0F6
:101D200068A007F09EFFDDE067A007F09AFFD9E00A
:101D300066A007F096FFD5E07B2230303136303098
:101D40003030303132256425643030303030227DFF
:101D500000000000940000207B223030313630300B
:101D60003030303133256425643030303030227DDE
:101D700000000000660100207B2230303136303018
:101D80003030303231256425643030303030227DBF
:101D9000000000007B2230303136303030303032BD
:101DA00034256425643030303030227D000000005E
:101DB0007B223030313630303030303331256425BD
:101DC000643030303030227D000000007B22303023
:101DD00031363030303030333425642564303030A3
:101DE0003030227D000000007B2230303136303030
:101DF0003030303431303030303030303030227D9F
:101E0000000000007B22303031363030303030344A
:101E100034303030303030303030227D000000003F
:101E20007B22303031363030303030353225642549
:101E3000643030303030227D000000007B223030B2
:101E40003136303030303035332564256430303031
:101E50003030227D0000000090812142008021422C
:101E60000000234288020020948122420080224206
:101E70008F00002099000020D00000205401002095
:101E800056010020CF00002028010020660000201D
:101E90005E010020D5010020709F00204CE6000864
:101EA00048E6000844E60008A00100209C0100204C
:101EB0007B307D007B317D007B327D007B337D007C
:101EC0007B347D007B357D007B367D007B377D005C
:101ED00004E0FFE7FEA007F0C4FE03E0FDA007F06A
:101EE000C0FE00BF00BFFC480078401EFA490870E1
:101EF00010BD10B50446302C02D0312C0FD106E0B5
:101F00000020F6490860F2A007F0ABFE07E00120D0
:101F1000F2490860AFF2640007F0A3FE00BF00BF03
:101F2000ED480078401EEC49087010BD2DE9FC5FBB
:101F300004460D46904640464FEAE87108EB1171A1
:101F4000C1F30711E44A11700020E549087034E13B
:101F5000E349097805EB0111605CFEF7ACF942F248
:101F6000107100FB01FBDE4909786A1C02EB0111CC
:101F7000605CFEF7A0F900EB4001C1EBC0100BEB79
:101F8000C00BD7490978AA1C02EB0111605CFEF76F
:101F900092F900EBC00101EB00100BEB800BD04974
:101FA0000978EA1C02EB0111605CFEF784F900EB92
:101FB00080000BEB400BCA4909782A1D02EB011186
:101FC000605CFEF778F958441FFA80FAC44800783C
:101FD000691D01EB0010205C0190C1480078A91D2B
:101FE00001EB001014F80090BD49097805F10802D2
:101FF00002EB0111605CFEF75EF98346B84909788F
:10200000EA1D02EB0111605CFEF755F900EB800060
:102010000BEB4007B249097805F10B0202EB011105
:10202000605CFEF748F98346AD49097805F109027D
:1020300002EB0111605CFEF73EF900EB80000BEB58
:1020400040000090A649097805F10B0202EB01114E
:10205000605CFEF730F942F2107100FB01FBA04911
:10206000097805F10C0202EB0111605CFEF723F91F
:1020700000EB4001C1EBC0100BEBC00B9849097895
:1020800005F10D0202EB0111605CFEF714F900EBA3
:10209000C00101EB00100BEB800B9149097805F1B1
:1020A0000E0202EB0111605CFEF705F900EB800007
:1020B0000BEB400B8A49097805F10F0202EB011185
:1020C000605CFEF7F8F8584486B20198313814285D
:1020D0006DD2DFE800F00A10161C2228474E4F6C24
:1020E0006C6C6C6C6C6C535F6A6B39464846009A3A
:1020F000FFF72EFC5BE039464846009AFFF756FC96
:1021000055E039464846009AFFF76DFC4FE03946E6
:102110004846009AFFF78AFC49E039464846009A4B
:10212000FFF7A7FC43E037B933463A4649465046E5
:10213000FFF70EFD15E0322F0DD0342F06D0352FCE
:102140000DD14FF4C8706749088009E04FF49670CC
:102150006449088004E0C8206249088000E000BFAC
:1021600000BF24E0484608F04EFA4846FFF7B7FDA6
:102170001DE01CE04846FFF7BCFE18E0F3B2F2B2E7
:10218000F1B2002008F0FEF953480078401E524991
:1021900008700CE0A9F13001C8B208F070FA4E489E
:1021A0000078401E4C49087001E000E000BF00BF0D
:1021B0004B480078401C4A4908704748007800287E
:1021C0007FF4C6AE48490870BDE8FC9F2DE9FC5F6E
:1021D00004460D4616463046F11706EB1171C1F361
:1021E00007113D4A117000204049087016E13F492F
:1021F000097805EB0111605CFEF75DF842F21071A1
:1022000000FB01FB394909786A1C02EB0111605C93
:10221000FEF751F800EB4001C1EBC0100BEBC00B17
:1022200032490978AA1C02EB0111605CFEF743F801
:1022300000EBC00101EB00100BEB800B2B49097880
:10224000EA1C02EB0111605CFEF735F800EB800040
:102250000BEB400B254909782A1D02EB0111605C4C
:10226000FEF729F858441FFA80F920480078691DC4
:1022700001EB0010205C01901C480078A91D01EBC7
:102280000010275C1949097805F1080202EB0111D9
:10229000605CFEF710F8834614490978EA1D02EBEA
:1022A0000111605CFEF707F800EB80000BEB4008C3
:1022B0000E49097805F10B0202EB0111605CFDF794
:1022C000FAFF83460949097805F1090210E0000088
:1022D0007B387D007B397D00660100208C01234224
:1022E0006F010020660000208C000020700100209B
:1022F00002EB0111605CFDF7DEFF00EB80000BEBF1
:1023000040000090FE49097805F10B0202EB011133
:10231000605CFDF7D0FF42F2107100FB01FBF84951
:10232000097805F10C0202EB0111605CFDF7C3FFB7
:1023300000EB4001C1EBC0100BEBC00BF04909787A
:1023400005F10D0202EB0111605CFDF7B4FF00EB3B
:10235000C00101EB00100BEB800BE949097805F196
:102360000E0202EB0111605CFDF7A5FF00EB80009F
:102370000BEB400BE249097805F10F0202EB01116A
:10238000605CFDF798FF58441FFA80FA01983138D5
:1023900014283DD2DFE800F00A10161C22282F3343
:1023A000343C3C3C3C3C3C3C38393A3B414638466A
:1023B000009AFFF7CDFA2BE041463846009AFFF726
:1023C000F5FA25E041463846009AFFF70CFB1FE07E
:1023D00041463846009AFFF729FB19E04146384646
:1023E000009AFFF746FB13E05346424639464846FB
:1023F000FFF7AEFB0CE03846FFF771FC08E007E0A2
:102400003846FFF776FD03E002E001E000E000BFA0
:1024100000BFBB480078401CB9490870B948007833
:1024200000287FF4E4AEB8490870BDE8FC9F2DE9B0
:10243000FC5F04460D4616463046F11706EB117157
:10244000C1F30711AF4A11700020B049087004E1D0
:10245000AE49097805EB0111605CFDF72CFF42F2F3
:10246000107100FB01FBA94909786A1C02EB0111FC
:10247000605CFDF720FF00EB4001C1EBC0100BEBEF
:10248000C00BA2490978AA1C02EB0111605CFDF7A0
:1024900012FF00EBC00101EB00100BEB800B9B491E
:1024A0000978EA1C02EB0111605CFDF704FF00EB08
:1024B00080000BEB400B954909782A1D02EB0111B6
:1024C000605CFDF7F8FE58441FFA80F98F480078E9
:1024D000691D01EB0010205C01908C480078A91D5B
:1024E00001EB0010275C8949097805F1080202EB2D
:1024F0000111605CFDF7DFFE834684490978EA1D1F
:1025000002EB0111605CFDF7D6FE00EB80000BEBE7
:1025100040087E49097805F10B0202EB0111605C6D
:10252000FDF7C9FE83467949097805F1090202EBF6
:102530000111605CFDF7BFFE00EB80000BEB40007B
:1025400000907249097805F10B0202EB0111605C01
:10255000FDF7B1FE42F2107100FB01FB6B490978F7
:1025600005F10C0202EB0111605CFDF7A4FE00EB2B
:102570004001C1EBC0100BEBC00B6449097805F1B9
:102580000D0202EB0111605CFDF795FE00EBC0014E
:1025900001EB00100BEB800B5C49097805F10E0292
:1025A00002EB0111605CFDF786FE00EB80000BEB97
:1025B000400B5649097805F10F0202EB0111605CEE
:1025C000FDF779FE58441FFA80FA01983138142833
:1025D0003DD2DFE800F00A10161C22282F33343CCD
:1025E0003C3C3C3C3C3C38393A3B41463846009AFE
:1025F000FFF7AEF92BE041463846009AFFF7D6F9CF
:1026000025E041463846009AFFF7EDF91FE04146C4
:102610003846009AFFF70AFA19E041463846009A10
:10262000FFF727FA13E05346424639464846FFF77C
:102630008FFA0CE03846FFF752FB08E007E0384617
:10264000FFF757FC03E002E001E000E000BF00BF3D
:102650002E480078401C2D4908702A480078002830
:102660007FF4F6AE28490870BDE8FC9F2DE9FC5FB9
:1026700004460D4616460020254908703046F117DD
:1026800006EB1171C1F307111E4A11700FE12049C9
:10269000097805EB0111605CFDF70DFE42F2107147
:1026A00000FB01FB1A4909786A1C02EB0111605C0E
:1026B000FDF701FE00EB4001C1EBC0100BEBC00BBE
:1026C00013490978AA1C02EB0111605CFDF7F3FDC8
:1026D00000EBC00101EB00100BEB800B0C490978FB
:1026E000EA1C02EB0111605CFDF7E5FD00EB8000E8
:1026F0000BEB400B064909782A1D02EB011109E09A
:10270000700100206601002092000020710100206D
:1027100072010020605CFDF7CEFD58441FFA80F97D
:10272000F7480078691D01EB0010205C0190F44827
:102730000078A91D01EB0010275CF149097805F12B
:10274000080202EB0111605CFDF7B5FD8346EC4920
:102750000978EA1D02EB0111605CFDF7ACFD00EBAE
:1027600080000BEB4008E649097805F10B0202EB0B
:102770000111605CFDF79FFD8346E149097805F191
:10278000090202EB0111605CFDF795FD00EB800092
:102790000BEB40000090DA49097805F10B0202EBDF
:1027A0000111605CFDF787FD42F2107100FB01FB37
:1027B000D349097805F10C0202EB0111605CFDF7C9
:1027C0007AFD00EB4001C1EBC0100BEBC00BCC4914
:1027D000097805F10D0202EB0111605CFDF76BFD5C
:1027E00000EBC00101EB00100BEB800BC449097832
:1027F00005F10E0202EB0111605CFDF75CFD00EBE0
:1028000080000BEB400BBE49097805F10F0202EB8B
:102810000111605CFDF74FFD58441FFA80FA0198E2
:10282000313814283DD2DFE800F00A10161C2228A7
:102830002F33343C3C3C3C3C3C3C38393A3B4146F1
:102840003846009AFFF784F82BE041463846009A54
:10285000FFF7ACF825E041463846009AFFF7C3F889
:102860001FE041463846009AFFF7E0F819E041467C
:102870003846009AFFF7FDF813E0534642463946C2
:102880004846FFF765F90CE03846FFF728FA08E0FC
:1028900007E03846FFF72DFB03E002E001E000E02F
:1028A00000BF00BF96480078401C954908709548C5
:1028B000007800287FF4EBAE93490870BDE8FC9FD8
:1028C0002DE9FC5F04460D4616463046F11706EB2F
:1028D0001171C1F307118B4A117000208B490870E8
:1028E00004E18A49097805EB0111605CFDF7E3FC1E
:1028F00042F2107100FB01FB844909786A1C02EB6B
:102900000111605CFDF7D7FC00EB4001C1EBC0108A
:102910000BEBC00B7D490978AA1C02EB0111605C2E
:10292000FDF7C9FC00EBC00101EB00100BEB800BC5
:1029300076490978EA1C02EB0111605CFDF7BBFCEB
:1029400000EB80000BEB400B704909782A1D02EB6D
:102950000111605CFDF7AFFC58441FFA80F96B4829
:102960000078691D01EB0010205C01906748007839
:10297000A91D01EB0010275C6449097805F10802E4
:1029800002EB0111605CFDF796FC83465F49097814
:10299000EA1D02EB0111605CFDF78DFC00EB80008D
:1029A0000BEB40085949097805F10B0202EB0111C4
:1029B000605CFDF780FC83465449097805F1090203
:1029C00002EB0111605CFDF776FC00EB80000BEB85
:1029D000400000904D49097805F10B0202EB01110E
:1029E000605CFDF768FC42F2107100FB01FB474997
:1029F000097805F10C0202EB0111605CFDF75BFC4C
:102A000000EB4001C1EBC0100BEBC00B3F49097854
:102A100005F10D0202EB0111605CFDF74CFC00EBCF
:102A2000C00101EB00100BEB800B3849097805F170
:102A30000E0202EB0111605CFDF73DFC00EB800033
:102A40000BEB400B3149097805F10F0202EB011144
:102A5000605CFDF730FC58441FFA80FA0198313869
:102A600014283DD2DFE800F00A10161C22282F336C
:102A7000343C3C3C3C3C3C3C38393A3B4146384693
:102A8000009AFEF765FF2BE041463846009AFEF7B4
:102A90008DFF25E041463846009AFEF7A4FF1FE06F
:102AA00041463846009AFEF7C1FF19E041463846D4
:102AB000009AFEF7DEFF13E0534642463946484689
:102AC000FFF746F80CE03846FFF709F908E007E0A1
:102AD0003846FFF70EFA03E002E001E000E000BF35
:102AE00000BF0A480078401C084908700548007873
:102AF00000287FF4F6AE04490870BDE8FC9F000092
:102B00007201002066010020920000207301002065
:102B10002DE9FC5F04460D4616463046F11706EBDC
:102B20001171C1F30711FC4A11700020FB490870B4
:102B300004E1FA49097805EB0111605CFDF7BBFB84
:102B400042F2107100FB01FBF44909786A1C02EBA8
:102B50000111605CFDF7AFFB00EB4001C1EBC01061
:102B60000BEBC00BED490978AA1C02EB0111605C6C
:102B7000FDF7A1FB00EBC00101EB00100BEB800B9C
:102B8000E6490978EA1C02EB0111605CFDF793FB52
:102B900000EB80000BEB400BE04909782A1D02EBAB
:102BA0000111605CFDF787FB58441FFA80F9DB4890
:102BB0000078691D01EB0010205C0190D748007877
:102BC000A91D01EB0010275CD449097805F1080222
:102BD00002EB0111605CFDF76EFB8346CF4909787B
:102BE000EA1D02EB0111605CFDF765FB00EB800064
:102BF0000BEB4008C949097805F10B0202EB011102
:102C0000605CFDF758FB8346C449097805F1090269
:102C100002EB0111605CFDF74EFB00EB80000BEB5B
:102C200040000090BD49097805F10B0202EB01114B
:102C3000605CFDF740FB42F2107100FB01FBB749FD
:102C4000097805F10C0202EB0111605CFDF733FB22
:102C500000EB4001C1EBC0100BEBC00BAF49097892
:102C600005F10D0202EB0111605CFDF724FB00EBA6
:102C7000C00101EB00100BEB800BA849097805F1AE
:102C80000E0202EB0111605CFDF715FB00EB80000A
:102C90000BEB400BA149097805F10F0202EB011182
:102CA000605CFDF708FB58441FFA80FA0198313840
:102CB00014283DD2DFE800F00A10161C22282F331A
:102CC000343C3C3C3C3C3C3C38393A3B4146384641
:102CD000009AFEF73DFE2BE041463846009AFEF78B
:102CE00065FE25E041463846009AFEF77CFE1FE06F
:102CF00041463846009AFEF799FE19E041463846AB
:102D0000009AFEF7B6FE13E053464246394648465F
:102D1000FEF71EFF0CE03846FEF7E1FF08E007E093
:102D20003846FFF7E6F803E002E001E000E000BF0C
:102D300000BF7A480078401C7849087076480078CF
:102D400000287FF4F6AE76490870BDE8FC9F2DE9B7
:102D5000FC5F04460D4616463046F11706EB11712E
:102D6000C1F307116C4A117000206E4908700DE123
:102D70006C49097805EB0111605CFDF79CFA42F2A1
:102D8000107100FB01FB674909786A1C02EB011115
:102D9000605CFDF790FA00EB4001C1EBC0100BEB5B
:102DA000C00B60490978AA1C02EB0111605CFDF7B9
:102DB00082FA00EBC00101EB00100BEB800B5949CC
:102DC0000978EA1C02EB0111605CFDF774FA00EB74
:102DD00080000BEB400B534909782A1D02EB0111CF
:102DE000605CFDF768FA58441FFA80F94D48007896
:102DF000691D01EB0010205C01904A480078A91D74
:102E000001EB0010275C4749097805F1080202EB45
:102E10000111605CFDF74FFA834642490978EA1DCB
:102E200002EB0111605CFDF746FA00EB80000BEB52
:102E300040083C49097805F10B0202EB0111605C86
:102E4000FDF739FA83463749097805F1090202EBA3
:102E50000111605CFDF72FFA00EB80000BEB4000E6
:102E600000903049097805F10B0202EB0111605C1A
:102E7000FDF721FA42F2107100FB01FB29490978A4
:102E800005F10C0202EB0111605CFDF714FA00EB96
:102E90004001C1EBC0100BEBC00B2249097805F1D2
:102EA0000D0202EB0111605CFDF705FA00EBC001B9
:102EB00001EB00100BEB800B1A49097805F10E02AB
:102EC00002EB0111605CFDF7F6F900EB80000BEB03
:102ED000400B1449097805F10F0202EB0111605C07
:102EE000FDF7E9F958441FFA80FA0198313814289F
:102EF00046D2DFE800F00A191F252B31383C3D454A
:102F00004545454545454142434441463846009A7A
:102F1000FEF71EFD34E00000660100207401002071
:102F2000920000207501002041463846009AFEF7C5
:102F30003DFD25E041463846009AFEF754FD1FE06E
:102F400041463846009AFEF771FD19E04146384681
:102F5000009AFEF78EFD13E0534642463946484636
:102F6000FEF7F6FD0CE03846FEF7B9FE08E007E094
:102F70003846FEF7BEFF03E002E001E000E000BFDC
:102F800000BFFE480078401CFC490870FC480078EF
:102F900000287FF4EDAEFB490870BDE8FC9F2DE9E9
:102FA000FC5F04460D4616463046F11706EB1171DC
:102FB000C1F30711F24A11700020F349087004E1CF
:102FC000F149097805EB0111605CFDF774F942F2F3
:102FD000107100FB01FBEC4909786A1C02EB01113E
:102FE000605CFDF768F900EB4001C1EBC0100BEB32
:102FF000C00BE5490978AA1C02EB0111605CFDF7E2
:103000005AF900EBC00101EB00100BEB800BDE491D
:103010000978EA1C02EB0111605CFDF74CF900EB4A
:1030200080000BEB400BD84909782A1D02EB0111F7
:10303000605CFDF740F958441FFA80F9D2480078E7
:10304000691D01EB0010205C0190CF480078A91D9C
:1030500001EB0010275CCC49097805F1080202EB6E
:103060000111605CFDF727F98346C7490978EA1D1D
:1030700002EB0111605CFDF71EF900EB80000BEB29
:103080004008C149097805F10B0202EB0111605CAF
:10309000FDF711F98346BC49097805F1090202EBF5
:1030A0000111605CFDF707F900EB80000BEB4000BD
:1030B0000090B549097805F10B0202EB0111605C43
:1030C000FDF7F9F842F2107100FB01FBAE490978F7
:1030D00005F10C0202EB0111605CFDF7ECF800EB6E
:1030E0004001C1EBC0100BEBC00BA749097805F1FB
:1030F0000D0202EB0111605CFDF7DDF800EBC00191
:1031000001EB00100BEB800B9F49097805F10E02D3
:1031100002EB0111605CFDF7CEF800EB80000BEBD9
:10312000400B9949097805F10F0202EB0111605C2F
:10313000FDF7C1F858441FFA80FA01983138142875
:103140003DD2DFE800F00A10161C22282F33343C51
:103150003C3C3C3C3C3C38393A3B41463846009A82
:10316000FEF7F6FB2BE041463846009AFEF71EFCC0
:1031700025E041463846009AFEF735FC1FE04146FF
:103180003846009AFEF752FC19E041463846009A4C
:10319000FEF76FFC13E05346424639464846FEF7B9
:1031A000D7FC0CE03846FEF79AFD08E007E0384609
:1031B000FEF79FFE03E002E001E000E000BF00BF79
:1031C00071480078401C704908706D4800780028EC
:1031D0007FF4F6AE6B490870BDE8FC9F2DE9FC5FFB
:1031E00004460D4616463046F11706EB1171C1F341
:1031F0000711634A11700020644908700FE16349A8
:10320000097805EB0111605CFDF755F842F2107189
:1032100000FB01FB5D4909786A1C02EB0111605C4F
:10322000FDF749F800EB4001C1EBC0100BEBC00B00
:1032300056490978AA1C02EB0111605CFDF73BF8C6
:1032400000EBC00101EB00100BEB800B4F4909783C
:10325000EA1C02EB0111605CFDF72DF800EB800029
:103260000BEB400B494909782A1D02EB0111605C08
:10327000FDF721F858441FFA80F944480078691D89
:1032800001EB0010205C019040480078A91D01EB83
:103290000010275C3D49097805F1080202EB011195
:1032A000605CFDF708F8834638490978EA1D02EBAF
:1032B0000111605CFCF7FFFF00EB80000BEB4008A6
:1032C0003249097805F10B0202EB0111605CFCF751
:1032D000F2FF83462D49097805F1090202EB01113D
:1032E000605CFCF7E8FF00EB80000BEB4000009017
:1032F0002649097805F10B0202EB0111605CFCF72D
:10330000DAFF42F2107100FB01FB2049097805F158
:103310000C0202EB0111605CFCF7CDFF00EB4001F9
:10332000C1EBC0100BEBC00B1849097805F10D0279
:1033300002EB0111605CFCF7BEFF00EBC00101EB8A
:1033400000100BEB800B1149097805F10E0202EB1E
:103350000111605CFCF7AFFF00EB80000BEB400B52
:103360000A49097805F10F0202EB0111605CFCF7D4
:10337000A2FF58441FFA80FA019809E07501002065
:1033800066010020920000207601002077010020D5
:10339000313814283DD2DFE800F00A10161C22282C
:1033A0002F33343C3C3C3C3C3C3C38393A3B414676
:1033B0003846009AFEF7CCFA2BE041463846009A90
:1033C000FEF7F4FA25E041463846009AFEF70BFB7B
:1033D0001FE041463846009AFEF728FB19E04146B7
:1033E0003846009AFEF745FB13E0534642463946FD
:1033F0004846FEF7ADFB0CE03846FEF770FC08E0EF
:1034000007E03846FEF775FD03E002E001E000E06A
:1034100000BF00BFFE480078401CFD490870FD4811
:10342000007800287FF4EBAEFB490870BDE8FC9FF4
:103430002DE9FC5F04460D4616463046F11706EBB3
:103440001171C1F30711F34A11700020F34908709C
:1034500004E1F249097805EB0111605CFCF72BFFF0
:1034600042F2107100FB01FBEC4909786A1C02EB87
:103470000111605CFCF71FFF00EB4001C1EBC010C5
:103480000BEBC00BE5490978AA1C02EB0111605C4B
:10349000FCF711FF00EBC00101EB00100BEB800B00
:1034A000DE490978EA1C02EB0111605CFCF703FFBE
:1034B00000EB80000BEB400BD84909782A1D02EB8A
:1034C0000111605CFCF7F7FE58441FFA80F9D348FD
:1034D0000078691D01EB0010205C0190CF48007856
:1034E000A91D01EB0010275CCC49097805F1080201
:1034F00002EB0111605CFCF7DEFE8346C7490978E8
:10350000EA1D02EB0111605CFCF7D5FE00EB8000C8
:103510000BEB4008C149097805F10B0202EB0111E0
:10352000605CFCF7C8FE8346BC49097805F10902D6
:1035300002EB0111605CFCF7BEFE00EB80000BEBC0
:1035400040000090B549097805F10B0202EB01112A
:10355000605CFCF7B0FE42F2107100FB01FBAF496A
:10356000097805F10C0202EB0111605CFCF7A3FE87
:1035700000EB4001C1EBC0100BEBC00BA749097871
:1035800005F10D0202EB0111605CFCF794FE00EB0B
:10359000C00101EB00100BEB800BA049097805F18D
:1035A0000E0202EB0111605CFCF785FE00EB80006F
:1035B0000BEB400B9949097805F10F0202EB011161
:1035C000605CFCF778FE58441FFA80FA01983138A5
:1035D00014283DD2DFE800F00A10161C22282F33F1
:1035E000343C3C3C3C3C3C3C38393A3B4146384618
:1035F000009AFEF7ADF92BE041463846009AFEF7F7
:10360000D5F925E041463846009AFEF7ECF91FE06F
:1036100041463846009AFEF709FA19E04146384615
:10362000009AFEF726FA13E05346424639464846CA
:10363000FEF78EFA0CE03846FEF751FB08E007E093
:103640003846FEF756FC03E002E001E000E000BF70
:1036500000BF72480078401C704908706D480078BF
:1036600000287FF4F6AE6C490870BDE8FC9F2DE998
:10367000FC5F04460D4616463046F11706EB117105
:10368000C1F30711634A11700020654908700FE10A
:103690006349097805EB0111605CFCF70CFE42F20E
:1036A000107100FB01FB5E4909786A1C02EB0111F5
:1036B000605CFCF700FE00EB4001C1EBC0100BEBBF
:1036C000C00B57490978AA1C02EB0111605CFCF79A
:1036D000F2FD00EBC00101EB00100BEB800B504939
:1036E0000978EA1C02EB0111605CFCF7E4FD00EBD9
:1036F00080000BEB400B4A4909782A1D02EB0111AF
:10370000605CFCF7D8FD58441FFA80F94448007803
:10371000691D01EB0010205C019041480078A91D53
:1037200001EB0010275C3E49097805F1080202EB25
:103730000111605CFCF7BFFD834639490978EA1D39
:1037400002EB0111605CFCF7B6FD00EB80000BEBB7
:1037500040083349097805F10B0202EB0111605C66
:10376000FCF7A9FD83462E49097805F1090202EB11
:103770000111605CFCF79FFD00EB80000BEB40004B
:1037800000902749097805F10B0202EB0111605CFA
:10379000FCF791FD42F2107100FB01FB2049097812
:1037A00005F10C0202EB0111605CFCF784FD00EBFB
:1037B0004001C1EBC0100BEBC00B1949097805F1B2
:1037C0000D0202EB0111605CFCF775FD00EBC0011E
:1037D00001EB00100BEB800B1149097805F10E028B
:1037E00002EB0111605CFCF766FD00EB80000BEB67
:1037F000400B0B49097805F10F0202EB0111605CE7
:10380000FCF759FD58441FFA80FA0198313809E055
:10381000770100206601002092000020780100203E
:103820007901002014283DD2DFE800F00A10161CB0
:1038300022282F33343C3C3C3C3C3C3C38393A3B1E
:1038400041463846009AFEF783F82BE04146384659
:10385000009AFEF7ABF825E041463846009AFEF79D
:10386000C2F81FE041463846009AFEF7DFF819E03B
:1038700041463846009AFEF7FCF813E053464246AC
:1038800039464846FEF764F90CE03846FEF727FA59
:1038900008E007E03846FEF72CFB03E002E001E019
:1038A00000E000BF00BFFE480078401CFC490870E3
:1038B000FC48007800287FF4EBAEFB490870BDE8B7
:1038C000FC9F2DE9FC5F04460D4616463046F11775
:1038D00006EB1171C1F30711F24A11700020F34990
:1038E000087004E1F149097805EB0111605CFCF70F
:1038F000E2FC42F2107100FB01FBEC4909786A1C02
:1039000002EB0111605CFCF7D6FC00EB4001C1EB5F
:10391000C0100BEBC00BE5490978AA1C02EB0111A2
:10392000605CFCF7C8FC00EBC00101EB00100BEB86
:10393000800BDE490978EA1C02EB0111605CFCF7A0
:10394000BAFC00EB80000BEB400BD84909782A1D2C
:1039500002EB0111605CFCF7AEFC58441FFA80F9E1
:10396000D2480078691D01EB0010205C0190CF481F
:103970000078A91D01EB0010275CCC49097805F1FE
:10398000080202EB0111605CFCF795FC8346C74915
:103990000978EA1D02EB0111605CFCF78CFC00EB7E
:1039A00080000BEB4008C149097805F10B0202EBDE
:1039B0000111605CFCF77FFC8346BC49097805F186
:1039C000090202EB0111605CFCF775FC00EB800062
:1039D0000BEB40000090B549097805F10B0202EBB2
:1039E0000111605CFCF767FC42F2107100FB01FB07
:1039F000AE49097805F10C0202EB0111605CFCF79D
:103A00005AFC00EB4001C1EBC0100BEBC00BA74907
:103A1000097805F10D0202EB0111605CFCF74BFC2B
:103A200000EBC00101EB00100BEB800B9F49097804
:103A300005F10E0202EB0111605CFCF73CFC00EBAF
:103A400080000BEB400B9949097805F10F0202EB5E
:103A50000111605CFCF72FFC58441FFA80FA0198B2
:103A6000313814283DD2DFE800F00A10161C222855
:103A70002F33343C3C3C3C3C3C3C38393A3B41469F
:103A80003846009AFDF764FF2BE041463846009A1D
:103A9000FDF78CFF25E041463846009AFDF7A3FF6D
:103AA0001FE041463846009AFDF7C0FF19E0414645
:103AB0003846009AFDF7DDFF13E05346424639468B
:103AC0004846FEF745F80CE03846FEF708F908E0EE
:103AD00007E03846FEF70DFA03E002E001E000E0FF
:103AE00000BF00BF71480078401C704908706D48E5
:103AF000007800287FF4F6AE6B490870BDE8FC9FA3
:103B00002DE9FC5F04460D4616463046F11706EBDC
:103B10001171C1F30711634A1170002064490870E4
:103B20000FE16349097805EB0111605CFCF7C3FB09
:103B300042F2107100FB01FB5D4909786A1C02EB3F
:103B40000111605CFCF7B7FB00EB4001C1EBC0105A
:103B50000BEBC00B56490978AA1C02EB0111605C03
:103B6000FCF7A9FB00EBC00101EB00100BEB800B95
:103B70004F490978EA1C02EB0111605CFCF79BFBE2
:103B800000EB80000BEB400B494909782A1D02EB42
:103B90000111605CFCF78FFB58441FFA80F9444820
:103BA0000078691D01EB0010205C0190404800780E
:103BB000A91D01EB0010275C3D49097805F10802B9
:103BC00002EB0111605CFCF776FB8346384909780B
:103BD000EA1D02EB0111605CFCF76DFB00EB80005D
:103BE0000BEB40083249097805F10B0202EB011199
:103BF000605CFCF760FB83462D49097805F10902FA
:103C000002EB0111605CFCF756FB00EB80000BEB54
:103C1000400000902649097805F10B0202EB0111E2
:103C2000605CFCF748FB42F2107100FB01FB20498D
:103C3000097805F10C0202EB0111605CFCF73BFB1B
:103C400000EB4001C1EBC0100BEBC00B1849097829
:103C500005F10D0202EB0111605CFCF72CFB00EB9F
:103C6000C00101EB00100BEB800B1149097805F145
:103C70000E0202EB0111605CFCF71DFB00EB800003
:103C80000BEB400B0A49097805F10F0202EB011119
:103C9000605CFCF710FB58441FFA80FA019809E0B9
:103CA0007901002066010020920000207A010020A6
:103CB0007B010020313814283DD2DFE800F00A10E3
:103CC000161C22282F33343C3C3C3C3C3C3C3839CD
:103CD0003A3B41463846009AFDF73AFE2BE0414612
:103CE0003846009AFDF762FE25E041463846009AC4
:103CF000FDF779FE1FE041463846009AFDF796FE33
:103D000019E041463846009AFDF7B3FE13E05346EA
:103D1000424639464846FDF71BFF0CE03846FDF7A2
:103D2000DEFF08E007E03846FEF7E3F803E002E0D4
:103D300001E000E000BF00BFFE480078401CFD49E4
:103D40000870FD48007800287FF4EBAEFB4908704E
:103D5000BDE8FC9F2DE9FC5F04460D461646304643
:103D6000F11706EB1171C1F30711F34A117000202E
:103D7000F349087004E1F249097805EB0111605C30
:103D8000FCF799FA42F2107100FB01FBEC4909784B
:103D90006A1C02EB0111605CFCF78DFA00EB40013C
:103DA000C1EBC0100BEBC00BE5490978AA1C02EB74
:103DB0000111605CFCF77FFA00EBC00101EB001021
:103DC0000BEB800BDE490978EA1C02EB0111605C09
:103DD000FCF771FA00EB80000BEB400BD849097837
:103DE0002A1D02EB0111605CFCF765FA58441FFACA
:103DF00080F9D3480078691D01EB0010205C019028
:103E0000CF480078A91D01EB0010275CCC49097848
:103E100005F1080202EB0111605CFCF74CFA8346E5
:103E2000C7490978EA1D02EB0111605CFCF743FA0F
:103E300000EB80000BEB4008C149097805F10B024B
:103E400002EB0111605CFCF736FA8346BC49097845
:103E500005F1090202EB0111605CFCF72CFA00EBA2
:103E600080000BEB40000090B549097805F10B028A
:103E700002EB0111605CFCF71EFA42F2107100FBCC
:103E800001FBAF49097805F10C0202EB0111605CFE
:103E9000FCF711FA00EB4001C1EBC0100BEBC00BBB
:103EA000A749097805F10D0202EB0111605CFCF7EE
:103EB00002FA00EBC00101EB00100BEB800BA049F4
:103EC000097805F10E0202EB0111605CFCF7F3F9D1
:103ED00000EB80000BEB400B9949097805F10F02CC
:103EE00002EB0111605CFCF7E6F958441FFA80FA16
:103EF0000198313814283DD2DFE800F00A10161C72
:103F000022282F33343C3C3C3C3C3C3C38393A3B47
:103F100041463846009AFDF71BFD2BE041463846E6
:103F2000009AFDF743FD25E041463846009AFDF72B
:103F30005AFD1FE041463846009AFDF777FD19E02B
:103F400041463846009AFDF794FD13E05346424639
:103F500039464846FDF7FCFD0CE03846FDF7BFFE4C
:103F600008E007E03846FDF7C4FF03E002E001E0A7
:103F700000E000BF00BF72480078401C7049087024
:103F80006D48007800287FF4F6AE6C490870BDE8F3
:103F9000FC9F2DE9FC5F04460D4616463046F1179E
:103FA00006EB1171C1F30711634A117000206549D6
:103FB00008700FE16349097805EB0111605CFCF7BB
:103FC0007AF942F2107100FB01FB5E4909786A1C24
:103FD00002EB0111605CFCF76EF900EB4001C1EBF4
:103FE000C0100BEBC00B57490978AA1C02EB01115A
:103FF000605CFCF760F900EBC00101EB00100BEB1B
:10400000800B50490978EA1C02EB0111605CFCF757
:1040100052F900EB80000BEB400B4A4909782A1D4E
:1040200002EB0111605CFCF746F958441FFA80F975
:1040300044480078691D01EB0010205C0190414864
:104040000078A91D01EB0010275C3E49097805F1B5
:10405000080202EB0111605CFCF72DF98346394937
:104060000978EA1D02EB0111605CFCF724F900EB12
:1040700080000BEB40083349097805F10B0202EB95
:104080000111605CFCF717F983462E49097805F1A8
:10409000090202EB0111605CFCF70DF900EB8000F6
:1040A0000BEB400000902749097805F10B0202EB69
:1040B0000111605CFCF7FFF842F2107100FB01FB9C
:1040C0002049097805F10C0202EB0111605CFCF754
:1040D000F2F800EB4001C1EBC0100BEBC00B19492B
:1040E000097805F10D0202EB0111605CFCF7E3F8C1
:1040F00000EBC00101EB00100BEB800B11490978BC
:1041000005F10E0202EB0111605CFCF7D4F800EB44
:1041100080000BEB400B0B49097805F10F0202EB15
:104120000111605CFCF7C7F858441FFA80FA019847
:10413000313809E07B010020660100209200002058
:104140007C0100207D01002014283DD2DFE800F032
:104150000A10161C22282F33343C3C3C3C3C3C3C8F
:1041600038393A3B41463846009AFDF7F1FB2BE0DF
:1041700041463846009AFDF719FC25E0414638468D
:10418000009AFDF730FC1FE041463846009AFDF7E3
:104190004DFC19E041463846009AFDF76AFC13E0F1
:1041A0005346424639464846FDF7D2FC0CE03846B5
:1041B000FDF795FD08E007E03846FDF79AFE03E0BD
:1041C00002E001E000E000BF00BFFE480078401CB4
:1041D000FC490870FC48007800287FF4EBAEFB49EE
:1041E0000870BDE8FC9F2DE9FC5F04460D461646AD
:1041F0003046F11706EB1171C1F30711F24A117045
:104200000020F349087004E1F149097805EB011138
:10421000605CFCF750F842F2107100FB01FBEC49C6
:1042200009786A1C02EB0111605CFCF744F800EBB2
:104230004001C1EBC0100BEBC00BE5490978AA1C8B
:1042400002EB0111605CFCF736F800EBC00101EBFA
:1042500000100BEB800BDE490978EA1C02EB011120
:10426000605CFCF728F800EB80000BEB400BD849B2
:1042700009782A1D02EB0111605CFCF71CF8584418
:104280001FFA80F9D2480078691D01EB0010205C0C
:104290000190CF480078A91D01EB0010275CCC49A4
:1042A000097805F1080202EB0111605CFCF703F8E4
:1042B0008346C7490978EA1D02EB0111605CFBF7F0
:1042C000FAFF00EB80000BEB4008C149097805F1CB
:1042D0000B0202EB0111605CFBF7EDFF8346BC496A
:1042E000097805F1090202EB0111605CFBF7E3FFBD
:1042F00000EB80000BEB40000090B549097805F118
:104300000B0202EB0111605CFBF7D5FF42F210716A
:1043100000FB01FBAE49097805F10C0202EB01112B
:10432000605CFBF7C8FF00EB4001C1EBC0100BEB7A
:10433000C00BA749097805F10D0202EB0111605C81
:10434000FBF7B9FF00EBC00101EB00100BEB800B9A
:104350009F49097805F10E0202EB0111605CFBF741
:10436000AAFF00EB80000BEB400B9949097805F19F
:104370000F0202EB0111605CFBF79DFF58441FFA2E
:1043800080FA0198313814283DD2DFE800F00A1095
:10439000161C22282F33343C3C3C3C3C3C3C3839F6
:1043A0003A3B41463846009AFDF7D2FA2BE04146A7
:1043B0003846009AFDF7FAFA25E041463846009A59
:1043C000FDF711FB1FE041463846009AFDF72EFB32
:1043D00019E041463846009AFDF74BFB13E053467F
:1043E000424639464846FDF7B3FB0CE03846FDF738
:1043F00076FC08E007E03846FDF77BFD03E002E0CD
:1044000001E000E000BF00BF71480078401C704927
:1044100008706D48007800287FF4F6AE6B4908708C
:10442000BDE8FC9F2DE9FC5F04460D46164630466C
:10443000F11706EB1171C1F30711634A11700020E7
:10444000644908700FE16349097805EB0111605C6C
:10445000FBF731FF42F2107100FB01FB5D49097867
:104460006A1C02EB0111605CFBF725FF00EB4001C9
:10447000C1EBC0100BEBC00B56490978AA1C02EB2C
:104480000111605CFBF717FF00EBC00101EB0010AE
:104490000BEB800B4F490978EA1C02EB0111605CC1
:1044A000FBF709FF00EB80000BEB400B4949097853
:1044B0002A1D02EB0111605CFBF7FDFE58441FFA58
:1044C00080F944480078691D01EB0010205C0190E0
:1044D00040480078A91D01EB0010275C3D49097890
:1044E00005F1080202EB0111605CFBF7E4FE834674
:1044F00038490978EA1D02EB0111605CFBF7DBFE2D
:1045000000EB80000BEB40083249097805F10B0203
:1045100002EB0111605CFBF7CEFE83462D49097862
:1045200005F1090202EB0111605CFBF7C4FE00EB30
:1045300080000BEB400000902649097805F10B0242
:1045400002EB0111605CFBF7B6FE42F2107100FB5A
:1045500001FB2049097805F10C0202EB0111605CB6
:10456000FBF7A9FE00EB4001C1EBC0100BEBC00B49
:104570001849097805F10D0202EB0111605CFBF7A7
:104580009AFE00EBC00101EB00100BEB800B114910
:10459000097805F10E0202EB0111605CFBF78BFE5E
:1045A00000EB80000BEB400B0A49097805F10F0284
:1045B00002EB0111605CFBF77EFE58441FFA80FAA3
:1045C000019809E07D010020660100209200002092
:1045D0007E0100207F010020313814283DD2DFE821
:1045E00000F00A10161C22282F33343C3C3C3C3C83
:1045F0003C3C38393A3B41463846009AFDF7A8F929
:104600002BE041463846009AFDF7D0F925E04146B7
:104610003846009AFDF7E7F91FE041463846009A10
:10462000FDF704FA19E041463846009AFDF721FAF1
:1046300013E05346424639464846FDF789FA0CE0F6
:104640003846FDF74CFB08E007E03846FDF751FC23
:1046500003E002E001E000E000BF00BFFE48007898
:10466000401CFD490870FD48007800287FF4EBAE3F
:10467000FB490870BDE8FC9F2DE9FC5F04460D4630
:1046800016463046F11706EB1171C1F30711F34AD4
:1046900011700020F349087004E1F249097805EB34
:1046A0000111605CFBF707FE42F2107100FB01FB99
:1046B000EC4909786A1C02EB0111605CFBF7FBFD19
:1046C00000EB4001C1EBC0100BEBC00BE5490978D2
:1046D000AA1C02EB0111605CFBF7EDFD00EBC001D1
:1046E00001EB00100BEB800BDE490978EA1C02EBB2
:1046F0000111605CFBF7DFFD00EB80000BEB400B72
:10470000D84909782A1D02EB0111605CFBF7D3FD43
:1047100058441FFA80F9D3480078691D01EB001056
:10472000205C0190CF480078A91D01EB0010275CA8
:10473000CC49097805F1080202EB0111605CFBF736
:10474000BAFD8346C7490978EA1D02EB0111605C96
:10475000FBF7B1FD00EB80000BEB4008C149097885
:1047600005F10B0202EB0111605CFBF7A4FD83462F
:10477000BC49097805F1090202EB0111605CFBF705
:104780009AFD00EB80000BEB40000090B5490978E2
:1047900005F10B0202EB0111605CFBF78CFD42F2AC
:1047A000107100FB01FBAF49097805F10C0202EB27
:1047B0000111605CFBF77FFD00EB4001C1EBC01015
:1047C0000BEBC00BA749097805F10D0202EB0111B3
:1047D000605CFBF770FD00EBC00101EB00100BEB20
:1047E000800BA049097805F10E0202EB0111605C13
:1047F000FBF761FD00EB80000BEB400B994909785A
:1048000005F10F0202EB0111605CFBF754FD584407
:104810001FFA80FA0198313814283DD2DFE800F001
:104820000A10161C22282F33343C3C3C3C3C3C3CB8
:1048300038393A3B41463846009AFDF789F82BE073
:1048400041463846009AFDF7B1F825E04146384622
:10485000009AFDF7C8F81FE041463846009AFDF778
:10486000E5F819E041463846009AFDF702F913E0F1
:104870005346424639464846FDF76AF90CE0384649
:10488000FDF72DFA08E007E03846FDF732FB03E0BC
:1048900002E001E000E000BF00BF72480078401C69
:1048A000704908706D48007800287FF4F6AE6C49B6
:1048B0000870BDE8FC9F2DE9FC5F04460D461646D6
:1048C0003046F11706EB1171C1F30711634A1170FD
:1048D0000020654908700FE16349097805EB011173
:1048E000605CFBF7E8FC42F2107100FB01FB5E49E3
:1048F00009786A1C02EB0111605CFBF7DCFC00EB41
:104900004001C1EBC0100BEBC00B57490978AA1C42
:1049100002EB0111605CFBF7CEFC00EBC00101EB88
:1049200000100BEB800B50490978EA1C02EB0111D7
:10493000605CFBF7C0FC00EB80000BEB400B4A49CE
:1049400009782A1D02EB0111605CFBF7B4FC5844A6
:104950001FFA80F944480078691D01EB0010205CC3
:10496000019041480078A91D01EB0010275C3E49E9
:10497000097805F1080202EB0111605CFBF79BFC72
:10498000834639490978EA1D02EB0111605CFBF7A7
:1049900092FC00EB80000BEB40083349097805F1ED
:1049A0000B0202EB0111605CFBF785FC83462E498C
:1049B000097805F1090202EB0111605CFBF77BFC51
:1049C00000EB80000BEB400000902749097805F1CF
:1049D0000B0202EB0111605CFBF76DFC42F21071FF
:1049E00000FB01FB2049097805F10C0202EB0111E3
:1049F000605CFBF760FC00EB4001C1EBC0100BEB0F
:104A0000C00B1949097805F10D0202EB0111605C38
:104A1000FBF751FC00EBC00101EB00100BEB800B2E
:104A20001149097805F10E0202EB0111605CFBF7F8
:104A300042FC00EB80000BEB400B0B49097805F1C1
:104A40000F0202EB0111605CFBF735FC58441FFAC2
:104A500080FA0198313809E07F01002066010020CA
:104A600092000020800100208101002014283DD206
:104A7000DFE800F00A10161C22282F33343C3C3C9F
:104A80003C3C3C3C38393A3B41463846009AFCF7BE
:104A90005FFF2BE041463846009AFCF787FF25E090
:104AA00041463846009AFCF79EFF1FE041463846D3
:104AB000009AFCF7BBFF19E041463846009AFCF724
:104AC000D8FF13E05346424639464846FDF740F8C2
:104AD0000CE03846FDF703F908E007E03846FDF73B
:104AE00008FA03E002E001E000E000BF00BFFE487A
:104AF0000078401CFC490870FC48007800287FF4CE
:104B0000EBAEFB490870BDE8FC9F2DE9FC5F044655
:104B10000D4616463046F11706EB1171C1F3071129
:104B2000F24A11700020F349087004E1F149097854
:104B300005EB0111605CFBF7BEFB42F2107100FB5C
:104B400001FBEC4909786A1C02EB0111605CFBF780
:104B5000B2FB00EB4001C1EBC0100BEBC00BE54911
:104B60000978AA1C02EB0111605CFBF7A4FB00EBC7
:104B7000C00101EB00100BEB800BDE490978EA1C49
:104B800002EB0111605CFBF796FB00EB80000BEB86
:104B9000400BD84909782A1D02EB0111605CFBF734
:104BA0008AFB58441FFA80F9D2480078691D01EB4E
:104BB0000010205C0190CF480078A91D01EB001087
:104BC000275CCC49097805F1080202EB0111605C11
:104BD000FBF771FB8346C7490978EA1D02EB011117
:104BE000605CFBF768FB00EB80000BEB4008C14901
:104BF000097805F10B0202EB0111605CFBF75BFB2E
:104C00008346BC49097805F1090202EB0111605C99
:104C1000FBF751FB00EB80000BEB40000090B54927
:104C2000097805F10B0202EB0111605CFBF743FB15
:104C300042F2107100FB01FBAE49097805F10C024C
:104C400002EB0111605CFBF736FB00EB4001C1EBAE
:104C5000C0100BEBC00BA749097805F10D0202EB60
:104C60000111605CFBF727FB00EBC00101EB0010BA
:104C70000BEB800B9F49097805F10E0202EB011145
:104C8000605CFBF718FB00EB80000BEB400B9949D5
:104C9000097805F10F0202EB0111605CFBF70BFBD9
:104CA00058441FFA80FA0198313814283DD2DFE8C1
:104CB00000F00A10161C22282F33343C3C3C3C3CAC
:104CC0003C3C38393A3B41463846009AFCF740FEB6
:104CD0002BE041463846009AFCF768FE25E0414645
:104CE0003846009AFCF77FFE1FE041463846009A9E
:104CF000FCF79CFE19E041463846009AFCF7B9FEE5
:104D000013E05346424639464846FCF721FF0CE083
:104D10003846FCF7E4FF08E007E03846FDF7E9F81D
:104D200003E002E001E000E000BF00BF714800784E
:104D3000401C704908706D48007800287FF4F6AE7A
:104D40006B490870BDE8FC9F2DE9FC5F04460D46E9
:104D500016463046F11706EB1171C1F30711634A8D
:104D600011700020644908700FE16349097805EB70
:104D70000111605CFBF79FFA42F2107100FB01FB2E
:104D80005D4909786A1C02EB0111605CFBF793FA3C
:104D900000EB4001C1EBC0100BEBC00B564909788A
:104DA000AA1C02EB0111605CFBF785FA00EBC00165
:104DB00001EB00100BEB800B4F490978EA1C02EB6A
:104DC0000111605CFBF777FA00EB80000BEB400B06
:104DD000494909782A1D02EB0111605CFBF76BFA67
:104DE00058441FFA80F944480078691D01EB00100F
:104DF000205C019040480078A91D01EB0010275C61
:104E00003D49097805F1080202EB0111605CFBF7EE
:104E100052FA834638490978EA1D02EB0111605CB9
:104E2000FBF749FA00EB80000BEB400832490978A8
:104E300005F10B0202EB0111605CFBF73CFA8346C3
:104E40002D49097805F1090202EB0111605CFBF7BD
:104E500032FA00EB80000BEB400000902649097805
:104E600005F10B0202EB0111605CFBF724FA42F240
:104E7000107100FB01FB2049097805F10C0202EBDF
:104E80000111605CFBF717FA00EB4001C1EBC010A9
:104E90000BEBC00B1849097805F10D0202EB01116B
:104EA000605CFBF708FA00EBC00101EB00100BEBB4
:104EB000800B1149097805F10E0202EB0111605CCB
:104EC000FBF7F9F900EB80000BEB400B0A4909787E
:104ED00005F10F0202EB0111605CFBF7ECF958449D
:104EE0001FFA80FA019809E0810100206601002084
:104EF0009200002082010020830100203138142814
:104F00003DD2DFE800F00A10161C22282F33343C73
:104F10003C3C3C3C3C3C38393A3B41463846009AA4
:104F2000FCF716FD2BE041463846009AFCF73EFDA3
:104F300025E041463846009AFCF755FD1FE0414602
:104F40003846009AFCF772FD19E041463846009A4F
:104F5000FCF78FFD13E05346424639464846FCF7BE
:104F6000F7FD0CE03846FCF7BAFE08E007E03846EB
:104F7000FCF7BFFF03E002E001E000E000BF00BF7C
:104F800060480078401C5F4908705F48007800283E
:104F90007FF4EBAE5D490870BDE8FC9F10B5044698
:104FA000152C13D2DFE804F0AB0B131B232B333B80
:104FB000434B535B636B737B838B939BA30054487E
:104FC0000288544801885448FDF700F997E0534897
:104FD0000288534801885048FDF729FA8FE051486C
:104FE0000288514801884C48FDF740FB87E04F4854
:104FF00002884F4801884848FDF762FC7FE04D4831
:1050000002884D4801884448FDF782FD77E04B480F
:1050100002884B4801884048FDF799FE6FE04948F7
:105020000288494801883C48FDF7B9FF67E04748D6
:105030000288474801883848FEF7D0F85FE04548C5
:105040000288454801883448FEF7F2F957E04348A2
:105050000288434801883048FEF709FB4FE0414889
:105060000288414801882C48FEF72BFC47E03F4866
:1050700002883F4801882848FEF742FD3FE03D484E
:1050800002883D4801882448FEF764FE37E03B482B
:1050900002883B4801882048FEF77BFF2FE0394813
:1050A0000288394801881C48FFF79DF827E03748F7
:1050B0000288374801881848FFF7B4F91FE03548DF
:1050C0000288354801881448FFF7D6FA17E03348BC
:1050D0000288334801881048FFF7EDFB0FE03148A4
:1050E0000288314801880C48FFF70FFD07E02F4880
:1050F00002882F4801880848FFF726FE00BF00BF3E
:1051000010BD0000830100206601002092000020F5
:105110000800002006000020047800200C00002079
:105120000A000020100000200E00002014000020C3
:105130001200002018000020160000201C00002093
:105140001A000020200000201E0000202400002063
:105150002200002028000020260000202C00002033
:105160002A000020300000202E0000203400002003
:105170003200002038000020360000203C000020D3
:105180003A000020400000203E00002044000020A3
:105190004200002048000020460000204C00002073
:1051A0004A000020500000204E0000205400002043
:1051B0005200002070B505460C4615B1012D66D190
:1051C00032E0002C12DA0120DA4908600020DA49C6
:1051D000C1F8A001D749091F0860604204B2C4F5B4
:1051E000347081B2D54806F069FE1CE0002C11DD58
:1051F0000120D04908600020CF49C1F8A00101205A
:10520000CC49091F0860C4F5347081B2CB4806F060
:1052100055FE08E00020C7490860C4F5347081B22B
:10522000C64806F049FE33E0002C13DA0120C449D9
:1052300008600020C349C1F884010120BD49103134
:105240000860604204B2C4F5347081B2BB4806F015
:1052500033FE1BE0002C10DD0120B949086000205E
:10526000B849C1F88401B34910310860C4F53470FD
:1052700081B2B24806F020FE08E00020B049086084
:10528000C4F5347081B2AD4806F016FE00E000BFF0
:1052900000BF70BD2DE9F04F89B00446AA480068F0
:1052A0000068A0EB0409A8490968486A07F0B9FC3E
:1052B0000546A54800688769C3693A46284607F04D
:1052C000C1FBCDE90401A0490968086A07F0A9FCFF
:1052D00007469D480068056943692A46384607F035
:1052E000B1FBCDE90001484607F09BFC0746884624
:1052F000954801688D68CB682A463846414607F0D4
:10530000A1FB8246DDE9002307F096FBCDE902010F
:10531000DDE9042307F0EFFACDE9060107F0CCFC44
:10532000089089480068006A874909684862864889
:105330000068C0F82090089809B0BDE8F08F7CB5EF
:1053400004460D46002001900090804800680190BE
:1053500000207E4908607C480068046008460068B8
:10536000FFF798FF00907A48B0F9000000990844D0
:10537000784908600846008801B20020FFF71AFF4C
:105380007CBD7CB504460D4600200190009072481B
:10539000006801906C48006804606F480068FFF77F
:1053A00079FF00906D48B0F90000009908446C49FD
:1053B00008600846008801B20120FFF7FBFE7CBDB3
:1053C00000206149096808625F4909684862002154
:1053D00064485D4A12689160D060634963485A4AE4
:1053E0001268116150616248574A12689161D06138
:1053F0007047C0F5347108B2704710B504463821C3
:10540000204607F086F9E22060731E2020730120F9
:10541000A07710BD017070470161426183617047E0
:105420002DE9F04F85B004460F4600250026A8461A
:1054300094F90000C51BA0682844A060207F281AAA
:1054400040B2E07794F91C00022101FB1050617F0B
:10545000084440B284F8200068B284F8210094F92E
:105460001F00002802DD4FF0010805E094F91F003D
:10547000002801DA4FF0FF38002D02DDB8F1000FEF
:1054800004DB002D05DAB8F1000F02DD0020A07763
:1054900001E00120A07794F9200007F0B4FB8346D7
:1054A000A16907F0B8F9049094F9210007F0ABFB6B
:1054B000029094F91E0007F0A6FB0090616907F0C6
:1054C000AAF90190029907F0A6F9039094F91F0038
:1054D00007F099FB0290216907F09DF98346039933
:1054E00007F041F98246049907F03DF9814607F03B
:1054F000B6FB06466662A06AB04201DAA66203E025
:10550000E06AB04200DDE662207F607768B2207713
:10551000206B30446063606B2063304605B0BDE8AB
:10552000F08F70B504460D4629462046FFF778FFF8
:1055300070BD00009481214200802142000400409F
:1055400080012342000023428C0100202001002022
:10555000F80000209C01002024010020FA00002017
:10556000A00100200000F8BF9A9999999999E93F04
:105570009999D93F2DE9F0478246504607F062FBE2
:10558000804642460B460020414907F0CDFA0646C8
:105590000022404B07F056FA044607F0ACFB80B2FD
:1055A000BDE8F087F0B50246002300250020002466
:1055B000002100BF384E3678384F3F783E44384F90
:1055C0003F783E44344FFF7B3E44102E20D01DE0F8
:1055D000314EF65C1EB90125661CF4B205E015B922
:1055E0004E1CF1B201E0461CF0B22B4EF65CC6F147
:1055F00001062C4FFF56DFF8B0C0BCF900C006FB17
:1056000007C636B2284F3E805E1CF3B2102BDFD1A6
:10561000254EB6F90060002E06DD0026234F3E70B1
:105620000126234F3E7010E01F4EB6F90060002E99
:1056300006DA01261D4F3E7000261D4F3E7004E025
:1056400000261A4F3E701A4F3E701A4E30701A4E96
:1056500031701A4E347088420CDD461A02EB460651
:1056600036B2174F3E80461AA2EB460636B2154FA9
:105670003E800BE00E1A02EB460636B2114F3E801A
:105680000E1AA2EB460636B20D4F3E80F0BD00006A
:105690000000F03F0088C340C40200206E000020DC
:1056A0006F000020B4010020AE010020A601002000
:1056B000A7010020A8010020AA010020A9010020C4
:1056C000F8000020FA00002010B500F084F800F087
:1056D00063F810BD2DE9F04105460026002700249F
:1056E00000F092F8691CC8B200F01DF900F0AEF8A5
:1056F000012000F045F90646002000F041F9074678
:1057000000F04AF834464FF6FF7000EA0424E0192E
:1057100084B22046BDE8F08170B505460C4600F025
:1057200073F8284600F0FFF800F090F8204600F0EB
:10573000FAF800F08BF800F02FF870BD10B50446B1
:1057400000F062F8782000F0EEF800F07FF82046D4
:1057500000F0E9F800F07AF800F01EF810BD70B51E
:105760000025002600F050F8792000F0DCF800F069
:105770006DF8012000F004F90546002000F000F962
:10578000064600F009F82C464FF6FF7000EA0424A4
:10579000A01984B2204670BD10B59248006820F46C
:1057A0007040904908600846006840F44050086026
:1057B00000208D4908608D49C1F88C01042004F057
:1057C000F0F90120884908608849C1F88C0104205B
:1057D00004F0E7F910BD08B50121102005F040FCE8
:1057E0000C20ADF8000010208DF8030003208DF888
:1057F000020069467B4805F077F90C21794805F0ED
:1058000020FAFFF7C9FF08BD10B57648006820F4FC
:105810007040744908600846006840F440500860D1
:1058200001207149091D08607049C1F888010420F0
:1058300004F0B7F900206C49091D0860042004F049
:10584000B0F900206949C1F8880110BD10B50024E5
:105850006448006820F470406249086008460068A7
:1058600040F40040086001205F49091D086004F011
:1058700098F901205D49C1F8880104F092F907E028
:10588000601CC4B2FA2C03DDFFF786FF012010BDB7
:1058900055487C3800680028F2D15349086000BFA1
:1058A000F5E710B50020504908604E48006820F424
:1058B00070404C4908600846006840F44050086059
:1058C00000204A49C1F88C01022004F06AF9012045
:1058D00045490860022004F064F900204349C1F8FA
:1058E000880110BD10B500203F4908603D480068A0
:1058F00020F470403B4908600846006840F440507E
:10590000086001203949C1F88C01022004F049F9EE
:10591000012035490860022004F043F90020334992
:10592000C1F8880110BD70B504462E48006820F407
:1059300070402C4908600846006840F440500860F8
:10594000002029490860002517E0E0092649091DC3
:1059500008606006040E022004F023F901202349A8
:10596000C1F88801022004F01CF900201E490860DB
:10597000022004F016F9681CC5B2082DE5DB70BDE5
:1059800070B5054600241748006820F4704015499A
:1059900008600846006840F400400860002616E0F1
:1059A000002011490860022004F0FBF801200F4993
:1059B000C1F888016006040E0B487C38006808B105
:1059C000601CC4B2012004F0ECF8701CC6B2082EB2
:1059D000E6DB15B9FFF786FF01E0FFF762FF20461F
:1059E00070BD0000001001408801224200002242E8
:1059F00008B50121682005F033FB4FF47040ADF885
:105A0000000048208DF803006946C84805F06CF88E
:105A10004FF47F40ADF8000048208DF80300694640
:105A2000C34805F061F84FF68070ADF800004820DB
:105A30008DF803006946BF4805F056F808BD70B5FB
:105A40000024BB4805F0ECF800F47F45B74805F0AA
:105A5000E7F800F4704045EA2025B64805F0E0F884
:105A600045EA1034B4480480204670BD70B5034642
:105A700000240022002500BF06E0985CAF4E305C99
:105A8000204444B2501CC2B28A42F6DB94FBF1F0CF
:105A900040B2AB4E3070012070BDFFB50446002609
:105AA0000025002700200090019002900390A44957
:105AB00008704FF6FF70844202D1002004B0F0BDA0
:105AC000A048048000250CE00120A840204030B907
:105AD0003846791CCFB20DF80050701CC6B2681C55
